:020000040800F2
:10000000384E00200D020008873C0008F92E000839
:10001000833C000899100008C93F00080000000058
:10002000000000000000000000000000593F000830
:10003000EB10000800000000893C000825020008C1
:1000400027020008270200082702000827020008EC
:1000500027020008270200082702000827020008DC
:1000600027020008270200082702000827020008CC
:1000700027020008270200082702000827020008BC
:1000800027020008270200082702000827020008AC
:10009000C13F0008270200082702000827020008C5
:1000A000270200082702000827020008270200088C
:1000B000270200082702000827020008270200087C
:1000C000270200082702000827020008270200086C
:1000D000270200082702000827020008270200085C
:1000E000270200082702000827020008270200084C
:1000F000270200082702000827020008270200083C
:10010000270200082702000827020008270200082B
:10011000270200082702000827020008270200081B
:10012000270200082702000827020008270200080B
:1001300000F002F800F05AF80AA090E8000C82449F
:100140008344AAF10107DA4501D100F04FF8AFF27C
:10015000090EBAE80F0013F0010F18BFFB1A43F0A5
:1001600001031847DCAE0000FCAE00000A444FF06B
:10017000000C10F8013B13F0070408BF10F8014B06
:100180001D1108BF10F8015B641E05D010F8016B4B
:10019000641E01F8016BF9D113F0080F1EBF10F8AF
:1001A000014BAD1C0C1B09D16D1E58BF01F801CBD2
:1001B000FAD505E014F8016B01F8016B6D1EF9D555
:1001C0009142D6D37047000000230024002500266A
:1001D000103A28BF78C1FBD8520728BF30C148BFAA
:1001E0000B6070471FB51FBD10B510BD00F0AAF819
:1001F0001146FFF7F7FF06F037F900F0C8F803B42F
:10020000FFF7F2FF03BC00F0CBF80000094880477D
:1002100009480047FEE7FEE7FEE7FEE7FEE7FEE7E8
:10022000FEE7FEE7FEE7FEE704480549054A064B00
:10023000704700005D3F000831010008B84200200F
:10024000384E0020C8420020C8420020421E12F84A
:10025000013F002BFBD111F8013B002B02F8013BC1
:10026000F9D1704710B5203AC0F00B80B1E81850B2
:10027000203AA0E81850B1E81850A0E81850BFF490
:10028000F5AF5FEA027C24BFB1E81850A0E818502F
:1002900044BF18C918C0BDE810405FEA827C24BF83
:1002A00051F8043B40F8043B08BF7047D20728BF11
:1002B00031F8023B48BF11F8012B28BF20F8023B60
:1002C00048BF00F8012B70474FF0000200B51346FD
:1002D00094469646203922BFA0E80C50A0E80C5066
:1002E000B1F12001BFF4F7AF090728BFA0E80C5017
:1002F00048BF0CC05DF804EB890028BF40F8042B10
:1003000008BF704748BF20F8022B11F0804F18BF7C
:1003100000F8012B704770477047704710B500F028
:1003200009F8006810BD10B5044600F003F8046039
:1003300010BD00000048704754420020004870473C
:10034000544200207546FFF7F9FFAE4605006946A6
:10035000534620F00700854618B020B5FFF764FF2C
:10036000BDE820404FF000064FF000074FF00008B6
:100370004FF0000B21F00701AC46ACE8C009ACE837
:10038000C009ACE8C009ACE8C0098D46704710B59B
:100390000446AFF300802046BDE81040FFF72FBFB2
:1003A00001491820ABBEFEE726000200704700009E
:1003B0000FB5ABB02B98B0F882061390DDE92B0196
:1003C00003F0D8FA2990DDE92B0103F057FA2890C1
:1003D000FE49289809F04CFC0D9009F01DFC002204
:1003E000FB4BCDE90E0106F07FFACDE9100108F0D4
:1003F00057FE2790F5492E9809F03AFC0D9009F028
:100400000BFC0022F24BCDE90E0106F06DFACDE9AE
:10041000100108F045FE2690DDE9260109F0FCFEFA
:1004200011902D9909F092FC1290269909F0E9FE9D
:1004300025902C98C06AE749109009F0E5FD4FF02F
:100440007E51119009F014FC014612904FF07E503D
:1004500009F07CFC15904FF07E5016902C98B0F966
:100460004000109009F070FD11902C98406B0146EF
:100470001090119809F0C8FD4FF07E51129009F0CC
:10048000F7FB17902C98B0F94210B0F94000081A09
:100490000F9009F059FD10902C98806B01460F9039
:1004A000109809F0B1FD4FF07E51119009F0E0FB7A
:1004B0001290179801461190129809F0A5FD189016
:1004C0002B98B0F81406129009F056FD2490C249FA
:1004D000249809F065FE05D24FF08F41249809F069
:1004E0009BFE24902C98B0F91400119009F02CFD7B
:1004F0001290249909F02AFC24902B98B0F88006D9
:1005000000F4805040111F902B98B0F81006129004
:1005100009F032FD22902B98B0F85006129009F0A5
:100520002BFD23900020129024E022A9129851F86C
:100530002000A949119009F033FE0CD222A912988B
:1005400051F820004FF08F41119009F065FE22AA6A
:10055000129942F8210022A9129851F82000119016
:10056000249909F051FD22AA129942F8210012980B
:10057000401C129012980228D7DB9849299809F05C
:100580004BFE0E902C98C06901460D900E9809F014
:100590003BFD4FF07E510F9009F06AFB904911909E
:1005A000289809F039FE0C902C98006A01460B90AF
:1005B0000C9809F029FD4FF07E510D9009F058FB81
:1005C0000F902C9800F50050B0F94C0A0D9009F0EE
:1005D000BBFC0E900F9909F017FD1090119909F0CE
:1005E00013FD1290229801461190129809F009FE0D
:1005F00022902C9890F825101F9881423DD1774980
:10060000299809F009FE0E902C98C06901460D90BA
:100610000E9809F0F9FC4FF07E510F9009F028FB7D
:100620006F491190289809F0F7FD0C902C98006AFA
:1006300001460B900C9809F0E7FC4FF07E510D90AD
:1006400009F016FB0F9042F64C212C980844B0F9A3
:1006500002000D9009F078FC0E900F9909F0D4FC7F
:100660001090119909F0D0FC129023980146119036
:10067000129809F0C6FD239047E05849299809F0DF
:10068000CBFD0E902C98C06901460D900E9809F094
:10069000BBFC4FF07E510F9009F0EAFA50491190DF
:1006A000289809F0B9FD0C902C98006A01460B902F
:1006B0000C9809F0A9FC4FF07E510D9009F0D8FA82
:1006C0000F9042F64C212C980844B0F902000C908F
:1006D00009F03AFC0D902C9800F50050D0F8500A23
:1006E00001460C900D9809F0C3FA0E900F9909F08D
:1006F0008BFC1090119909F087FC12902398014609
:100700001190129809F07DFD23900020129026E2AE
:100710001298C117109000EBD16041111298C217C6
:10072000119000EB92608011A1EB400040B21E904E
:100730001298119000EBD07041101298A0EB41017B
:100740001E98414048B21D901298801CC1170E900F
:1007500000EB917081101298C01CC2170F9000EB33
:100760009270A1EBA0011298401CC217109000EBF0
:10077000927001EBA0011298C217119000EB9270D9
:10078000A1EBA0011E984000C0F10100414348B216
:100790001B901F9810B91E981C9001E01D981C908A
:1007A0002B98B0F882161C9881427DD112992B9813
:1007B00030F81100119009F0DFFB219006492198D3
:1007C00009F0EEFC12D24FF08F410BE033938843D7
:1007D000000010400000204200FEFF46333353402B
:1007E0000000C841219809F017FD21902499219813
:1007F00009F00AFC2190DD49299809F00DFD0D90C2
:1008000041F644612C980144129851F820000146A9
:100810000C900D9809F0F8FB4FF07E510E9009F006
:1008200027FAD3491090289809F0F6FC0B9041F272
:1008300044212C980144129851F8200001460A9056
:100840000B9809F0E1FB4FF07E510C9009F010FA83
:100850000E902C9800F64440129930F911000C903B
:1008600009F072FB0D900E9909F0CEFB0F901099D4
:1008700009F0CAFB1190219909F0C3FC21902C9832
:1008800090F825101F9881422AD01B9809F05CFB34
:100890000F9042F650212C980844406801460E9073
:1008A0000F9809F0B1FB00E056E111901E9840004E
:1008B000401E0D9009F048FB0E9042F650212C98F6
:1008C0000844806801460D900E9809F09DFB0F903A
:1008D000219909F0CDF91090119909F09DFC219012
:1008E0002D99219809F032FA219022A9139851F8F4
:1008F000200010902C9880690F90109909F084FBCB
:100900001190219909F07DFC21909949289809F0CE
:1009100083FC0E902C98806A01460D900E9809F089
:1009200073FB4FF07E510F9009F0A2F9119042F63F
:1009300044212C980144139851F820000E902C98D3
:1009400080690D900E9909F05FFB0F902C98443050
:10095000129950F8210001460E900F9809F051FCB1
:100960001090119909F050FB20902599209809F0DA
:100970004BFB0A90219909F07BF90B9009F04CF997
:10098000CDE90E01209809F047F90022794BCDE915
:100990000A0105F0A9FFCDE90C01DDE90E2308F0FD
:1009A0002BFECDE9100108F07BFB1A902C98006B10
:1009B0000B9009F031F9CDE90E011A9809F02CF9E4
:1009C000CDE9080107F011F8CDE90A0107F00DF8AB
:1009D000CDE90C01DDE90E2308F00EFECDE9100192
:1009E00008F05EFB1A902C98006B6349039009F0A5
:1009F0000BFB4FF07E51049009F003FC0590209909
:100A000009F002FB06901A9909F032F901460790A5
:100A1000219809F09BF90890259909F029F9099086
:100A200009F0FAF8CDE90A0106F0DFFFCDE90C0183
:100A300006F0DBFF4FF0C042504BCDE90E0109F04C
:100A400001F8CDE9100108F02BFB19902C98B0F9B2
:100A50003E00109009F078FA1190199909F0A0FB66
:100A600002D2002014901DE02C98B0F940001090A4
:100A700009F06AFA1190199909F092FB02D201204B
:100A800014900FE02C98B0F94200109009F05CFA35
:100A90001190199909F084FB02D20220149001E010
:100AA000032014902C983C30149930F911000190D7
:100AB00009F04AFA0290199909F0A3FB03902C98C7
:100AC0002C30149950F8210001460290039809F047
:100AD0009BFA4FF07E51049009F0CAF815A90690D0
:100AE000149851F8200001460490209809F08CFADF
:100AF0000590069909F088FA01460790219809F0B7
:100B000025F90890259909F0B3F8099009F084F8BF
:100B1000CDE90A0106F069FFCDE90C0106F065FF99
:100B20004FF06632154BCDE90E0108F08BFFCDE991
:100B3000100108F0B5FA19901149199809F064FAF2
:100B40001049109009F094F8119009F0DDF982B283
:100B50001299309820F811201298401C1290129887
:100B6000B0F5407FFFF6D4AD2FB000BD3333534016
:100B70000000C8410000084033938843661271406A
:100B8000000020410000C84300B587B040F2026079
:100B900006F04AFE40F2096006F046FE4FF4A060FF
:100BA00006F042FE032006F007FE03231A4600214A
:100BB0003B4804F031FF00213A4804F0F3F83A488A
:100BC000009000208DF818003848029001208DF820
:100BD0001900000201908000039000208DF81A0097
:100BE00002200490000305906A4600212D4804F07D
:100BF00011F900212B4804F0BCF80021294804F029
:100C00009FF829484C3803F0B5FA002003F024FB84
:100C10000122110224484C3803F091FB01220221E9
:100C200021484C3803F08BFB00211F484C3803F05F
:100C300095FA022201211C484C3803F06CFA052376
:100C40000022114618484C3803F014FB05230122FA
:100C5000114615484C3803F00DFB4FF4602201217A
:100C600011484C3803F0DFFA012211460E484C3887
:100C700003F0BAFA0C484C3803F0ADFA012003F047
:100C800083FE09484C3803F031FA07484C3803F02A
:100C90009DFA012104484C3803F042FB07B000BD27
:100CA00000080140000002404C240140B000002038
:100CB000F0B504460D46059E28460DE0214608E0A5
:100CC00000EB800701EB8717DFF814C00CF8076012
:100CD000491C9142F4D9401C9842EFD9F0BD000064
:100CE000A40100202DE9F84306460F461446984615
:100CF000089D002C08DA644243462D2239463046CE
:100D0000009500F077F80836642C30DB642094FB03
:100D1000F0F0303000F0FF0943464A46394630468D
:100D2000009500F067F80A2094FBF0F00A2190FB90
:100D3000F1F201FB1200303000F0FF0943464A4651
:100D4000394606F10800009500F054F80A2094FB9B
:100D5000F0F100FB1140303000F0FF0943464A46F5
:100D6000394606F11000009500F044F828E00A2CFE
:100D70001DDB0A2094FBF0F0303000F0FF09434601
:100D80004A4639463046009500F034F80A2094FB74
:100D9000F0F100FB1140303000F0FF0943464A46B5
:100DA000394606F10800009500F024F808E004F147
:100DB0003000C2B2434639463046009500F01AF87A
:100DC000BDE8F8832DE9F84105460E4614461F4656
:100DD000DDF81C8009E0CDF8008022783B463146E2
:100DE000284600F007F80835641C20780028F2D166
:100DF000BDE8F8812DE9F04705460E461F46DDF8AF
:100E000020C0A2F1200808F0FF02BCF1000F28D199
:100E1000002123E0134601EB0313DFF89C8018F850
:100E20000340002017E04FF0800848FA00F808EA75
:100E300004084FF0800949FA00F9C8450AD101EBCE
:100E4000060909EB890905EB89198144DFF86CA0D3
:100E50000AF80970401C0828E5D3491C0829D9D391
:100E600028E0082124E0134601EB0313DFF8488053
:100E700018F80340002018E04FF0800848FA00F806
:100E800008EA04094FF0800848FA00F8C1450BD180
:100E9000A1F10808B04408EB880805EB88188044E5
:100EA000DFF818A00AF80870401C0828E4D3491C91
:100EB0001029D8D3BDE8F08742A60008A40100207D
:100EC0002DE9F84306460F4615469846089C002D26
:100ED00009DA684205B243462D223946304600946D
:100EE000FFF788FF0836B5F57A7F4CDB4FF47A7050
:100EF00095FBF0F0303000F0FF0943464A46394692
:100F000030460094FFF776FF0836642095FBF0F03A
:100F10000A2190FBF1F201FB1200303000F0FF09D2
:100F200043464A46394630460094FFF763FF083689
:100F3000642095FBF0F100FB11500A2190FBF1F0C9
:100F4000303000F0FF0943464A46394630460094A7
:100F5000FFF750FF083643462E22394630460094AC
:100F6000FFF748FF08360A2095FBF0F100FB11500F
:100F7000303000F0FF0943464A4639463046009477
:100F8000FFF738FF7BE0642D38DB642095FBF0F041
:100F9000303000F0FF0943464A4639463046009457
:100FA000FFF728FF08360A2095FBF0F00A2190FB96
:100FB000F1F201FB1200303000F0FF0943464A46CF
:100FC000394630460094FFF715FF083643462E2277
:100FD000394630460094FFF70DFF08360A2095FB8E
:100FE000F0F100FB1150303000F0FF0943464A4653
:100FF000394630460094FFF7FDFE40E00A2D25DB20
:101000000A2095FBF0F0303000F0FF0943464A46D5
:10101000394630460094FFF7EDFE083643462E224F
:10102000394630460094FFF7E5FE08360A2095FB66
:10103000F0F100FB1150303000F0FF0943464A4602
:10104000394630460094FFF7D5FE18E0434630227B
:10105000394630460094FFF7CDFE083643462E222F
:10106000394630460094FFF7C5FE083605F13000DA
:10107000C2B24346394630460094FFF7BBFE0836FD
:10108000434604A2394630460094FFF79BFEBDE874
:10109000F88300002743000000BFFEE702460B462E
:1010A000D11A11F1220F05DD11F11E0F02DA6FF0D6
:1010B0000500704711F1020F04DD022902DA6FF01A
:1010C0000500F6E71E2904DD222902DA6FF005008B
:1010D000EFE70020EDE70146087D00F040020AB985
:1010E000002070476FF00600FBE77047002101E029
:1010F0004A1C91B28142FBDB7047002107E00022CD
:1011000001E0531C9AB2142AFBDB4B1C99B28142BA
:10111000F5DB704738B5FE2009234FF493720021A8
:1011200000901046FFF7C4FDFE2009234FF49C7287
:10113000002100901046FFF7BBFDFE2000234FF476
:101140009C72194600904FF49370FFF7B1FDFE209A
:1011500009234FF49C72194600904FF49370FFF7E7
:10116000A7FDFE20062340F2231203210090104623
:10117000FFF79EFDFE2006234FF49272032100909C
:101180001046FFF795FDFE20062340F225120321AD
:1011900000901046FFF78CFD4FF40051224804F0F8
:1011A00091FCA8B3FF20082340F2371201210090E0
:1011B00040F22710FFF77CFD1C4800884FF4257192
:1011C0004843051340F21B20854201DA054604E03E
:1011D00040F28220854200DD0546A5F21B20C0EBCF
:1011E0000010672190FBF1F085B200240DE0FE2095
:1011F000C4F59B718AB2C4F59B71009088B2072335
:101200000221FFF755FD601C84B2AC42EFDB0AE01F
:10121000FFE79020082340F237120121009040F2AE
:101220002710FFF745FD38BD00100140B000002039
:101230002DE9F04F8BB000200A9040F648500990FD
:10124000002417E0FE4830F814100A98814204DDAB
:10125000FB4830F814000A900794F94830F814104D
:101260000998814204DAF64830F81400099006948F
:10127000601C84B2B4F5407FE4DBDDE90910401A5C
:1012800040F6E21191FBF0F080B20890EF2340F2BB
:101290003F120021084602F003F90420E9490860E2
:1012A0000820091D08604FF0000900254FF0000AD2
:1012B000FAE04FEAA92BC9F30900ADF81200BDF816
:1012C0001200C0F5806080B2ADF8100009F1C400D2
:1012D0001FFA80F94FF0000800245BE04FEAA820D5
:1012E0000390C8F30900ADF81600BDF81600C0F56C
:1012F000806080B2ADF8140008F1C6001FFA80F8D3
:101300001F2000EB4B110398081A86B2CC4830F826
:101310001600BDF814104843BDF810104843C84AE1
:1013200006F1200132F81110BDF814205143BDF828
:10133000122001FB0201701EC14A32F81000BDF8F4
:1013400016205043BDF8102000FB0211BC4A06F1E4
:101350001F0032F81000BDF816205043BDF81220CF
:1013600000FB02104FF6FF7101EA20570998381A66
:10137000089948430A2190FBF1F087B22846691C7E
:101380008DB2B1490F542846691C8DB2AE490F5435
:10139000601C84B2102CA1DB002406E02846691CE6
:1013A0008DB2A9490C54601C84B2FE2CF6DB46F6C3
:1013B0009A688F245BE04FEAA8200390C8F30900E5
:1013C000ADF81600BDF81600C0F5806080B2ADF82B
:1013D000140008F1C6001FFA80F81F2000EB4B1123
:1013E0000398081A86B2964830F81600BDF8141013
:1013F0004843BDF810104843914A06F1200132F8E5
:101400001110BDF814205143BDF8122001FB020158
:10141000701E8B4A32F81000BDF816205043BDF8FC
:10142000102000FB0211864A06F11F0032F810005E
:10143000BDF816205043BDF8122000FB02104FF6F5
:10144000FF7101EA20570998381A089948430A2180
:1014500090FBF1F087B22846691C8DB27A490F548F
:101460002846691C8DB278490F54601C84B2A02CA8
:10147000A1DB002412E0A5F5A07073490A5C2846A0
:10148000691C8DB270490A54A5F5A0700A5C284603
:10149000691C8DB26C490A54601C84B2A02CEADB32
:1014A0000AF101001FFA80FABAF1050FFFF601AF49
:1014B000FFF730FE00240DE06348005D634931F81A
:1014C0001000634908604FF40040624948610861B8
:1014D000601C84B2AC42EFDB00258DE04FEAA92B03
:1014E000C9F30900ADF81200BDF81200C0F5806024
:1014F00080B2ADF8100009F1C4001FFA80F94FF076
:10150000000800245BE04FEAA8200390C8F309001C
:10151000ADF81600BDF81600C0F5806080B2ADF8D9
:10152000140008F1C6001FFA80F81F2000EB4B11D1
:101530000398081A86B2424830F81600BDF8141015
:101540004843BDF8101048433D4A06F1200132F8E7
:101550001110BDF814205143BDF8122001FB020107
:10156000701E374A32F81000BDF816205043BDF8FF
:10157000102000FB0211324A06F11F0032F8100061
:10158000BDF816205043BDF8122000FB02104FF6A4
:10159000FF7101EA20570998381A089948430A212F
:1015A00090FBF1F087B22846691C8DB226490F5492
:1015B0002846691C8DB224490F54601C84B2A02CAB
:1015C000A1DB002412E0A5F5A0701F490A5C2846A3
:1015D000691C8DB21C490A54A5F5A0700A5C284606
:1015E000691C8DB218490A54601C84B2A02CEADB35
:1015F0000AF101001FFA80FABAF10A0FFFF66EAF86
:101600000020FE2314A2022100900420FFF7DAFB41
:101610000020FE2312A2022100907820FFF7D2FBC7
:101620000020FE2310A202210090E620FFF7CAFB53
:10163000002000900998A0F5C87002B2FE2317E0C0
:10164000A411002010080140A4010020F2A300080A
:101650000C0C0140001001404D696E3A0000000082
:101660005664643A000000004D61783A00000000C2
:1016700002212420FFF724FCFD49FE48006808F001
:10168000C3FC019008F024FC00B202900020FE236D
:10169000009002219C20029AFFF712FC002000908B
:1016A0000A98A0F5C87002B2FE2302214FF483709D
:1016B000FFF706FC00240DE0EF48005DEF4931F82C
:1016C0001000EF4908604FF40040EE49486108619E
:1016D000601C84B2AC42EFDB00258DE04FEAA92B01
:1016E000C9F30900ADF81200BDF81200C0F5806022
:1016F00080B2ADF8100009F1C4001FFA80F94FF074
:10170000000800245BE04FEAA8200390C8F309001A
:10171000ADF81600BDF81600C0F5806080B2ADF8D7
:10172000140008F1C6001FFA80F81F2000EB4B11CF
:101730000398081A86B2D44830F81600BDF8141081
:101740004843BDF810104843CF4A06F1200132F853
:101750001110BDF814205143BDF8122001FB020105
:10176000701EC94A32F81000BDF816205043BDF86B
:10177000102000FB0211C44A06F11F0032F81000CD
:10178000BDF816205043BDF8122000FB02104FF6A2
:10179000FF7101EA20570998381A089948430A212D
:1017A00090FBF1F087B22846691C8DB2B2490F5404
:1017B0002846691C8DB2B0490F54601C84B2A02C1D
:1017C000A1DB002412E0A5F5A070AB490A5C284615
:1017D000691C8DB2A8490A54A5F5A0700A5C284678
:1017E000691C8DB2A4490A54601C84B2A02CEADBA7
:1017F0000AF101001FFA80FABAF10F0FFFF66EAF7F
:101800000120FE23AFF2B012002100900420FFF768
:10181000D9FA0120FE23AFF2B812002100907820FF
:10182000FFF7D0FA0120FE23AFF2C412002100908E
:10183000E620FFF7C7FA012000900998A0F5C870CC
:1018400002B2FE2300212420FFF73AFB8849894891
:10185000006808F0D9FB019008F03AFB00B2029052
:101860000120FE23009000219C20029AFFF728FB14
:10187000012000900A98A0F5C87002B2FE23002152
:101880004FF48370FFF71CFB00240DE07A48005DE5
:101890007A4931F810007A4908604FF400407949DC
:1018A00048610861601C84B2AC42EFDB96E04FEA0D
:1018B000A92BC9F30900ADF81200BDF81200C0F55C
:1018C000806080B2ADF8100009F1C4001FFA80F901
:1018D0004FF00008002463E04FEAA8200390C8F30B
:1018E0000900ADF81600BDF81600C0F5806080B2A2
:1018F000ADF8140008F1C6001FFA80F81F2000EBB5
:101900004B110398081A86B25F4830F81600BDF8EC
:1019100014104843BDF8101048435B4A06F12001FB
:1019200032F81110BDF814205143BDF8122001FB0C
:101930000201701E544A32F81000BDF816205043C0
:10194000BDF8102000FB02114F4A06F11F0032F8CB
:101950001000BDF816205043BDF8122000FB021005
:101960004FF6FF7101EA20570998381A0899484341
:101970000A2190FBF1F087B2404830F817603E49E9
:101980000F553F4806604FF400403E4948610861EA
:101990003B4806604FF4004048610861601C84B217
:1019A000A02C99DB002413E03348005D334931F863
:1019B0001060334806604FF40040324948610861C6
:1019C0002F4806604FF4004048610861601C84B2F3
:1019D000A02CE9DB0AF101001FFA80FABAF13A0FF4
:1019E000FFF665AF00259CE04FEAA92BC9F309007B
:1019F000ADF81200BDF81200C0F5806080B2ADF8FD
:101A0000100009F1C4001FFA80F94FF0000800240B
:101A10006AE04FEAA8200390C8F30900ADF8160069
:101A2000BDF81600C0F5806080B2ADF8140008F172
:101A3000C6001FFA80F81F2000EB4B110398081A0C
:101A400086B2114830F81600BDF814104843BDF8AE
:101A5000101048430C4A06F1200132F81110BDF86D
:101A600014205143BDF8122001FB0201701E0DE04D
:101A70000000204104000020A4010020F2A300087F
:101A80000C0C014000100140A4110020FA4A32F869
:101A90001000BDF816205043BDF8102000FB0211C5
:101AA000F54A06F11F0032F81000BDF81620504329
:101AB000BDF8122000FB02104FF6FF7101EA20571B
:101AC0000998381A089948430A2190FBF1F087B227
:101AD0002846691C8DB2E9490F542846691C8DB20D
:101AE000E6490F54601C84B2A02C92DB002412E063
:101AF000A5F5A070E1490A5C2846691C8DB2DF4952
:101B00000A54A5F5A0700A5C2846691C8DB2DB4911
:101B10000A54601C84B2A02CEADB0AF101001FFA0F
:101B200080FABAF13F0FFFF65FAFFF200523A52231
:101B3000194600909B20FFF7BBF8FF200923A02245
:101B4000002100901046FFF7B3F800240DE0CB48C9
:101B5000005DCB4931F81000CA4908604FF40040DD
:101B6000C94948610861601C84B2AC42EFDB96E071
:101B70004FEAA92BC9F30900ADF81200BDF8120015
:101B8000C0F5806080B2ADF8100009F1C4001FFA02
:101B900080F94FF00008002463E04FEAA82003908A
:101BA000C8F30900ADF81600BDF81600C0F5806056
:101BB00080B2ADF8140008F1C6001FFA80F81F20AB
:101BC00000EB4B110398081A86B2AB4830F81600A8
:101BD000BDF814104843BDF810104843A64A06F15A
:101BE000200132F81110BDF814205143BDF8122025
:101BF00001FB0201701EA04A32F81000BDF8162049
:101C00005043BDF8102000FB02119B4A06F11F0053
:101C100032F81000BDF816205043BDF8122000FB2A
:101C200002104FF6FF7101EA20570998381A0899F7
:101C300048430A2190FBF1F087B2914830F81760D1
:101C40008E490F558F4806604FF400408E49486119
:101C500008618C4806604FF4004048610861601CD0
:101C600084B2A02C99DB002413E08448005D8449F1
:101C700031F81060834806604FF4004082494861A3
:101C80000861804806604FF4004048610861601CAC
:101C900084B2A02CE9DB0AF101001FFA80FABAF144
:101CA0006E0FFFF665AF00258DE04FEAA92BC9F353
:101CB0000900ADF81200BDF81200C0F5806080B2D6
:101CC000ADF8100009F1C4001FFA80F94FF00008C8
:101CD00000245BE04FEAA8200390C8F30900ADF8A8
:101CE0001600BDF81600C0F5806080B2ADF8140093
:101CF00008F1C6001FFA80F81F2000EB4B11039873
:101D0000081A86B25C4830F81600BDF81410484333
:101D1000BDF810104843584A06F1200132F811105E
:101D2000BDF814205143BDF8122001FB0201701EC2
:101D3000514A32F81000BDF816205043BDF810206B
:101D400000FB02114C4A06F11F0032F81000BDF8EA
:101D500016205043BDF8122000FB02104FF6FF7111
:101D600001EA20570998381A089948430A2190FB3C
:101D7000F1F087B22846691C8DB240490F542846BD
:101D8000691C8DB23D490F54601C84B2A02CA1DBAC
:101D9000002412E0A5F5A07038490A5C2846691CA9
:101DA0008DB236490A54A5F5A0700A5C2846691C14
:101DB0008DB232490A54601C84B2A02CEADB0AF1CD
:101DC00001001FFA80FABAF1730FFFF66EAF002020
:101DD000FE232EA2022100900420FEF7F3FF2D49DE
:101DE0002D48006808F010F9019008F071F8029091
:101DF0000020FE23009002212420029AFEF772FFA9
:101E0000002000901C48B0F8E002A0F5C87002B2B3
:101E1000FE2302218C20FFF753F80020FE231FA28F
:101E200002210090F020FEF7CDFF1D491D480068FB
:101E300008F0EAF8019008F04BF800B20290002098
:101E4000FE23009002214FF48470029AFFF738F8C5
:101E500000240DE00948005D094931F810000949E6
:101E600008604FF40040084948610861601C84B272
:101E7000AC42EFDB0025A5E0A4110020A401002066
:101E8000F2A300080C0C014000100140653D302E0B
:101E9000000000000000C8420800002054613A0021
:101EA00000002041000000204FEAA92BC9F30900DF
:101EB000ADF81200BDF81200C0F5806080B2ADF838
:101EC000100009F1C4001FFA80F94FF00008002447
:101ED0005BE04FEAA8200390C8F30900ADF81600B4
:101EE000BDF81600C0F5806080B2ADF8140008F1AE
:101EF000C6001FFA80F81F2000EB4B110398081A48
:101F000086B28B4830F81600BDF814104843BDF86F
:101F100010104843864A06F1200132F81110BDF82E
:101F200014205143BDF8122001FB0201701E804AAB
:101F300032F81000BDF816205043BDF8102000FB09
:101F400002117B4A06F11F0032F81000BDF816207E
:101F50005043BDF8122000FB02104FF6FF7101EA5A
:101F600020570998381A089948430A2190FBF1F044
:101F700087B22846691C8DB26E490F542846691CE9
:101F80008DB26C490F54601C84B2A02CA1DB0024DC
:101F900012E0A5F5A07067490A5C2846691C8DB25D
:101FA00064490A54A5F5A0700A5C2846691C8DB2E4
:101FB00060490A54601C84B2A02CEADB0AF10100DB
:101FC0001FFA80FABAF1780FFFF66EAF0120FE23F8
:101FD000AFF24812002100900420FEF7F3FE5649AC
:101FE0005648006808F010F8019007F071FF029061
:101FF0000120FE23009000212420029AFEF772FEA9
:10200000012000904A48B0F8E002A0F5C87002B282
:10201000FE2300218C20FEF753FF0120FE23AFF2A8
:10202000841200210090F020FEF7CCFE4449454880
:10203000006807F0E9FF019007F04AFF00B2029044
:102040000120FE23009000214FF48470029AFEF7D5
:1020500037FF00240DE03748005D3B4931F81000A0
:102060003A4908604FF40040394948610861601CF2
:1020700084B2AC42EFDB07981F2828DD0798C11710
:1020800000EBD1614911A0EB4111324A515C4C0087
:102090000798C11700EBD16149112F4A515C4FEAF3
:1020A000410A4FF61F00E21DE11F009088B253461F
:1020B000514601F0D7F84FF61F000AF107030090D0
:1020C000AAF1070081B22246204601F0CBF806981B
:1020D0001F2828DD0698C11700EBD1614911A0EB3C
:1020E00041111C4A515C4C000698C11700EBD161AC
:1020F0004911194A515C4FEA410A4FF4FC60E21D54
:10210000E11F009088B25346514601F0ABF84FF4FE
:10211000FC600AF107030090AAF1070081B2224691
:10212000204601F09FF800200BB0BDE8F08F0000C2
:10213000A4110020A40100200000C84208000020D3
:102140000000204100000020F2A300080C0C014018
:1021500000100140F2A5000812A600082DE9F04F7A
:10216000C3B005460E46002415F8400F00F00F00DE
:1021700006902878C0F3031007902888C0F3032046
:10218000089028881E2101EB10300990B5F80290C4
:10219000403D002025E0840000F1220115F81110D7
:1021A00001F00F012AAA42F8241000F1220115F8CB
:1021B0001110C1F303122AAB611C43F8212000F176
:1021C000220135F81110C1F30322A11C43F821208C
:1021D00000F1220135F811100A0BE11C43F821200F
:1021E000401C0628D7DB00200CE02AA951F820105B
:1021F000072906DD2AA951F8201010392AAA42F829
:102200002010401C1828F0DB002025E0840000F19D
:10221000280115F8111001F00F010AAA42F8241044
:1022200000F1280115F81110C1F303120AAB611C6B
:1022300043F8212000F1280135F81110C1F30322E1
:10224000A11C43F8212000F1280135F811100A0BD8
:10225000E11C43F82120401C0828D7DB00200CE0BB
:102260000AA951F82010072906DD0AA951F8201003
:1022700010390AAA42F82010401C2028F0DB4FF049
:10228000000A78E04FF0000B70E0202000FB0AB459
:1022900004F1400135F81110C1F3051007F054FEA8
:1022A00006F1440141F8240051F82400354907F0B3
:1022B00077FF0BD206F1440151F824004FF085411D
:1022C00007F0AAFF06F1440141F824000122069913
:1022D00002FA01F007F038FE074606F1440050F814
:1022E0002410384607F090FE06F1440141F824001E
:1022F0002AA951F82A10089A914001EB09030AA96A
:1023000051F82B10079A9140581807F01DFE074608
:1023100006F1440050F82410384607F0A9FC06F1F5
:10232000440141F82400099807F017F902460B46CA
:10233000CDE9000100204FF0804104F0D5FACDE94D
:10234000020106F1440151F8240007F065FC07463C
:10235000DDE9022306F092FFCDE9040106F0A0FEBC
:1023600006F1440141F824000BF1010BBBF1200FF1
:102370008BDB0AF1010ABAF1180F83DB43B0BDE829
:10238000F08F00000000F841FEB504460D46A08A1B
:1023900000F40060061186F0800694F86A1001F0DF
:1023A0003F0007F0D1FD00902849009807F0F8FEA3
:1023B00005D24FF08541009807F02EFF00904FF0B6
:1023C0008341009807F0C2FC0090B4F86A10C1F392
:1023D000841007F0B9FD01901D49019807F0E0FE57
:1023E00005D24FF08441019807F016FF01904FF09D
:1023F0008041019807F0AAFC0190B4F86A10C80A5D
:1024000007F0A2FD02901249029807F0C9FE05D21A
:102410004FF08441029807F0FFFE02904FF0824196
:10242000029807F093FC029085F8256042F6502050
:102430000099415142F6502129440198486042F6E2
:102440005021294402988860FEBD00000000F84138
:10245000000070412DE9F04F8BB004460D46B4F8F2
:1024600040001B2101EB10300490B4F87400C0F35D
:102470000900ADF81C00BDF91C00B0F5007F06DBBB
:10248000BDF81C00A0F5806000B2ADF81C00B4F8E7
:102490007400800AADF81E00BDF91E001F2805DD7E
:1024A000BDF81E00403800B2ADF81E00BDF81E0099
:1024B000BDF81C10084400B2ADF81E00B4F872104C
:1024C000C1F3090007F040FD08905E49089807F045
:1024D00067FE05D24FF08941089807F09DFE0890ED
:1024E000049807F03AF802460B46CDE900010020B7
:1024F0004FF0804104F0F8F9CDE90201089807F0A7
:102500008BFB0746DDE9022306F0B8FE824606F0A3
:10251000C7FD0890B4F87210880A07F015FD0990FD
:102520004949099807F03CFE05D24FF085410998CA
:1025300007F072FE09904FF08641099807F006FCFB
:1025400080464FF07E5107F093FB0746089907F04D
:102550005BFD099094F8760007F0F6FC05903B4986
:10256000059807F01DFE05D24FF08741059807F04A
:1025700053FE059094F87000C0F3031000F10806B4
:10258000304606F0EAFF824652460B4600204FF0E6
:10259000804104F0A9F9CDE90001059807F03CFB62
:1025A0000746DDE9002306F069FECDE9020106F0E9
:1025B00077FD2862B4F87610080A07F0C5FC06908B
:1025C0002249069807F0ECFD05D24FF087410698A6
:1025D00007F022FE0690B4F87000C0F303294846C5
:1025E00006F0BBFF02460B46CDE9000100204FF08C
:1025F000804104F079F982468B46069807F00CFB7F
:1026000052465B46CDE9020106F038FE074606F069
:1026100047FDE86142F644200899415142F64421C1
:10262000294409984860BDF81C1042F64C204153DB
:10263000BDF81E0042F64C21294448800BB0BDE88D
:10264000F08F00000080FF430000F8410000FE42D0
:102650002DE9F04782460D4600240027A046A146FA
:1026600000BF0DE04FF6FF7042F65C21294421F8CF
:10267000140042F66621294421F81400601C84B23B
:10268000052CEFDB00241EE004F140003AF81000B6
:1026900038B942F65C20284420F81740781C87B2ED
:1026A0000FE004F140001AF8100000F0010040B102
:1026B00042F66620284420F8184008F101001FFA6D
:1026C00080F8601C84B2B4F5407F04DA052F02DA8A
:1026D000B8F1050FD8DB042F02DD6FF0020964E0CA
:1026E000B8F1040F02DD6FF003095EE007EB0800AC
:1026F000042802DD6FF0040957E0002419E0661C8D
:1027000013E042F65C222A4432F8161042F65C22AC
:102710002A4432F81400FEF7C1FC8146B9F1000FDB
:1027200002D04846BDE8F087761CBE42E9DB601C5B
:1027300084B2BC42E3DB002418E0661C12E042F6DF
:1027400066222A4432F8161042F666222A4432F8EB
:102750001400FEF7A3FC8146B9F1000F01D04846F2
:10276000E0E7761C4645EADB601C84B24445E4DBC6
:10277000002418E0002612E042F666222A4432F8CD
:10278000161042F65C222A4432F81400FEF786FC4A
:102790008146B9F1000F01D04846C3E7761C464593
:1027A000EADB601C84B2BC42E4DB4846BAE702467E
:1027B000B2F8603018B2B0F5004F00DB00B288828A
:1027C0007047000070B504460D46B4F87810080A4A
:1027D00007F0BAFB06460949304607F0E1FC05D28E
:1027E0004FF08741304607F017FD06464FF08C4109
:1027F000304607F0ABFA0646AE6270BD0000FE42FE
:102800002DE9F04705460C467A35A888C0F301301B
:1028100000EB80004FEA40086FF02700A0870021FE
:10282000E1872879C0F3031140200153A888C0F341
:102830000321422001534020005B00FB08F001B25D
:1028400040200153B4F94010B4F9420000FB0810D5
:1028500001B242200153287900F00F0000F108076F
:10286000012000FA07F7287807F06EFBE06229885C
:10287000080A07F069FB2063A87807F065FB60632E
:1028800069887A3D080A07F05FFBA063002623E011
:1028900004F12C0151F82600114907F081FC0BD2FC
:1028A00004F12C0151F826004FF0874107F0B4FCE9
:1028B00004F12C0141F82600384607F045FB81461B
:1028C00004F12C0151F82600494607F03FFA04F1C3
:1028D0002C0141F82600761C042ED9DBBDE8F087D8
:1028E0000000FE422DE9F04F8DB006460D46002453
:1028F000B6F86C00000A4FFA80FABAF17F0F01DDDA
:102900004FFA8AFA8DF830A096F86C004FFA80F8EA
:10291000B8F17F0F01DD4FFA88F88DF83280B6F8F4
:102920006E00000A47B27F2F00DD7FB28DF8317054
:1029300096F86E004FFA80F9B9F17F0F01DD4FFA7A
:1029400089F98DF8339096F87000C0F303100830C1
:102950000B9096F8700000F00F000A904FF0000BFB
:1029600098E0002008908FE02021089801FB0B04DC
:102970002046E31704EBD3635B1121464FEAE47C66
:1029800004EB9C6C4FEAAC1CA3EB4C03224604EB1B
:10299000D27C4FEA6C0CA4EB4C0C4FF0020E0EFBF9
:1029A00003C3DBB20993403116F81110C1F34200A2
:1029B00007F0CAFA41F24421294441F8240041F2C7
:1029C0004421294451F82400364907F0E9FB0DD28F
:1029D00041F24421294451F824004FF0824107F08C
:1029E0001BFC41F24421294441F8240001220A99A8
:1029F00002FA01F007F0A8FA079041F244202844B7
:102A000050F82410079807F0FFFA41F244212944B6
:102A100041F824000CAA0999505607F095FA07903E
:102A200041F24420284450F82410079807F020F978
:102A300041F24421294441F824000B9806F08DFD11
:102A400002460B46CDE9000100204FF0804103F023
:102A50004BFFCDE9040141F24421294451F82400FF
:102A600007F0DAF8CDE90201DDE9042306F006FCFF
:102A7000CDE9060106F014FB41F24421294441F856
:102A800024000898401C089008982028FFF66CAF96
:102A90000BF1010BBBF1180FFFF663AF0DB0BDE8F2
:102AA000F08F0000000040402DE9F04F8DB005464A
:102AB0000E460024B5F868004FEA103ABAF1070F45
:102AC00003DDAAF110004FFA80FA8DF82CA0B5F8BA
:102AD0006800C0F30328B8F1070F03DDA8F1100068
:102AE0004FFA80F88DF82E8095F86800C0F3031730
:102AF000072F02DDA7F1100047B28DF82D7095F871
:102B0000680000F00F09B9F1070F03DDA9F110000B
:102B10004FFA80F98DF82F90B5F87000C0F30320BC
:102B20000A904FF0000B57E0002008904FE0202162
:102B3000089801FB0B042046E31704EBD3635B11F9
:102B400021464FEAE47C04EB9C6C4FEAAC1CA3EBFF
:102B50004C03224604EBD27C4FEA6C0CA4EB4C0CE9
:102B60004FF0020E0EFB03C3DBB209930BA9099BC6
:102B7000C85607F0E9F941F64461314441F82400B0
:102B80000A9806F0EAFC02460B46CDE90001002057
:102B90004FF0804103F0A8FECDE9040141F6446105
:102BA000314451F8240007F037F8CDE90201DDE99E
:102BB000042306F063FBCDE9060106F071FA41F645
:102BC0004461314441F824000898401C089008985A
:102BD0002028ACDB0BF1010BBBF1180FA4DB0DB00F
:102BE000BDE8F08F2DE9F043B8B00246002092F81E
:102BF000203003F00F0C92F82030C3F30317138C2E
:102C0000C3F30326538C1DB2B5F5004F00DB2DB284
:102C1000002328E0980003F1120412F8144004F095
:102C20000F040DF1800848F8204003F1120412F857
:102C30001440C4F303180DF18009441C49F82480A2
:102C400003F1120432F81440C4F30328841C49F839
:102C5000248003F1120432F814404FEA1438C41CE3
:102C600049F824805B1C062BD4DB00230DE020AC4C
:102C700054F82340072C07DD20AC54F82340103CC7
:102C80000DF1800848F823405B1C182BEFDB002374
:102C900024E0980003F1180412F8144004F00F0423
:102CA0004DF8204003F1180412F81440C4F303183F
:102CB000441C4DF8248003F1180432F81440C4F386
:102CC0000328841C4DF8248003F1180432F81440C2
:102CD0004FEA1438C41C4DF824805B1C082BD8DB49
:102CE000002309E05DF82340072C04DD5DF8234054
:102CF000103C4DF823405B1C202BF3DB00234CE001
:102D0000002447E04FF0200808FB034000F1400892
:102D100032F818804FEA982901F6444828F81090B4
:102D200038F91080B8F11F0F0BDD01F6444838F870
:102D30001080A8F140080FFA88F901F6444828F8F5
:102D4000109001F6444838F810804FF0010909FA54
:102D50000CF908FB09F80FFA88F901F6444828F83D
:102D600010900DF1800838F8238008FA06F808EB77
:102D700005093DF8248008FA07F8C14401F64448E3
:102D800038F81080C8440FFA88F901F6444828F84A
:102D90001090641C202CB5DB5B1C182BB0DB38B00A
:102DA000BDE8F0832DE9F04F87B004460D46B4F836
:102DB0006410880A07F0C8F882462B49504607F08D
:102DC000EFF905D24FF08541504607F025FA8246CB
:102DD0004FF08B41504606F0B9FF8246B4F86410BC
:102DE000C1F3090007F0B0F806462049304607F065
:102DF000D7F905D24FF08941304607F00DFA064663
:102E00004FF08241304606F0A1FF0646B4F862005A
:102E10000FFA80FB0022164B10464FF0804103F062
:102E200063FD07468846218C01F4704006F07EFB66
:102E30003A464346CDE9000106F020FA00220D4B48
:102E4000CDE9020106F05EF9CDE9040106F028F9AA
:102E50008146C5F804A0AE60A5F80CB0C5F8109086
:102E600007B0BDE8F08F00000000F8410080FF438C
:102E700000002C4000002040B0F87030C3F3013255
:102E800081F824207047000070B504460D4694F880
:102E9000780007F059F806460949304607F080F9EE
:102EA00005D24FF08741304607F0B6F906464FF09D
:102EB0008441304606F04AFF0646AE6170BD000010
:102EC0000000FE4230B50A46B0F8664021B2B0F8C4
:102ED0006640210A7F2902DDA1F5807421B24C01F0
:102EE00021B290F86630A3F580744FF40055C5EB1D
:102EF00044131180538030BD00BFFEE72DE9F0413F
:102F000005460F46002439E0012001F05FF84FF438
:102F100000411C4802F07EFD0026B04621E0012061
:102F200001F054F84FF40071164802F073FD0120CF
:102F300001F04CF87006060E4FF40041114802F003
:102F4000C1FD08B1701CC6B2012001F03FF84FF47A
:102F500000710C4802F05CFD012001F037F808F127
:102F60000108B8F1080FDADB681EA04202D100F0B8
:102F7000C1F801E000F05EF83E55641CAC42C3DBD2
:102F8000BDE8F0810008014010B54FF4004113483E
:102F900002F040FD012001F019F84FF400710F48D4
:102FA00002F038FD012001F011F84FF400410B4808
:102FB00002F088FD08B9002400E00124012001F09E
:102FC00005F84FF40071054802F022FD4FF400416E
:102FD000024802F01DFD204610BD0000000801401F
:102FE00010B54FF40071124802F012FD012000F0FC
:102FF000EDFF4FF400410E4802F00CFD012000F0FF
:10300000E5FF4FF400710A4802F004FD012000F0D2
:10301000DDFF4FF40041064802F0FAFC012000F009
:10302000D5FF4FF40071024802F0F2FC10BD000021
:103030000008014010B54FF400410F4802F0E8FCD1
:10304000012000F0C3FF4FF400710B4802F0E2FCD6
:10305000012000F0BBFF012000F0B8FF4FF4007129
:10306000054802F0D5FC012000F0B0FF4FF400410C
:10307000014802F0CFFC10BD000801402DE9F041ED
:10308000044601272546002626E0012000F09EFF89
:1030900005F0800028B14FF40041154802F0BAFC59
:1030A00004E04FF40041124802F0B2FC012000F0AD
:1030B0008DFF4FF400710E4802F0ACFC012000F0CF
:1030C00085FF012000F082FF4FF40071084802F0F4
:1030D0009FFC680045B2761C082ED6DB012000F06C
:1030E00075FFFFF751FF07463846BDE8F081000045
:1030F0000008014010B54FF400410F4802F08AFC6F
:10310000012000F063FF4FF400710B4802F082FCD5
:10311000012000F05BFF012000F058FF4FF4007128
:10312000054802F075FC012000F050FF4FF400410B
:10313000014802F06FFC10BD0008014010B54FF4CB
:1031400000410F4802F066FC4FF400710C4802F099
:1031500061FC012000F03AFF012000F037FF4FF43E
:103160000041074802F054FC012000F02FFF4FF40B
:103170000071034802F04CFC012000F027FF10BD55
:103180000008014010B54FF400710E4802F040FCF9
:103190004FF400410B4802F03BFC012000F016FF09
:1031A0004FF40071074802F035FC012000F00EFFDB
:1031B0004FF40041034802F02DFC012000F006FF0F
:1031C00010BD0000000801404FF08831154A116021
:1031D000121D11600021134A0C3211600421124AA1
:1031E00011604903114A116108210F4A121D116033
:1031F000C9020E4A51610B490831096888B24FF47F
:10320000804111610821084A11604FF03331054AAD
:103210001160121D11604FF6FF71024A0C321160ED
:1032200070470000000C01401008014000100140F0
:103230000821094A1160042111600903074A11613C
:10324000074908604FF40041516111610821024AA9
:10325000121F116070470000140801400010014067
:103260000C0C01402DE9F04704460D4616461F465A
:10327000DDF820A03B4632462946204600F010F9F2
:10328000A84618E0A14612E004200D490860082075
:10329000091D08600B48C0F800A04FF400400A491F
:1032A0004861086108200649086009F10109B14533
:1032B000EAD908F10108B845E4D9BDE8F087000073
:1032C000100801400C0C0140001001402DE9F041B4
:1032D00006460F4600240025A0463946304600F039
:1032E0001FF82E20FFF7A4FFFFF76EFF0220FDF767
:1032F000FDFEFFF769FF04460220FDF7F7FEFFF72A
:1033000063FF8046E5B24FF6FF7000EA0525E01244
:10331000C002A91240EA411040EAE820BDE8F0816D
:1033200010B504460B462A20FFF782FF04202249ED
:1033300008600820091D0860200A204908604FF431
:1033400000401F494861086108201B4908600420AB
:1033500008600820091D0860E0B2184908604FF4B1
:1033600000401749486108610820134908602B2074
:10337000FFF75EFF0420104908600820091D08605F
:10338000180A0E4908604FF400400D494861086171
:10339000082009490860042008600820091D086009
:1033A000D8B2064908604FF40040054948610861F9
:1033B00008200149086010BD100801400C0C0140B4
:1033C000001001402DE9F84105460E4614461F46FF
:1033D000DDF81C8009E0CDF8008022783B463146BC
:1033E000284600F007F80835641C20780028F2D140
:1033F000BDE8F8812DE9F04F8046894614469A468B
:10340000A4F12000C4B209F10F0308F107024946F4
:10341000404600F045F8002636E0274606EB071741
:103420001B4810F807B000252BE08020284100EA57
:103430000B0080212941884211D1042015490860E0
:103440000820091D08601448C0F800A04FF400408F
:1034500012494861086108200E49086010E0042004
:103460000C4908600820091D08600B49099808608C
:103470004FF4004009494861086108200549086087
:103480006D1C082DD1D3761C102EC6D3BDE8F08F4D
:1034900042A60008100801400C0C01400010014039
:1034A00070B506460C4615462A20FFF7C1FE0420DB
:1034B000434908600820091D0860300A4149086036
:1034C0004FF4004040494861086108203C490860C9
:1034D000042008600820091D0860F0B2394908601E
:1034E0004FF40040384948610861082034490860B9
:1034F000042008600820091D0860280A3149086076
:103500004FF4004030494861086108202C490860A8
:10351000042008600820091D0860E8B229490860F5
:103520004FF4004028494861086108202449086098
:103530002B20FFF77DFE0420214908600820091D8B
:103540000860200A1F4908604FF400401E49486186
:10355000086108201A490860042008600820091D35
:103560000860E0B2174908604FF40040164948610E
:103570000861082012490860042008600820091D1D
:103580000860180A0F4908604FF400400E4948616E
:10359000086108200A490860042008600820091D05
:1035A0000860D8B2074908604FF4004006494861F6
:1035B00008610820024908602C20FFF739FE70BD21
:1035C000100801400C0C01400010014000B53620ED
:1035D000FFF72EFE04204D4908600820091D0860F1
:1035E00068204B4908604FF400404A49486108612F
:1035F0000820464908602A20FFF71AFE04204349A4
:1036000008600820091D08600020414908604FF447
:10361000004040494861086108203C490860042096
:1036200008600820091D08600020394908604FF42F
:103630000040384948610861082034490860042086
:1036400008600820091D0860012031490860C00396
:1036500030494861086108202C490860042008604E
:103660000820091D08603F20294908604FF40040E8
:103670002849486108610820244908602B20FFF789
:10368000D7FD0420214908600820091D086000209A
:103690001F4908604FF400401E4948610861082036
:1036A0001A490860042008600820091D08600020ED
:1036B000174908604FF40040164948610861082026
:1036C00012490860042008600820091D08600020D5
:1036D0000F4908604FF400400E4948610861082016
:1036E0000A490860042008600820091D0860EF20CE
:1036F000074908604FF40040064948610861082006
:10370000024908602C20FFF793FD00BD100801401E
:103710000C0C01400010014070B505460C462346D4
:103720004FF450724FF41051284600F0ADF970BDBF
:1037300070B505460E462846FDF7CDFC0446002C24
:1037400038D131462846FFF7BDFB31462846FFF702
:1037500029FB31462846FFF72AF831462846FFF76D
:1037600093FB31462846FFF787FB31462846FFF793
:1037700029F831462846FFF743F831462846FEF738
:10378000EDFC31462846FFF72DFA31462846FFF773
:10379000A9F831462846FFF787F931462846FEF753
:1037A00059FE31462846FEF7EFFD31462846FEF722
:1037B0004FFF0446204670BD2DE9FC4180460D4672
:1037C00001270124002600270EE06B460122D103C9
:1037D000404600F059F9044614B12046BDE8FC818A
:1037E000BDF8000000F00807002FEED026E03022E0
:1037F0004FF40041404600F0C1F90446601C08B98E
:103800002046EBE72B464FF450724FF48061404660
:1038100000F03AF904460CB12046DFE76B4601227E
:10382000D103404600F030F904460CB12046D5E7FC
:10383000BDF8000000F00807701CC6B20FB1052EDD
:10384000D5DB042E02DD6FF00700C7E701AB0122D4
:1038500048F20D01404600F017F90446BDF8040097
:10386000A5F88006BDF8000000F00100A5F882066A
:103870000CB12046B2E7B5F88206AFE72DE9F04F6C
:1038800089B081460C462146484600F073F8069000
:10389000B9F8400606F070FB07903249079806F029
:1038A0007FFC05D24FF08F41079806F0B5FC0790DA
:1038B000B9F8000606F060FB82462A49504606F039
:1038C0006FFC05D24FF08F41504606F0A5FC8246B2
:1038D0000022254B1046590303F006F80746884698
:1038E0002169079806F090FB5146019006F0C0F957
:1038F00001460290079806F029FA039006F08CF929
:103900003A464346CDE9040105F076FE054605F04A
:10391000C7FB8246A08906F02FFB80461349069814
:1039200006F07AFC0590616806F06EFB07464FF0E2
:103930007E5106F09DF906463146504606F006FADD
:103940000546414606F068FC83465846A16806F0E5
:10395000FDF90546064906F08BF98346584609B03D
:10396000BDE8F08F00FEFF46000032403333534085
:103970000000C8412DE9F04F87B005460C46B5F868
:10398000540606F0F9FA06462849304606F008FCC7
:1039900005D24FF08F41304606F03EFC0646B5F8A2
:1039A0008006C0F3812A504605F0C0FD07463A461E
:1039B0000B4600204FF0804102F096FFCDE9020156
:1039C00094F8240005F0C9FD07463A460B4600204E
:1039D0004FF0804102F088FFCDE90001DDE90223CC
:1039E00005F04CFCCDE9040105F05AFB8146B4F921
:1039F000000006F0A9FA0590B4F9020006F0A4FA56
:103A000083463146484606F0FFFA5946049006F0D0
:103A100003FC8046059906F099F90746044906F02B
:103A200027F90646304607B0BDE8F08F00FEFF4696
:103A30003333534010B54FF4C06003F0F5FE40F24D
:103A4000026003F0F1FE01210D4802F043F84FF44B
:103A50000073032210210B4801F0DEFF4FF40043F6
:103A600003221421074801F0D7FF4FF400710548E5
:103A700001F0D0FF4FF40041024801F0CBFF10BD30
:103A800000023000000801402DE9FF4FADF2846DC7
:103A900081460D4616460024A046A2460020CDF8D9
:103AA00080064FF4D0616846FCF70EFCDDF890B656
:103AB0004FEA4960070E28128DF88006E8B28DF8AB
:103AC0008106FFF75FFB012000F080FAFFF736FB6D
:103AD000012000F07BFA78B2FFF7D0FA08B101209C
:103AE00000E0002004462CB14FF0FF300DF2946D41
:103AF000BDE8F08F9DF8801648B2FFF7BFFA08B115
:103B0000012000E00020044614B14FF0FF30EDE743
:103B10009DF8811648B2FFF7B1FA08B1012000E024
:103B20000020044614B14FF0FF30DFE7FFF758FAEA
:103B300047F0010778B2FFF7A1FA044614B14FF03D
:103B4000FF30D3E770006946FFF7D8F9FFF71AFB9B
:103B50004FF000080DE04FEA480A0AF101001DF895
:103B600000101DF80A0001EB00202BF8020B08F1F1
:103B70000108B045EFDB0020B8E700002DE9F8436D
:103B800007460D4614464FF00008002000907806C6
:103B90004FEA106928128DF80000E8B28DF8010094
:103BA00020128DF80200E0B28DF80300FFF7EAFA68
:103BB000012000F00BFAFFF7C1FA4FFA89F0FFF786
:103BC0005DFA8046B8F1000F02D00120BDE8F8830D
:103BD00000260CE01DF8061048B2FFF74FFA8046A9
:103BE000B8F1000F02D04FF0FF30EFE7761C042E43
:103BF000F0DBFFF7C7FA074B012229463846FFF7EB
:103C000043FF04480088A04202D06FF00100DDE7C6
:103C10000020DBE7B4000020F8B506466B46012221
:103C200048F20D013046FFF72FFF054655B9BDF8A4
:103C3000000040F48054224648F20D013046FFF760
:103C40009DFF05462846F8BDF8B507460C466007B7
:103C5000850D6B46012248F20D013846FFF714FF2F
:103C6000064666B9BDF800004FF67F41084005439F
:103C7000AAB248F20D013846FFF780FF06463046EB
:103C8000F8BD00BFFEE770477047000010B5102177
:103C9000054801F0BDFE062003F064FE1021024835
:103CA00001F0B8FE10BD00000008014010B5044648
:103CB0002403FFF7EBFF00F09BF810210B4801F005
:103CC000A7FE202003F04EFEC4F3074003F04AFE97
:103CD000C4F3072003F046FEE0B203F043FE1021D8
:103CE000024801F097FE00F083F810BD0008014083
:103CF00000B587B040F2026003F096FD40F20C6020
:103D000003F092FDA02303221821174801F084FE3E
:103D1000402303220421144801F07EFE10230322D5
:103D20001946114801F078FE10210F4801F072FE8B
:103D30004FF4827000900020019002904FF40070C8
:103D400003900020049005901020069069460748D3
:103D500003F032FE0721054803F0F8FD034803F0A5
:103D6000FBFD07B000BD000000080140003001402D
:103D70002DE9F04106460C4617461021104801F087
:103D800047FE032003F0EEFDC4F3074003F0EAFD15
:103D9000C4F3072003F0E6FDE0B203F0E3FD0025E5
:103DA00005E0FF2003F0DEFD7055681C85B2BD42C2
:103DB000F7DB1021024801F02DFEBDE8F081000084
:103DC0000008014010B500241021084801F020FE31
:103DD000052003F0C7FDFF2003F0C4FD04461021B9
:103DE000024801F017FE204610BD00000008014007
:103DF00010B500BFFFF7E6FF00F001000028F9D181
:103E000010BD00002DE9F04781460F4616464FEAE7
:103E10001738C7F30B0ACAF58054A64200DC3446B3
:103E200044E04FEA08314FF480522248FFF7A0FFE8
:103E3000002508E00AEB05001E49085CFF2800D0B9
:103E400003E0681C85B2A542F4DB00BFA54216DA88
:103E50004046FFF72BFF002507E019F8050005EBAA
:103E60000A01144A5054681C85B2A542F5DB4FEA9A
:103E700008314FF480520F4800F01EF804E022464B
:103E80003946484600F018F8A64200D10FE008F184
:103E900001084FF0000AA1442744301B86B2B6F552
:103EA000805F02DD4FF4805400E03446B9E700BF84
:103EB000BDE8F087A40100202DE9F04107460E4639
:103EC0001446F0B2C0F58075AC4200DC254612E025
:103ED0002A463146384600F013F8AC4200D10BE0D8
:103EE0002F442E44601B84B2B4F5807F02DD4FF472
:103EF000807500E02546EBE700BFBDE8F0810000DB
:103F00002DE9F04106460C461746FFF7BFFE10218B
:103F1000104801F07DFD022003F024FDC4F30740AA
:103F200003F020FDC4F3072003F01CFDE0B203F012
:103F300019FD002504E0705D03F014FD681C85B2D6
:103F4000BD42F8DB1021034801F064FDFFF750FF8C
:103F5000BDE8F081000801407047000010B514482A
:103F6000006840F0010012490860084640681149A5
:103F700008400F494860084600680F4908400C494E
:103F800008600846006820F4802008600846406801
:103F90000A49084006494860084600680649084042
:103FA000034908604FF41F00886003F07BFE10BDDA
:103FB000001002400C00FFE8FFFFF6FEFFFF00F7D5
:103FC00010B504F08DFD10BD00BFFEE7002100E03C
:103FD000491C8142FCDB7047490050EAC12018BFF0
:103FE00004204A0D18BF40F0010040F2FF72B2EB0E
:103FF000515F08BF40F00200012808BF052070474C
:104000002DE9F0414F1E00EBC7010446D1E9000144
:1040100015461E4637F006020DD02A46334605F0F7
:10402000EBFA7F1E04EBC703D3E9002305F06AF81F
:1040300037F00602F1D1022F25D0042F13D0062F1E
:1040400018BFBDE8F0812A46334605F0D5FAD4E919
:104050000A2305F057F82A46334605F0CDFAD4E98D
:10406000082305F04FF82A46334605F0C5FAD4E98F
:10407000062305F047F82A46334605F0BDFAD4E991
:10408000042305F03FF82A46334605F0B5FAD4E993
:10409000022305F037F82A46334605F0ADFAD4E995
:1040A0000023BDE8F04105F02DB8000000221346C2
:1040B0001046014905F0E2B80000F03F05F022B8D3
:1040C000002213461046114605F0D8B840F20132DE
:1040D00000204FF0E04106F046B90000024A0020FF
:1040E000110706F040B9000001FDFFFF816841F0B3
:1040F0000801816000BF816801F008010029FAD140
:10410000816841F00401816000BF816801F0040111
:104110000029FAD1704730B5012902D002291AD1FD
:104120000CE0C36A23F47003C362C36A541E4FF4E5
:10413000700505EA04542343C3620DE0836B23F446
:1041400040138363836B541E4FF4401505EA0454F7
:104150002343836300E000BF00BF30BD21B182680C
:1041600042F40062826003E0826822F400628260AE
:104170007047000010B504461348204430B1B0F534
:10418000806F0CD0B0F5C05F1BD111E040F2093058
:1041900003F06AFB40F2093003F056FB12E040F2F4
:1041A0000A3003F061FB40F20A3003F04DFB09E0F6
:1041B00040F20F3003F058FB40F20F3003F044FBA5
:1041C00000E000BF00BF10BD00DCFEBF816841F40D
:1041D000807181607047816801F0010119B98168BF
:1041E00041F001018160704772B101F001031BB120
:1041F000836843F48013836001F0020393B1836802
:1042000043F4004383600DE001F001031BB18368B8
:1042100023F48013836001F002031BB1836823F44D
:10422000004383607047012902D0022910D107E0C2
:10423000836823F46023836083681343836008E00A
:10424000836823F4E043836083681343836000E062
:1042500000BF00BF704700000549096821F47021C4
:10426000034A11601146096801431160704700005C
:1042700004240140F0B51D4606290CDA436B01EB1E
:1042800081071F26BE40B34301EB810602FA06F602
:104290003343436322E00C290EDA036B8E1F06EBD7
:1042A00086071F26BE40B3438E1F06EB860602FA22
:1042B00006F63343036311E010290FDAC36AA1F154
:1042C0000C0606EB86071F26BE40B343A1F10C0681
:1042D00006EB860602FA06F63343C3620A2A0CDAB4
:1042E000046902EB42070726BE40B44302EB4206D4
:1042F00005FA06F63443046111E0122A0FDAC468A5
:10430000A2F10A0606EB46070726BE40B443A2F117
:104310000A0606EB460605FA06F63443C460F0BD0D
:1043200001F001021AB1826842F48002826001F059
:1043300002021AB1826842F4001282607047AAB188
:1043400001F480731BB1436843F48073436001F44C
:1043500080631BB1436843F48063436001F0020350
:10436000CBB1836843F00203836014E001F48073EF
:104370001BB1436823F48073436001F480631BB175
:10438000436823F48063436001F002031BB1836838
:1043900023F00203836070472DE9F04781460D4604
:1043A000144628480078C0B90120264908702648DC
:1043B0000560264880682649086008460068A042D3
:1043C00001D9084604602248008883B21E48812132
:1043D0000268484604F03CF832E01A4800780128A8
:1043E0001FD11A484668806819490968471A4FF072
:1043F000000842463946304600F02EF8154812496A
:1044000008600D201249086003200E49087010480A
:10441000008883B20C4881210268484604F018F8ED
:104420000EE00848007803280AD1002005490870EA
:104430001F23064A0221484603F094FFBDE8F08797
:1044400000BFFBE70A0100200C01002024420020ED
:10445000100100204442002010B5044B044C23609E
:104460002346586099601A7310BD0000555342539B
:1044700044420020F0B5ADF5257D002776A103C9A3
:10448000CDE9080142262820CDF83600C100CDF83C
:104490003A10F021CDF83E1001210AA841831021E5
:1044A00081830321CDF84610DDF83E10DDF83A2077
:1044B00051430AAA928B01FB02F0C11700EB517124
:1044C000CA10CDF84A2044F64250ADF82800DDF875
:1044D0004A003044CDF82A00CDF832604FF47840DD
:1044E000CDF85E004FF4FC61CDF862101F21CDF8CD
:1044F000661032E0032208A91BA800F0BDFD0746A4
:10450000FFB91BA800F07AFD9DF8210030389DF816
:104510002010303901EB810100EB4100401CC7B293
:104520000A2097FBF0F03030C0B28DF820000A204E
:1045300097FBF0F100FB11703030C0B28DF8210014
:104540000BE0062208A91BA800F096FD074607B954
:1045500004E001200DF5257DF0BDCBE700BF07ABE2
:1045600032460AA91BA800F091FE0746EF2340F24D
:104570003F1200210846FEF793FF0026EF2423E0B8
:10458000002509E0A1B2A8B2FEF7A0FE7119344AD5
:1045900022F81100681C05B2B5F5A07FF2DB2046B9
:1045A00004EBD0714910A4EB410149B907AB4FF4BA
:1045B000A0622B491BA800F069FE0746002601E017
:1045C0004FF4A076601E04B2E02CD9DA18222549F7
:1045D00001A8FBF747FE08A901A8FBF737FE00205A
:1045E0004FF6FF7301AAE0210090FEF7EBFEEF23E8
:1045F00040F23F1200210846FEF752FF0026DF245A
:1046000023E0002509E0A1B2A8B2FEF75FFE711910
:10461000134A22F81100681C05B2B5F5A07FF2DB41
:10462000204604EBD0714910A4EB410149B907AB16
:104630004FF4A0620A491BA800F028FE0746002696
:1046400001E04FF4A076601E04B2002CD9DA1BA85A
:1046500000F0D4FC38467DE730302E626D700000EB
:10466000A41100202CA6000870B504460D460020B9
:104670002071401EE0622946204601F0F5FF08B196
:10468000032070BD94F82E1294F82F0241EA002006
:104690004AF65521884201D00220F2E794F86900D9
:1046A000010694F8680041EA004194F8670041EA85
:1046B000002094F86610084320F07F400D4988429E
:1046C00001D10020DDE794F88500010694F884000C
:1046D00041EA004194F8830041EA002094F88210F6
:1046E000084320F07F400349884201D10020C8E7F9
:1046F0000120C6E746415400024600E0521C1078F3
:1047000010B110788842F9D11078704770B503461F
:104710000D46586A021D680A1E68B678B0FBF6F4AA
:1047200000BF02CA09B9002070BD8C4200D202E06D
:10473000641A121DF5E700BF10682044F4E7024632
:10474000891E5069801E884201D8002070479378E6
:10475000906A01FB0300F9E72DE9F047044689461A
:10476000B9F1000F06D1E76817B16069B84215D8F2
:10477000012713E04946204601F0B0F80646022E14
:1047800002D20120BDE8F087701C08B93046F9E775
:104790006069B04201D93046F4E74F463D4600BF5C
:1047A0006D1C6069A84204D80225BD4201D90020D1
:1047B000E8E72946204601F091F8064606B909E0E7
:1047C000701C08B1012E01D13046DBE7BD42E7D1B4
:1047D0000020D7E700BF6FF070422946204602F064
:1047E0004FFF8046B8F1000F08D1B9F1000F05D096
:1047F0002A464946204602F043FF8046B8F1000FA2
:104800000BD1E5602069401C78B12069401E206111
:10481000607940F00100607107E0B8F1010F02D14A
:104820004FF0FF3000E0012005462846AAE70000CF
:104830002DE9F35F0198D0F8009001E009F101093A
:1048400099F800002F28F9D099F800005C28F5D0DD
:10485000009886690B222021304601F0FBFE0025DE
:104860002F46AB464FF0080A00BF58460BF1010B2C
:1048700019F80040202C03DD2F2C01D05C2C00D136
:1048800053E02E2C01D057450DD3BAF1080F01D1BA
:104890002E2C02D00620BDE8FC9F08274FF00B0A03
:1048A000A806050EE1E7802C01DB45F00305812C0D
:1048B00020DBFE2C1EDC58460BF1010B19F80080A2
:1048C000B8F1400F02DBB8F17E0F05DDB8F1800FC3
:1048D00006DBB8F1FE0F03DCAAF10100B84201D8F3
:1048E0000620D8E738467F1C345438467F1C06F82B
:1048F000008019E0214620A0FFF7FEFE08B1062047
:10490000C9E7412C04DB5A2C02DC45F0020508E023
:10491000612C06DB7A2C04DC45F00105A4F12000B3
:10492000C4B238467F1C34549FE700BF09EB0B012B
:1049300001980160202C01DC042000E000200446E6
:104940000FB90620A7E73078E52801D1052030709F
:10495000BAF1080F01D1A806050E05F003000128E1
:1049600001D144F0100405F00C00042801D144F0FA
:104970000804F47200208EE7222A2B2C3A3B3C3D9F
:104980003E3F5B5D7C7F0000002109E0002201E0EA
:10499000531C9AB244F638239A42F9DB4B1C99B265
:1049A0008142F3DB70472DE9F04104460E460021B9
:1049B000204600F0F9F80546EDB9002700BF21694F
:1049C000206801F051FE054605B113E060690078EA
:1049D000E52802D06069007820B9781C0746B0420B
:1049E00001D107E000270121204600F038F80546F4
:1049F000002DE4D000BF042D00D107252846BDE8D6
:104A0000F0812DE9F04104460021204600F0CCF869
:104A1000054615B12846BDE8F08100BF2169206830
:104A200001F022FE054605B116E0666937780FB938
:104A3000042511E0F07A00F0080030B90B2230466E
:104A4000A16901F0E7FD00B906E00021204600F071
:104A500006F80546002DE1D000BF2846DBE72DE92A
:104A6000F04104468846E088461CB0B208B120698F
:104A700010B90420BDE8F08106F00F0000286CD1C9
:104A80002069401C2061E06828B920680089B04294
:104A900063D80420EEE720688078401E00EA1610F4
:104AA00000285AD1E168206800F018FF0546012D62
:104AB00001D80220DEE7681C08B90120DAE7206887
:104AC0004069A84243D8B8F1000F01D10420D1E7D2
:104AD000E1682068FFF740FE05460DB90720C9E7E9
:104AE000012D01D10220C5E7681C08B90120C1E7EA
:104AF000206803F00CF808B10120BBE7216801F140
:104B000030004FF40072002101F0A4FD2946206816
:104B1000FFF715FE2168C86200270EE0012021681A
:104B20000871206802F0F3FF08B10120A2E72068B5
:104B3000C06A401C2168C8627F1C20688078B84227
:104B4000ECD82068C06AC01B2168C86200BFE5605D
:104B500029462068FFF7F3FD2061E68020683030A9
:104B600006F00F0100EB41106061002082E770B594
:104B7000044601212046FFF716FF054695B9216935
:104B8000206801F071FD054665B9202200216069A9
:104B900001F060FD0B22D4E9050101F04EFD01207A
:104BA00021680871284670BD2DE9F04104460E4683
:104BB000E680A568012D03D020684069A84202D88C
:104BC0000220BDE8F0812DB920680078032801D1CA
:104BD0002068456A45B920680089B04201D80220A2
:104BE000EFE72068476A1EE0206880784FEA0018E7
:104BF00012E02946206800F071FE0546681C08B9DD
:104C00000120DEE7022D03D320684069A84201D8C5
:104C10000220D6E7A6EB08064645EAD229462068D8
:104C2000FFF78DFD0746E5600FB90220C9E707EBE6
:104C3000161020612068303006F00F0100EB4110A3
:104C400060610020BDE70146002201B901E00122B8
:104C500000BF00BF0AB1012070470020FCE710B57B
:104C60000346D3B931B101290FD0022904D0032959
:104C700010D106E000200FE04FF4007414800020F3
:104C80000AE008241480002006E04FF40044146079
:104C9000002001E0042000BF00E0012010BD2DE94C
:104CA000F04107460D4616461C464FF0000814B961
:104CB0000420BDE8F08177B909E071024FF4007279
:104CC0002846FFF755F8761C05F50075641E002C84
:104CD000F3D1A04602E04FF0010800BF00BFB8F1D9
:104CE000000F01D10020E4E70120E2E701460020A7
:104CF00070472DE9F04107460D4616461C464FF019
:104D0000000814B90420BDE8F08177B909E0710208
:104D10004FF400722846FFF775F8761C05F500750C
:104D2000641E002CF3D1A04602E04FF0010800BF42
:104D300000BFB8F1000F01D10020E4E70120E2E755
:104D400070B505460C462146284600F0FBF808B928
:104D500000BFFEE704EB8400810005F10800405825
:104D600040F0010104EB8400820005F1080081504D
:104D700070BD70B505460C462146284600F0E2F8A5
:104D800008B900BFFEE704EB8400810005F10800CC
:104D9000405840F0200104EB8400820005F1080037
:104DA000815070BD70B504460D462946204600F07E
:104DB000C9F808B900BFFEE705EB8500810004F1E2
:104DC0000800405820F0010105EB8500820004F145
:104DD00008008150002105EB8500820004F10800E5
:104DE000815005EB8500820004F10C00815005EB39
:104DF0008500820004F11000815005EB85008200DF
:104E000004F1140081506068AA000F21914008430A
:104E1000606070BD2DE9F04104460D4616462946F6
:104E2000204600F08FF808B900BFFEE705EB8500CB
:104E3000820004F110003168815005EB850082008A
:104E400004F11400B1688150308A81B205EB85000D
:104E5000820004F10C00815005EB8500810004F113
:104E60000800475827F47C57F16870680843716957
:104E70000843074305EB8500810004F10800475013
:104E8000307E01280ED105EB8500810004F1080079
:104E9000405840F0400105EB8500820004F1080015
:104EA00081500DE005EB8500810004F108004058B9
:104EB00020F0400105EB8500820004F108008150DC
:104EC000707E01280ED105EB8500810004F10800F9
:104ED000405840F0800105EB8500820004F1080095
:104EE00081500DE005EB8500810004F10800405879
:104EF00020F0800105EB8500820004F1080081505C
:104F0000B07E70B905EB8500810004F108004058BF
:104F100020F0100105EB8500820004F108008150AB
:104F20000DE005EB8500810004F10800405840F0D9
:104F3000100105EB8500820004F108008150BDE8F6
:104F4000F081000002460120034B9A4202D104295D
:104F500000DD0020704700000004024010B54FF44F
:104F60008070234908604FF4C06002F05DFC40F29D
:104F7000026002F059FC40F2036002F055FC40F27E
:104F8000046002F051FC40F2056002F04DFC40F27A
:104F9000066002F049FC4FF480730322102114488C
:104FA000143800F039FD082303221021104814386A
:104FB00000F032FD0423032210210D48143800F0C4
:104FC0002BFD4FF40043032210210A4800F024FD7A
:104FD0004FF4804303221021064800F01DFD4FF6D8
:104FE000FF7303221021044800F016FD10BD0000DD
:104FF0001408014000100140000C014070B5054646
:10500000284600F0EBF8044634B9284604F02CF8A2
:1050100004460CB900202860204670BDF7B582B068
:1050200016460398019001A800F0CEFC0546002D1D
:1050300002DA0B2005B0F0BD0E4850F825400CB147
:1050400000202070029810B10020029908700949D0
:10505000029841F82500029808B1012E01D00020E5
:10506000E8E7002203A902A800F00AFA074638463A
:10507000E0E700009C0100202DE9F7438AB00546D7
:1050800016461DB909200DB0BDE8F0830020286048
:1050900006F01F0626F001020BA903A800F0F0F9A4
:1050A0000746002F7ED1CDF824D003A80B9900F03D
:1050B000CDFB0746089C0FB904B9062706F01C0073
:1050C000002851D04FB1042F03D103A8FFF74FFDA3
:1050D000074646F00806089C09E0E07A00F0110057
:1050E00008B1072703E006F0040000B10827002FED
:1050F00039D106F00800002835D000F063FC804666
:1051000084F80E804FEA1821E1734FEA18412174A8
:105110004FEA186161740020E07220770021617706
:10512000A177E1772146039801F060F981460021DB
:10513000204602F080FC012003990871B9F1000FAC
:1051400011D00398D0F82C804946039802F0A8FBB0
:10515000074647B9A9F101000399C8604146039881
:1051600001F082FA07460EE06FB9E07A00F0100015
:1051700008B1042707E006F0020020B1E07A00F051
:10518000010000B1072747B906F0080008B146F052
:1051900020060398C06AE8612C621FB9AE71002036
:1051A000E87100E018E02146039801F01FF928613A
:1051B000E07F0106A07F41EA0041607F41EA0020D4
:1051C000217F0843E8600020A860A8616862039816
:1051D00028602868C088A880384654E72DE9F04147
:1051E0000446204603F040FF0746002F4CD1A0792B
:1051F00000F02000002847D0A07900F0400078B1EE
:1052000021684878012304F12801A269FFF771FDA4
:1052100010B10120BDE8F081A07920F04000A0711C
:10522000E169206801F020FA0746002F2CD1256A99
:10523000E87A40F02000E872207B2877A089010AF4
:105240006977E068010CA977E068010EE9772846E4
:10525000216902F0F0FB00F0B5FB0646AE75310A9D
:10526000E975310C2976310E69760020A874002189
:10527000E974A07920F02000A07101202168087154
:10528000206802F0E0FB07463846C3E72DE9FF4FF0
:1052900083B0044615469B46049801900020CBF845
:1052A0000000204603F0E0FE0290029818B1029838
:1052B00007B0BDE8F08FE07908B1E079F8E7A079B0
:1052C00000F0020008B90720F2E7A0682844A168AE
:1052D000884200D20025C2E02089C0F308000028DF
:1052E0006FD120688078401EA16800EA512000F04C
:1052F000FF0ABAF1000F2CD1A06858B9D4F8108079
:10530000B8F1000F13D100212068FFF725FA80467D
:1053100020610CE0606A28B12046A168FFF7F6F929
:10532000804604E061692068FFF716FA8046B8F10C
:10533000000F00D196E0B8F1010F02D10220E07118
:10534000B6E708F1010010B90120E071B0E7C4F838
:105350001480A07900F0400078B1216848780123DA
:1053600004F12801A269FFF7C4FC10B10120E0712B
:105370009EE7A07920F04000A07161692068FFF7E6
:10538000DEF9064616B90220E07191E756444FEA6D
:105390005529B9F1000F2BD00AEB09002168897853
:1053A000884203D920688078A0EB0A0921684878F0
:1053B0004B4632460199FFF79CFC18B10120E07181
:1053C00076E729E0A069801B48450ED2A069801BC2
:1053D000019A02EB40214FF4007204F1280001F021
:1053E0002CF9A07920F04000A0714FEA49272AE06B
:1053F000A069B0420FD0D4E9020188420BD22168E3
:1054000048780123324604F12801FFF748FC10B127
:105410000120E0714CE7A6612089C0F30800C0F5C7
:105420000077AF4200D92F462189C1F3080204F169
:10543000280150183A46019901F0FFF8A07940F090
:105440004000A07100BF019838440190A068384422
:10545000A060DBF800003844CBF80000ED1B002D05
:105460007FF43AAF00BFD4E90201884201D9A068B5
:10547000E060A07940F02000A071002018E7000053
:105480002DE9F74F88B0002108980160099800F0D5
:105490009BFA07900798002803DA0B200BB0BDE8B1
:1054A000F08FD549079851F820400CB90C20F5E74A
:1054B00008980460207878B16078FFF717FC804680
:1054C00008F0010040B90A9820B108F0040008B1C2
:1054D0000A20E3E70020E1E70020207007986070D1
:1054E0006078FFF7B0FB804608F0010008B10320A8
:1054F000D4E70A9820B108F0040008B10A20CDE7EB
:10550000002739462046FFF7AFF80546012D01D0A8
:105510006DBB2CE0002614E004F5F77101EB0610DA
:10552000017951B1C17A0A06817A42EA0142417A8F
:1055300042EA0121027A114300E000214DF82610D1
:10554000761C042EE8D3002606B1761E00BF5DF857
:10555000267027B139462046FFF786F800E0022082
:1055600005461DB1701C06460428F0D300BF032D6C
:1055700001D1012092E70DB10D208FE73B20015DA5
:1055800094F83C0041EA0020B0F5007F01D00D20E6
:1055900084E74620015D94F8470041EA0029B9F10B
:1055A000000F0ED194F85700010694F8560041EA16
:1055B000004194F8550041EA002094F8541040EA64
:1055C0000109C4F818904020005DE070E0780128DF
:1055D00004D0E078022801D00D205FE7E07809FBD5
:1055E00000F93D20005DA070A07818B1A078411EA0
:1055F000084008B10D2051E74120015D94F84200B8
:1056000041EA00202081207A00F00F0008B10D202F
:1056100044E74320015D94F8440041EA002BBBF1CC
:10562000000F0ED194F85300010694F8520041EA9D
:10563000004194F8510041EA002094F8501040EAEB
:10564000010B3E20015D94F83F0041EA00200490E8
:10565000049808B90D2021E704984844218900EBFB
:10566000111006900698834501D20D2016E7069882
:10567000ABEB0000A178B0FBF1FABAF1000F01D159
:105680000D200BE7012540F6F670824500D3022578
:105690004FF6F670824500D303250AF102006061DF
:1056A000E76104983844206206983844A062032DCC
:1056B00016D1208908B10D20F0E694F85F000106AC
:1056C00094F85E0041EA004194F85D0041EA002050
:1056D00094F85C100843606260698000059014E0F3
:1056E000208908B90D20D9E6206A48446062022D5D
:1056F00002D16069400007E0207D00F0010061698F
:1057000001EB410100EB51000590A169059800F201
:10571000FF10B1EB502F01D20D20BFE64FF0FF304C
:105720002061E06080206071032D5AD194F86010F0
:1057300094F8610041EA0020012852D1791C2046EA
:1057400000F092FFE8BB0020607194F82E1294F8EC
:105750002F0241EA00204AF65521884241D13320E8
:10576000005D01063220005D41EA00413120005D0C
:1057700041EA002094F8301008432049884230D193
:1057800094F81702010694F8160241EA004194F8D1
:10579000150241EA002094F814120843184988427F
:1057A0001FD194F81B02010694F81A0241EA004145
:1057B00094F8190241EA002094F818120843206175
:1057C00000E00EE094F81F02010694F81E0241EA80
:1057D000004194F81D0241EA002094F81C1208438D
:1057E000E060257007480088401C80B205490880A9
:1057F000E080002052E600009C01002052526141EE
:1058000072724161A0010020002070472DE9F04133
:1058100006460F4614461D4604FB05F082B2394683
:105820003046FEF7A5FA0020BDE8F0812DE9F041F1
:1058300006460F4614461D4604FB05F082B2394663
:105840003046FEF7DFFA0020BDE8F0812DE9F34194
:105850000446019800782F2803D0019800785C282E
:1058600002D10198401C01900020A06001980078AE
:10587000202807D200212046FFF796F90546002090
:10588000606128E000BF01A92046FEF7D1FF054670
:1058900005B11FE02046FFF7B4F80546A069C67AB7
:1058A0003DB1042D04D100BF06F0040000B9052568
:1058B00010E006F0040000B10CE06769F87A00F02F
:1058C000100008B9052505E03946206800F08EFD76
:1058D000A060D8E700BF2846BDE8FC812DE9F04173
:1058E00005460C46022C02D36869A04202D801206A
:1058F000BDE8F0812878012804D002282CD00328A4
:105900005AD13DE0274607EB5707286A00EB57219D
:10591000284600F0A9FE00B150E0C7F3080105F1E8
:10592000300010F801807F1C286A00EB57212846C0
:1059300000F09AFE00B141E0C7F3080105F1300024
:10594000405C48EA002804F0010010B14FEA18104A
:10595000CEE7C8F30B00CBE7286A00EB14212846FA
:1059600000F082FE00B129E040F2FF1000EA44019D
:1059700005F130000E183078717840EA0120B7E761
:10598000286A00EBD411284600F06EFE00B115E045
:1059900040F2FF1000EA840105F130000E18F078A3
:1059A0000006B17840EA0140717840EA0120317880
:1059B000084320F070409BE7012099E700BF4FF0BB
:1059C000FF3095E70020704770B502464FF0FF307A
:1059D0001568DDB1116800E0491C0D78212D02D356
:1059E0000D783A2DF8D10D783A2D0ED1146814F8AF
:1059F000015BA5F130030A2B06D28C4204D11BB9FE
:105A000018464D1C2946156070BD002000BFFBE7FD
:105A10004161704701617047F0B5044616460025A4
:105A2000002201F00F0501F0100707B135430020F7
:105A30001EE0012787401F40C7B122684FEA800C53
:105A40000F2707FA0CF7BA43870005FA07F73A431E
:105A5000282904D1012787401F40676105E04829B4
:105A600003D1012787401F4027612260471CB8B23D
:105A70000828DED3082022E0012787401F40E7B135
:105A80006268A0F108074FEA870C0F2707FA0CF7A6
:105A9000BA43A0F10807BF0005FA07F73A432829DF
:105AA00004D1012787401F40676105E0482903D1E1
:105AB000012787401F4027616260471CB8B2102849
:105AC000DAD3F0BD02469068084008B10120704763
:105AD0000020FCE7F0B50A46002300240021002541
