:020000040800F2
:10000000E84A00209901000881170008AD10000897
:100010007D170008410C0008C728000800000000F8
:1000200000000000000000000000000001010008C6
:10003000450C000800000000450100089D1F000855
:10004000B3010008B3010008B3010008B3010008C0
:10005000B3010008B3010008B3010008B3010008B0
:10006000B3010008B3010008B3010008B3010008A0
:10007000B3010008B3010008B3010008B301000890
:10008000B3010008B3010008B3010008B301000880
:10009000B3010008B3010008B3010008490C0008CF
:1000A000B3010008B3010008B3010008B301000860
:1000B00071220008B301000889220008B30100087A
:1000C000B3010008B3010008B3010008B301000840
:1000D000B301000869260008B3010008F1260008F2
:1000E000B3010008B3010008B3010008DFF80CD029
:1000F00000F0C0FC004800473B4A0008E84A0020E6
:10010000224B19680868B0E8F00F80F30988BFF344
:100110006F8F4FF0000080F311884EF00D0E704786
:100120000000000006480068006880F3088862B696
:1001300061B6BFF34F8FBFF36F8F00DF00BF00BF0B
:1001400008ED00E0EFF30980BFF36F8F0F4B1A68E3
:1001500020E9F00F106008B54FF0BF0080F3118860
:10016000BFF34F8FBFF36F8F06F06AFC4FF00000B4
:1001700080F31188BDE8084019680868B0E8F00FFE
:1001800080F30988BFF36F8F704700BF1400002011
:10019000EFF3058070470000064880470648004797
:1001A000FEE7FEE7FEE7FEE7FEE7FEE7FEE7FEE727
:1001B000FEE7FEE7D11F0008ED0000082DE9F04141
:1001C0000024061B254671F1000605DA01240027EC
:1001D000D0EB070067EB0101161E73F1000605DA8C
:1001E0000027D2EB0702012567EB030300F034FB85
:1001F00086460E4617469C46AC4204D00025D0EBFE
:10020000050E65EB010624B10020D2EB000760EB80
:10021000030C704631463A466346BDE8F081D2B2DF
:1002200001E000F8012B491EFBD270470022F6E7DF
:1002300010B513460A4604461946FFF7F0FF20465C
:1002400010BD30B504460020034600E05B1C93421D
:1002500003D2E05CCD5C401BF8D030BDF0B480EA46
:100260000102D40F4200B2EB410F02D2024608460F
:1002700011464A0042D0C30DDDB2C1F3C752AD1AD8
:10028000202D35DAC1F3160141F4000204B15242C7
:10029000C5F1200602FA06F12A411044B3EBD05F03
:1002A00023D0C4B1012DA0EBC35009DCF0BC4FF04A
:1002B000004202EAC352DBB200F5000000F037BB97
:1002C000400000F1807000EBC350A0F1807040EA64
:1002D000D170490009E0490841EAC071A0EBC35060
:1002E00000F50000400800EBC350F0BC00F016BB66
:1002F0006142012202EB4101001BF6E7F0BC7047AE
:1003000081F00041AAE780F00040A7E780EA0102FF
:1003100010B502F00043400022D04A001FD0010E69
:1003200001EB1261C0F35600C2F3560240F4000024
:1003300042F40002A0FB022000047F39140400D024
:10034000401C50EA124001D44000491EC2B20C06C3
:1003500004EBD010401C4008802A02D003E00020AB
:1003600010BD20F00100002900DA0020184310BD64
:1003700030B480EA010202F0004530F0004221F082
:10038000004013D090B1C30DD40DC2F31601C0F3D9
:100390001600E41A41F4000140F400027D34914259
:1003A00001D3641C00E04900002C02DA30BC0020BC
:1003B00070474FF400000023914201D3891A034390
:1003C00040084FEA4101F7D151B1914202D14FF0BB
:1003D000004105E002D24FF0010101E06FF00101A0
:1003E00003EBC450284430BC00F098BA2DE9FE4F0E
:1003F000804681EA0300C00F0C46009021F00041C6
:1004000023F00045B8EB0200A94105D24046214641
:1004100090461C460B46024623F00040104347D04E
:10042000270DC7F30A00C3F30A510290401A019046
:1004300040286BDAC3F3130040F4801B0098924607
:1004400020B10023D2EB030A63EB0B0B0198594652
:10045000C0F14002504600F030FA06460D465046C4
:100460005946019A00F048FA10EB08006141002457
:1004700087EA115284EAE7731A4340D0009A62B3C4
:10048000019A012A4FEA075215DC001B61EB0201B9
:100490004FF0004202EA0752CDE90042001C41F54C
:1004A000801132462B4600F07FFA03B0BDE8F08F92
:1004B00040462146F9E7001B61EB0201001C41F5B3
:1004C000801300185B412018A2F5001747EB0301C9
:1004D00040EAD570B6196D4111E06D084FEA360655
:1004E00045EAC0754FEA0752001B61EB0201001C90
:1004F00041F5801149084FEA300000195141324658
:100500002B4603B0BDE8F04F00F03FBA009801223F
:1005100040000023D0EB020263EBE0730098214619
:100520004FEAE074B8EB000061EB0401E9E783F007
:1005300000435BE781F0004158E72DE9FE4F81EA77
:10054000030404F0004421F0004100944FF0000B3C
:1005500023F0004350EA01045ED052EA03045BD06A
:10056000C3F30A54C1F30A552C44A4F2F3340194A2
:10057000A0FB0254C1F3130141F48011C3F3130330
:1005800043F4801301FB024400FB034E840A970AE4
:1005900044EA815447EA8357A4FB076802958D0A11
:1005A00005FB07854FEA932C04FB0C542705029D9D
:1005B0004FEA065847EA1637B5EB08056EEB070C0D
:1005C000870E920E47EA811742EA8312A7FB0201C7
:1005D000B6EB0B0164EB00042B0D43EA0C335E1801
:1005E00044EB1C50DA465146E7FB0201C5F3130405
:1005F0004FEA0B3343EA14534FEA0432019C43EAB7
:100600000603A4F10C040294009CCDE900B400F0B0
:10061000CBF903B0BDE8F08F00200146F9E72DE9E2
:10062000F04D81EA030404F0004B21F0004514462C
:100630004FF0000A23F0004150EA050220D054EAAE
:1006400001021DD0C5F30A570246C5F31303C1F3D7
:100650001300C1F30A5640F4801543F48013A7EB4E
:100660000608101BD64608F2FD3873EB050002D3CE
:1006700008F1010801E092185B41B8F1000F03DABC
:1006800000200146BDE8F08D00204FF480110646A1
:1006900084460EE0171B73EB050705D3121B63EBB3
:1006A000050306434CEA010C49084FEA3000921852
:1006B0005B4150EA0107EDD152EA030012D082EA11
:1006C000040083EA0501084305D0101BAB4106D2A4
:1006D0000122002306E000224FF0004302E06FF009
:1006E000010253101AEB06004CEB085110EB0A0004
:1006F00041EB0B01BDE8F04D00F047B9C10F80EAB6
:10070000E0700844CA079623002100F010B9962330
:100710000022114600F00BB90EB5C10F80EAE0705F
:100720000844CA07002140F233438DE80E000A4610
:100730000B4600F039F903B000BD00F0004220F094
:100740000040C10DC0F3160040F400007F2901DA1B
:1007500000207047962903DCC1F19601C84001E0F2
:1007600096398840002AF4D04042704720F000407B
:10077000C10DC0F3160040F400007F2901DA00200B
:100780007047962903DCC1F19601C840704796393D
:100790008840704770B5C1F30A5201F0004500244B
:1007A000C1F3130140F2FF3341F480119A4201DAA0
:1007B000002070BD40F233439A42A2F2334203DC80
:1007C000524200F089F800E090402C43F1D04042C2
:1007D00070BD00F0004230F000400AD0C10D01F5BC
:1007E0006071C0F3160042EA0151C208400711438C
:1007F000704700200146704701F0004330B421F0FB
:10080000004150EA010206D00A0DA2F56072C1F360
:100810001301002A02DC30BC00207047440F44EA78
:10082000C104C100E01830BC00EBC25000F076B843
:10083000002801DBC0F10040002901DBC1F10041CB
:1008400081427047002801DBC0F10040002901DB34
:10085000C1F10041884270472DE9F05F0546002054
:1008600092469B4688460646814640241BE0284621
:1008700041464746224600F02FF853465A46C01AD2
:10088000914110D311461846224600F016F82D1A51
:1008900067EB01084F4622460120002100F00DF8C9
:1008A00017EB00094E41201EA4F10104DFDC48468D
:1008B00031462A464346BDE8F09F202A04DB203A11
:1008C00000FA02F1002070479140C2F1200320FAA3
:1008D00003F3194390407047202A04DB203A21FAA1
:1008E00002F00021704721FA02F3D040C2F1200249
:1008F0009140084319467047202A06DBCB17203A5F
:1009000041FA02F043EAE07306E041FA02F3D04014
:10091000C2F1200291400843194670470029A8BF40
:100920007047401C490008BF20F00100704710B418
:10093000B0FA80FC00FA0CF050EA010404BF10BCCD
:10094000704749B1CCF1200421FA04F411FA0CF1FA
:1009500018BF012121430843A3EB0C01CB1D4FEA33
:1009600000614FEA102042BF002010BC704700EB2E
:10097000C35010440029A4BF10BC7047401C49005C
:1009800008BF20F0010010BC704710B5141E73F1B1
:10099000000408DA401C41F1000192185B411A433F
:1009A00001D120F0010010BD2DE9F04D92469B468B
:1009B00011B1B1FA81F202E0B0FA80F22032904631
:1009C000FFF77BFF04460F4640EA0A0041EA0B01AD
:1009D00053465A46084313D0114653EA010019D032
:1009E000C8F140025046FFF777FF05460E465046D5
:1009F00059464246FFF761FF084305D0012004E055
:100A000020463946BDE8F08D0020054346EAE076F1
:100A10002C4337430A986305E40AA0EB0800002240
:100A2000FD0A44EA47540A3002D500200146E9E7AE
:100A3000010510196941DDE9084500196941BDE862
:100A4000F04DA2E770B521F0004303430CD0C1F391
:100A50000A550024D5EB040564EB0403D617AD1A40
:100A6000B34102DB0020014670BD201841EB02516A
:100A700070BD0000064C074D06E0E06840F0010341
:100A800094E8070098471034AC42F6D3FFF732FBE6
:100A900098810008B88100082DE9F04D00231A461E
:100AA0001B1A8A4103DB00200146BDE8F08DC1F32B
:100AB0000A52C1F3130141F480154FF0000BD10726
:100AC00002D100186D41521E0027044640F2FF116A
:100AD000384601EB620A3E468046024600204FF44B
:100AE0008011FFF7F9FEC2197141BB1846EB0100F6
:100AF000B4EB030C75EB000C04D3E41A65EB0005B2
:100B000017460E46241908F101006D41804634282D
:100B1000E3DDF91946EB0600091BA84103D24FF0AB
:100B2000FF32134601E0002213461BEB070046EBA1
:100B30000A51BDE8F04DFFF728BF70B58C1810F8CA
:100B4000015B15F0070301D110F8013B2A1106D112
:100B500010F8012B03E010F8016B01F8016B5B1E2C
:100B6000F9D12B0705D40023521E0DD401F8013B07
:100B7000FAE710F8013BCB1A921C03E013F8015B73
:100B800001F8015B521EF9D5A142D8D3002070BDF7
:100B900000B587B00121880401F082F80121082006
:100BA00001F08EF818208DF81B004FF48060ADF82E
:100BB000180003208DF81A0006A91F4800F08AF9D2
:100BC00048208DF81B004FF40060ADF8180003209A
:100BD0008DF81A0006A9184800F07CF94FF4165059
:100BE00002900020ADF814000C20ADF81200002097
:100BF000ADF81000ADF80E00ADF80C0002A90F48DA
:100C000001F0F0FD012240F225510C4801F0C5FD34
:100C100027208DF8040001208DF8070002208DF8B0
:100C200005008DF8060001A800F0EEFD0121034843
:100C300001F070FD07B000BD000C0140004800400D
:100C400000BFFEE77047000010B52021094800F002
:100C500015FA68B9202008490860084A0849094877
:100C600003F02CFF20B9084A0849094800F0DAFAD5
:100C700010BD0000000C01401404014008010020D8
:100C800004010020000100201601002014010020B2
:100C900012010020002123498279002A3AD00A4615
:100CA000126803689A430B461A600A1D12680368AB
:100CB0009A430B1D1A60027911440A6803681A43AB
:100CC0000A60184A0832126803689A43154B0833C1
:100CD0001A601A1D126803689A43124B0C331A608B
:100CE0004279102A0ED11A1F126803681A430D4B5D
:100CF00008331A601A1D126803681A43094B0C3333
:100D00001A600DE00749427911440A6803681A43E2
:100D10000A6005E0027911440A6803689A430A6090
:100D2000704700000004014000B587B00121052094
:100D300000F0C6FF0121084600F0B2FF4FF08040EE
:100D400001F05CFB04208DF81B000320ADF81800B7
:100D50008DF81A0006A9214800F0BCF80020ADF873
:100D60001200ADF80E004FF6FF70ADF81000002035
:100D7000ADF80C008DF8140003A94FF0804001F08D
:100D80001DFC00231A4603214FF0804001F09CFA1D
:100D9000684601F021FB0420ADF800000F20ADF8FB
:100DA00008000020ADF8020069464FF0804001F0D5
:100DB000BDFA0121880701F075FA0122114690075A
:100DC00001F013FB00214FF0804001F0C9FB01212D
:100DD000880701F06DFA07B000BD0000000801406F
:100DE00000B587B00121092000F06AFF012104202D
:100DF00000F056FF254801F001FB04208DF81B0090
:100E0000C020ADF8180003208DF81A0006A920486C
:100E100000F060F80020ADF81200ADF80E004FF6BB
:100E2000FF70ADF810000020ADF80C008DF8140034
:100E300003A9164801F0C2FB684601F0CDFA042070
:100E4000ADF800000F20ADF808000020ADF802005A
:100E500069460E4801F06AFA00231A4603210B483E
:100E600001F032FA0121094801F01CFA0122114671
:100E7000064801F0BAFA0021044801F071FB012193
:100E8000024801F015FA07B000BD0000000800405C
:100E9000000C014030B500228B071C0F0F2303FA12
:100EA00004F20B4B8C1053F824309343084C8D10F4
:100EB00044F8253023468C1053F824308C07240F37
:100EC00000FA04F42343024C8D1044F8253030BD61
:100ED000080001402DE9F0410246002500260020CF
:100EE00000230024002791F803C00CF00F0591F8AF
:100EF00003C00CF0100CBCF1000F03D091F802C03D
:100F00004CEA050591F800C0BCF1000F31D014681F
:100F100000202BE04FF0010C0CFA00F3B1F800C0F8
:100F20000CEA03069E4220D183004FF00F0C0CFA0E
:100F300003F7BC4305FA03FC4CEA040491F803C030
:100F4000BCF1280F06D14FF0010C0CFA00FCC2F8DE
:100F500014C00AE091F803C0BCF1480F05D14FF06E
:100F6000010C0CFA00FCC2F810C0401C0828D1D3B8
:100F70001460B1F800C0BCF1FF0F34DD54680020EC
:100F80002EE000F1080C4FF0010808FA0CF3B1F85C
:100F900000C00CEA03069E4221D183004FF00F0CE3
:100FA0000CFA03F7BC4305FA03FC4CEA040491F87D
:100FB00003C0BCF1280F05D100F1080C08FA0CF8A9
:100FC000C2F8148091F803C0BCF1480F07D100F1BA
:100FD000080C4FF0010808FA0CF8C2F81080401C09
:100FE0000828CED35460BDE8F0810000F0B50A4671
:100FF000002300240021002500F00046B6F1004F38
:1010000002D11D4EF16901E01B4E7168C0F303452A
:1010100083B200F44016B6F5401F08D121F070618C
:10102000154E766826F07066134F7E6012E000F46D
:101030008016B6F5801F06D1032606FA05F4A143F3
:1010400041F0706106E0460D360103FA06F6B14341
:1010500041F0706122B1460D360103FA06F63143C4
:1010600000F00046B6F1004F02D1034EF16101E0FD
:10107000014E7160F0BD00000000014002460020FA
:1010800093680B400BB1012000E0002070474161E4
:101090007047016170470AB1016100E0416170472A
:1010A000014890F900007047CD00002000BFFEE726
:1010B00010B500F066FB02F015FB00F07DFC00F0BF
:1010C000E5FB642002F030FB00F028FA0A2002F071
:1010D0002BFB00F06BF802E008A001F0A1FC03F08C
:1010E000FFFD0028F8D100F07BFDFFF71DFEFFF7A4
:1010F00077FEFFF74DFD00F035F810BD496E6974BD
:1011000069616C697A6174696F6E206661696C658A
:1011100064A3A10D0A000000104B02681B689A42EC
:1011200002DD0E4A126802600D4B02681B689A428B
:1011300002DA0B4A12680260084B0A681B689A427E
:1011400002DD064A12680A60054B0A681B689A426B
:1011500002DA034A12680A6070470000D4000020D7
:10116000D000002008B50121042000F0A9FD1020C6
:101170008DF803001820ADF8000003208DF8020060
:1011800069460848FFF7A6FE10208DF803000320EB
:10119000ADF800008DF8020069460348FFF79AFE9B
:1011A00008BD000000080140000C01401FB50121EE
:1011B000084600F085FD0121082000F081FD202077
:1011C000ADF80C0048208DF80F0003A91448FFF774
:1011D00081FE05210120FFF75DFE20200190002007
:1011E0008DF808000C208DF8090001208DF80A0008
:1011F00001A8FFF74FFD4FF4407000F03DFB1720B2
:101200008DF8000007208DF8010000208DF8020005
:1012100001208DF80300684600F0F6FA1FBD0000BB
:10122000000C01402DE9FC4104460D4616466B4674
:1012300006224321682000F0CBF90746BFB99DF88C
:1012400001009DF8001040EA012000B220809DF8C6
:1012500003009DF8021040EA012000B228809DF8AA
:1012600005009DF8041040EA012000B230803846A5
:10127000BDE8FC8110B500200E4908600E480068EA
:1012800020F470200C4908600846006840F44030A3
:10129000086000200949C1F8900100F011F8012010
:1012A0000449086000F00CF800200449C1F88C01E2
:1012B00010BD00008C812142000C014000802142C1
:1012C00010B5022002F056FA10BD000008B5012149
:1012D000092000F0F5FC01210C48FFF787FE0121F1
:1012E000082000F0EDFC1820ADF8000010208DF86B
:1012F000030003208DF8020069460548FFF7EAFD68
:1013000018210348FFF7C5FE08BD000000023000A9
:10131000000C014010B500200E4908600E4800681E
:1013200020F470200C4908600846006840F4403002
:10133000086001200949C1F89001FFF7C1FF0120B1
:1013400004490860FFF7BCFF00200449C1F88C0184
:1013500010BD00008C812142000C01400080214220
:1013600070B5054600241648006820F47020144922
:1013700008600846006840F400200860002614E079
:10138000002010490860FFF79BFF01200E49C1F8BB
:101390008C016006040E0B487C38006808B1601CA4
:1013A000C4B2FFF78DFF701CC6B2082EE8DB15B97A
:1013B000FFF7B0FF01E0FFF75DFF204670BD0000C2
:1013C000000C01408C8121420080214270B504460E
:1013D0001248006820F47020104908600846006830
:1013E00040F44030086000200D490860002512E0FC
:1013F000E0090B49091D08606006040E0120094937
:10140000C1F88C01FFF75CFF002005490860FFF779
:1014100057FF681CC5B2082DEADB70BD000C014007
:101420008C8121420080214210B50E48006820F4D2
:1014300070200C4908600846006840F4403008609D
:101440000120094908600949C1F88C01FFF738FFFC
:10145000002005490860FFF733FF00200349C1F869
:101460008C0110BD000C014090812142008021427E
:1014700010B50E48006820F470200C49086008463A
:10148000006840F4403008600020094908600949BC
:10149000C1F89001FFF714FF0120054908600549D4
:1014A000C1F89001FFF70CFF10BD0000000C0140D7
:1014B0008C8121420080214210B50024144800682C
:1014C00020F47020124908600846006840F40020AB
:1014D000086001200F490860FFF7F2FE01200E4965
:1014E000C1F88C01FFF7ECFE07E0601CC4B2FA2CD7
:1014F00003DDFFF7BDFF012010BD064880380068FE
:101500000028F2D10349091F086000BFF4E700007A
:10151000000C0140908121420080214210B5FFF76C
:10152000D5FE80216B2000F0D7F8322002F0FCF8C5
:1015300000216B2000F0D0F8032000F08BF8002091
:1015400000F080F8C82000F0AAF80021382000F050
:10155000C3F800216A2000F0BFF80021232000F02A
:10156000BBF88021372000F0B7F8752000F013F8A1
:101570000446682C0BD101216B2000F0ADF800214E
:101580006C2000F0A9F8C82000F089F801E00120E3
:1015900010BD0020FCE770B50446FFF745FFD020E2
:1015A000FFF714FFFFF788FF2046FFF70FFFFFF755
:1015B00083FFFFF739FFD120FFF708FFFFF77CFF1C
:1015C0000020FFF7CDFE0546FFF752FF284670BD0D
:1015D0002DE9F04106460F4614461D46FFF724FF4D
:1015E000002141EA4601C8B2FFF7F0FEFFF764FFB1
:1015F00020B1FFF73DFF0120BDE8F0813846FFF73D
:10160000E5FEFFF759FFFFF70FFF012101EB460150
:10161000C8B2FFF7DBFEFFF74FFF0DE0012C04D14E
:101620000020FFF79DFE287003E00120FFF798FEE1
:101630002870601EC4B26D1C002CEFD1FFF718FF9C
:101640000020D9E710B50446E006010E1C2000F08A
:1016500043F810BD10B50446E006010E1B2000F053
:101660003BF810BD70B504460025BC2C01DB0125FC
:1016700010E0622C01DB02250CE02A2C01DB0325A3
:1016800008E0142C01DB042504E00A2C01DB05250D
:1016900000E0062529461A2000F01EF870BD70B53E
:1016A0000446B4F57A7F01DD4FF47A74042C00DA35
:1016B00004244FF47A7090FBF4F0401EC5B2294622
:1016C000192000F009F80546264604EBD671C1F34F
:1016D0004F00FFF7C7FF70BD70B505460C46FFF71A
:1016E000A3FED020FFF772FEFFF7E6FE18B1FFF76A
:1016F000BFFE012070BD2846FFF768FEFFF7DCFE45
:101700002046FFF763FEFFF7D7FE18B1FFF7B0FEE4
:101710000120EFE7FFF7ACFE0020EBE72DE9F041F9
:1017200005460E4617469846FFF77EFE002141EA21
:101730004501C8B2FFF74AFEFFF7BEFE20B1FFF732
:1017400097FE0120BDE8F0813046FFF73FFEFFF72E
:10175000B3FE00240CE018F80400FFF737FEFFF793
:10176000ABFE18B1FFF784FE0120EBE7601CC4B2AA
:10177000BC42F0DBFFF77CFE0020E3E700BFFEE7A2
:10178000704708B54FF4407000F076F817208DF8D8
:10179000000007208DF8010000208DF802000120D4
:1017A0008DF80300684600F02FF81E208DF8000029
:1017B00008208DF8010000208DF8020001208DF82E
:1017C0000300684600F020F826208DF8000006206F
:1017D0008DF8010000208DF8020001208DF8030033
:1017E000684600F011F825208DF8000009208DF8DA
:1017F000010000208DF8020001208DF803006846EA
:1018000000F002F808BD000070B5002100230F228F
:10181000C47804B3154C246804F4E064C4F5E064AF
:10182000210AC1F10403CA40447804FA03F1847820
:101830001440214309010E4C0678A155047804F0A8
:101840001F050124AC4005786D11AD0005F1E025C0
:10185000C5F8004109E0047804F01F050124AC40FC
:10186000044D0678761145F8264070BD0CED00E079
:1018700000E400E080E100E002490143024A116017
:10188000704700000000FA050CED00E070B5002480
:101890000EE00021204600F0F0F8002504E00020D2
:1018A00000F08DF9681CC5B2802DF8DB601CC4B255
:1018B000082CEEDB70BD000008B50121082000F007
:1018C000FFF914208DF8030003208DF802004FF477
:1018D0008070ADF8000069460A48FFF7FBFA4FF444
:1018E0000070ADF8000069460648FFF7F3FA0122E0
:1018F00051020448FFF7CFFB012211020148FFF714
:10190000CAFB08BD000C014070B50546002415E077
:101910008020204100EA05024FF480710E48FFF755
:10192000BAFB012251020C48FFF7B5FB00224FF42D
:1019300000710948FFF7AFFB601CC4B2082CE7DB5D
:10194000012251020448FFF7A6FB00224FF4007168
:101950000148FFF7A0FB70BD000C014010B501224B
:1019600011020A48FFF797FB012251020748FFF7CF
:1019700092FB00224FF480710448FFF78CFB002299
:101980004FF400710148FFF786FB10BD000C0140C9
:1019900010B500224FF480710648FFF77CFB01224E
:1019A00051020448FFF777FB012211020148FFF7BB
:1019B00072FB10BD000C014070B5002406E000254C
:1019C00000E06D1CB5F57A7FFBD3641CB4F57A7F1B
:1019D000F5D3FFF771FFAE2000F0E1F8D52000F05D
:1019E000DEF8802000F0DBF8A82000F0D8F83F20D7
:1019F00000F0D5F8D32000F0D2F8002000F0CFF8A6
:101A0000402000F0CCF8A12000F0C9F8C82000F078
:101A1000C6F8DA2000F0C3F8122000F0C0F88120E8
:101A200000F0BDF8CF2000F0BAF8D92000F0B7F8E8
:101A3000F12000F0B4F8DB2000F0B1F8302000F025
:101A4000AEF8A42000F0ABF8A62000F0A8F88D2096
:101A500000F0A5F8142000F0A2F8AF2000F09FF8E5
:101A6000FFF714FF70BD10B50246012000E050439F
:101A70000B1EA1F10101FAD110BD70B505460C464F
:101A800045F0B00000F08BF8102141EA141000F08E
:101A900086F804F00F0000F082F870BD2DE9F041E7
:101AA00005460E461746721ED206110E6A1E5206D3
:101AB000100EFFF7E2FF002409E0A7F12001134A0E
:101AC00002EB0111085D00F07AF8601CC4B2082C2A
:101AD000F3DB721ED206110E6A1E012303EB4202D3
:101AE000D0B2FFF7CAFF00240BE0A7F12001074A9C
:101AF00002EB011204F10801505C00F060F8601C78
:101B0000C4B2082CF1DBBDE8F0810000667A000861
:101B10002DE9F0478146884615461E46002D06DB16
:101B20002B2241464846FFF7B9FF2F4605E02D22FC
:101B300041464846FFF7B2FF6F42002417E0301BD2
:101B4000411E0A20FFF78FFFB7FBF0F00A21B0FB20
:101B5000F1F201FB120000F1300A08EB0400401C16
:101B6000C1B252464846FFF799FF601CC4B2B44266
:101B7000E5DBBDE8F0872DE9F04107460E46154646
:101B8000002407E02A5D3019C1B23846FFF786FF0E
:101B9000601CC4B2285D0028F4D1BDE8F08110B506
:101BA0000446FFF7DBFE7820FFF7AEFE0020FFF7CC
:101BB000ABFE2046FFF7A8FEFFF7EAFE10BD10B50A
:101BC0000446FFF7CBFE7820FFF79EFE4020FFF78C
:101BD0009BFE2046FFF798FEFFF7DAFE10BD0000DF
:101BE00000B589B00121042000F06AF8012102202B
:101BF00000F056F81E4800F001FC18208DF8230074
:101C0000C020ADF8200003208DF8220008A9194853
:101C1000FFF760F90020ADF81A00ADF8160041F6A4
:101C20001F40ADF818000020ADF814008DF81C001E
:101C300005A90F4800F0C2FC01A800F083FC602059
:101C4000ADF804000120ADF806000020ADF80C004E
:101C5000ADF80A0001A9064800F0D6FB01A9044826
:101C600000F01EFC0121024800F022FB09B000BD7B
:101C7000000400400008014010B504462146024817
:101C800000F06AFC10BD00000004004010B50446DE
:101C90002146024800F062FC10BD00000004004034
:101CA00029B1064AD2690243044BDA6104E0034ACF
:101CB000D2698243014BDA61704700000010024094
:101CC00029B1064A92690243044B9A6104E0034A2F
:101CD00092698243014B9A617047000000100240F4
:101CE00030B500210022002400232D4D6D6805F041
:101CF0000C0121B1042905D0082923D105E0294D83
:101D0000056022E0274D05601FE0254D6D6805F454
:101D10007012234D6D6805F48034022505EB924264
:101D20001CB9214D554305600BE01D4D6D6805F450
:101D300000351DB11C4D5543056002E0194D55435A
:101D4000056002E0174D056000BF00BF144D6D68CF
:101D500005F0F0010909154D6B5C0568DD40456033
:101D60000F4D6D6805F4E061090A104D6B5C456824
:101D7000DD4085600A4D6D6805F46051C90A0B4D60
:101D80006B5C4568DD40C560054D6D6805F44041FC
:101D9000890B074D6B5CC568B5FBF3F5056130BD7C
:101DA0000010024000127A0000093D0000000020EF
:101DB000100000200146022902D0042922D111E09E
:101DC0004FF08042928C02EB8202500000224FF0D2
:101DD00080439A84C21322B1C0F30E02A2F5FE40E2
:101DE000FF3811E0094A128802EB820250000022FB
:101DF000064B1A80C21322B1C0F30E02A2F5FE40B8
:101E0000FF3801E0002000BF00BF704724080040F9
:101E100010B500F001F810BD0CB500200190009045
:101E20003348006840F480303149086000BF3048D2
:101E3000006800F4003000900198401C0190009868
:101E400018B90198B0F5A06FF1D12948006800F4E5
:101E5000003010B10120009001E0002000900098B7
:101E6000012843D12348006840F010002149086050
:101E70000846006820F0030008600846006840F04B
:101E8000020008601A4840681949486008464068DE
:101E900048600846406840F48060486008464068F2
:101EA00020F47C1048600846406840F4E810486020
:101EB0000846006840F08070086000BF0C48006869
:101EC00000F000700028F9D00948406820F00300B5
:101ED000074948600846406840F00200486000BF7B
:101EE0000348406800F00C000828F9D10CBD000040
:101EF000001002400020024070B504460D46002C40
:101F000008DA10211948FFF7C4F808211748FFF72D
:101F1000BEF807E008211548FFF7BBF81021134869
:101F2000FFF7B5F8261E01DB314600E0714288B2AA
:101F3000FFF7A2FE002D08DA02210D48FFF7A9F8ED
:101F400001210B48FFF7A3F807E001210848FFF73C
:101F5000A0F802210648FFF79AF82E1E01DB314651
:101F600000E0714288B2FFF791FE70BD00080140A9
:101F7000000C0140042808D14FF0E021096941F02C
:101F800004014FF0E022116107E04FF0E021096900
:101F900021F004014FF0E0221161704710B500BF3D
:101FA000BF2080F31188BFF34F8FBFF36F8F00BF47
:101FB00004F0C0FD18B14FF080500449086000BF24
:101FC000002080F3118800BF10BD000004ED00E088
:101FD00010B51348006840F0010011490860084638
:101FE0004068104908400E494860084600680E499C
:101FF00008400B4908600846006820F4802008600B
:102000000846406820F4FE0048604FF41F008860D6
:10201000FFF7FEFE4FF000600449086010BD0000AD
:10202000001002400000FFF8FFFFF6FE08ED00E0A0
:10203000F0B50C46154600220021068C4FF6FE77BF
:102040003E400684028B018C4FF60C7632407E1C9B
:1020500006EA03162E433243104EB0420ED0104E05
:10206000B0420BD0B0F1804F08D00E4EB04205D038
:102070000D4EB04202D00D4EB04206D14FF6FD7665
:10208000314044F00106314305E04FF6F57631402A
:1020900044F00106314302830184F0BD002C01406D
:1020A000003401400004004000080040000C0040E3
:1020B000F0B50C461546002200210026078C4FF68D
:1020C000EF7C07EA0C070784028B018C4FF6FF7741
:1020D00007EA041640F6FF473A404FF6FF7707EA53
:1020E00003373A434FF6FF7707EA05273A43114F84
:1020F000B8420ED0104FB8420BD0B0F1804F08D08C
:102100000E4FB84205D00E4FB84202D00D4FB84224
:1021100006D14FF6DF77394046F01007394305E026
:102120004FF65F77394044F010073943028301844A
:10213000F0BD0000002C01400034014000040040CC
:1021400000080040000C0040F0B50C461546002287
:1021500000210026078C4FF6FF6C07EA0C07078466
:10216000828B018C4FF6FF7707EA04264FF60C7737
:102170003A404FF6FF7707EA03172F433A43114FD0
:10218000B8420ED0104FB8420BD0B0F1804F08D0FB
:102190000E4FB84205D00E4FB84202D00D4FB84294
:1021A00006D14FF6FF57394046F48077394305E0B2
:1021B0004FF2FF57394044F48077394382830184DA
:1021C000F0BD0000002C014000340140000400403C
:1021D00000080040000C0040F0B50C4615460022F7
:1021E00000210026078C4EF6FF7C07EA0C070784C7
:1021F000828B018C4FF6FF7707EA043640F6FF47E3
:102200003A404FF6FF7707EA05273A434FF6FF7744
:1022100007EA03373A43114FB8420ED0104FB84285
:102220000BD0B0F1804F08D00E4FB84205D00E4F02
:10223000B84202D00D4FB84206D14DF6FF77394073
:1022400046F48057394305E047F6FF57394044F4D8
:102250008057394382830184F0BD0000002C014087
:10226000003401400004004000080040000C004021
:1022700010B50121880700F048F8012803D1012199
:10228000800700F012F810BD10B50121044800F0DD
:102290003CF8012803D10121014800F006F810BDE7
:1022A00000080040CA4302827047CA430282704756
:1022B00021B1028842F00102028004E002884FF658
:1022C000FE731A4002807047F0B50C4615461E4654
:1022D0000021002200230189028B038C4FF6F8773E
:1022E000394021434FF6FC473A4040F201173A4348
:1022F0004FF6DD773B404FF6FF7707EA06172F438F
:102300003B43018102830384F0BD30B502460020C7
:1023100000230024158A05EA0103958905EA0104D2
:1023200013B10CB1012000E0002030BD70B50546AE
:102330000C46244885420ED0234885420BD0B5F187
:10234000804F08D02148854205D02148854202D0DF
:102350002048854200D100E000BF208850B9238981
:10236000A28861882846FFF763FEE188284600F0CE
:10237000F9F825E0208804280AD12389A2886188F9
:102380002846FFF795FEE188284600F0F4F817E0AC
:10239000208808280AD12389A28861882846FFF767
:1023A000D3FEE188284600F0F3F809E02389A288EB
:1023B00061882846FFF710FFE188284600F0F1F811
:1023C00070BD0000002C01400034014000040040BA
:1023D00000080040000C00400021018041800121E4
:1023E00081800021C180018170471AB183890B432C
:1023F000838102E083898B438381704701894FF693
:10240000F87211400181704770B50024002200234A
:10241000058C4FF6FE7635400584028C8388048B4C
:102420004FF68F752C40B51E2C400D882C43751E21
:102430002A400D892A434D882A43144DA8420BD0C7
:10244000134DA84208D0134DA84205D0124DA84202
:1024500002D0124DA84213D14FF6F7752A404D898C
:102460002A434FF6FB752A408D882A434FF6FF65B5
:102470002B404FF6FF552B408D892B43CD892B43A5
:1024800083800483CD888586028470BD002C014042
:102490000034014000400140004401400048014038
:1024A00070B5002400220023058C4FF6EF763540EE
:1024B0000584028C8388048B48F6FF752C404FF608
:1024C000FF452C400D884FF6FF7606EA05252C4384
:1024D0004FF6DF752A400D8906EA05152A434D8817
:1024E00006EA05152A43154DA84202D0144DA8420C
:1024F0001DD14FF67F752A404D894FF6FF7606EACB
:1025000005152A434FF6BF752A408D8806EA051542
:102510002A434FF6FF352B404FF2FF752B408D8934
:1025200006EA85052B43CD8906EA85052B43838082
:102530000483CD880587028470BD0000002C014013
:10254000003401400021018041808180C1800181EF
:1025500041818181C18170478186704701877047C1
:1025600081847047028B4FF6F3731A400283028B0B
:102570000A4302837047028B4FF2FF331A400283F3
:10258000028B4FF6FF7303EA01231A43028370475D
:10259000828B4FF6F3731A408283828B0A438283C5
:1025A0007047828B4FF2FF331A408283828B4FF643
:1025B000FF7303EA01231A438283704700220288D3
:1025C0001D4B98420ED01D4B98420BD0B0F1804F5E
:1025D00008D01B4B984205D01A4B984202D01A4B98
:1025E000984204D14FF68F731A404B881A43174B09
:1025F000984207D0164B984204D04FF6FF431A403A
:10260000CB881A4302808B8883850B8803850A4B0D
:1026100098420BD0094B984208D00E4B984205D0F7
:102620000D4B984202D00D4B984201D10B7A038694
:102630000123838270470000002C014000340140D8
:102640000004004000080040000C00400010004062
:102650000014004000400140004401400048014097
:10266000034600207047000010B540F225511D4878
:1026700000F069F810B31B4800F020F9C4B21A4802
:10268000008800F40040C8B91748008800F4804072
:1026900060B10A2C03D000201349088020E01248C2
:1026A000008840F400401049088019E00D2C06D144
:1026B0000D48008840F480400B49088010E00A482B
:1026C0000088C0F30D0009490C5407480088401CDD
:1026D0000549088008460088C72801DD00200880D9
:1026E00010BD000000380140800000200C46002092
:1026F00010B52021054800F019F8012805D103483C
:1027000000F0DCF840B20249087010BD00480040FB
:10271000CD00002021B1828942F40052828104E080
:1027200082894DF6FF731A4082817047024600206D
:10273000B1F5007F00D100BF13880B400BB1012021
:1027400000E00020704770B50246002400230025F9
:10275000002040F66A16B14200D100BFC1F3421515
:1027600001F01F03012606FA03F3012D02D1968919
:10277000334006E0022D02D1168A334001E0968AEA
:1027800033400C12012606FA04F41688344013B1C3
:102790000CB1012000E0002070BDF0B5034600241C
:1027A00000260025002040F66A17B94200D100BF7C
:1027B0001846C1F3421401F01F06012707FA06F577
:1027C000012C01D10C3004E0022C01D1103000E0CA
:1027D00014301AB107682F43076002E00768AF435F
:1027E0000760F0BD2DE9F04786B005460E4600248F
:1027F000A24600BFA1460027B08900B100BF2F4606
:102800002C8A4CF6FF700440F08804432C82AC897B
:102810004EF6F3100440B0883189084371890843AB
:102820000443AC81AC8A4FF6FF400440B0890443B6
:10283000AC8201A8FFF754FA1F48874202D1DDF8A5
:1028400010A001E0DDF80CA0A88900F4004040B120
:102850000AEBCA0000EB0A1031684900B0FBF1F83E
:1028600007E00AEBCA0000EB0A1031688900B0FBF0
:10287000F1F86420B8FBF0F004012009642101FBA9
:102880001089A88900F4004040B1322000EBC90053
:10289000B0FBF1F000F00700044308E0322000EB49
:1028A00009106421B0FBF1F000F00F0004432C810B
:1028B00006B0BDE8F0870000003801400146888876
:1028C000C0F30800704700BFFEE700002DE9FF5F7E
:1028D000044689469246DFF8D8B009EB0A00001B8F
:1028E0003449086034480068FDF716FF07464FF08A
:1028F0006632324BFDF721FE0546FDF74BFF2E49B0
:1029000008602C480068FDF707FF07464FF0333298
:102910002B4BFDF712FECDE9020127480068FDF7B9
:10292000FBFECDE90001DDE90223FDF75FFD054671
:10293000FDF730FF20490860224800680968084414
:102940002049086008460068B0F5FA5F02DD4FF4E0
:10295000FA5008E01B48006810F5FA5F01DA1A48DF
:1029600001E0184800681749086008460068FDF74C
:10297000C5FE8046154801684046FDF7C7FC06467F
:102980000D480068FDF7BAFE8046114801684046D0
:10299000FDF7BCFC07463146FDF760FC0546FDF738
:1029A000CCFE0C4908600846006804B0BDE8F09F02
:1029B0003333333FF4000020F80000206666E63F22
:1029C0003333D33FFC000020C0E0FFFFE4000020D1
:1029D000E0000020F00000202DE9F05F05460E46E3
:1029E000144631462846FDF78BFC814621460A48AD
:1029F0000068FDF78BFC8246494608480068FDF7F1
:102A000085FC83465146FDF729FC8046FDF795FE7F
:102A100007463846BDE8F09FDC000020D8000020C3
:102A20000FB4054B10B503A9044A029800F09AF8B8
:102A300010BC5DF814FB0000754300087C0000200A
:102A4000490050EAC12018BF04204A0D18BF40F0C9
:102A5000010040F2FF72B2EB515F08BF40F002008C
:102A6000012808BF052070472DE9F0414F1E00EBFB
:102A7000C7010446D1E9000115461E4637F006029B
:102A80000DD02A463346FDF758FD7F1E04EBC703E1
:102A9000D3E90023FDF7AAFC37F00602F1D1022F9B
:102AA00025D0042F13D0062F18BFBDE8F0812A4689
:102AB0003346FDF742FDD4E90A23FDF797FC2A4689
:102AC0003346FDF73AFDD4E90823FDF78FFC2A468B
:102AD0003346FDF732FDD4E90623FDF787FC2A468D
:102AE0003346FDF72AFDD4E90423FDF77FFC2A468F
:102AF0003346FDF722FDD4E90223FDF777FC2A4691
:102B00003346FDF71AFDD4E90023BDE8F041FDF797
:102B10006DBC0122FDF796BFFDF768BC002213468D
:102B200010461146FDF77BBD024A00201107FDF754
:102B300089BF000001FDFFFF02E008C8121F08C1A5
:102B4000002AFAD170477047002001E001C1121F2E
:102B5000002AFBD17047000001490860704700005F
:102B6000400100202DE9FF4F8DB00F46054600269D
:102B700006E025280BD0DDE90F1290476D1C761C6E
:102B800028780028F5D111B03046BDE8F08F002438
:102B9000A246A1460122EC4900E0044315F8013F9A
:102BA000203B02FA03F00842F7D128782A2810D0F7
:102BB0006FF02F022878A0F13001092914D80AEB10
:102BC0008A0102EB410144F0020400EB010A6D1C92
:102BD000F0E701CF5FEA000A03D544F40054CAF1DC
:102BE000000A44F002046D1C28782E2817D115F82D
:102BF000010F44F004042A280ED06FF02F02287829
:102C0000A0F1300109290AD809EB890102EB410141
:102C100000EB01096D1CF2E757F8049B6D1C287846
:102C20006C280FD006DC4C2817D068280DD06A28F5
:102C300014D104E0742810D07A280FD10DE044F4A8
:102C400000140AE044F4801401E044F4401469786C
:102C5000814202D104F580146D1C6D1C2A786E2A05
:102C60001FD00CDC632A31D004DC002A8BD0582A18
:102C700011D1A3E0642A68D0692A0CD165E0732AD7
:102C80002ED004DC6F2A73D0702A04D19BE0752A01
:102C90006FD0782A6ED01046DDE90F129047761C6F
:102CA00050E1C4F30250022806D0032809D00428BA
:102CB00001CF09D0066045E101CFF117C0E90061FD
:102CC00040E101CF06803DE106703BE117F8040BBF
:102CD0008DF8000000208DF80100EB46012003E094
:102CE00057F804BB4FF0FF3061074FF0000102D4EA
:102CF0000DE008F10101884649450FDA8045F8DB0F
:102D00001BF808100029F4D108E008F101018846F9
:102D10008142FADB1BF808100029F6D1DDE90F2308
:102D2000AAEB08008146214600F036F9304400EB5A
:102D3000080604E0DDE90F121BF8010B9047B8F11B
:102D40000108F7D221464846F7E00A21C4F30253AE
:102D50004FF0000B0891022B04D001CFC117032BB9
:102D600009D00AE0FF1D27F00707F7E8020108E095
:102D700032E01FE020E000B2C117042B01D140B2C5
:102D8000C117031E71F1000307DA4FF0000CD0EBFE
:102D90000C006CEB01012D2302E0230504D52B234D
:102DA0008DF82430012303E0E30701D02023F7E767
:102DB000984658E00A2110E010210EE010204FF054
:102DC000000B08900CE010214FF0000B44F00404BD
:102DD0004FF00809089103E008214FF0000B08911B
:102DE000C4F30253022B04D001CF0021032B06D0E1
:102DF00006E0FF1D27F00707F7E8020103E080B2B5
:102E0000042B00D1C0B24FF0000823072BD5702A45
:102E100007D0DDF820C08CF0100C5CEA0B0C05D05C
:102E20000EE040238DF82430012308E050EA01032E
:102E300006D030238DF824308DF8252002239846C3
:102E4000DDF820C08CF0080C5CEA0B0C0BD150EACA
:102E5000010301D1630706D530238DF824304FF0EC
:102E60000108A9F10109582A04D038A20B9208AA36
:102E70000A920BE03AA2F9E75B46089AFDF7ECFCF0
:102E80000B9B9B5C0A9A521E0A92137050EA010235
:102E9000F2D10A98ADEB000000F1200B600702D5DB
:102EA00024F4803401E04FF00109D94502DDA9EB9B
:102EB0000B0000E0002000EB0B0141440890AAEB5E
:102EC000010AE00306D4DDE90F232146504600F055
:102ED00063F806444FF0000908E009A911F8090059
:102EE000DDE90F12904709F10109761CC145F4DBB9
:102EF000E0030CD5DDE90F232146504600F04CF8E5
:102F0000064404E0DDE90F1230209047761C089952
:102F1000481E08900029F5DC08E00A980A99007814
:102F2000491C0A91DDE90F129047761CBBF10001A4
:102F3000ABF1010BF1DC21465046DDE90F2300F037
:102F400019F806446D1C1BE60928010030313233A4
:102F500034353637383961626364656600000000D5
:102F600030313233343536373839414243444546BF
:102F7000000000002DE9F041044600251E461746DA
:102F8000880404D405E039462020B0476D1C641E37
:102F9000F9D52846BDE8F0812DE9F0410446002529
:102FA0001E469046C80301D5302700E0202788043C
:102FB00004D505E041463846B0476D1C641EF9D57E
:102FC0002846BDE8F08100002DE9FE4F06460F4679
:102FD0000025684601F0DCF9002442E056F82400A0
:102FE00057F82410A0EB010ABAF1000F01DB51469B
:102FF00001E0CAF100010846FDF780FB83464FF06F
:103000008F41FDF7B5F980465DF824000021FDF7FA
:103010000FFC16D05DF824104046FDF7A9F9824652
:103020004FF07E51FDF76CF9814629F0004A0F48B8
:10303000416A5046FDF706FC12D20120A04005432C
:103040000EE00A48C1694046FDF7F2FB05D3074888
:10305000016A4046FDF7F6FB02D20120A04005437D
:10306000641C032CBADB2846BDE8FE8F486E0008BE
:103070002DE9F04D8D4F21F0004A86B005460C46F3
:10308000BA452ADBAAEB070028430AD088488245C4
:1030900001DC1AD1CDB106B02846BDE8F04DFFF7EE
:1030A00038BD844A844B2846FDF747FA07460E464A
:1030B000824A834B28462146FDF73FFA06B03A463E
:1030C0003346BDE8F04DFDF791B90120FFF744FD0F
:1030D00006B0BDE8F04DFFF721BD7A48824542DADF
:1030E000BAF1795F0BDA2846FFF7AAFC042808BF7B
:1030F000FFF71AFD284606B02146BDE8F08D2A46A6
:103100000B461046FDF719FA834602466E480E46F6
:103110000B4606217844FFF7A7FC5A463346FDF7D5
:103120000CFA804669488A465A4633460421784458
:10313000FFF79AFC5A463346FDF7FFF900223B465B
:10314000FDF754F902460B4640465146FDF767FA33
:103150002A462346FDF7F1F906B02A462346BDE884
:10316000F04DFDF743B9284624F0004100223D46CA
:103170003B46FDF7DFF94FF0FF32FDF763FC0646F3
:10318000024653480F460B4606217844FFF76CFC75
:1031900032463B46FDF7D1F9CDE900014D483246B4
:1031A0003B4604217844FFF75FFC32463B46FDF77F
:1031B000C4F900222B46FDF719F9834602913046E7
:1031C000394603F0B3F8804643480D46504517DCB6
:1031D000DDE900015A46029BFDF721FA42462B46E3
:1031E000FDF7ABF942462B46FDF700F90122FDF74A
:1031F00029FC304A304BFDF79AF9304A304B4CE00D
:103200004FF0000A52460B464046FDF7EFF8CDE975
:10321000031052462B4610461946FDF78EF93246EA
:103220003B46FDF787F9DDE90332FDF7F8F906467D
:103230000F46DDE900015A46029BFDF7F0F983468F
:103240000091012230463946FDF7FCFB194A1A4B22
:10325000FDF770F906460F46012240462946FDF764
:10326000F1FB5A46009BFDF768F932463B46FDF7F5
:103270005EF906460F46012250462946FDF7E2FB5D
:103280000E4DDFF858802A464346FDF753F9324683
:103290003B46FDF74FF92A464346FDF74BF9002C14
:1032A000D8BF81F0004106B0BDE8F08D0000F03FCE
:1032B0000000F07F075C143326A6913C182D44547F
:1032C000FB21F93F0000E03F404F0000564F000057
:1032D000CA4E0000E04E00003333EF3FFB21E93FD0
:1032E0002DE9F84F04460D4621F000400091734946
:1032F000814211DC7249884201DC06D12CB12046A2
:103300002946BDE8F84FFFF704BC6E48002DCCBF3E
:103310006D496E49BDE8F88F6D49814211DD6D49F7
:103320008142D8BF4FF0FF366DDD20462946FFF7BA
:1033300087FB042808BFFFF7F7FB20462946BDE8B6
:10334000F88F6549654F25F00045814233DD6449BA
:10335000814219DD002632464FF08043204629463F
:10336000FDF744F880468A46012220462946FDF7AB
:1033700069FB00223B46FDF7DAF842465346FDF76B
:103380004EF904460D463EE001260022BA463B4671
:1033900020462946FDF72AF880460F46002253466C
:1033A00020462946FDF7C3F842463B46FDF737F96C
:1033B00004460D4627E04B4981421BDDDFF828A17A
:1033C00002260022534620462946FDF7B6F8002281
:1033D0003B46FDF70BF880460F4600225346204639
:1033E0002946FDF7A4F842463B46FDF718F9044686
:1033F0000D4608E0032622462B4600203B49FDF7F8
:103400000EF904460D4622462B4610461946FDF796
:1034100094F88B46824602460B46FDF78EF8074627
:103420000246334888460B4606217844FFF71CFBCA
:1034300052465B46FDF781F882462E488B463A4657
:10344000434605217844FFF70FFB3A464346FDF714
:1034500074F802460B46002E504659460CDAFCF72B
:10346000C5FF22462B46FDF768F801B022462B46E1
:10347000BDE8F04FFDF75EB8FCF7B8FF22462B46DB
:10348000FDF75BF81C4A7A4402EBC603D3E900233C
:10349000FDF74DF822462B46FDF749F8174A7A44C6
:1034A00002EBC603D3E90023FDF744F8009A002A93
:1034B000B8BF81F00041BDE8F88F00000000104463
:1034C0000000F07F182D4454FB21F93FFB21F9BF88
:1034D0000000DC3F0000203E0000F33F0000F03F12
:1034E0000000E63F008003400000F83F0000F0BF0E
:1034F000E24C0000A04C00003E4C0000064C0000D6
:103500002DE9F04D9446CCF1000423F000464CEA3E
:103510000404524F46EAD4749A46884621F0004289
:10352000BC4206D8454240EA050442EAD474BC4293
:1035300004D9BDE8F04D6246FFF7EEBAAAF1405556
:10354000A5F17F6555EA0C040BD0022404EAAA74A5
:10355000434DDFF810E144EAD87452EA000B04D07E
:103560000CE0BDE8F04DFFF7BBBE002C14BF012CF2
:10357000BDE8F08D022C30D0032C32D056EA0C0B73
:103580000AD0BE4220D1BA4209D126F0804622F0AC
:1035900080423346114617E000291ADB25E0DFF8A8
:1035A000C8B0FB44002C04BFDBE90001BDE8F08D8E
:1035B000012C02BFDBE9000181F00041BDE8F08D84
:1035C000022C0AD0032C0CD0BA4212D1B8F1000F51
:1035D0000BDA23482549BDE8F08D28462449BDE88B
:1035E000F08D28467146BDE8F08D1D482149BDE8A3
:1035F000F08D921B12153C2AC4BF19481D490EDCE0
:10360000BAF1000FBEBF12F13C0F0020014606DBED
:103610006246FDF704F821F00041FFF761FE002C3F
:1036200008BFBDE8F08D012C04BF81F00041BDE86A
:10363000F08D114A114B022C07D0FCF778FF2A4677
:10364000BDE8F04D0A4BFCF772BFFCF770FF2A464D
:10365000BDE8F04D064BFCF76DBF00000000F07FA9
:10366000182D4454FB2109C09A4B0000FB21F9BFDF
:10367000FB210940FB21F93F075C143326A6A13C3E
:103680002DE9F0410446E07800F0C006E07800F053
:103690003F05607800F0010098B1EF102846E91767
:1036A00005EB5171C910A5EBC101491C01F0FF08E0
:1036B0000B48006820B10A484146026838469047E6
:1036C00000BF607800F0080030B10548406818B1CC
:1036D000B011034A516888470020BDE8F08100001E
:1036E000D446002010B56FF00400FEF743FC0A48F2
:1036F00000680A49B0FBF1F00949087008460078F3
:1037000000EB4001C1EBC0104FF6FF7101EAC000B1
:103710000449088010BD00008400002000127A00D7
:10372000780000207A0000200146114A12884A439E
:103730004FF0E0235A6100229A611A46126942F062
:1037400001021A6100BF4FF0E022106900F001028F
:103750001AB100F48032002AF5D04FF0E02212694D
:1037600022F001024FF0E0231A6100229A617047B3
:103770007A0000200146114A12784A434FF0E023B4
:103780005A6100229A611A46126942F001021A61D6
:1037900000BF4FF0E022106900F001021AB100F4FE
:1037A0008032002AF5D04FF0E022126922F00102A7
:1037B0004FF0E0231A6100229A61704778000020E0
:1037C00038B5044664B120208DF8000028208DF81B
:1037D000010030208DF8020038208DF8030004E04D
:1037E000A32204216846FCF71AFD6A46042140F62C
:1037F0009E2002F013FA01F0FDFD38BD3EB50446EF
:1038000002208DF80000CA208DF80100E3208DF819
:10381000020009208DF803006A460421682002F0A6
:10382000FDF9A3208DF8000004F0400048B1C0204D
:103830008DF80100C8208DF80200C2208DF8030029
:1038400006E0A3208DF801008DF802008DF803003A
:1038500004F4C07048B1C4208DF80400CC208DF869
:103860000500C6208DF8060006E0A3208DF80400B0
:103870008DF805008DF80600A3208DF807008DF85F
:1038800008008DF809006A460A2140F6A72002F0D8
:10389000C5F904F0030018B120208DF8000002E003
:1038A000D8208DF800006A46012140F6B62002F0CB
:1038B000B5F904F0200018B1012000F0ADF802E0E5
:1038C000002000F0A9F804F4C07008B304F480707C
:1038D00060B1B2208DF800008B208DF80100B62079
:1038E0008DF802009B208DF803000BE0B0208DF8CE
:1038F000000080208DF80100B4208DF80200902097
:103900008DF803006A46042140F6A22002F086F9F1
:1039100004F0010020B3F8208DF800006A46012170
:103920004FF40B6002F07AF9FA21072000F02CFC2A
:10393000072000F0F3FB012000F013FC642000F0EE
:10394000F3FC4FF4FA7000F002FDC821304800F09B
:10395000A3FB282000F0BCFB0A2000F0CCFB08E011
:10396000D8208DF800006A4601214FF40B6002F068
:1039700055F904F0020018B1D9208DF8000002E0DA
:10398000D8208DF800006A46012140F23D7002F017
:1039900045F904F0040018B1012000F069F802E0D4
:1039A000002000F065F804F0100018B10120FFF7C6
:1039B00007FF02E00020FFF703FF44F0080015496D
:1039C000488101F017FD00201249887304F040007F
:1039D00018B10846807B801D887304F4C07020B144
:1039E0000C48807B801D0B49887304F0140020B1C3
:1039F0000848807B10300749887304F0030020B129
:103A00000448807B001D0349887300203EBD0000F0
:103A100009E3CA02D44600203EB504466CB10EA1AB
:103A2000D1E900208968CDE9002002916A46092188
:103A30004FF4976002F0F2F83EBD0AA2D2E90010FE
:103A40009268CDE9010200916A4609214FF497601E
:103A500002F0E4F8F0E70000B8AAB38DB4980D3591
:103A60005D000000B8AAAAAAB088C3C5C7000000BC
:103A700038B5044664B1C0208DF80000C2208DF82E
:103A80000100C4208DF80200C6208DF8030004E078
:103A90008B2204216846FCF7C2FB6A46042140F6EB
:103AA000982002F0BBF801F0A5FC38BD10B5C82382
:103AB0004FF48062024940F6F63001F02FFB10BD52
:103AC000706E00082DE9F04F8DB007468846154608
:103AD0009946DDE9166B0024002030806B49887B15
:103AE0005A4605A901F0E6FB18B1601E0DB0BDE80D
:103AF000F08F6648807A00F01400002867D09DF8A7
:103B0000140000069DF8151040EA01409DF81610BB
:103B100040EA01209DF81710084328609DF818001E
:103B200000069DF8191040EA01409DF81A1040EA7D
:103B300001209DF81B10084368609DF81C000006DA
:103B40009DF81D1040EA01409DF81E1040EA01203A
:103B50009DF81F100843A8609DF8200000069DF8FE
:103B6000211040EA01409DF8221040EA01209DF812
:103B700023100843E86004F11000C4B22868001460
:103B80000190686800140290A86800140390E86827
:103B90000014049001984043029901FB010003992D
:103BA00001FB0100049901FB010ABAF1706F02DB0D
:103BB000BAF1885F05DD01F01DFC00203080401E59
:103BC00094E7B6F9000040F48070308000BF2F48C1
:103BD000807A00F0400020B305A9601C085C095DF4
:103BE00040EA012000B2A8F8000005A9E01C095C29
:103BF00005AAA01C105C41EA002000B2A8F802004F
:103C000005A9601D095C201D105C41EA002000B27E
:103C1000A8F80400A01DC4B2B6F9000040F00800E6
:103C200030801A48408900F4C07008B305A9601CB0
:103C3000085C095D40EA012000B2388005A9E01C5B
:103C4000095C05AAA01C105C41EA002000B2788043
:103C500005A9601D095C201D105C41EA002000B22E
:103C6000B880A01DC4B2B6F9000040F070003080EA
:103C70000648807A00F0030018B105A90819FFF77B
:103C8000FFFC484600F0E1FE00202FE7D44600206C
:103C900070B588B0064601A801F094F8BDF804009C
:103CA0000021C90341EA5045C4034448007A00F0AA
:103CB000030056F8200005904048007A00F0040008
:103CC00010B10598404205903C48007AC0F3C1000D
:103CD00056F8200006903948007A00F0200010B114
:103CE0000698404206903548007AC0F3811056F895
:103CF000200007903148008900F4807010B10798C7
:103D0000404207900598C117A0FB042301FB043132
:103D100000FB0510810041EA927005900698C117DA
:103D2000A0FB042301FB043100FB0510810041EAE4
:103D3000927006900798C117A0FB042301FB043181
:103D400000FB0510810041EA927007900598000E73
:103D50008DF808000598000C8DF809000598000AF8
:103D60008DF80A000598C0B28DF80B000698000E79
:103D70008DF80C000698000C8DF80D000698000ACE
:103D80008DF80E000698C0B28DF80F000798000E4F
:103D90008DF810000798000C8DF811000798000AA4
:103DA0008DF812000798C0B28DF8130002AA0C21FA
:103DB0004FF4257001F032FF08B070BDD4460020EA
:103DC00030B585B0044616A207CA02AB07C3C82C9B
:103DD00003DD4FF0FF3005B030BDC82090FBF4F09C
:103DE000401E85B2280A8DF80000E8B28DF8010067
:103DF0006A46022140F2162001F010FF10B14FF088
:103E0000FF30E8E702AA0C2140F6C12001F006FFCE
:103E100010B14FF0FF30DEE7044884810020DAE77C
:103E2000FEF2ABC4AAF1DFDFBBAFDFDFD446002078
:103E30001FB504464848007A00F0030054F82000FB
:103E400001904548007A00F0040010B1019840420A
:103E500001904148007AC0F3C10054F8200002905C
:103E60003D48007A00F0200010B1029840420290D4
:103E70003948007AC0F3811054F820000390364886
:103E8000008900F4807010B10398404203903349D8
:103E9000019880FB0101800F40EA810001902F49C9
:103EA000029880FB0110820042EA917002902B4937
:103EB000039880FB0110820042EA91700390019800
:103EC000000E8DF800000198000C8DF8010001989B
:103ED000000A8DF802000198C0B28DF803006A460E
:103EE00004214FF4747001F099FE18B14FF0FF30C7
:103EF00004B010BD0298000E8DF800000298000C6E
:103F00008DF801000298000A8DF802000298C0B2F4
:103F10008DF803006A4604214FF4757001F07EFEAF
:103F200010B14FF0FF30E3E70398000E8DF800006A
:103F30000398000C8DF801000398000A8DF8020028
:103F40000398C0B28DF803006A4604214FF47670DE
:103F500001F064FECCE70000D446002009E3CA0269
:103F600010B586B0044647A00068039046A00068DC
:103F7000029046A00068019045A00068009004F0FF
:103F8000030003A9085C8DF8140003A8C4F3C10161
:103F9000405C8DF8150003A8C4F38111405C8DF8D6
:103FA000160004F0030002A9085C8DF8100002A8B6
:103FB000C4F3C101405C8DF8110002A8C4F3811163
:103FC000405C8DF8120005AA032140F2264001F062
:103FD00025FE18B14FF0FF3006B010BD04AA032132
:103FE00040F22A4001F01AFE10B14FF0FF30F3E723
:103FF000019805900098049004F0040058B19DF8D1
:10400000140040F001008DF814009DF8100040F0FD
:1040100001008DF8100004F0200058B19DF8150043
:1040200040F001008DF815009DF8110040F00100EE
:104030008DF8110004F4807058B19DF8160040F01E
:1040400001008DF816009DF8120040F001008DF877
:10405000120005AA03214FF4886001F0DFFD10B1C2
:104060004FF0FF30B8E704AA032140F2314001F0DD
:10407000D5FD10B14FF0FF30AEE7064804810020B7
:10408000AAE700004CCD6C000CC92C003656760017
:1040900026466600D4460020F8B505460E464FF485
:1040A0007A7095FBF0F000FB06F4200E8DF800000E
:1040B000200C8DF80100200A8DF80200E0B28DF886
:1040C00003006A4604214FF4AE7001F0A7FDF8BD6D
:1040D00038B50446052094FBF0F084B220128DF828
:1040E0000000E0B28DF801006A4602214FF4AD7085
:1040F00001F094FD38BD38B50446052094FBF0F07E
:1041000084B220128DF80000E0B28DF801006A46FA
:1041100002214FF4AC7001F081FD38BD38B5044682
:104120000020009004F0010020B19DF8000040F054
:104130003000009004F0020020B19DF8000040F033
:104140000C00009004F0040020B19DF8000040F045
:10415000030000906A4601214FF4A47001F05EFD57
:1041600038BD38B50446012C01DA012402E0042CE4
:1041700000DD0424601EC0B200906A46012140F2B6
:104180004F1001F04BFD38BD2DE9FC4706460F46A8
:1041900006F0070010B1B7F5C86F03DD4FF0FF3030
:1041A000BDE8FC873846FCF7B2FA81465949FCF76E
:1041B000DFF88046684600F0DFFD9DF80000022829
:1041C00006D0042816D0082826D0102848D135E07B
:1041D0004FF08D414046FCF799F88146FCF7C6FA4E
:1041E00084B24D494046FCF791F88146FCF7BEFA8F
:1041F00085B238E04FF08C414046FCF787F88146A5
:10420000FCF7B4FA84B245494046FCF77FF8814692
:10421000FCF7ACFA85B226E04FF08B414046FCF744
:1042200075F88146FCF7A2FA84B23D494046FCF796
:104230006DF88146FCF79AFA85B214E04FF08A4196
:104240004046FCF763F88146FCF790FA84B23549A2
:104250004046FCF75BF88146FCF788FA85B202E03D
:104260004FF0FF309CE700BF20128DF80400E0B251
:104270008DF8050028128DF80600E8B28DF80700C9
:1042800006F00100A0B101AA02214FF4EA7001F08A
:10429000C5FC10B14FF0FF3082E70DF1060202219C
:1042A0004FF4927001F0BAFC10B14FF0FF3077E795
:1042B00006F00200A0B101AA02214FF4EC7001F057
:1042C000ADFC10B14FF0FF306AE70DF1060202219C
:1042D0004FF4947001F0A2FC10B14FF0FF305FE793
:1042E00006F00400A0B101AA02214FF4EE7001F023
:1042F00095FC10B14FF0FF3052E70DF1060202219C
:104300004FF4967001F08AFC10B14FF0FF3047E790
:10431000002045E700004843000040460000C0453B
:10432000000040450000C04438B50446052094FB19
:10433000F0F085B228128DF80000E8B28DF8010087
:104340006A4602214FF4EF7001F068FC38BD38B5C1
:104350000446052094FBF0F085B228128DF8000089
:10436000E8B28DF801006A4602214FF4ED7001F0C9
:1043700055FC38BD00BF054A128802F04002002AF1
:10438000F9D0C2B2014B1B1D1A80704700380140A2
:104390007CB5054628494968087801AB04220D21FF
:1043A000FDF716F908B107207CBD9DF80700C0F3A2
:1043B00001109DF8041001F0E00140EAE1008DF8E1
:1043C00000009DF80700C0F381009DF8051001F082
:1043D000E00140EAE1008DF801009DF8070000F0DF
:1043E00003009DF8061001F0E00140EAE1008DF8BD
:1043F000020000241CE01DF8040018B9002045F854
:10440000240013E00D4845F8240006E055F8240088
:104410000B49FBF77BFF45F824001DF80400401E04
:10442000C0B20DF804000028F0D100BF601CC4B277
:10443000032CE0DB0020B7E7980000207B14AE3EA1
:104440001D5A843F2DE9F04F87B005460C46914632
:1044500001208DF8100000208DF81100FE4A12682E
:10446000917CFD4A5268107804AB0222FDF756F9A0
:1044700020B14FF0FF3007B0BDE8F08FC820FFF744
:1044800053F900208DF81000F34A1268D17BF24AEC
:104490005268107804AB0122FDF740F910B14FF0DB
:1044A000FF30E8E7EC4A12685179EB4A526810781D
:1044B00004AB0122FDF732F910B14FF0FF30DAE71B
:1044C000E54A1268917CE44A5268107804AB0122F4
:1044D000FDF724F910B14FF0FF30CCE7DE4A126847
:1044E000D17DDD4A5268107804AB0122FDF716F940
:1044F00010B14FF0FF30BEE7D74A12681179D64AA3
:104500005268107804AB0122FDF708F910B14FF0A2
:10451000FF30B0E70C208DF81000CF4A12681179F7
:10452000CD4A5268107804AB0122FDF7F7F810B1BC
:104530004FF0FF309FE70F20FFF7F6F8C648806A7C
:10454000407A8DF81000C44A12689178C24A5268C5
:10455000107804AB0122FDF7E1F810B14FF0FF3005
:1045600089E7BD48806A007A8DF81000BA4A12685F
:104570005178B94A5268107804AB0122FDF7CEF8A1
:1045800010B14FF0FF3076E7B9F1000F07D0B24815
:10459000806A807A40F0E0008DF8100004E0AE48B8
:1045A000806A807A8DF81000AB4A12689179AA4A25
:1045B0005268107804AB0122FDF7B0F810B14FF04B
:1045C000FF3058E7B9F1000F07D0A348806AC07ADE
:1045D00040F0E0008DF8100003E0A048C07A8DF8AC
:1045E00010009D4A1268D1799B4A5268107804AB3A
:1045F0000122FDF793F810B14FF0FF303BE7B9F11E
:10460000000F02D0C820FFF78FF840208DF810006F
:10461000914A12681179904A5268107804AB0122CD
:10462000FDF77CF810B14FF0FF3024E778208DF8CB
:104630001000894A12685179874A5268107804AB91
:104640000122FDF76BF810B14FF0FF3013E78349FB
:104650008889FFF769F800208DF810007E4A1268FB
:1046600051797D4A5268107804AB0122FDF756F863
:1046700010B14FF0FF30FEE6774A1268917A764A21
:104680005268107804AB0222FCF7A2FF10B14FF081
:10469000FF30F0E69DF811009DF8101040EA012B64
:1046A0000C209BFBF0F0C6B20020A8606860286078
:1046B000A06060602060824665E0674A1268D17A37
:1046C000654A5268107804AB0C22FCF781FF10B1E8
:1046D0004FF0FF30CFE69DF811009DF8101040EA32
:1046E000012000B2ADF808009DF813009DF81210EB
:1046F00040EA012000B2ADF80A009DF815009DF8CF
:10470000141040EA012000B2ADF80C00BDF9081009
:10471000206808442060BDF90A10606808446060A1
:10472000BDF90C10A0680844A0609DF817009DF822
:10473000161040EA012000B2ADF800009DF8190003
:104740009DF8181040EA012000B2ADF802009DF873
:104750001B009DF81A1040EA012000B2ADF80400D9
:10476000BDF90010286808442860BDF90210686887
:1047700008446860BDF90410A8680844A8600AF1FC
:10478000010000F0FF0AB24597DB3448D0F800C0C2
:104790002868C117090441EA104107046246002352
:1047A0003846FBF70BFD32460023CDE90201FBF74B
:1047B00005FD28602948D0F800C06868C1170904C1
:1047C00041EA10410704624600233846FBF7F6FC35
:1047D00032460023CDE90201FBF7F0FC68601F4878
:1047E000D0F800C0A868C117090441EA10410704C5
:1047F000624600233846FBF7E1FC32460023CDE950
:104800000201FBF7DBFCA8601448D0F804C0216863
:10481000C817000440EA11480F04624600233846D6
:104820004146FBF7CBFC32460023CDE90201FBF702
:10483000C5FC20600948D0F804C06068C1170904AD
:1048400041EA10410704624600233846FBF7B6FCF4
:104850003246002304E0000098000020486E000863
:10486000CDE90201FBF7AAFC60601148D0F804C052
:10487000A068C117090441EA1041070462460023F9
:104880003846FBF79BFC32460023CDE90201FBF7DB
:1048900095FCA060A068002804DDA068A0F5803029
:1048A000A06003E0A06800F58030A0600020E2E591
:1048B000486E00082DE9FC5F06460F4600253D497D
:1048C0004968087801AB03220D21FCF781FE10B185
:1048D0000720BDE8FC9F9DF8040000F01F008DF844
:1048E00004009DF8050000F01F008DF805009DF8FC
:1048F000060000F01F008DF80600002456E056F870
:10490000240057F82410A0EB010BBBF1000F01DBD2
:10491000594601E0CBF100010846FBF7EFFE4FF0EE
:104920008F410090FBF724FD814601A8005D68B32C
:1049300021490868FBF7EBFE834659461F48FBF701
:1049400017FD804604E01E494046FBF7DFFC804629
:1049500001A8005D401EC0B201A908550028F2D18F
:1049600041464846FBF704FD83464FF07E51FBF776
:10497000C7FC82462AF0004B0F4881695846FBF776
:1049800061FF12D20120A04005430EE00A480169F0
:104990004846FBF74DFF05D3074841694846FBF7FA
:1049A00051FF02D20120A0400543641C032CA6DB6A
:1049B00028468EE798000020486E000800B04C455D
:1049C00054E3853F10B50446204600F00FF8034637
:1049D000E01C00F00BF843EAC00083B2A01D00F019
:1049E00005F843EA801083B2184610BD014691F9DC
:1049F0000020002A01DD00201EE091F90020002A9D
:104A000001DA042018E091F90120002A01DD0120DB
:104A100012E091F90120002A01DA05200CE091F959
:104A20000220002A01DD022006E091F90220002A7E
:104A300001DA062000E007207047FCF739FB03E0AD
:104A400001F0AEFF01F0BEFFFAE7704770B5044613
:104A5000002624F00104184890F8240008B1002032
:104A600070BD1548807A10B94FF0FF30F8E7124852
:104A7000057C807A2040104908740846007CA042DA
:104A800002D04FF0FF3600E0002614B90A48007D3E
:104A900018B1012001F002FC02E0002001F0FEFB51
:104AA0003CB100F0A7FC20B1034805744FF0FF3083
:104AB000D6E73046D4E70000980000202DE9F04FFB
:104AC00099B004460D4616464FF07E574FF0000849
:104AD0004FF000094FF0000A12A813A918AB0EAA54
:104AE000CDE9001014A916A8FEF7ECFF18B10120BB
:104AF00019B0BDE8F08FBDF84C0000F480700028BC
:104B00007ED00E98FBF7FAFD83464FF09D41FBF7F0
:104B10002FFC07460F98FBF7F1FD83464FF09D41B0
:104B2000FBF726FC80461098FBF7E8FD83464FF024
:104B30009D41FBF71DFC81461198FBF7DFFD834685
:104B40004FF09D41FBF714FC824639464FF0804000
:104B5000FBF7DCFB49460590FBF7D8FB4146079085
:104B60004FF04040FBF7D2FB51460590FBF7CEFBE0
:104B700006900799FBF772FB8346FBF72AFECDE907
:104B80000801FEF775FA4FF06632544BCDE90A0181
:104B9000FBF7D3FCCDE90C01FBF72EFE2060494664
:104BA0004FF08040FBF7B2FB49460290FBF7AEFBAB
:104BB000414604904FF04040FBF7A8FB414602906D
:104BC000FBF7A4FB03900499FBF79AFB83464FF095
:104BD0007E51FBF743FB0590FBF7FBFDCDE9080198
:104BE00039464FF08040FBF791FB41460390FBF7BD
:104BF0008DFB494604904FF08040FBF787FB00E0B7
:104C000068E051460390FBF781FB83460499FBF76C
:104C100025FB0590FBF7DDFDCDE90601DDE9082365
:104C2000FEF76EFC4FF066322C4BCDE90A01FBF724
:104C300084FCCDE90C01FBF7DFFD286051465046AE
:104C4000FBF764FB494604904846FBF75FFB41468F
:104C500003904046FBF75AFB394601903846FBF774
:104C600055FB00900199FBF7F9FA02900399FBF7C5
:104C700047FB83460499FBF743FB0590FBF7A9FD2F
:104C8000CDE9080151463846FBF740FB4946049000
:104C90004046FBF73BFB03900499FBF7DFFA4FF02C
:104CA00080410590FBF732FB8346FBF792FDCDE98F
:104CB0000601DDE90823FEF723FC4FF06632074BBF
:104CC000CDE90A01FBF739FCCDE90C01FBF794FDB6
:104CD000306001E002200BE7002009E766A64C40A7
:104CE00070B50024FCF7F2FA00F020F900283DD15D
:104CF000782000F02BFFC4B20CB1012070BD7820E9
:104D0000FFF7A4FEC4B20CB10220F7E7C82000F000
:104D1000CFFEC4B20CB10320F0E7FEF7C7FEC4B269
:104D20000CB10420EAE71348FFF74CFE0546FFF7F5
:104D300017F9C4B20CB10520E0E740F27310FEF79A
:104D40005DFDC4B20CB10620D8E7C820FFF738F8E3
:104D5000C4B20CB10720D1E701F054FA0446012097
:104D600000F0A2FDC4B21CB10920C7E70A20C5E7C4
:104D70000020C3E7C400002001461148407A30B14A
:104D8000012807D0022808D003280CD108E002200F
:104D900008700BE00420087008E00820087005E0A7
:104DA0001020087002E04FF0FF30704700BF044849
:104DB000C07C18B108784006000E08700020F4E7A7
:104DC0009800002001461348407A30B1012808D0ED
:104DD00002280AD0032810D10BE04FF4804008804D
:104DE0000EE041F69C7008800AE04FF48050088085
:104DF00006E04FF40060088002E04FF0FF3070479B
:104E000000BF0448C07C10B1088840100880002012
:104E1000F5E700009800002001460248007C087079
:104E2000002070479800002001460F48007A30B1FA
:104E3000012807D0022809D003280FD10AE0FA2060
:104E400008800EE04FF4FA7008800AE04FF47A70A0
:104E5000088006E04FF4FA60088002E00020088035
:104E600000BF00BF002070479800002001460E4898
:104E7000007A30B1012807D0022808D003280CD1CD
:104E800008E00A4808600BE00948086008E00948A3
:104E9000086005E00848086002E04FF0FF30704706
:104EA00000BF0020FBE70000980000200000034343
:104EB00000008342333303423333834101461248B7
:104EC000C07A082817D2DFE800F01704070A0D108F
:104ED0001318BC20088013E06220088010E02A200C
:104EE00008800DE0142008800AE00A20088007E00E
:104EF0000520088004E000BF00BF0020088000BF3C
:104F000000BF0020704700009800002001460648BE
:104F100090F8240010B14FF0FF3070470248C0896C
:104F200008800020F9E70000980000201CB58020D0
:104F30008DF80000654A1268917C644A52681078C6
:104F40006B460122FCF7EAFB10B14FF0FF301CBDAD
:104F50006420FEF7E9FB00208DF800005B4A126830
:104F6000917C5A4A526810786B460122FCF7D6FBB6
:104F700010B14FF0FF30EAE7544A1268917D534A6E
:104F8000526810786B460622FCF722FB10B14FF0F6
:104F9000FF30DCE79DF80500C007400F9DF80310C7
:104FA00001F0010140EA41009DF8011001F001010A
:104FB00040EA010494B1012C03D101214348C1749A
:104FC00031E0022C03D100214048C1742BE021467E
:104FD0003FA0FDF725FD4FF0FF30B8E73B4A1268D0
:104FE000D1783A4A526810786B460122FCF7F0FA01
:104FF00010B14FF0FF30AAE79DF8000000F00F0459
:105000002CB93D48FDF70CFD4FF0FF309FE7042C15
:1050100006D13AA0FDF704FD01212C48C17402E03D
:1050200000212A48C174FF2128488172FF202749A6
:105030000872FF2125484172C1724FF6FF71C1818C
:10504000FF21017481740121017380F82210002175
:1050500080F8231041750175163001604160816050
:10506000163880F8241080F82510C1844FF4FA60B7
:1050700000F062FC10B14FF0FF3068E7022000F052
:105080002BFB10B14FF0FF3061E72A2000F0CEFC7F
:1050900010B14FF0FF305AE7322000F009FD10B197
:1050A0004FF0FF3053E70020FFF7D0FC10B14FF076
:1050B000FF304CE7002000F051FB10B14FF0FF3003
:1050C00045E7002000F042FD002040E79800002066
:1050D000556E737570706F7274656420736F66744B
:1050E000776172652070726F647563742072657683
:1050F0002025642E0A0000004881000848616C6683
:105100002073656E73697469766974792070617251
:105110007420666F756E642E0A0000002DE9F0435E
:1051200085B005460E4690469946294890F82500D8
:1051300020B14FF0FF3005B0BDE8F08316B94FF055
:10514000FF30F8E7002423E0281B102801DD1020A1
:1051500000E0281B87B232193946204600F05EFD78
:1051600010B14FF0FF30E6E701AA3946204600F0C3
:1051700001F910B14FF0FF30DDE730193A4601A9CF
:10518000FBF75FF810B16FF00100D4E7E01984B2CB
:10519000AC42D9DB4FEA28208DF8000008F0FF0070
:1051A0008DF801000A4A1268917E094A5268107807
:1051B0006B460222FCF7B2FA10B14FF0FF30BAE7AB
:1051C0000121034880F82510A0F826900020B2E7BE
:1051D0009800002038B50446282C02DD4FF0FF303F
:1051E00038BDDCB9002000F0EBFB00208DF800009A
:1051F00007208DF801002E4A1268917C2C4A5268D3
:1052000010786B460222FCF789FA10B14FF0FF309C
:10521000E6E70021264801750020E1E7012000F0C3
:10522000CFFB20208DF80000012C06D100208DF846
:105230000100052000F0FAFB17E0052C06DC012038
:105240008DF80100052000F0F1FB0EE0142C06DCC7
:1052500002208DF801000A2000F0E8FB05E00320A1
:105260008DF80100142000F0E1FB9DF801000721FA
:1052700001EB8010C0B28DF801000D4A1268917CDC
:105280000B4A526810786B460222FCF747FA10B1BD
:105290004FF0FF30A4E70821054881720021017317
:1052A000012101750020FFF7D1FB002098E70000E5
:1052B00098000020F8B504460F4616462C4890F892
:1052C000240010B94FF0FF30F8BD2948807A10B99A
:1052D0004FF0FF30F8E7264A1268917A244A526864
:1052E00010786B460222FCF773F910B14FF0FF30D3
:1052F000EAE79DF801009DF8001040EA0125A5426B
:1053000003DA00203070401EDEE71948406840880C
:10531000B5EB600F17DD164A1268517C144A5268CB
:1053200010786B460122FCF753F910B14FF0FF30B3
:10533000CAE79DF8000000F0100020B100F05AF814
:105340006FF00100C0E7E2B2094B1B68D97A084B45
:105350005B6818783B46FCF73BF910B14FF0FF3023
:10536000B2E795FBF4F0401E30700020ACE700007F
:1053700098000020F8B504460D46164616B94FF0C1
:10538000FF30F8BD1A48807A10B94FF0FF30F8E7C7
:1053900020128DF80000E0B28DF801009DF80100A8
:1053A0002844134949684989884202DD4FF0FF309B
:1053B000E7E70F4A1268117E0D4A526810786B4673
:1053C0000222FCF7ABF910B14FF0FF30D9E7EAB297
:1053D000074B1B68597D064B5B6818783346FCF712
:1053E000F7F810B14FF0FF30CBE70020C9E700001D
:1053F0009800002008B57048807A10B94FF0FF304F
:1054000008BD002000906C4A1268D17B6A4A52683D
:1054100010786B460122FCF781F910B14FF0FF3094
:10542000EEE7654A12685179634A526810786B4614
:105430000122FCF773F910B14FF0FF30E0E75E4A4C
:10544000126811795C4A526810786B460122FCF7A9
:1054500065F910B14FF0FF30D2E7574890F82400BB
:10546000002853D00C200090534A12681179524AF8
:10547000526810786B460122FCF750F910B14FF0DA
:10548000FF30BDE73220FEF74FF9C02000904A48B8
:10549000807A00F0010020B19DF8000040F020006B
:1054A0000090454A12681179434A526810786B4659
:1054B0000122FCF733F910B14FF0FF30A0E73E486E
:1054C000407C10B10220009001E0002000903A4A98
:1054D0001268D17B384A526810786B460122FCF77B
:1054E0001DF910B14FF0FF308AE700200090324ADA
:1054F00012685179304A526810786B460122FCF7E5
:105500000DF9002855D04FF0FF3079E704200090C6
:10551000294A12681179284A526810786B4601228C
:10552000FCF7FCF810B14FF0FF3069E72248807CAF
:1055300020B92148807A00F0010010B94020009085
:1055400001E0602000901C4A126811791A4A5268E2
:1055500010786B460122FCF7E1F810B14FF0FF30F4
:105560004EE73220FEF7E0F81348407C10B10120EE
:10557000009001E0002000900F4A1268D17B0E4A93
:10558000526810786B460122FCF7C8F810B14FF052
:10559000FF3035E7084A12685179074A5268107897
:1055A000054B10330122FCF7B9F810B14FF0FF3072
:1055B00026E7002024E70000980000202DE9F04FA6
:1055C0008DB083460F4602200C90424890F824008C
:1055D00020B1002000F068F9012600E0002603A8B1
:1055E000FFF722FC05A8FFF7C7FB01A8FFF766FC41
:1055F00002A8FFF78BFC374890F80AA004A8FFF731
:105600000BFC002407E0002239465846FEF71AFF3B
:1056100000B902E0641C022CF5DB00BF022C01D1B2
:10562000002528E0002407E0012206A909A8FEF7CA
:1056300009FF00B902E0641C022CF5DB00BF022C5C
:1056400001D1002517E006A93846FDF7BDFC00F0A2
:10565000FF0809A95846FFF72DF900F0FF090025BA
:10566000B9F1000F01D145F00105B8F1000F01D1EA
:1056700045F0020500BFFF2016490872FF211548BA
:105680004172C1724FF6FF71C181FF2181720174B5
:1056900001210173BDF80C0000F04EF99DF81400D3
:1056A00000F01AF8BDF8040000F0C0F9BDF80800D9
:1056B00000F0FEF9504600F049FA9DF81000FFF79F
:1056C000C5F916B1012000F0EFF828460DB0BDE88D
:1056D000F08F00009800002038B504461E48807AFC
:1056E00010B94FF0FF3038BD022C06D0042C07D083
:1056F000082C08D0102C0CD108E0002000900BE002
:105700000820009008E01020009005E0182000908C
:1057100002E04FF0FF30E6E700BF0F48407A9DF807
:105720000010B0EBE10F01D10020DCE70A4A12685B
:10573000D179094A526810786B460122FBF7EEFFD7
:1057400010B14FF0FF30CEE79DF80000C1100248C5
:1057500041720020C7E700009800002038B50446D9
:105760005048807CA04201D1002038BD002C46D09A
:105770004C4A126811794B4A526810786B460122E4
:10578000FBF726FF10B14FF0FF30EEE79DF8000069
:1057900020F020000090434A12681179414A526873
:1057A00010786B460122FBF7B9FF10B14FF0FF30C4
:1057B000DBE70320FDF7B8FF02200090394890F89E
:1057C000220020B19DF8000040F080000090354894
:1057D00090F8230020B19DF8000040F030000090C8
:1057E000304A1268117D2F4A526810786B460122A8
:1057F000FBF794FF002851D04FF0FF30B5E7294A5E
:1058000012681179274A526810786B460122FBF71B
:10581000DFFE10B14FF0FF30A7E72248807A00F09A
:10582000010028B19DF8000040F02000009004E045
:105830009DF8000020F0200000901A4A12681179AB
:10584000184A526810786B460122FBF767FF10B1C7
:105850004FF0FF3089E70320FDF766FF114890F80D
:10586000220010B18020009001E0002000900D483F
:1058700090F8230020B19DF8000040F03000009027
:10588000084A1268117D074A526810786B46012257
:10589000FBF744FF10B14FF0FF3066E70148847416
:1058A000002062E79800002038B50446214890F8AF
:1058B0002400A04201D1002038BD24B31D4890F837
:1058C000250010B94FF0FF30F6E7002000F0E6FCAD
:1058D0000020FFF743FF1749C88C00F0E9F80020CB
:1058E00000901449496808786B4601222321FBF790
:1058F00015FF01210F4880F82410012000F0CEFC94
:10590000FFF778FD13E0002000F0C8FC0948007C98
:1059100000900849496808786B4601222321FBF76B
:10592000FDFE0021034880F82410FFF763FD0020EE
:10593000C2E700009800002038B504461F48807A6E
:1059400010B94FF0FF3038BDFA2C09D0B4F5FA7F0A
:1059500009D0B4F57A7F09D0B4F5FA6F0CD108E01C
:10596000002000900BE00820009008E0102000903C
:1059700005E01820009002E04FF0FF30E3E700BFA1
:105980000E48007A9DF80010B0EBE10F01D1002025
:10599000D9E70A4A12689179084A526810786B462A
:1059A0000122FBF7BBFE10B14FF0FF30CBE79DF8B3
:1059B0000000C010014908720020C4E798000020D0
:1059C00038B50446184890F82300A04201D10020C1
:1059D00038BD14B13020009001E000200090124842
:1059E000807C20B19DF8000040F0020000900E483D
:1059F00090F8220020B19DF8000040F08000009057
:105A0000094A1268117D084A526810786B460122D3
:105A1000FBF784FE10B14FF0FF30D9E7024880F861
:105A200023400020D4E700009800002038B5044649
:105A30001E48807A10B94FF0FF3038BDBC2C02DB15
:105A40000120009015E0622C02DB0220009010E0A3
:105A50002A2C02DB032000900BE0142C02DB042034
:105A6000009006E00A2C02DB0520009001E00620F1
:105A700000900E48C07A9DF80010884201D10020A5
:105A8000DBE70A4A12689178084A526810786B4638
:105A90000122FBF743FE10B14FF0FF30CDE79DF838
:105AA00000100248C1720020C7E7000098000020E3
:105AB00038B504462448807A10B94FF0FF3038BD1D
:105AC000214890F8240010B14FF0FF30F7E71E484E
:105AD000007D50B134B1282C04DCE0B2FFF77AFB32
