:020000040800F2
:10000000C04A0020990100082D140008550E000870
:1000100029140008670B0008BF1C0008000000003E
:1000200000000000000000000000000001010008C6
:100030006B0B0008000000004501000819190008BA
:10004000B3010008B3010008B3010008B3010008C0
:10005000B3010008B3010008B3010008B3010008B0
:10006000B3010008B3010008B3010008B3010008A0
:10007000B3010008B3010008B3010008B301000890
:10008000B3010008B3010008B3010008B301000880
:10009000B3010008B3010008B30100086D0B0008AC
:1000A000B3010008B3010008B3010008B301000860
:1000B000B3010008B3010008B3010008B301000850
:1000C000B3010008B3010008B3010008B301000840
:1000D000B3010008611A0008B3010008E91A00081A
:1000E000B3010008B3010008B3010008DFF80CD029
:1000F00000F0D6FC004800472F410008C04A00200D
:10010000224B19680868B0E8F00F80F30988BFF344
:100110006F8F4FF0000080F311884EF00D0E704786
:100120000000000006480068006880F3088862B696
:1001300061B6BFF34F8FBFF36F8F00DF00BF00BF0B
:1001400008ED00E0EFF30980BFF36F8F0F4B1A68E3
:1001500020E9F00F106008B54FF0BF0080F3118860
:10016000BFF34F8FBFF36F8F05F0CCFE4FF0000051
:1001700080F31188BDE8084019680868B0E8F00FFE
:1001800080F30988BFF36F8F704700BF1400002011
:10019000EFF3058070470000064880470648004797
:1001A000FEE7FEE7FEE7FEE7FEE7FEE7FEE7FEE727
:1001B000FEE7FEE7011A0008ED0000082DE9F04116
:1001C0000024061B254671F1000605DA01240027EC
:1001D000D0EB070067EB0101161E73F1000605DA8C
:1001E0000027D2EB0702012567EB030300F01AFB9F
:1001F00086460E4617469C46AC4204D00025D0EBFE
:10020000050E65EB010624B10020D2EB000760EB80
:10021000030C704631463A466346BDE8F081D2B2DF
:1002200001E000F8012B491EFBD270470022F6E7DF
:1002300010B513460A4604461946FFF7F0FF20465C
:1002400010BD30B504460020034600E05B1C93421D
:1002500003D2E05CCD5C401BF8D030BDF0B480EA46
:100260000102D40F4200B2EB410F02D2024608460F
:1002700011464A0042D0C30DDDB2C1F3C752AD1AD8
:10028000202D35DAC1F3160141F4000204B15242C7
:10029000C5F1200602FA06F12A411044B3EBD05F03
:1002A00023D0C4B1012DA0EBC35009DCF0BC4FF04A
:1002B000004202EAC352DBB200F5000000F01DBBB1
:1002C000400000F1807000EBC350A0F1807040EA64
:1002D000D170490009E0490841EAC071A0EBC35060
:1002E00000F50000400800EBC350F0BC00F0FCBA81
:1002F0006142012202EB4101001BF6E7F0BC7047AE
:1003000081F00041AAE780F00040A7E780EA0102FF
:1003100010B502F00043400022D04A001FD0010E69
:1003200001EB1261C0F35600C2F3560240F4000024
:1003300042F40002A0FB022000047F39140400D024
:10034000401C50EA124001D44000491EC2B20C06C3
:1003500004EBD010401C4008802A02D003E00020AB
:1003600010BD20F00100002900DA0020184310BD64
:1003700030B480EA010202F0004530F0004221F082
:10038000004013D090B1C30DD40DC2F31601C0F3D9
:100390001600E41A41F4000140F400027D34914259
:1003A00001D3641C00E04900002C02DA30BC0020BC
:1003B00070474FF400000023914201D3891A034390
:1003C00040084FEA4101F7D151B1914202D14FF0BB
:1003D000004105E002D24FF0010101E06FF00101A0
:1003E00003EBC450284430BC00F07EBA2DE9FE4F28
:1003F000804681EA0300C00F0C46009021F00041C6
:1004000023F00045B8EB0200A94105D24046214641
:1004100090461C460B46024623F00040104347D04E
:10042000270DC7F30A00C3F30A510290401A019046
:1004300040286BDAC3F3130040F4801B0098924607
:1004400020B10023D2EB030A63EB0B0B0198594652
:10045000C0F14002504600F016FA06460D465046DE
:100460005946019A00F02EFA10EB08006141002471
:1004700087EA115284EAE7731A4340D0009A62B3C4
:10048000019A012A4FEA075215DC001B61EB0201B9
:100490004FF0004202EA0752CDE90042001C41F54C
:1004A000801132462B4600F065FA03B0BDE8F08FAC
:1004B00040462146F9E7001B61EB0201001C41F5B3
:1004C000801300185B412018A2F5001747EB0301C9
:1004D00040EAD570B6196D4111E06D084FEA360655
:1004E00045EAC0754FEA0752001B61EB0201001C90
:1004F00041F5801149084FEA300000195141324658
:100500002B4603B0BDE8F04F00F025BA0098012259
:1005100040000023D0EB020263EBE0730098214619
:100520004FEAE074B8EB000061EB0401E9E783F007
:1005300000435BE781F0004158E72DE9FE4F81EA77
:10054000030404F0004421F0004100944FF0000B3C
:1005500023F0004350EA01045ED052EA03045BD06A
:10056000C3F30A54C1F30A552C44A4F2F3340194A2
:10057000A0FB0254C1F3130141F48011C3F3130330
:1005800043F4801301FB024400FB034E840A970AE4
:1005900044EA815447EA8357A4FB076802958D0A11
:1005A00005FB07854FEA932C04FB0C542705029D9D
:1005B0004FEA065847EA1637B5EB08056EEB070C0D
:1005C000870E920E47EA811742EA8312A7FB0201C7
:1005D000B6EB0B0164EB00042B0D43EA0C335E1801
:1005E00044EB1C50DA465146E7FB0201C5F3130405
:1005F0004FEA0B3343EA14534FEA0432019C43EAB7
:100600000603A4F10C040294009CCDE900B400F0B0
:10061000B1F903B0BDE8F08F00200146F9E72DE9FC
:10062000F04D81EA030404F0004B21F0004514462C
:100630004FF0000A23F0004150EA050220D054EAAE
:1006400001021DD0C5F30A570246C5F31303C1F3D7
:100650001300C1F30A5640F4801543F48013A7EB4E
:100660000608101BD64608F2FD3873EB050002D3CE
:1006700008F1010801E092185B41B8F1000F03DABC
:1006800000200146BDE8F08D00204FF480110646A1
:1006900084460EE0171B73EB050705D3121B63EBB3
:1006A000050306434CEA010C49084FEA3000921852
:1006B0005B4150EA0107EDD152EA030012D082EA11
:1006C000040083EA0501084305D0101BAB4106D2A4
:1006D0000122002306E000224FF0004302E06FF009
:1006E000010253101AEB06004CEB085110EB0A0004
:1006F00041EB0B01BDE8F04D00F02DB9C10F80EAD0
:10070000E0700844CA079623002100F0F6B896234B
:100710000022114600F0F1B800F0004220F0004045
:10072000C10DC0F3160040F400007F2901DA00205B
:100730007047962903DCC1F19601C84001E0963963
:100740008840002AF4D04042704720F00040C10D9C
:10075000C0F3160040F400007F2901DA0020704742
:10076000962903DCC1F19601C8407047963988404C
:10077000704700F0004230F000400AD0C10D01F592
:100780006071C0F3160042EA0151C20840071143EC
:10079000704700200146704701F0004330B421F05B
:1007A000004150EA010206D00A0DA2F56072C1F3C1
:1007B0001301002A02DC30BC00207047440F44EAD9
:1007C000C104C100E01830BC00EBC25000F08CB88E
:1007D000002801DBC0F10040002901DBC1F100412C
:1007E00081427047002801DBC0F10040002901DB95
:1007F000C1F100418842704730B50B4601460020E8
:100800002022012409E021FA02F59D4205D303FAD2
:1008100002F5491B04FA02F52844151EA2F1010253
:10082000F1DC30BD2DE9F05F0546002092469B4685
:1008300088460646814640241BE0284641464746F6
:10084000224600F02FF853465A46C01A914110D361
:1008500011461846224600F016F82D1A67EB0108DB
:100860004F4622460120002100F00DF817EB000949
:100870004E41201EA4F10104DFDC484631462A46E1
:100880004346BDE8F09F202A04DB203A00FA02F13B
:10089000002070479140C2F1200320FA03F319436E
:1008A00090407047202A04DB203A21FA02F0002110
:1008B000704721FA02F3D040C2F120029140084370
:1008C00019467047202A06DBCB17203A41FA02F07E
:1008D00043EAE07306E041FA02F3D040C2F120029D
:1008E00091400843194670470029A8BF7047401C33
:1008F000490008BF20F00100704710B4B0FA80FC36
:1009000000FA0CF050EA010404BF10BC704749B172
:10091000CCF1200421FA04F411FA0CF118BF0121E2
:1009200021430843A3EB0C01CB1D4FEA00614FEAC2
:10093000102042BF002010BC704700EBC350104491
:100940000029A4BF10BC7047401C490008BF20F01C
:10095000010010BC704710B5141E73F1000408DAD2
:10096000401C41F1000192185B411A4301D120F073
:10097000010010BD2DE9F04D92469B4611B1B1FA30
:1009800081F202E0B0FA80F220329046FFF77BFF5E
:1009900004460F4640EA0A0041EA0B0153465A4614
:1009A000084313D0114653EA010019D0C8F14002A0
:1009B0005046FFF777FF05460E46504659464246D9
:1009C000FFF761FF084305D0012004E020463946C7
:1009D000BDE8F08D0020054346EAE0762C4337431E
:1009E0000A986305E40AA0EB08000022FD0A44EA25
:1009F00047540A3002D500200146E9E701051019E5
:100A00006941DDE9084500196941BDE8F04DA2E7FB
:100A100070B521F0004303430CD0C1F30A55002404
:100A2000D5EB040564EB0403D617AD1AB34102DB22
:100A30000020014670BD201841EB025170BDC1F38A
:100A40000A52C1F3130140F2FF3341F480119A427C
:100A500002DA00200146704740F233439A42A2F284
:100A6000334202DC5242FFF71DBFFFF70CBF00000C
:100A700030B5041E71F1000404DB4FF00044404225
:100A800064EB0101141E73F1000405DB1C464FF0FA
:100A90000043524263EB0403994208BF904230BDC9
:100AA000064C074D06E0E06840F0010394E80700BB
:100AB00098471034AC42F6D3FFF71CFBB076000821
:100AC000D07600082DE9F04D00231A461B1A8A4102
:100AD00003DB00200146BDE8F08DC1F30A52C1F3EB
:100AE000130141F480154FF0000BD10702D100181B
:100AF0006D41521E0027044640F2FF11384601EBBB
:100B0000620A3E468046024600204FF48011FFF7FD
:100B1000C9FEC2197141BB1846EB0100B4EB030CCE
:100B200075EB000C04D3E41A65EB000517460E467E
:100B3000241908F101006D4180463428E3DDF919DC
:100B400046EB0600091BA84103D24FF0FF321346C3
:100B500001E0002213461BEB070046EB0A51BDE8FB
:100B6000F04DFFF7F8BE00BFFEE7704710B520213B
:100B7000094800F05FF968B9202008490860084A70
:100B80000849094803F018FB20B9084A08490948F0
:100B900000F09EF910BD0000000C0140140401405B
:100BA000DC000020D8000020D4000020EA00002053
:100BB000E8000020E6000020002123498279002A75
:100BC0003AD00A46126803689A430B461A600A1D17
:100BD000126803689A430B1D1A60027911440A686F
:100BE00003681A430A60184A0832126803689A4375
:100BF000154B08331A601A1D126803689A43124B8A
:100C00000C331A604279102A0ED11A1F1268036839
:100C10001A430D4B08331A601A1D126803681A43F1
:100C2000094B0C331A600DE00749427911440A68F8
:100C300003681A430A6005E0027911440A680368F0
:100C40009A430A60704700000004014030B500225A
:100C50008B071C0F0F2303FA04F20B4B8C1053F875
:100C600024309343084C8D1044F8253023468C10D3
:100C700053F824308C07240F00FA04F42343024C69
:100C80008D1044F8253030BD080001402DE9F041B9
:100C9000024600250026002000230024002791F8AA
:100CA00003C00CF00F0591F803C00CF0100CBCF160
:100CB000000F03D091F802C04CEA050591F800C07E
:100CC000BCF1000F31D0146800202BE04FF0010C74
:100CD0000CFA00F3B1F800C00CEA03069E4220D1E2
:100CE00083004FF00F0C0CFA03F7BC4305FA03FC2A
:100CF0004CEA040491F803C0BCF1280F06D14FF070
:100D0000010C0CFA00FCC2F814C00AE091F803C010
:100D1000BCF1480F05D14FF0010C0CFA00FCC2F8F1
:100D200010C0401C0828D1D31460B1F800C0BCF139
:100D3000FF0F34DD546800202EE000F1080C4FF066
:100D4000010808FA0CF3B1F800C00CEA03069E4251
:100D500021D183004FF00F0C0CFA03F7BC4305FAC6
:100D600003FC4CEA040491F803C0BCF1280F05D140
:100D700000F1080C08FA0CF8C2F8148091F803C0CE
:100D8000BCF1480F07D100F1080C4FF0010808FA38
:100D90000CF8C2F81080401C0828CED35460BDE87F
:100DA000F0810000F0B50A46002300240021002550
:100DB00000F00046B6F1004F02D11D4EF16901E08E
:100DC0001B4E7168C0F3034583B200F44016B6F5BC
:100DD000401F08D121F07061154E766826F07066CC
:100DE000134F7E6012E000F48016B6F5801F06D126
:100DF000032606FA05F4A14341F0706106E0460DB2
:100E0000360103FA06F6B14341F0706122B1460D96
:100E1000360103FA06F6314300F00046B6F1004F02
:100E200002D1034EF16101E0014E7160F0BD00009E
:100E3000000001400246002093680B400BB10120E6
:100E400000E000207047016170470AB1016100E0D5
:100E50004161704700BFFEE71FB50121084600F061
:100E600059FC0121082000F055FC2020ADF80C00B1
:100E700048208DF80F0003A91448FFF707FF05214C
:100E80000120FFF7E3FE2020019000208DF80800EC
:100E90000C208DF8090001208DF80A0001A8FFF749
:100EA0008BFE4FF4407000F03DFB17208DF80000E2
:100EB00007208DF8010000208DF8020001208DF838
:100EC0000300684600F0F6FA1FBD0000000C014068
:100ED0002DE9FC4104460D4616466B460622432189
:100EE000682000F0CBF90746BFB99DF801009DF8D6
:100EF000001040EA012000B220809DF803009DF818
:100F0000021040EA012000B228809DF805009DF8FB
:100F1000041040EA012000B230803846BDE8FC8170
:100F200010B500200E4908600E48006820F47020BB
:100F30000C4908600846006840F440300860002012
:100F40000949C1F8900100F011F801200449086036
:100F500000F00CF800200449C1F88C0110BD00001D
:100F60008C812142000C01400080214210B50220FA
:100F700001F07AFF10BD000008B50121092000F042
:100F8000C9FB01210C48FFF70DFF0121082000F0EB
:100F9000C1FB1820ADF8000010208DF803000320DD
:100FA0008DF8020069460548FFF770FE18210348D6
:100FB000FFF749FF08BD000000023000000C0140AF
:100FC00010B500200E4908600E48006820F470201B
:100FD0000C4908600846006840F440300860012071
:100FE0000949C1F89001FFF7C1FF012004490860D9
:100FF000FFF7BCFF00200449C1F88C0110BD0000C0
:101000008C812142000C01400080214270B50546D0
:1010100000241648006820F470201449086008462F
:10102000006840F400200860002614E00020104909
:101030000860FFF79BFF01200E49C1F88C01600694
:10104000040E0B487C38006808B1601CC4B2FFF77E
:101050008DFF701CC6B2082EE8DB15B9FFF7B0FF94
:1010600001E0FFF75DFF204670BD0000000C01406D
:101070008C8121420080214270B5044612480068EC
:1010800020F47020104908600846006840F44030A1
:10109000086000200D490860002512E0E0090B49B6
:1010A000091D08606006040E01200949C1F88C0181
:1010B000FFF75CFF002005490860FFF757FF681C39
:1010C000C5B2082DEADB70BD000C01408C812142C5
:1010D0000080214210B50E48006820F470200C49B1
:1010E00008600846006840F4403008600120094963
:1010F00008600949C1F88C01FFF738FF0020054955
:101100000860FFF733FF00200349C1F88C0110BDD0
:10111000000C0140908121420080214210B50E4810
:10112000006820F470200C4908600846006840F40C
:10113000403008600020094908600949C1F8900161
:10114000FFF714FF0120054908600549C1F8900127
:10115000FFF70CFF10BD0000000C01408C81214204
:101160000080214210B500241448006820F470204B
:10117000124908600846006840F400200860012019
:101180000F490860FFF7F2FE01200E49C1F88C01FB
:10119000FFF7ECFE07E0601CC4B2FA2C03DDFFF79A
:1011A000BDFF012010BD0648803800680028F2D13C
:1011B0000349091F086000BFF4E70000000C01406C
:1011C000908121420080214210B5FFF7D5FE802199
:1011D0006B2000F0D7F8322001F020FE00216B20B8
:1011E00000F0D0F8032000F08BF8002000F080F829
:1011F000C82000F0AAF80021382000F0C3F8002130
:101200006A2000F0BFF80021232000F0BBF8802105
:10121000372000F0B7F8752000F013F80446682C6A
:101220000BD101216B2000F0ADF800216C2000F003
:10123000A9F8C82000F089F801E0012010BD0020C5
:10124000FCE770B50446FFF745FFD020FFF714FF19
:10125000FFF788FF2046FFF70FFFFFF783FFFFF739
:1012600039FFD120FFF708FFFFF77CFF0020FFF7D1
:10127000CDFE0546FFF752FF284670BD2DE9F0412F
:1012800006460F4614461D46FFF724FF002141EA9B
:101290004601C8B2FFF7F0FEFFF764FF20B1FFF789
:1012A0003DFF0120BDE8F0813846FFF7E5FEFFF77E
:1012B00059FFFFF70FFF012101EB4601C8B2FFF70D
:1012C000DBFEFFF74FFF0DE0012C04D10020FFF7FC
:1012D0009DFE287003E00120FFF798FE2870601E35
:1012E000C4B26D1C002CEFD1FFF718FF0020D9E726
:1012F00010B50446E006010E1C2000F043F810BDB6
:1013000010B50446E006010E1B2000F03BF810BDAE
:1013100070B504460025BC2C01DB012510E0622CD1
:1013200001DB02250CE02A2C01DB032508E0142C4C
:1013300001DB042504E00A2C01DB052500E006257D
:1013400029461A2000F01EF870BD70B50446B4F5A9
:101350007A7F01DD4FF47A74042C00DA04244FF410
:101360007A7090FBF4F0401EC5B22946192000F0B7
:1013700009F80546264604EBD671C1F34F00FFF786
:10138000C7FF70BD70B505460C46FFF7A3FED02021
:10139000FFF772FEFFF7E6FE18B1FFF7BFFE012070
:1013A00070BD2846FFF768FEFFF7DCFE2046FFF71A
:1013B00063FEFFF7D7FE18B1FFF7B0FE0120EFE79D
:1013C000FFF7ACFE0020EBE72DE9F04105460E46A5
:1013D00017469846FFF77EFE002141EA4501C8B254
:1013E000FFF74AFEFFF7BEFE20B1FFF797FE012090
:1013F000BDE8F0813046FFF73FFEFFF7B3FE002463
:101400000CE018F80400FFF737FEFFF7ABFE18B149
:10141000FFF784FE0120EBE7601CC4B2BC42F0DBA6
:10142000FFF77CFE0020E3E700BFFEE7704708B54A
:101430004FF4407000F076F817208DF80000072078
:101440008DF8010000208DF8020001208DF80300C6
:10145000684600F02FF81E208DF8000008208DF857
:10146000010000208DF8020001208DF8030068467D
:1014700000F020F826208DF8000006208DF80100ED
:1014800000208DF8020001208DF80300684600F06E
:1014900011F825208DF8000009208DF801000020AA
:1014A0008DF8020001208DF80300684600F002F874
:1014B00008BD000070B5002100230F22C47804B3DA
:1014C000154C246804F4E064C4F5E064210AC1F119
:1014D0000403CA40447804FA03F184781440214399
:1014E00009010E4C0678A155047804F01F0501246B
:1014F000AC4005786D11AD0005F1E025C5F800415F
:1015000009E0047804F01F050124AC40044D06787E
:10151000761145F8264070BD0CED00E000E400E0D7
:1015200080E100E002490143024A11607047000077
:101530000000FA050CED00E070B500240EE000217B
:10154000204600F067F8002504E0002000F0D2F803
:10155000681CC5B2802DF8DB601CC4B2082CEEDB21
:1015600070BD000070B50546002415E080202041C4
:1015700000EA05024FF480710E48FFF766FC012275
:1015800051020C48FFF761FC00224FF4007109483A
:10159000FFF75BFC601CC4B2082CE7DB01225102A0
:1015A0000448FFF752FC00224FF400710148FFF796
:1015B0004CFC70BD000C014010B5012211020A481C
:1015C000FFF743FC012251020748FFF73EFC0022CF
:1015D0004FF480710448FFF738FC00224FF400718B
:1015E0000148FFF732FC10BD000C014010B500228D
:1015F0004FF480710648FFF728FC0122510204488D
:10160000FFF723FC012211020148FFF71EFC10BD69
:10161000000C014070B505460C4645F0B00000F0E6
:1016200059F8102141EA141000F054F804F00F00AA
:1016300000F050F870BD00002DE9F04105460E465F
:101640001746721ED206110E6A1E5206100EFFF7C2
:10165000E1FF002409E0A7F12001134A02EB011188
:10166000085D00F047F8601CC4B2082CF3DB721E62
:10167000D206110E6A1E012303EB4202D0B2FFF71D
:10168000C9FF00240BE0A7F12001074A02EB011279
:1016900004F10801505C00F02DF8601CC4B2082C65
:1016A000F1DBBDE8F08100007E6F00082DE9F0411C
:1016B00007460E461546002407E02A5D3019C1B2E0
:1016C0003846FFF7B9FF601CC4B2285D0028F4D18A
:1016D000BDE8F08110B50446FFF76EFF7820FFF7F4
:1016E00041FF0020FFF73EFF2046FFF73BFFFFF7DB
:1016F0007DFF10BD10B50446FFF75EFF7820FFF7B1
:1017000031FF4020FFF72EFF2046FFF72BFFFFF7AA
:101710006DFF10BD29B1064A92690243044B9A61DC
:1017200004E0034A92698243014B9A6170470000CA
:101730000010024030B500210022002400232D4D6E
:101740006D6805F00C0121B1042905D0082923D1C9
:1017500005E0294D056022E0274D05601FE0254D7D
:101760006D6805F47012234D6D6805F48034022510
:1017700005EB92421CB9214D554305600BE01D4D10
:101780006D6805F400351DB11C4D5543056002E040
:10179000194D5543056002E0174D056000BF00BFBD
:1017A000144D6D6805F0F0010909154D6B5C056875
:1017B000DD4045600F4D6D6805F4E061090A104D8C
:1017C0006B5C4568DD4085600A4D6D6805F46051CD
:1017D000C90A0B4D6B5C4568DD40C560054D6D6801
:1017E00005F44041890B074D6B5CC568B5FBF3F50B
:1017F000056130BD0010024000127A0000093D0072
:10180000000000201000002010B500F001F810BD0D
:101810000CB50020019000903348006840F48030FF
:101820003149086000BF3048006800F40030009083
:101830000198401C0190009818B90198B0F5A06F6C
:10184000F1D12948006800F4003010B10120009067
:1018500001E0002000900098012843D1234800684F
:1018600040F01000214908600846006820F003009D
:1018700008600846006840F0020008601A484068A6
:10188000194948600846406848600846406840F486
:10189000806048600846406820F47C104860084634
:1018A000406840F4E81048600846006840F08070E6
:1018B000086000BF0C48006800F000700028F9D0F4
:1018C0000948406820F0030007494860084640681E
:1018D00040F00200486000BF0348406800F00C0080
:1018E0000828F9D10CBD0000001002400020024081
:1018F000042808D14FF0E021096941F004014FF0BC
:10190000E022116107E04FF0E021096921F00401B4
:101910004FF0E0221161704710B504F087FB0128F9
:1019200001D004F039FB10BD70B505460420FFF767
:10193000DFFF104800681049B0FBF1F00F49087054
:101940000C4800680C49B0FBF1F44FF47A70444342
:1019500001200B4908804FF0E020006940F00200B0
:101960004FF0E021086108464461006940F0010041
:10197000086170BD8800002040420F0082000020F6
:101980008400002010B5FFF752FD01F025FA4FF456
:10199000E13004F06FF80A2001F040FAFFF714FC80
:1019A0000A2001F03BFA02E007A000F08BF902F0F8
:1019B00015FD0028F8D1FFF74FFA0AA000F082F9D0
:1019C0000A2001F02BFA10BD496E697469616C69D7
:1019D0007A6174696F6E206661696C6564A3A10D9C
:1019E0000A000000496E697469616C697A61746902
:1019F0006F6E2053554343455353A3A10D0A000076
:101A000010B51348006840F001001149086008460D
:101A10004068104908400E494860084600680E4971
:101A200008400B4908600846006820F480200860E0
:101A30000846406820F4FE0048604FF41F008860AC
:101A4000FFF7E2FE4FF000600449086010BD00009F
:101A5000001002400000FFF8FFFFF6FE08ED00E076
:101A600010B540F225511D4800F069F810B31B482D
:101A700000F020F9C4B21A48008800F40040C8B948
:101A80001748008800F4804060B10A2C03D0002081
:101A90001349088020E01248008840F400401049B3
:101AA000088019E00D2C06D10D48008840F48040D4
:101AB0000B49088010E00A480088C0F30D0009496E
:101AC0000C5407480088401C0549088008460088D7
:101AD000C72801DD0020088010BD0000003801404B
:101AE00080000020E845002010B52021054800F0C6
:101AF00019F8012805D1034800F0DCF840B202498A
:101B0000087010BD00480040D100002021B182893A
:101B100042F40052828104E082894DF6FF731A403C
:101B20008281704702460020B1F5007F00D100BFDE
:101B300013880B400BB1012000E00020704770B506
:101B40000246002400230025002040F66A16B14218
:101B500000D100BFC1F3421501F01F03012606FAB0
:101B600003F3012D02D19689334006E0022D02D104
:101B7000168A334001E0968A33400C12012606FA99
:101B800004F41688344013B10CB1012000E00020A9
:101B900070BDF0B50346002400260025002040F665
:101BA0006A17B94200D100BF1846C1F3421401F0D0
:101BB0001F06012707FA06F5012C01D10C3004E0BD
:101BC000022C01D1103000E014301AB107682F4305
:101BD000076002E00768AF430760F0BD2DE9F047FA
:101BE00086B005460E460024A24600BFA146002747
:101BF000B08900B100BF2F462C8A4CF6FF7004401C
:101C0000F08804432C82AC894EF6F3100440B0886F
:101C100031890843718908430443AC81AC8A4FF68B
:101C2000FF400440B0890443AC8201A8FFF782FD65
:101C30001F48874202D1DDF810A001E0DDF80CA0BA
:101C4000A88900F4004040B10AEBCA0000EB0A107A
:101C500031684900B0FBF1F807E00AEBCA0000EB7D
:101C60000A1031688900B0FBF1F86420B8FBF0F08D
:101C700004012009642101FB1089A88900F40040B7
:101C800040B1322000EBC900B0FBF1F000F00700DA
:101C9000044308E0322000EB09106421B0FBF1F0AE
:101CA00000F00F0004432C8106B0BDE8F08700006F
:101CB0000038014001468888C0F30800704700BF23
:101CC000FEE700000FB4054B10B503A9044A0298C3
:101CD00000F05CF910BC5DF814FB0000693A0008E4
:101CE0007C000020490050EAC12018BF04204A0DA2
:101CF00018BF40F0010040F2FF72B2EB515F08BF25
:101D000040F00200012808BF052070472DE9F0418E
:101D10004F1E00EBC7010446D1E9000115461E46DF
:101D200037F006020DD02A463346FEF706FC7F1E2A
:101D300004EBC703D3E90023FEF758FB37F0060294
:101D4000F1D1022F25D0042F13D0062F18BFBDE8E4
:101D5000F0812A463346FEF7F0FBD4E90A23FEF76A
:101D600045FB2A463346FEF7E8FBD4E90823FEF795
:101D70003DFB2A463346FEF7E0FBD4E90623FEF797
:101D800035FB2A463346FEF7D8FBD4E90423FEF799
:101D90002DFB2A463346FEF7D0FBD4E90223FEF79B
:101DA00025FB2A463346FEF7C8FBD4E90023BDE8ED
:101DB000F041FEF71BBB0122FEF72ABEFEF716BB61
:101DC0000022134610461146FEF729BC024A0020A5
:101DD0001107FEF71DBE000001FDFFFF02E008C86D
:101DE000121F08C1002AFAD170477047002001E095
:101DF00001C1121F002AFBD1704700000149086091
:101E0000704700001C0100202DE9FF5F82B0002117
:101E1000DDE90430020DDDF840B0034318D044F68C
:101E20001050A2F2FF3242431514119801281FD01E
:101E3000A5EB0B00401C5FEA000A4FF000064E4F76
:101E4000DFF83891B046504615D5CAF1000413E0CA
:101E5000119801244AA3012801D16FEA0B010298CD
:101E6000119AC0E90031C0E9024206B0BDE8F09F16
:101E7000CBF10000DFE704460021404A491842EB5D
:101E80000450CDE9001012E0E00707D032463B468F
:101E900040464946FEF751FB8046894632463B465E
:101EA00010461946FEF749FB06460F466410002C03
:101EB000EAD1DDE90401DDE90023BAF1000F06DA19
:101EC000FEF73BFB42464B46FEF737FB05E0FEF7CD
:101ED000A6FB42464B46FEF7A2FB04460E460022F6
:101EE000284BFEF7C5FD03D84FF0FF30014607E051
:101EF0000022254B20463146FEF778FAFEF79FFD7B
:101F0000102409E0002C0ADB0A220023FEF78AFCD9
:101F1000039B30321A55641E50EA0102F2D1641C50
:101F2000039AC4F111031444119A012A03D0012227
:101F300008430DD10AE0084304D000204FF0110BF4
:101F4000119072E7A3EB0B056D1E0DE05B4504DD00
:101F50004FF0000205F1010504E003DA4FF0000242
:101F6000A5F10105002AECD002981199C0E90231CF
:101F7000C0E9004579E70000000014400000F03F90
:101F8000300000000000F0430000E03F2DE9FF4F6B
:101F900095B09B468946064600250FE2252877D155
:101FA00000242746F84A0121059400E0044316F86E
:101FB000013F203B01FA03F01042F7D130782A2884
:101FC00011D06FF02F033078A0F13002092A16D813
:101FD000059A44F0020402EB820203EB4202104431
:101FE000761C0590EFE759F8042B0592002A03DAD6
:101FF000504244F40054059044F00204761C3078BA
:102000002E2816D116F8010F44F004042A280DD00A
:102010006FF02F023078A0F13003092B09D807EBBD
:10202000870302EB4303C718761CF3E759F8047BD8
:10203000761C30786C280FD006DC4C2817D0682826
:102040000DD06A2814D104E0742810D07A280FD15A
:102050000DE044F400140AE044F4801401E044F478
:1020600040147278824202D104F58014761C761CEA
:10207000307866280BD013DC582877D009DC00288C
:1020800075D04528F6D04628F4D047281AD19DE1CE
:1020900018E0632835D0642879D0652812D195E1FD
:1020A000702873D008DC6728F1D069286FD06E28BB
:1020B0000DD06F2806D1B5E073282CD0752875D0C7
:1020C000782874D05A46179990476D1C75E1C4F36F
:1020D0000250022809D003280DD0D9F80010042896
:1020E0000DD00D6009F1040967E1D9F80010EA1775
:1020F000C1E90052F6E7D9F800100D80F2E70D7043
:10210000F0E719F8041B8DF8001000208DF801008D
:10211000EA46012003E059F804AB4FF0FF306107B5
:102120004FF0000102D40DE008F101018846B942E8
:102130000FDA8045F8DB1AF808100029F4D108E01E
:1021400008F1010188468142FADB1AF808100029DB
:10215000F6D105985B46A0EB080721463846179A4A
:1021600000F094FA284400EB080507E04DE029E16F
:102170000DE01AF8010B5A4617999047B8F101087B
:10218000F7D25B4621463846179A13E142E00A220D
:102190000092C4F302524FF0000A022A08D059F804
:1021A00004CB032A4FEAEC710AD00DE029E02AE0C3
:1021B00009F1070121F00702F2E802C1914609E0A6
:1021C0000FFA8CFC4FEAEC71042A03D14FFA8CFC15
:1021D0004FEAEC71002907DA0A460021DCF1000C15
:1021E00061EB02012D2202E0220504D52B228DF89D
:1021F0000420012203E0E20701D02022F7E7904605
:1022000059E00A2102E010220DE010214FF0000AEF
:1022100000910BE010224FF0000A44F0040408275C
:10222000009203E008224FF0000A0092C4F3025229
:10223000022A05D059F804CB0021032A08D009E06E
:1022400009F1070121F00702F2E802C1914605E019
:102250001FFA8CFC042A01D10CF0FF0C4FF000088F
:10226000220728D5702806D0009B83F0100353EA7C
:102270000A0305D00EE040228DF80420012208E078
:102280005CEA010206D030228DF804208DF80500AA
:1022900002229046009B83F0080353EA0A030AD106
:1022A0005CEA010201D1620705D530228DF80420D5
:1022B0004FF001087F1E582804D034A003900EA8C8
:1022C00002900DE036A0F9E753466046009AFEF70B
:1022D000A9FA84460398825C0298401E029002701C
:1022E0005CEA0100F0D1029806A9081A00F1200A60
:1022F000600702D524F4803400E00127574502DD51
:10230000A7EB0A0000E0002000EB0A01009005980E
:102310004144401A0590E00306D45B462146179AD3
:10232000059800F0B3F90544002706E001A85A46D5
:10233000C05D179990476D1C7F1C4745F6DBE00395
:102340000CD55B462146179A059800F09FF9054485
:1023500004E030205A46179990476D1C0099481E9A
:1023600000900029F5DC08E0029802995A460078AE
:10237000491C0291179990476D1CBAF10001AAF10E
:10238000010AF1DC65E10000092801003031323337
:1023900034353637383961626364656600000000A1
:1023A000303132333435363738394142434445468B
:1023B0000000000000F058F90544761C3078002831
:1023C0007FF4ECAD19B02846BDE8F08F620700D469
:1023D000062709F1070222F0070CFCE80223E14678
:1023E00003F000485FEA080C02D00FF2702C0DE0F9
:1023F0005FEA045C02D50FF2682C07E05FEAC47C58
:1024000002D00FF2602C01E0AFF2700C4FF0FF38F9
:1024100023F00043CDF850C065280CD006DC4528D9
:1024200009D046281DD047283DD13DE0662818D068
:1024300067287ED138E00021112F01DB112000E058
:10244000781CCDE9000106A90EA8FFF7DDFCDDE947
:102450000F010E9A03910021009207F1010A0491E5
:102460004DE04FF000400097CDE9011006A90EA8FD
:10247000FFF7CAFCDDE90F0203920E9B11990022BF
:10248000DDF80CA00093049211B9791C00EB010A4D
:10249000B7EB0A0004D4C0F1FF3007F1010A049041
:1024A000AAEB0700019044E0012F00DA0127002188
:1024B000112F01DD112000E03846CDE9000106A909
:1024C0000EA8FFF7A1FCDDE90F010E9A0391002190
:1024D00004910092BA4621070CD40399514500DAC1
:1024E0008A46BAF1010F05DD009AAAF10101515C9B
:1024F000302908D0B84202DA10F1040F06DA0121BF
:10250000CDE9011015E0AAF10101E9E7002805DC99
:10251000049901440491AAEB000102E0411C5145D9
:1025200000DD8A460499401A401C01904FF000409B
:102530000290200704D40198504501DBCDF80480B7
:1025400000208DF84F0002980DF14F07B0F1004FB9
:1025500025D02B200E9002984FF0020800280CDAAC
:10256000404202902D200E9007E00A210298FEF7CB
:1025700043F93031029007F8011DB8F10001A8F1CC
:102580000108F2DC02980028EFD1791E0E9808703D
:10259000307800F0200040F0450007F8020D12A846
:1025A000C01B00F107081498007800B1012000EB6F
:1025B0000A01019801EBE07105984144401A401E60
:1025C0000590E00306D45B462146179A059800F073
:1025D0005DF805441498007818B15A461799904749
:1025E0006D1CE00324D55B462146179A059800F040
:1025F0004DF805441CE00498002807DBDDE90301E1
:10260000884203DD0098405C179901E0179930205B
:102610005A469047049805F10105401C0490019822
:10262000401E019004D12E205A46179990476D1CE8
:10263000BAF10001AAF1010ADDDC05E017F8010B8F
:102640005A46179990476D1CB8F10001A8F101088E
:10265000F4DC5B462146179A0598ABE62D00000096
:102660002B000000200000002DE9F0410446002569
:102670001E461746880404D405E039462020B0479A
:102680006D1C641EF9D52846BDE8F0812DE9F041A6
:10269000044600251E469046C80301D5302700E0B9
:1026A0002027880404D505E041463846B0476D1C14
:1026B000641EF9D52846BDE8F08100002DE9FE4FE3
:1026C00006460F460025684601F0DCF9002442E08A
:1026D00056F8240057F82410A0EB010ABAF1000FB5
:1026E00001DB514601E0CAF100010846FEF706F899
:1026F00083464FF08F41FDF73BFE80465DF8240096
:102700000021FEF765F816D05DF824104046FDF76D
:102710002FFE82464FF07E51FDF7F2FD814629F0F3
:10272000004A0F48416A5046FEF75CF812D2012079
:10273000A04005430EE00A48C1694046FEF748F84C
:1027400005D30748016A4046FEF74CF802D2012043
:10275000A0400543641C032CBADB2846BDE8FE8F6D
:10276000606300082DE9F04D8D4F21F0004A86B0DE
:1027700005460C46BA452ADBAAEB070028430AD0D7
:102780008848824501DC1AD1CDB106B02846BDE8A3
:10279000F04DFFF710BB844A844B2846FDF7CDFE71
:1027A00007460E46824A834B28462146FDF7C5FE62
:1027B00006B03A463346BDE8F04DFDF717BE01209E
:1027C000FFF71CFB06B0BDE8F04DFFF7F9BA7A48F9
:1027D000824542DABAF1795F0BDA2846FFF782FACE
:1027E000042808BFFFF7F2FA284606B02146BDE8E4
:1027F000F08D2A460B461046FDF79FFE83460246A3
:102800006E480E460B4606217844FFF77FFA5A467B
:102810003346FDF792FE804669488A465A4633465B
:1028200004217844FFF772FA5A463346FDF785FED5
:1028300000223B46FDF7DAFD02460B464046514674
:10284000FDF7EDFE2A462346FDF777FE06B02A4641
:102850002346BDE8F04DFDF7C9BD284624F00041F0
:1028600000223D463B46FDF765FE4FF0FF32FEF786
:10287000CFF80646024653480F460B4606217844D9
:10288000FFF744FA32463B46FDF757FECDE900011B
:102890004D4832463B4604217844FFF737FA32462A
:1028A0003B46FDF74AFE00222B46FDF79FFD83467F
:1028B00002913046394603F0B7F8804643480D464A
:1028C000504517DCDDE900015A46029BFDF7A7FEE3
:1028D00042462B46FDF731FE42462B46FDF786FD6C
:1028E0000122FEF795F8304A304BFDF720FE304AC2
:1028F000304B4CE04FF0000A52460B464046FDF785
:1029000075FDCDE9031052462B4610461946FDF7DA
:1029100014FE32463B46FDF70DFEDDE90332FDF7BE
:102920007EFE06460F46DDE900015A46029BFDF792
:1029300076FE83460091012230463946FEF768F85C
:10294000194A1A4BFDF7F6FD06460F46012240468E
:102950002946FEF75DF85A46009BFDF7EEFD32462C
:102960003B46FDF7E4FD06460F4601225046294648
:10297000FEF74EF80E4DDFF858802A464346FDF725
:10298000D9FD32463B46FDF7D5FD2A464346FDF7C5
:10299000D1FD002CD8BF81F0004106B0BDE8F08D1C
:1029A0000000F03F0000F07F075C143326A6913C46
:1029B000182D4454FB21F93F0000E03F644D000016
:1029C0007A4D0000EE4C0000044D00003333EF3F21
:1029D000FB21E93F2DE9F84F04460D4621F0004068
:1029E00000917349814211DC7249884201DC06D1B1
:1029F0002CB120462946BDE8F84FFFF7DCB96E48F8
:102A0000002DCCBF6D496E49BDE8F88F6D498142FC
:102A100011DD6D498142D8BF4FF0FF366DDD204694
:102A20002946FFF75FF9042808BFFFF7CFF92046D2
:102A30002946BDE8F88F6549654F25F0004581427C
:102A400033DD6449814219DD002632464FF0804370
:102A500020462946FDF7CAFC80468A4601222046C8
:102A60002946FDF7D5FF00223B46FDF760FD4246B3
:102A70005346FDF7D4FD04460D463EE001260022F4
:102A8000BA463B4620462946FDF7B0FC80460F4635
:102A90000022534620462946FDF749FD42463B4663
:102AA000FDF7BDFD04460D4627E04B4981421BDD85
:102AB000DFF828A102260022534620462946FDF7CA
:102AC0003CFD00223B46FDF791FC80460F4600226C
:102AD000534620462946FDF72AFD42463B46FDF770
:102AE0009EFD04460D4608E0032622462B460020A4
:102AF0003B49FDF794FD04460D4622462B46104601
:102B00001946FDF71AFD8B46824602460B46FDF735
:102B100014FD07460246334888460B460621784492
:102B2000FFF7F4F852465B46FDF707FD82462E4854
:102B30008B463A46434605217844FFF7E7F83A4684
:102B40004346FDF7FAFC02460B46002E5046594616
:102B50000CDAFDF74BFC22462B46FDF7EEFC01B0EC
:102B600022462B46BDE8F04FFDF7E4BCFDF73EFCE6
:102B700022462B46FDF7E1FC1C4A7A4402EBC603D1
:102B8000D3E90023FDF7D3FC22462B46FDF7CFFC0B
:102B9000174A7A4402EBC603D3E90023FDF7CAFCC7
:102BA000009A002AB8BF81F00041BDE8F88F00000C
:102BB000000010440000F07F182D4454FB21F93F21
:102BC000FB21F9BF0000DC3F0000203E0000F33F86
:102BD0000000F03F0000E63F008003400000F83FA7
:102BE0000000F0BF064B0000C44A0000624A00002B
:102BF0002A4A00002DE9F04D9446CCF1000423F060
:102C000000464CEA0404524F46EAD4749A46884679
:102C100021F00042BC4206D8454240EA050442EA9F
:102C2000D474BC4204D9BDE8F04D6246FFF7C6B883
:102C3000AAF14055A5F17F6555EA0C040BD002249A
:102C400004EAAA74434DDFF810E144EAD87452EA6A
:102C5000000B04D00CE0BDE8F04DFFF7BBBE002C2C
:102C600014BF012CBDE8F08D022C30D0032C32D0E3
:102C700056EA0C0B0AD0BE4220D1BA4209D126F046
:102C8000804622F080423346114617E000291ADBC5
:102C900025E0DFF8C8B0FB44002C04BFDBE90001ED
:102CA000BDE8F08D012C02BFDBE9000181F000419D
:102CB000BDE8F08D022C0AD0032C0CD0BA4212D100
:102CC000B8F1000F0BDA23482549BDE8F08D2846FE
:102CD0002449BDE8F08D28467146BDE8F08D1D48B9
:102CE0002149BDE8F08D921B12153C2AC4BF19483A
:102CF0001D490EDCBAF1000FBEBF12F13C0F0020DF
:102D0000014606DB6246FDF78AFC21F00041FFF731
:102D100061FE002C08BFBDE8F08D012C04BF81F0DE
:102D20000041BDE8F08D114A114B022C07D0FDF790
:102D3000FEFB2A46BDE8F04D0A4BFDF7F8BBFDF758
:102D4000F6FB2A46BDE8F04D064BFDF7F3BB00004D
:102D50000000F07F182D4454FB2109C0BE4900003B
:102D6000FB21F9BFFB210940FB21F93F075C14332C
:102D700026A6A13C2DE9F0410446E07800F0C0060B
:102D8000E07800F03F05607800F0010098B1EF10A6
:102D90002846E91705EB5171C910A5EBC101491C83
:102DA00001F0FF080B48006820B10A48414602685C
:102DB0003846904700BF607800F0080030B1054801
:102DC000406818B1B011034A516888470020BDE837
:102DD000F0810000B046002010B56FF00400FEF74F
:102DE00087FD0A4800680A49B0FBF1F009490870FC
:102DF0000846007800EB4001C1EBC0104FF6FF71B0
:102E000001EAC0000449088010BD000088000020CD
:102E100000127A00780000207A0000200146114A52
:102E200012884A434FF0E0235A6100229A611A4601
:102E3000126942F001021A6100BF4FF0E0221069EE
:102E400000F001021AB100F48032002AF5D04FF0F0
:102E5000E022126922F001024FF0E0231A61002201
:102E60009A6170477A0000200146114A12784A435D
:102E70004FF0E0235A6100229A611A46126942F02B
:102E800001021A6100BF4FF0E022106900F0010258
:102E90001AB100F48032002AF5D04FF0E022126916
:102EA00022F001024FF0E0231A6100229A6170477C
:102EB0007800002038B5044664B120208DF8000069
:102EC00028208DF8010030208DF8020038208DF880
:102ED000030004E0A32204216846FDF7A0F96A4636
:102EE000042140F69E2002F017FA01F001FE38BDE1
:102EF0003EB5044602208DF80000CA208DF801007E
:102F0000E3208DF8020009208DF803006A460421B1
:102F1000682002F001FAA3208DF8000004F04000C0
:102F200048B1C0208DF80100C8208DF80200C220F1
:102F30008DF8030006E0A3208DF801008DF8020053
:102F40008DF8030004F4C07048B1C4208DF804006B
:102F5000CC208DF80500C6208DF8060006E0A320E1
:102F60008DF804008DF805008DF80600A3208DF87B
:102F700007008DF808008DF809006A460A2140F61E
:102F8000A72002F0C9F904F0030018B120208DF841
:102F9000000002E0D8208DF800006A46012140F6CA
:102FA000B62002F0B9F904F0200018B1012000F0B9
:102FB000ADF802E0002000F0A9F804F4C07008B3F6
:102FC00004F4807060B1B2208DF800008B208DF881
:102FD0000100B6208DF802009B208DF803000BE065
:102FE000B0208DF8000080208DF80100B4208DF80D
:102FF000020090208DF803006A46042140F6A220CA
:1030000002F08AF904F0010020B3F8208DF80000E6
:103010006A4601214FF40B6002F07EF9FA21072085
:1030200000F02CFC072000F0F3FB012000F013FC63
:10303000642000F0F3FC4FF4FA7000F002FDC821A8
:10304000304800F0A3FB282000F0BCFB0A2000F071
:10305000CCFB08E0D8208DF800006A4601214FF42F
:103060000B6002F059F904F0020018B1D9208DF874
:10307000000002E0D8208DF800006A46012140F2ED
:103080003D7002F049F904F0040018B1012000F08D
:1030900069F802E0002000F065F804F0100018B1B3
:1030A0000120FFF707FF02E00020FFF703FF44F0D5
:1030B00008001549488101F01BFD00201249887362
:1030C00004F0400018B10846807B801D887304F42A
:1030D000C07020B10C48807B801D0B49887304F0C0
:1030E000140020B10848807B10300749887304F031
:1030F000030020B10448807B001D03498873002031
:103100003EBD000009E3CA02B04600203EB50446B9
:103110006CB10EA1D1E900208968CDE900200291AF
:103120006A4609214FF4976002F0F6F83EBD0AA204
:10313000D2E900109268CDE9010200916A460921A6
:103140004FF4976002F0E8F8F0E70000B8AAB38DFA
:10315000B4980D355D000000B8AAAAAAB088C3C50E
:10316000C700000038B5044664B1C0208DF80000E7
:10317000C2208DF80100C4208DF80200C6208DF811
:10318000030004E08B2204216846FDF748F86A46F4
:10319000042140F6982002F0BFF801F0A9FC38BDE8
:1031A00010B5C8234FF48062024940F6F63001F0B2
:1031B00033FB10BD886300082DE9F04F8DB0074642
:1031C000884615469946DDE9166B002400203080BC
:1031D0006B49887B5A4605A901F0EAFB18B1601ECD
:1031E0000DB0BDE8F08F6648807A00F0140000282A
:1031F00067D09DF8140000069DF8151040EA0140C4
:103200009DF8161040EA01209DF817100843286029
:103210009DF8180000069DF8191040EA01409DF83D
:103220001A1040EA01209DF81B10084368609DF8C1
:103230001C0000069DF81D1040EA01409DF81E107C
:1032400040EA01209DF81F100843A8609DF8200067
:1032500000069DF8211040EA01409DF8221040EA46
:1032600001209DF823100843E86004F11000C4B267
:10327000286800140190686800140290A86800147F
:103280000390E8680014049001984043029901FB00
:103290000100039901FB0100049901FB010ABAF145
:1032A000706F02DBBAF1885F05DD01F021FC0020C0
:1032B0003080401E94E7B6F9000040F48070308002
:1032C00000BF2F48807A00F0400020B305A9601CA1
:1032D000085C095D40EA012000B2A8F8000005A9D9
:1032E000E01C095C05AAA01C105C41EA002000B2A9
:1032F000A8F8020005A9601D095C201D105C41EAC8
:10330000002000B2A8F80400A01DC4B2B6F9000065
:1033100040F0080030801A48408900F4C07008B3BB
:1033200005A9601C085C095D40EA012000B23880F4
:1033300005A9E01C095C05AAA01C105C41EA00205C
:1033400000B2788005A9601D095C201D105C41EA6F
:10335000002000B2B880A01DC4B2B6F9000040F051
:10336000700030800648807A00F0030018B105A98B
:103370000819FFF7FFFC484600F0E5FE00202FE7A4
:10338000B046002070B588B0064601A801F098F854
:10339000BDF804000021C90341EA5045C403444874
:1033A000007A00F0030056F8200005904048007AAB
:1033B00000F0040010B10598404205903C48007AA6
:1033C000C0F3C10056F8200006903948007A00F09A
:1033D000200010B10698404206903548007AC0F3AC
:1033E000811056F8200007903148008900F4807061
:1033F00010B10798404207900598C117A0FB04231D
:1034000001FB043100FB0510810041EA9270059038
:103410000698C117A0FB042301FB043100FB051033
:10342000810041EA927006900798C117A0FB04231F
:1034300001FB043100FB0510810041EA9270079006
:103440000598000E8DF808000598000C8DF809000D
:103450000598000A8DF80A000598C0B28DF80B0097
:103460000698000E8DF80C000698000C8DF80D00E3
:103470000698000A8DF80E000698C0B28DF80F006D
:103480000798000E8DF810000798000C8DF81100B9
:103490000798000A8DF812000798C0B28DF8130043
:1034A00002AA0C214FF4257001F036FF08B070BD60
:1034B000B046002030B585B0044616A207CA02AB5C
:1034C00007C3C82C03DD4FF0FF3005B030BDC82066
:1034D00090FBF4F0401E85B2280A8DF80000E8B297
:1034E0008DF801006A46022140F2162001F014FF17
:1034F00010B14FF0FF30E8E702AA0C2140F6C120DE
:1035000001F00AFF10B14FF0FF30DEE7044884817C
:103510000020DAE7FEF2ABC4AAF1DFDFBBAFDFDFEA
:10352000B04600201FB504464848007A00F003006A
:1035300054F8200001904548007A00F0040010B1D2
:103540000198404201904148007AC0F3C10054F80C
:10355000200002903D48007A00F0200010B102984F
:10356000404202903948007AC0F3811054F820009C
:1035700003903648008900F4807010B103984042EF
:1035800003903349019880FB0101800F40EA8100DC
:1035900001902F49029880FB0110820042EA91704D
:1035A00002902B49039880FB0110820042EA91703F
:1035B00003900198000E8DF800000198000C8DF822
:1035C00001000198000A8DF802000198C0B28DF840
:1035D00003006A4604214FF4747001F09DFE18B197
:1035E0004FF0FF3004B010BD0298000E8DF80000BF
:1035F0000298000C8DF801000298000A8DF8020074
:103600000298C0B28DF803006A4604214FF4757029
:1036100001F082FE10B14FF0FF30E3E70398000E97
:103620008DF800000398000C8DF801000398000A43
:103630008DF802000398C0B28DF803006A46042199
:103640004FF4767001F068FECCE70000B046002031
:1036500009E3CA0210B586B0044647A0006803908B
:1036600046A00068029046A00068019045A000684E
:10367000009004F0030003A9085C8DF8140003A86F
:10368000C4F3C101405C8DF8150003A8C4F3811197
:10369000405C8DF8160004F0030002A9085C8DF868
:1036A000100002A8C4F3C101405C8DF8110002A80B
:1036B000C4F38111405C8DF8120005AA032140F289
:1036C000264001F029FE18B14FF0FF3006B010BDC2
:1036D00004AA032140F22A4001F01EFE10B14FF06F
:1036E000FF30F3E7019805900098049004F004007F
:1036F00058B19DF8140040F001008DF814009DF8B9
:10370000100040F001008DF8100004F0200058B1C6
:103710009DF8150040F001008DF815009DF811008E
:1037200040F001008DF8110004F4807058B19DF84C
:10373000160040F001008DF816009DF8120040F0D0
:1037400001008DF8120005AA03214FF4886001F0F2
:10375000E3FD10B14FF0FF30B8E704AA032140F2B7
:10376000314001F0D9FD10B14FF0FF30AEE706480F
:1037700004810020AAE700004CCD6C000CC92C008D
:103780003656760026466600B0460020F8B5054657
:103790000E464FF47A7095FBF0F000FB06F4200E15
:1037A0008DF80000200C8DF80100200A8DF8020031
:1037B000E0B28DF803006A4604214FF4AE7001F0C8
:1037C000ABFDF8BD38B50446052094FBF0F084B29B
:1037D00020128DF80000E0B28DF801006A46022147
:1037E0004FF4AD7001F098FD38BD38B504460520A2
:1037F00094FBF0F084B220128DF80000E0B28DF856
:1038000001006A4602214FF4AC7001F085FD38BD1D
:1038100038B504460020009004F0010020B19DF866
:10382000000040F03000009004F0020020B19DF84C
:10383000000040F00C00009004F0040020B19DF85E
:10384000000040F0030000906A4601214FF4A4708C
:1038500001F062FD38BD38B50446012C01DA0124BF
:1038600002E0042C00DD0424601EC0B200906A4611
:10387000012140F24F1001F04FFD38BD2DE9FC470A
:1038800006460F4606F0070010B1B7F5C86F03DD16
:103890004FF0FF30BDE8FC873846FCF738FF814623
:1038A0005949FCF765FD8046684600F0E3FD9DF848
:1038B0000000022806D0042816D0082826D0102898
:1038C00048D135E04FF08D414046FCF71FFD814661
:1038D000FCF73BFF84B24D494046FCF717FD81469B
:1038E000FCF733FF85B238E04FF08C414046FCF7DF
:1038F0000DFD8146FCF729FF84B245494046FCF79F
:1039000005FD8146FCF721FF85B226E04FF08B4193
:103910004046FCF7FBFC8146FCF717FF84B23D49AB
:103920004046FCF7F3FC8146FCF70FFF85B214E03C
:103930004FF08A414046FCF7E9FC8146FCF705FF61
:1039400084B235494046FCF7E1FC8146FCF7FDFEB8
:1039500085B202E04FF0FF309CE700BF20128DF8E7
:103960000400E0B28DF8050028128DF80600E8B2D8
:103970008DF8070006F00100A0B101AA02214FF462
:10398000EA7001F0C9FC10B14FF0FF3082E70DF191
:10399000060202214FF4927001F0BEFC10B14FF00C
:1039A000FF3077E706F00200A0B101AA02214FF430
:1039B000EC7001F0B1FC10B14FF0FF306AE70DF18F
:1039C000060202214FF4947001F0A6FC10B14FF0F2
:1039D000FF305FE706F00400A0B101AA02214FF416
:1039E000EE7001F099FC10B14FF0FF3052E70DF18D
:1039F000060202214FF4967001F08EFC10B14FF0D8
:103A0000FF3047E7002045E70000484300004046FC
:103A10000000C045000040450000C04438B50446E1
:103A2000052094FBF0F085B228128DF80000E8B272
:103A30008DF801006A4602214FF4EF7001F06CFC32
:103A400038BD38B50446052094FBF0F085B2281245
:103A50008DF80000E8B28DF801006A4602214FF4AB
:103A6000ED7001F059FC38BD00BF054A128802F024
:103A70004002002AF9D0C2B2014B1B1D1A807047C8
:103A8000003801407CB5054628494968087801ABF3
:103A900004220D21FDF7F2FB08B107207CBD9DF843
:103AA0000700C0F301109DF8041001F0E00140EAA6
:103AB000E1008DF800009DF80700C0F381009DF83B
:103AC000051001F0E00140EAE1008DF801009DF8E9
:103AD000070000F003009DF8061001F0E00140EA45
:103AE000E1008DF8020000241CE01DF8040018B964
:103AF000002045F8240013E00D4845F8240006E0B6
:103B000055F824000B49FCF701FC45F824001DF88A
:103B10000400401EC0B20DF804000028F0D100BF20
:103B2000601CC4B2032CE0DB0020B7E79C0000203F
:103B30007B14AE3E1D5A843F2DE9F04F87B00546F9
:103B40000C46914601208DF8100000208DF81100E0
:103B5000FE4A1268917CFD4A5268107804AB02223A
:103B6000FDF732FC20B14FF0FF3007B0BDE8F08F19
:103B7000C820FFF753F900208DF81000F34A1268AF
:103B8000D17BF24A5268107804AB0122FDF71CFC8D
:103B900010B14FF0FF30E8E7EC4A12685179EB4A78
:103BA0005268107804AB0122FDF70EFC10B14FF003
:103BB000FF30DAE7E54A1268917CE44A52681078EF
:103BC00004AB0122FDF700FC10B14FF0FF30CCE751
:103BD000DE4A1268D17DDD4A5268107804AB0122BA
:103BE000FDF7F2FB10B14FF0FF30BEE7D74A126885
:103BF0001179D64A5268107804AB0122FDF7E4FB34
:103C000010B14FF0FF30B0E70C208DF81000CF4A14
:103C100012681179CD4A5268107804AB0122FDF781
:103C2000D3FB10B14FF0FF309FE70F20FFF7F6F8FE
:103C3000C648806A407A8DF81000C44A12689178AC
:103C4000C24A5268107804AB0122FDF7BDFB10B1E7
:103C50004FF0FF3089E7BD48806A007A8DF8100088
:103C6000BA4A12685178B94A5268107804AB0122F6
:103C7000FDF7AAFB10B14FF0FF3076E7B9F1000F66
:103C800007D0B248806A807A40F0E0008DF81000DA
:103C900004E0AE48806A807A8DF81000AB4A126862
:103CA0009179AA4A5268107804AB0122FDF78CFB87
:103CB00010B14FF0FF3058E7B9F1000F07D0A3481B
:103CC000806AC07A40F0E0008DF8100003E0A04860
:103CD000C07A8DF810009D4A1268D1799B4A5268CB
:103CE000107804AB0122FDF76FFB10B14FF0FF30ED
:103CF0003BE7B9F1000F02D0C820FFF78FF8402052
:103D00008DF81000914A12681179904A5268107823
:103D100004AB0122FDF758FB10B14FF0FF3024E750
:103D200078208DF81000894A12685179874A5268C4
:103D3000107804AB0122FDF747FB10B14FF0FF30C4
:103D400013E783498889FFF769F800208DF8100090
:103D50007E4A126851797D4A5268107804AB01227C
:103D6000FDF732FB10B14FF0FF30FEE6774A1268E4
:103D7000917A764A5268107804AB0222FDF77EFAF7
:103D800010B14FF0FF30F0E69DF811009DF81010D3
:103D900040EA012B0C209BFBF0F0C6B20020A8608B
:103DA00068602860A06060602060824665E0674AC5
:103DB0001268D17A654A5268107804AB0C22FDF77C
:103DC0005DFA10B14FF0FF30CFE69DF811009DF87D
:103DD000101040EA012000B2ADF808009DF8130071
:103DE0009DF8121040EA012000B2ADF80A009DF8DB
:103DF00015009DF8141040EA012000B2ADF80C0047
:103E0000BDF90810206808442060BDF90A106068F8
:103E100008446060BDF90C10A0680844A0609DF8DB
:103E200017009DF8161040EA012000B2ADF800001E
:103E30009DF819009DF8181040EA012000B2ADF875
:103E400002009DF81B009DF81A1040EA012000B204
:103E5000ADF80400BDF90010286808442860BDF9D9
:103E60000210686808446860BDF90410A868084436
:103E7000A8600AF1010000F0FF0AB24597DB344860
:103E8000D0F800C02868C117090441EA10410704AE
:103E9000624600233846FCF791F932460023CDE90B
:103EA0000201FCF78BF928602948D0F800C0686847
:103EB000C117090441EA104107046246002338464D
:103EC000FCF77CF932460023CDE90201FCF776F9D4
:103ED00068601F48D0F800C0A868C117090441EA0B
:103EE00010410704624600233846FCF767F9324662
:103EF0000023CDE90201FCF761F9A8601448D0F86D
:103F000004C02168C817000440EA11480F04624643
:103F1000002338464146FCF751F932460023CDE9EB
:103F20000201FCF74BF920600948D0F804C0606832
:103F3000C117090441EA10410704624600233846CC
:103F4000FCF73CF93246002304E000009C0000200E
:103F500060630008CDE90201FCF730F960601148A8
:103F6000D0F804C0A068C117090441EA1041070451
:103F7000624600233846FCF721F932460023CDE99A
:103F80000201FCF71BF9A060A068002804DDA0680E
:103F9000A0F58030A06003E0A06800F58030A0604C
:103FA0000020E2E5606300082DE9FC5F06460F464D
:103FB00000253D494968087801AB03220D21FDF732
:103FC0005DF910B10720BDE8FC9F9DF8040000F0EA
:103FD0001F008DF804009DF8050000F01F008DF80B
:103FE00005009DF8060000F01F008DF80600002473
:103FF00056E056F8240057F82410A0EB010BBBF153
:10400000000F01DB594601E0CBF100010846FCF747
:1040100075FB4FF08F410090FCF7AAF9814601A88B
:10402000005D68B321490868FCF771FB8346594677
:104030001F48FCF79DF9804604E01E494046FCF706
:1040400065F9804601A8005D401EC0B201A908556F
:104050000028F2D141464846FCF78AF983464FF0E2
:104060007E51FCF74DF982462AF0004B0F488169DA
:104070005846FCF7B7FB12D20120A04005430EE0E2
:104080000A4801694846FCF7A3FB05D30748416984
:104090004846FCF7A7FB02D20120A0400543641C60
:1040A000032CA6DB28468EE79C00002060630008F6
:1040B00000B04C4554E3853F10B50446204600F05F
:1040C0000FF80346E01C00F00BF843EAC00083B28F
:1040D000A01D00F005F843EA801083B2184610BD19
:1040E000014691F90020002A01DD00201EE091F92F
:1040F0000020002A01DA042018E091F90120002AAA
:1041000001DD012012E091F90120002A01DA0520E9
:104110000CE091F90220002A01DD022006E091F96D
:104120000220002A01DA062000E00720704710B5BF
:104130004820FDF7F9FBFDF725FC01F093FE01F0A7
:10414000A3FE002010BD704770B50446002624F081
:104150000104184890F8240008B1002070BD1548EB
:10416000807A10B94FF0FF30F8E71248057C807A6A
:104170002040104908740846007CA04202D04FF04D
:10418000FF3600E0002614B90A48007D18B101206E
:1041900001F002FC02E0002001F0FEFB3CB100F067
:1041A000A7FC20B1034805744FF0FF30D6E7304636
:1041B000D4E700009C0000202DE9F04F99B00446A0
:1041C0000D4616464FF07E574FF000084FF000099D
:1041D0004FF0000A12A813A918AB0EAACDE90010DF
:1041E00014A916A8FEF7E8FF18B1012019B0BDE820
:1041F000F08FBDF84C0000F4807000287ED00E983F
:10420000FCF77CFA83464FF09D41FCF7B1F8074676
:104210000F98FCF773FA83464FF09D41FCF7A8F81E
:1042200080461098FCF76AFA83464FF09D41FCF7F0
:104230009FF881461198FCF761FA83464FF09D4143
:10424000FCF796F8824639464FF08040FCF75EF85E
:1042500049460590FCF75AF8414607904FF0404018
:10426000FCF754F851460590FCF750F80690079972
:10427000FBF7F4FF8346FCF77CFACDE90801FEF773
:1042800071FA4FF06632544BCDE90A01FCF755F94B
:10429000CDE90C01FCF780FA206049464FF08040E0
:1042A000FCF734F849460290FCF730F84146049098
:1042B0004FF04040FCF72AF841460290FCF726F800
:1042C00003900499FCF71CF883464FF07E51FBF7EE
:1042D000C5FF0590FCF74DFACDE9080139464FF0CE
:1042E0008040FCF713F841460390FCF70FF849466D
:1042F00004904FF08040FCF709F800E068E0514678
:104300000390FCF703F883460499FBF7A7FF059099
:10431000FCF72FFACDE90601DDE90823FEF76AFC78
:104320004FF066322C4BCDE90A01FCF706F9CDE9D6
:104330000C01FCF731FA286051465046FBF7E6FFC6
:10434000494604904846FBF7E1FF4146039040464A
:10435000FBF7DCFF394601903846FBF7D7FF0090AA
:104360000199FBF77BFF02900399FBF7C9FF834696
:104370000499FBF7C5FF0590FCF7FBF9CDE90801AF
:1043800051463846FBF7C2FF494604904046FBF7CA
:10439000BDFF03900499FBF761FF4FF0804105904A
:1043A000FBF7B4FF8346FCF7E4F9CDE90601DDE94C
:1043B0000823FEF71FFC4FF06632074BCDE90A01D8
:1043C000FCF7BBF8CDE90C01FCF7E6F9306001E041
:1043D00002200BE7002009E766A64C4070B50024D8
:1043E000FCF7CAFD00F020F900283DD1782000F04C
:1043F0002BFFC4B20CB1012070BD7820FFF7A4FEE2
:10440000C4B20CB10220F7E7C82000F0CFFEC4B25E
:104410000CB10320F0E7FEF7C3FEC4B20CB10420D8
:10442000EAE71348FFF748FE0546FFF713F9C4B261
:104430000CB10520E0E740F27310FEF759FDC4B25D
:104440000CB10620D8E7C820FFF734F8C4B20CB18D
:104450000720D1E701F054FA0446012000F0A2FD44
:10446000C4B21CB10920C7E70A20C5E70020C3E792
:10447000C800002001461148407A30B1012807D019
:10448000022808D003280CD108E0022008700BE0B5
:104490000420087008E00820087005E0102008706B
:1044A00002E04FF0FF30704700BF0448C07C18B1F5
:1044B00008784006000E08700020F4E79C000020F9
:1044C00001461348407A30B1012808D002280AD0AA
:1044D000032810D10BE04FF4804008800EE041F635
:1044E0009C7008800AE04FF48050088006E04FF48A
:1044F0000060088002E04FF0FF30704700BF0448C2
:10450000C07C10B10888401008800020F5E700004A
:104510009C00002001460248007C08700020704783
:104520009C00002001460F48007A30B1012807D0D6
:10453000022809D003280FD10AE0FA2008800EE0F3
:104540004FF4FA7008800AE04FF47A70088006E0B1
:104550004FF4FA60088002E00020088000BF00BF2E
:10456000002070479C00002001460E48007A30B1C0
:10457000012807D0022808D003280CD108E00A48F7
:1045800008600BE00948086008E00948086005E099
:104590000848086002E04FF0FF30704700BF00207D
:1045A000FBE700009C000020000003430000834262
:1045B000333303423333834101461248C07A08281B
:1045C00017D2DFE800F01704070A0D101318BC20FB
:1045D000088013E06220088010E02A2008800DE0A7
:1045E000142008800AE00A20088007E005200880DF
:1045F00004E000BF00BF0020088000BF00BF002013
:10460000704700009C0000200146064890F82400F6
:1046100010B14FF0FF3070470248C0890880002079
:10462000F9E700009C0000201CB580208DF80000F8
:10463000654A1268917C644A526810786B46012280
:10464000FCF7C2FE10B14FF0FF301CBD6420FEF736
:10465000E5FB00208DF800005B4A1268917C5A4A05
:10466000526810786B460122FCF7AEFE10B14FF095
:10467000FF30EAE7544A1268917D534A5268107835
:104680006B460622FCF7FAFD10B14FF0FF30DCE775
:104690009DF80500C007400F9DF8031001F00101CF
:1046A00040EA41009DF8011001F0010140EA0104D7
:1046B00094B1012C03D101214348C17431E0022C93
:1046C00003D100214048C1742BE021463FA0FDF7F3
:1046D000F9FA4FF0FF30B8E73B4A1268D1783A4A0E
:1046E000526810786B460122FCF7C8FD10B14FF0FC
:1046F000FF30AAE79DF8000000F00F042CB93D48F8
:10470000FDF7E0FA4FF0FF309FE7042C06D13AA006
:10471000FDF7D8FA01212C48C17402E000212A4893
:10472000C174FF2128488172FF2027490872FF21A8
:1047300025484172C1724FF6FF71C181FF2101749A
:1047400081740121017380F82210002180F8231068
:10475000417501751630016041608160163880F83E
:10476000241080F82510C1844FF4FA6000F062FC38
:1047700010B14FF0FF3068E7022000F02BFB10B1C2
:104780004FF0FF3061E72A2000F0CEFC10B14FF06F
:10479000FF305AE7322000F009FD10B14FF0FF3032
:1047A00053E70020FFF7D0FC10B14FF0FF304CE78B
:1047B000002000F051FB10B14FF0FF3045E7002022
:1047C00000F042FD002040E79C000020556E73750C
:1047D00070706F7274656420736F66747761726550
:1047E0002070726F64756374207265762025642E64
:1047F0000A0000006076000848616C662073656EF0
:104800007369746976697479207061727420666F57
:10481000756E642E0A0000002DE9F04385B0054650
:104820000E4690469946294890F8250020B14FF051
:10483000FF3005B0BDE8F08316B94FF0FF30F8E760
:10484000002423E0281B102801DD102000E0281B95
:1048500087B232193946204600F05EFD10B14FF0A4
:10486000FF30E6E701AA3946204600F001F910B111
:104870004FF0FF30DDE730193A4601A9FBF7E1FCC4
:1048800010B16FF00100D4E7E01984B2AC42D9DB7B
:104890004FEA28208DF8000008F0FF008DF8010095
:1048A0000A4A1268917E094A526810786B460222C1
:1048B000FCF78AFD10B14FF0FF30BAE70121034841
:1048C00080F82510A0F826900020B2E79C00002078
:1048D00038B50446282C02DD4FF0FF3038BDDCB976
:1048E000002000F0EBFB00208DF8000007208DF881
:1048F00001002E4A1268917C2C4A526810786B464F
:104900000222FCF761FD10B14FF0FF30E6E7002115
:10491000264801750020E1E7012000F0CFFB2020B0
:104920008DF80000012C06D100208DF80100052033
:1049300000F0FAFB17E0052C06DC01208DF80100E1
:10494000052000F0F1FB0EE0142C06DC02208DF8AF
:1049500001000A2000F0E8FB05E003208DF80100CB
:10496000142000F0E1FB9DF80100072101EB80100D
:10497000C0B28DF801000D4A1268917C0B4A526852
:1049800010786B460222FCF71FFD10B14FF0FF308C
:10499000A4E70821054881720021017301210175F6
:1049A0000020FFF7D1FB002098E700009C000020CA
:1049B000F8B504460F4616462C4890F8240010B966
:1049C0004FF0FF30F8BD2948807A10B94FF0FF3022
:1049D000F8E7264A1268917A244A526810786B46A2
:1049E0000222FCF74BFC10B14FF0FF30EAE79DF8D4
:1049F00001009DF8001040EA0125A54203DA0020DD
:104A00003070401EDEE7194840684088B5EB600F03
:104A100017DD164A1268517C144A526810786B46AA
:104A20000122FCF72BFC10B14FF0FF30CAE79DF8D4
:104A3000000000F0100020B100F05AF86FF0010003
:104A4000C0E7E2B2094B1B68D97A084B5B6818785B
:104A50003B46FCF713FC10B14FF0FF30B2E795FB7B
:104A6000F4F0401E30700020ACE700009C000020F5
:104A7000F8B504460D46164616B94FF0FF30F8BD9E
:104A80001A48807A10B94FF0FF30F8E720128DF8FD
:104A90000000E0B28DF801009DF8010028441349A0
:104AA00049684989884202DD4FF0FF30E7E70F4A45
:104AB0001268117E0D4A526810786B460222FCF78C
:104AC00083FC10B14FF0FF30D9E7EAB2074B1B6807
:104AD000597D064B5B6818783346FCF7CFFB10B165
:104AE0004FF0FF30CBE70020C9E700009C0000201A
:104AF00008B57048807A10B94FF0FF3008BD00202B
:104B000000906C4A1268D17B6A4A526810786B46F2
:104B10000122FCF759FC10B14FF0FF30EEE7654A77
:104B200012685179634A526810786B460122FCF78B
:104B30004BFC10B14FF0FF30E0E75E4A126811798C
:104B40005C4A526810786B460122FCF73DFC10B1BC
:104B50004FF0FF30D2E7574890F82400002853D098
:104B60000C200090534A12681179524A526810780A
:104B70006B460122FCF728FC10B14FF0FF30BDE777
:104B80003220FEF74BF9C02000904A48807A00F0AE
:104B9000010020B19DF8000040F020000090454A3F
:104BA00012681179434A526810786B460122FCF76B
:104BB0000BFC10B14FF0FF30A0E73E48407C10B135
:104BC0000220009001E0002000903A4A1268D17B58
:104BD000384A526810786B460122FCF7F5FB10B199
:104BE0004FF0FF308AE700200090324A1268517976
:104BF000304A526810786B460122FCF7E5FB00282A
:104C000055D04FF0FF3079E704200090294A126810
:104C10001179284A526810786B460122FCF7D4FBC0
:104C200010B14FF0FF3069E72248807C20B921485D
:104C3000807A00F0010010B94020009001E060206F
:104C400000901C4A126811791A4A526810786B4613
:104C50000122FCF7B9FB10B14FF0FF304EE73220D4
:104C6000FEF7DCF81348407C10B10120009001E011
:104C7000002000900F4A1268D17B0E4A52681078CB
:104C80006B460122FCF7A0FB10B14FF0FF3035E777
:104C9000084A12685179074A52681078054B103358
:104CA0000122FCF791FB10B14FF0FF3026E7002006
:104CB00024E700009C0000202DE9F04F8DB08346D2
:104CC0000F4602200C90424890F8240020B10020AA
:104CD00000F068F9012600E0002603A8FFF722FC97
:104CE00005A8FFF7C7FB01A8FFF766FC02A8FFF7BE
:104CF0008BFC374890F80AA004A8FFF70BFC0024AF
:104D000007E0002239465846FEF716FF00B902E0D8
:104D1000641C022CF5DB00BF022C01D1002528E029
:104D2000002407E0012206A909A8FEF705FF00B943
:104D300002E0641C022CF5DB00BF022C01D100252F
:104D400017E006A93846FDF7B9FC00F0FF0809A9ED
:104D50005846FFF729F900F0FF090025B9F1000FC7
:104D600001D145F00105B8F1000F01D145F0020570
:104D700000BFFF2016490872FF2115484172C17219
:104D80004FF6FF71C181FF2181720174012101730E
:104D9000BDF80C0000F04EF99DF8140000F01AF870
:104DA000BDF8040000F0C0F9BDF8080000F0FEF9FD
:104DB000504600F049FA9DF81000FFF7C5F916B10A
:104DC000012000F0EFF828460DB0BDE8F08F00009C
:104DD0009C00002038B504461E48807A10B94FF078
:104DE000FF3038BD022C06D0042C07D0082C08D088
:104DF000102C0CD108E0002000900BE0082000905F
:104E000008E01020009005E01820009002E04FF02C
:104E1000FF30E6E700BF0F48407A9DF80010B0EB86
:104E2000E10F01D10020DCE70A4A1268D179094A72
:104E3000526810786B460122FCF7C6FA10B14FF0A9
:104E4000FF30CEE79DF80000C110024841720020FB
:104E5000C7E700009C00002038B504465048807C1D
:104E6000A04201D1002038BD002C46D04C4A126827
:104E700011794B4A526810786B460122FCF7FEF913
:104E800010B14FF0FF30EEE79DF8000020F0200059
:104E90000090434A12681179414A526810786B4673
:104EA0000122FCF791FA10B14FF0FF30DBE703204D
:104EB000FDF7B4FF02200090394890F8220020B19D
:104EC0009DF8000040F080000090354890F82300E5
:104ED00020B19DF8000040F030000090304A126888
:104EE000117D2F4A526810786B460122FCF76CFA4C
:104EF000002851D04FF0FF30B5E7294A12681179E8
:104F0000274A526810786B460122FCF7B7F910B1B6
:104F10004FF0FF30A7E72248807A00F0010028B167
:104F20009DF8000040F02000009004E09DF8000093
:104F300020F0200000901A4A12681179184A52682D
:104F400010786B460122FCF73FFA10B14FF0FF30AA
:104F500089E70320FDF762FF114890F8220010B1A5
:104F60008020009001E0002000900D4890F8230080
:104F700020B19DF8000040F030000090084A12680F
:104F8000117D074A526810786B460122FCF71CFA23
:104F900010B14FF0FF3066E701488474002062E7EB
:104FA0009C00002038B50446214890F82400A04217
:104FB00001D1002038BD24B31D4890F8250010B958
:104FC0004FF0FF30F6E7002000F0E6FC0020FFF78E
:104FD00043FF1749C88C00F0E9F8002000901449FD
:104FE000496808786B4601222321FCF7EDF901217D
:104FF0000F4880F82410012000F0CEFCFFF778FD68
:1050000013E0002000F0C8FC0948007C009008492B
:10501000496808786B4601222321FCF7D5F9002165
:10502000034880F82410FFF763FD0020C2E700006A
:105030009C00002038B504461F48807A10B94FF014
:10504000FF3038BDFA2C09D0B4F5FA7F09D0B4F599
:105050007A7F09D0B4F5FA6F0CD108E000200090F7
:105060000BE00820009008E01020009005E01820D8
:10507000009002E04FF0FF30E3E700BF0E48007AF7
:105080009DF80010B0EBE10F01D10020D9E70A4AEA
:1050900012689179084A526810786B460122FCF731
:1050A00093F910B14FF0FF30CBE79DF80000C0102E
:1050B000014908720020C4E79C00002038B504466E
:1050C000184890F82300A04201D1002038BD14B147
:1050D0003020009001E0002000901248807C20B138
:1050E0009DF8000040F0020000900E4890F8220069
:1050F00020B19DF8000040F080000090094A12683D
:10510000117D084A526810786B460122FCF75CF961
:1051100010B14FF0FF30D9E7024880F8234000205B
:10512000D4E700009C00002038B504461E48807A71
:1051300010B94FF0FF3038BDBC2C02DB01200090CD
:1051400015E0622C02DB0220009010E02A2C02DB2A
:10515000032000900BE0142C02DB0420009006E0FA
:105160000A2C02DB0520009001E0062000900E488A
:10517000C07A9DF80010884201D10020DBE70A4A7E
:1051800012689178084A526810786B460122FCF741
:105190001BF910B14FF0FF30CDE79DF80010024829
:1051A000C1720020C7E700009C00002038B504460B
:1051B0002448807A10B94FF0FF3038BD214890F86C
:1051C000240010B14FF0FF30F7E71E48007D50B1CA
:1051D00034B1282C04DCE0B2FFF77AFB0020ECE7C6
:1051E0000020FFF775FB042C01DA042404E0B4F579
:1051F0007A7F01DD4FF47A744FF47A7090FBF4F00B
:10520000401EC0B200900F4A126851780D4A526891
:1052100010786B460122FCF7D7F810B14FF0FF3041
:10522000CBE79DF80000401C4FF47A7191FBF0F041
:1052300081B20448C1810146C9894810FFF774FF53
:105240000020BAE79C00002038B5044604F0700046
:1052500010B10120009005E014B10020009001E0A1
:10526000402000902B4A1268917C2A4A526810789C
:105270006B460122FCF7A8F820B100212548817275
:10528000481E38BD9DF8000020F040012148017300
:105290000020009004F0400020B99DF8000040F08C
:1052A0000400009004F0200020B99DF8000040F0B8
:1052B0000200009004F0100020B99DF8000040F0BA
:1052C0000100009004F0080020B99DF8000040F0B3
:1052D000380000900F4A1268D17C0E4A526810784C
:1052E0006B460122FCF770F820B100210948817259
:1052F000481EC6E724B1082C02D00020FFF7DEFECE
:1053000004488472002101753220FDF787FD0020DA
:10531000B7E700009C000020F8B504460D4616468D
:1053200016B94FF0FF30F8BD1A48807A10B94FF027
:10533000FF30F8E720128DF80000E0B28DF8010090
:105340009DF801002844134949684989884202DDD3
:105350004FF0FF30E7E70F4A1268117E0D4A52689E
:1053600010786B460222FCF72FF810B14FF0FF3097
:10537000D9E7EAB2074B1B68597D064B5B68187882
:105380003346FCF721F810B14FF0FF30CBE7002097
:10539000C9E700009C0000202DE9F04105460E46BB
:1053A0002648076826480068001D00F0B3FB50B986
:1053B0002348006890F82C10012088402149096892
:1053C000814320480160681CD8B9D6B11E4948689D
:1053D0001B49096888601A4982680968CA601849C7
:1053E0000968091D8268516015490968091D8160B5
:1053F000154A134909684A6111460968491C116038
:105400001AE07C190E4800684460BC4207D20C4880
:105410000168091D0D48006800F0A0FB0CE0084879
:105420000168091D0A48006800F098FB09480068F7
:10543000844201D207480460BDE8F08128000020C2
:10544000140000202C000020D40100201C000020AB
:10545000180000204400002010B5044600F0FEFBB8
:105460002F480068401C2E4908602E48006840B94B
:105470002C4804600846006801280DD100F024F98A
:105480000AE02948006838B926480068C06AE16A1D
:10549000884201D82348046024480068401C2349FE
:1054A000086094F82C1001208840214909680843BD
:1054B0001F490860E16A01EB81011E4A02EB81018C
:1054C0004868A0608268E260211D82685160816046
:1054D000E16A01EB8101174A02EB81026261E16A34
:1054E00001EB8101134A52F82110491CE26A02EBD8
:1054F0008202104B43F8221000F0C2FB0A480068F9
:1055000068B108480068C06AE16A884207D24FF073
:10551000805009490860BFF34F8FBFF36F8F10BDF4
:105520002400002014000020300000204000002053
:105530002C0000202001002004ED00E010B516E052
:1055400000F08CFB0C48C068C468201D00F0E2FA33
:105550000A480068401E0949086009480068401E62
:105560000749086000F08CFB204600F00BF8044867
:1055700000680028E4D110BDC001002024000020F4
:105580002000002010B50446206B00F089FB204667
:1055900000F086FB10BD000030B54FF4884317487B
:1055A00000F007042CB1C01D20F00700134C041BB1
:1055B0001B1B0246124C22600024114D6C60D01857
:1055C000083820F007000F4C206000240D4D2D6896
:1055D0006C600C4D2D682C601146441A4C60094CCF
:1055E00024680C60084D4C682C60084D4C682C6099
:1055F0004FF00044064D2C6030BD0000E801002053
:10560000540000205C0000206400002060000020A6
:105610007000002000BFFFF791FF064800680128D6
:10562000F9D94FF0805004490860BFF34F8FBFF3A2
:105630006F8FF0E72001002004ED00E02DE9FF5F0F
:1056400080460E469146DDE90E7A109CA9F10100D4
:10565000216B01EB800B2BF0070B86B1002507E0D7
:10566000715D04F134004155705D00B902E06D1CBC
:10567000102DF5D300BF00214320015502E000208A
:1056800084F83400052F00D30427E762201D00F0C2
:1056900062FA04F1180000F05EFA2461C7F1050017
:1056A000A06164620020606484F848004146584666
:1056B000039A00F013F92060BAF1000F01D0CAF884
:1056C0000040BDE8FF9F000010B5002407E004EB98
:1056D00084010F4A02EB810000F030FA641C052CB3
:1056E000F5D30C4800F02AFA0B4800F027FA0B48D3
:1056F00000F024FA0A4800F021FA0A4800F01EFAE5
:1057000004480949086004480849086010BD0000C1
:10571000200100208401002098010020AC0100201D
:10572000C0010020D4010020180000201C0000202F
:1057300010B50146164800E0006803688B42FBD3B1
:105740000246436813448B4204D143684C682344A7
:10575000436001460A464B6813440468A34211D1D2
:105760000C4C03682468A34208D04B680468646842
:1057700023444B6003681B680B6005E0054B1B6806
:105780000B6001E003680B60884200D0016010BD2F
:10579000540000205C00002009480068006808B937
:1057A000012000E0002020B14FF0FF3005490860E3
:1057B00005E003480068C068006802490860704757
:1057C000180000204400002000BFBF2080F3118893
:1057D000BFF34F8FBFF36F8F00BF00BFFEE7000026
:1057E0002DE9F04104464FF0000800F083FB3548F6
:1057F000006808B9FFF7D0FE334800682040002851
:105800005BD1B4B104F10800A04212D9083404F00D
:10581000070078B104F00700C0F108002044A0425E
:1058200005D904F00700C0F10800044402E0002498
:1058300000E00024002C40D02448006884423CD87A
:10584000234E3046056801E02E462D686868A04268
:1058500002D228680028F7D11A48006885422CD067
:10586000306800F10808286830606868001B10285C
:1058700007D92F196868001B78606C603846FFF7FD
:1058800057FF124968680968081A104908600846F5
:10589000006810490968884203D20C4800680D4925
:1058A0000860094968680968084368600020286042
:1058B00009480068401C0849086000F08FFC404619
:1058C000BDE8F0815C000020700000206000002036
:1058D000540000206400002068000020001F4FF0EA
:1058E00080730360001F21F001030360001F034B5E
:1058F000036014380260203870470000C957000860
:1059000070B588B002A905A8FFF7D6F90446032CA4
:1059100040D101A8FEF728FE0598FAF7EFFE0646EB
:105920000199FAF7F3FC0546FAF7F6FE059006989A
:10593000FAF7E4FE06460199FAF7E8FC0546FAF79D
:10594000EBFE06900798FAF7D9FE06460199FAF79A
:10595000DDFC0546FAF7E0FE079005A8FDF7E2FD3D
:105960006846FEF7ADFD00200090BDF800100298DB
:1059700048430290BDF80010039848430390BDF8D7
:10598000001004984843049002A8FDF7FBFC002097
:1059900008B070BD0120FBE738B50446214890F8F7
:1059A0002400C0B114B10220009001E0002000905A
:1059B0001C4A1268D17B1B4A526810786B46012240
:1059C000FBF702FD10B14FF0FF3038BD9DF800101D
:1059D0001448417423E01348807A10B94FF0FF3027
:1059E000F3E724B10F48407C08B10020EDE714B183
:1059F0000120009001E0002000900A4A1268D17B4B
:105A0000084A526810786B460122FBF7DDFC10B1A2
:105A10004FF0FF30D9E79DF8001002484174002094
:105A2000D3E700009C0000202DE9F04106460F4618
:105A3000FBF748F8041E0D4618BF0120284320F04C
:105A40000040C0F17F6000F1E040C00F0ED0301C7C
:105A500018BF0120384320F00040C0F17F6000F102
:105A6000E040C00F04BF0120FCF7C8F920462946DA
:105A7000BDE8F08110B586B00446012144F204006F
:105A8000FBF748FE4FF40070ADF8140003208DF8CA
:105A9000160018208DF8170005A91C48FBF7F6F82A
:105AA0004FF48060ADF8140004208DF8170005A9AC
:105AB0001648FBF7EBF825208DF8000003208DF841
:105AC00001008DF8020001208DF803006846FBF705
:105AD000F1FC01940020ADF80800ADF80A00ADF823
