:020000040800F2
:10000000F04A0020990100087D180008111200082C
:1000100079180008CD0C00089F2B00080000000094
:1000200000000000000000000000000001010008C6
:10003000D10C0008000000004501000891210008D3
:10004000B3010008B3010008B3010008B3010008C0
:10005000B3010008B3010008B3010008B3010008B0
:10006000B3010008B3010008B3010008B3010008A0
:10007000B3010008B3010008B3010008B301000890
:10008000B3010008B3010008B3010008B301000880
:10009000B3010008B3010008B3010008D50C000843
:1000A000B3010008B3010008B3010008B301000860
:1000B0000D250008B301000825250008B30100083C
:1000C000B3010008B3010008B3010008B301000840
:1000D000B301000841290008B3010008C92900083C
:1000E000B3010008B3010008B3010008DFF80CD029
:1000F00000F006FD004800479F510008F04A00202C
:10010000224B19680868B0E8F00F80F30988BFF344
:100110006F8F4FF0000080F311884EF00D0E704786
:100120000000000006480068006880F3088862B696
:1001300061B6BFF34F8FBFF36F8F00DF00BF00BF0B
:1001400008ED00E0EFF30980BFF36F8F0F4B1A68E3
:1001500020E9F00F106008B54FF0BF0080F3118860
:10016000BFF34F8FBFF36F8F07F018F84FF0000009
:1001700080F31188BDE8084019680868B0E8F00FFE
:1001800080F30988BFF36F8F704700BF1400002011
:10019000EFF3058070470000064880470648004797
:1001A000FEE7FEE7FEE7FEE7FEE7FEE7FEE7FEE727
:1001B000FEE7FEE76D220008ED0000082DE9F041A2
:1001C0000024061B254671F1000605DA01240027EC
:1001D000D0EB070067EB0101161E73F1000605DA8C
:1001E0000027D2EB0702012567EB030300F04AFB6F
:1001F00086460E4617469C46AC4204D00025D0EBFE
:10020000050E65EB010624B10020D2EB000760EB80
:10021000030C704631463A466346BDE8F081D2B2DF
:1002200001E000F8012B491EFBD270470022F6E7DF
:1002300010B513460A4604461946FFF7F0FF20465C
:1002400010BD30B504460020034600E05B1C93421D
:1002500003D2E05CCD5C401BF8D030BDF0B480EA46
:100260000102D40F4200B2EB410F02D2024608460F
:1002700011464A0042D0C30DDDB2C1F3C752AD1AD8
:10028000202D35DAC1F3160141F4000204B15242C7
:10029000C5F1200602FA06F12A411044B3EBD05F03
:1002A00023D0C4B1012DA0EBC35009DCF0BC4FF04A
:1002B000004202EAC352DBB200F5000000F04DBB81
:1002C000400000F1807000EBC350A0F1807040EA64
:1002D000D170490009E0490841EAC071A0EBC35060
:1002E00000F50000400800EBC350F0BC00F02CBB50
:1002F0006142012202EB4101001BF6E7F0BC7047AE
:1003000081F00041AAE780F00040A7E780EA0102FF
:1003100010B502F00043400022D04A001FD0010E69
:1003200001EB1261C0F35600C2F3560240F4000024
:1003300042F40002A0FB022000047F39140400D024
:10034000401C50EA124001D44000491EC2B20C06C3
:1003500004EBD010401C4008802A02D003E00020AB
:1003600010BD20F00100002900DA0020184310BD64
:1003700030B480EA010202F0004530F0004221F082
:10038000004013D090B1C30DD40DC2F31601C0F3D9
:100390001600E41A41F4000140F400027D34914259
:1003A00001D3641C00E04900002C02DA30BC0020BC
:1003B00070474FF400000023914201D3891A034390
:1003C00040084FEA4101F7D151B1914202D14FF0BB
:1003D000004105E002D24FF0010101E06FF00101A0
:1003E00003EBC450284430BC00F0AEBA2DE9FE4FF8
:1003F000804681EA0300C00F0C46009021F00041C6
:1004000023F00045B8EB0200A94105D24046214641
:1004100090461C460B46024623F00040104347D04E
:10042000270DC7F30A00C3F30A510290401A019046
:1004300040286BDAC3F3130040F4801B0098924607
:1004400020B10023D2EB030A63EB0B0B0198594652
:10045000C0F14002504600F046FA06460D465046AE
:100460005946019A00F05EFA10EB08006141002441
:1004700087EA115284EAE7731A4340D0009A62B3C4
:10048000019A012A4FEA075215DC001B61EB0201B9
:100490004FF0004202EA0752CDE90042001C41F54C
:1004A000801132462B4600F095FA03B0BDE8F08F7C
:1004B00040462146F9E7001B61EB0201001C41F5B3
:1004C000801300185B412018A2F5001747EB0301C9
:1004D00040EAD570B6196D4111E06D084FEA360655
:1004E00045EAC0754FEA0752001B61EB0201001C90
:1004F00041F5801149084FEA300000195141324658
:100500002B4603B0BDE8F04F00F055BA0098012229
:1005100040000023D0EB020263EBE0730098214619
:100520004FEAE074B8EB000061EB0401E9E783F007
:1005300000435BE781F0004158E72DE9FE4F81EA77
:10054000030404F0004421F0004100944FF0000B3C
:1005500023F0004350EA01045ED052EA03045BD06A
:10056000C3F30A54C1F30A552C44A4F2F3340194A2
:10057000A0FB0254C1F3130141F48011C3F3130330
:1005800043F4801301FB024400FB034E840A970AE4
:1005900044EA815447EA8357A4FB076802958D0A11
:1005A00005FB07854FEA932C04FB0C542705029D9D
:1005B0004FEA065847EA1637B5EB08056EEB070C0D
:1005C000870E920E47EA811742EA8312A7FB0201C7
:1005D000B6EB0B0164EB00042B0D43EA0C335E1801
:1005E00044EB1C50DA465146E7FB0201C5F3130405
:1005F0004FEA0B3343EA14534FEA0432019C43EAB7
:100600000603A4F10C040294009CCDE900B400F0B0
:10061000E1F903B0BDE8F08F00200146F9E72DE9CC
:10062000F04D81EA030404F0004B21F0004514462C
:100630004FF0000A23F0004150EA050220D054EAAE
:1006400001021DD0C5F30A570246C5F31303C1F3D7
:100650001300C1F30A5640F4801543F48013A7EB4E
:100660000608101BD64608F2FD3873EB050002D3CE
:1006700008F1010801E092185B41B8F1000F03DABC
:1006800000200146BDE8F08D00204FF480110646A1
:1006900084460EE0171B73EB050705D3121B63EBB3
:1006A000050306434CEA010C49084FEA3000921852
:1006B0005B4150EA0107EDD152EA030012D082EA11
:1006C000040083EA0501084305D0101BAB4106D2A4
:1006D0000122002306E000224FF0004302E06FF009
:1006E000010253101AEB06004CEB085110EB0A0004
:1006F00041EB0B01BDE8F04D00F05DB9C10F80EAA0
:10070000E0700844CA079623002100F026B996231A
:100710000022114600F021B90EB5C10F80EAE07049
:100720000844CA07002140F233438DE80E000A4610
:100730000B4600F04FF903B000BD00F0004220F07E
:100740000040C10DC0F3160040F400007F2901DA1B
:1007500000207047962903DCC1F19601C84001E0F2
:1007600096398840002AF4D04042704720F000407B
:10077000C10DC0F3160040F400007F2901DA00200B
:100780007047962903DCC1F19601C840704796393D
:100790008840704770B5C1F30A5201F0004500244B
:1007A000C1F3130140F2FF3341F480119A4201DAA0
:1007B000002070BD40F233439A42A2F2334203DC80
:1007C000524200F09FF800E090402C43F1D04042AC
:1007D00070BD00F0004230F000400AD0C10D01F5BC
:1007E0006071C0F3160042EA0151C208400711438C
:1007F000704700200146704701F0004330B421F0FB
:10080000004150EA010206D00A0DA2F56072C1F360
:100810001301002A02DC30BC00207047440F44EA78
:10082000C104C100E01830BC00EBC25000F08CB82D
:10083000002801DBC0F10040002901DBC1F10041CB
:1008400081427047002801DBC0F10040002901DB34
:10085000C1F100418842704730B50B460146002087
:100860002022012409E021FA02F59D4205D303FA72
:1008700002F5491B04FA02F52844151EA2F10102F3
:10088000F1DC30BD2DE9F05F0546002092469B4625
:1008900088460646814640241BE028464146474696
:1008A000224600F02FF853465A46C01A914110D301
:1008B00011461846224600F016F82D1A67EB01087B
:1008C0004F4622460120002100F00DF817EB0009E9
:1008D0004E41201EA4F10104DFDC484631462A4681
:1008E0004346BDE8F09F202A04DB203A00FA02F1DB
:1008F000002070479140C2F1200320FA03F319430E
:1009000090407047202A04DB203A21FA02F00021AF
:10091000704721FA02F3D040C2F12002914008430F
:1009200019467047202A06DBCB17203A41FA02F01D
:1009300043EAE07306E041FA02F3D040C2F120023C
:1009400091400843194670470029A8BF7047401CD2
:10095000490008BF20F00100704710B4B0FA80FCD5
:1009600000FA0CF050EA010404BF10BC704749B112
:10097000CCF1200421FA04F411FA0CF118BF012182
:1009800021430843A3EB0C01CB1D4FEA00614FEA62
:10099000102042BF002010BC704700EBC350104431
:1009A0000029A4BF10BC7047401C490008BF20F0BC
:1009B000010010BC704710B5141E73F1000408DA72
:1009C000401C41F1000192185B411A4301D120F013
:1009D000010010BD2DE9F04D92469B4611B1B1FAD0
:1009E00081F202E0B0FA80F220329046FFF77BFFFE
:1009F00004460F4640EA0A0041EA0B0153465A46B4
:100A0000084313D0114653EA010019D0C8F140023F
:100A10005046FFF777FF05460E4650465946424678
:100A2000FFF761FF084305D0012004E02046394666
:100A3000BDE8F08D0020054346EAE0762C433743BD
:100A40000A986305E40AA0EB08000022FD0A44EAC4
:100A500047540A3002D500200146E9E70105101984
:100A60006941DDE9084500196941BDE8F04DA2E79B
:100A700070B521F0004303430CD0C1F30A550024A4
:100A8000D5EB040564EB0403D617AD1AB34102DBC2
:100A90000020014670BD201841EB025170BDC1F32A
:100AA0000A52C1F3130140F2FF3341F480119A421C
:100AB00002DA00200146704740F233439A42A2F224
:100AC000334202DC5242FFF71DBFFFF70CBF0000AC
:100AD00030B5041E71F1000404DB4FF000444042C5
:100AE00064EB0101141E73F1000405DB1C464FF09A
:100AF0000043524263EB0403994208BF904230BD69
:100B0000064C074D06E0E06840F0010394E807005A
:100B100098471034AC42F6D3FFF7ECFA4889000846
:100B2000688900082DE9F04D00231A461B1A8A41F6
:100B300003DB00200146BDE8F08DC1F30A52C1F38A
:100B4000130141F480154FF0000BD10702D10018BA
:100B50006D41521E0027044640F2FF11384601EB5A
:100B6000620A3E468046024600204FF48011FFF79D
:100B7000C9FEC2197141BB1846EB0100B4EB030C6E
:100B800075EB000C04D3E41A65EB000517460E461E
:100B9000241908F101006D4180463428E3DDF9197C
:100BA00046EB0600091BA84103D24FF0FF32134663
:100BB00001E0002213461BEB070046EB0A51BDE89B
:100BC000F04DFFF7F8BE70B58C1810F8015B15F00A
:100BD000070301D110F8013B2A1106D110F8012BAF
:100BE00003E010F8016B01F8016B5B1EF9D12B07D4
:100BF00005D40023521E0DD401F8013BFAE710F88A
:100C0000013BCB1A921C03E013F8015B01F8015B76
:100C1000521EF9D5A142D8D3002070BD00B587B0CF
:100C20000121880401F0DCF80121082001F0E8F836
:100C300018208DF81B004FF48060ADF818000320D9
:100C40008DF81A0006A91F4800F0F6F948208DF823
:100C50001B004FF40060ADF8180003208DF81A0057
:100C600006A9184800F0E8F94FF416500290002049
:100C7000ADF814000C20ADF812000020ADF8100003
:100C8000ADF80E00ADF80C0002A90F4801F016FFF8
:100C9000012240F225510C4801F0EBFE27208DF88F
:100CA000040001208DF8070002208DF805008DF862
:100CB000060001A800F026FE0121034801F096FE7F
:100CC00007B000BD000C01400048004000BFFEE737
:100CD0007047000010B52021094800F081FA68B97A
:100CE000202008490860084A0849094804F09EFA8B
:100CF00020B9084A0849094800F012FB10BD00005D
:100D0000000C0140140401400C01002008010020E7
:100D1000040100201A010020180100201601002003
:100D2000002123498279002A3AD00A4612680368D2
:100D30009A430B461A600A1D126803689A430B1DFA
:100D40001A60027911440A6803681A430A60184A53
:100D50000832126803689A43154B08331A601A1D4B
:100D6000126803689A43124B0C331A604279102AB6
:100D70000ED11A1F126803681A430D4B08331A600C
:100D80001A1D126803681A43094B0C331A600DE0F0
:100D90000749427911440A6803681A430A6005E06A
:100DA000027911440A6803689A430A607047000098
:100DB0000004014000B587B00121052001F020F8B2
:100DC0000121084601F00CF84FF0804001F064FC6E
:100DD00004208DF81B000320ADF818008DF81A00D0
:100DE00006A9214800F028F90020ADF81200ADF85E
:100DF0000E004FF6FF70ADF810000020ADF80C00AB
:100E00008DF8140003A94FF0804001F025FD002368
:100E10001A4603214FF0804001F0A4FB684601F020
:100E200029FC0420ADF800000F20ADF808000020D8
:100E3000ADF8020069464FF0804001F0C5FB01218A
:100E4000880701F07DFB01221146900701F01BFC91
:100E500000214FF0804001F0D1FC0121880701F012
:100E600075FB07B000BD00000008014000B587B069
:100E70000121092000F0C4FF0121042000F0B0FF8F
:100E8000254801F009FC04208DF81B00C020ADF8B6
:100E9000180003208DF81A0006A9204800F0CCF8AD
:100EA0000020ADF81200ADF80E004FF6FF70ADF85F
:100EB00010000020ADF80C008DF8140003A91648AE
:100EC00001F0CAFC684601F0D5FB0420ADF8000033
:100ED0000F20ADF808000020ADF8020069460E486A
:100EE00001F072FB00231A4603210B4801F03AFB84
:100EF0000121094801F024FB01221146064801F0B6
:100F0000C2FB0021044801F079FC0121024801F0F4
:100F10001DFB07B000BD000000080040000C0140B0
:100F20002E48007828B92E48007810B900202D49A5
:100F300008602A480078012804D12A480068401C2B
:100F40002849086026480078012804D1254800680F
:100F5000401E2449086023480068B0F5967F02DDF2
:100F60004FF4967008E01F48006810F5967F01DA8C
:100F70001D4801E01B4800681A4908601B480078BA
:100F800028B91B48007810B900201A490860174892
:100F90000078012804D117480068401D15490860F1
:100FA00013480078012804D112480068401F1149F5
:100FB000086010480068B0F5967F02DD4FF4967027
:100FC00008E00C48006810F5967F01DA064801E059
:100FD00008480068074908607047000028010020A1
:100FE000290100203C010020D4FEFFFF2A0100203F
:100FF0002B0100204001002030B500228B071C0F80
:101000000F2303FA04F20B4B8C1053F82430934354
:10101000084C8D1044F8253023468C1053F82430AA
:101020008C07240F00FA04F42343024C8D1044F87B
:10103000253030BD080001402DE9F0410246002571
:101040000026002000230024002791F803C00CF0A4
:101050000F0591F803C00CF0100CBCF1000F03D089
:1010600091F802C04CEA050591F800C0BCF1000FF0
:1010700031D0146800202BE04FF0010C0CFA00F383
:10108000B1F800C00CEA03069E4220D183004FF065
:101090000F0C0CFA03F7BC4305FA03FC4CEA0404FA
:1010A00091F803C0BCF1280F06D14FF0010C0CFAE7
:1010B00000FCC2F814C00AE091F803C0BCF1480F6C
:1010C00005D14FF0010C0CFA00FCC2F810C0401C16
:1010D0000828D1D31460B1F800C0BCF1FF0F34DD93
:1010E000546800202EE000F1080C4FF0010808FAC7
:1010F0000CF3B1F800C00CEA03069E4221D1830034
:101100004FF00F0C0CFA03F7BC4305FA03FC4CEA52
:10111000040491F803C0BCF1280F05D100F1080CBC
:1011200008FA0CF8C2F8148091F803C0BCF1480F1B
:1011300007D100F1080C4FF0010808FA0CF8C2F8CA
:101140001080401C0828CED35460BDE8F081000018
:10115000F0B50A46002300240021002500F00046D7
:10116000B6F1004F02D11D4EF16901E01B4E7168CE
:10117000C0F3034583B200F44016B6F5401F08D112
:1011800021F07061154E766826F07066134F7E6010
:1011900012E000F48016B6F5801F06D1032606FA89
:1011A00005F4A14341F0706106E0460D360103FAF3
:1011B00006F6B14341F0706122B1460D360103FAE3
:1011C00006F6314300F00046B6F1004F02D1034E5F
:1011D000F16101E0014E7160F0BD000000000140CE
:1011E0000246002093680B400BB1012000E0002074
:1011F000704741617047016170470AB1016100E0C9
:1012000041617047014890F900007047D10000200B
:1012100000BFFEE7104B02681B689A4202DA0E4AD2
:10122000126802600D4B02681B689A4202DD0B4A8D
:1012300012680260084B0A681B689A4202DA064A82
:1012400012680A60054B0A681B689A4202DD034A6D
:1012500012680A6070470000D4000020D800002007
:1012600008B50121042000F0CBFD10208DF803000B
:101270001820ADF8000003208DF8020069460848E8
:10128000FFF7DAFE10208DF803000320ADF8000010
:101290008DF8020069460348FFF7CEFE08BD000046
:1012A00000080140000C01401FB50121084600F074
:1012B000A7FD0121082000F0A3FD2020ADF80C00BF
:1012C00048208DF80F0003A91448FFF7B5FE05214B
:1012D0000120FFF791FE2020019000208DF80800EA
:1012E0000C208DF8090001208DF80A0001A8FFF7F5
:1012F00017FD4FF4407000F03DFB17208DF8000003
:1013000007208DF8010000208DF8020001208DF8E3
:101310000300684600F0F6FA1FBD0000000C014013
:101320002DE9FC4104460D4616466B460622432134
:10133000682000F0CBF90746BFB99DF801009DF881
:10134000001040EA012000B220809DF803009DF8C3
:10135000021040EA012000B228809DF805009DF8A7
:10136000041040EA012000B230803846BDE8FC811C
:1013700010B500200E4908600E48006820F4702067
:101380000C4908600846006840F4403008600020BE
:101390000949C1F8900100F011F8012004490860E2
:1013A00000F00CF800200449C1F88C0110BD0000C9
:1013B0008C812142000C01400080214210B50220A6
:1013C00002F08AFD10BD000008B50121092000F0DF
:1013D00017FD01210C48FFF7BBFE0121082000F09A
:1013E0000FFD1820ADF8000010208DF80300032039
:1013F0008DF8020069460548FFF71EFE18210348D4
:10140000FFF7F9FE08BD000000023000000C0140AB
:1014100010B500200E4908600E48006820F47020C6
:101420000C4908600846006840F44030086001201C
:101430000949C1F89001FFF7C1FF01200449086084
:10144000FFF7BCFF00200449C1F88C0110BD00006B
:101450008C812142000C01400080214270B505467C
:1014600000241648006820F47020144908600846DB
:10147000006840F400200860002614E000201049B5
:101480000860FFF79BFF01200E49C1F88C01600640
:10149000040E0B487C38006808B1601CC4B2FFF72A
:1014A0008DFF701CC6B2082EE8DB15B9FFF7B0FF40
:1014B00001E0FFF75DFF204670BD0000000C014019
:1014C0008C8121420080214270B504461248006898
:1014D00020F47020104908600846006840F440304D
:1014E000086000200D490860002512E0E0090B4962
:1014F000091D08606006040E01200949C1F88C012D
:10150000FFF75CFF002005490860FFF757FF681CE4
:10151000C5B2082DEADB70BD000C01408C81214270
:101520000080214210B50E48006820F470200C495C
:1015300008600846006840F440300860012009490E
:1015400008600949C1F88C01FFF738FF0020054900
:101550000860FFF733FF00200349C1F88C0110BD7C
:10156000000C0140908121420080214210B50E48BC
:10157000006820F470200C4908600846006840F4B8
:10158000403008600020094908600949C1F890010D
:10159000FFF714FF0120054908600549C1F89001D3
:1015A000FFF70CFF10BD0000000C01408C812142B0
:1015B0000080214210B500241448006820F47020F7
:1015C000124908600846006840F4002008600120C5
:1015D0000F490860FFF7F2FE01200E49C1F88C01A7
:1015E000FFF7ECFE07E0601CC4B2FA2C03DDFFF746
:1015F000BDFF012010BD0648803800680028F2D1E8
:101600000349091F086000BFF4E70000000C014017
:10161000908121420080214210B5FFF7D5FE802144
:101620006B2000F0D7F8322002F024FC00216B2060
:1016300000F0D0F8032000F08BF8002000F080F8D4
:10164000C82000F0AAF80021382000F0C3F80021DB
:101650006A2000F0BFF80021232000F0BBF88021B1
:10166000372000F0B7F8752000F013F80446682C16
:101670000BD101216B2000F0ADF800216C2000F0AF
:10168000A9F8C82000F089F801E0012010BD002071
:10169000FCE770B50446FFF745FFD020FFF714FFC5
:1016A000FFF788FF2046FFF70FFFFFF783FFFFF7E5
:1016B00039FFD120FFF708FFFFF77CFF0020FFF77D
:1016C000CDFE0546FFF752FF284670BD2DE9F041DB
:1016D00006460F4614461D46FFF724FF002141EA47
:1016E0004601C8B2FFF7F0FEFFF764FF20B1FFF735
:1016F0003DFF0120BDE8F0813846FFF7E5FEFFF72A
:1017000059FFFFF70FFF012101EB4601C8B2FFF7B8
:10171000DBFEFFF74FFF0DE0012C04D10020FFF7A7
:101720009DFE287003E00120FFF798FE2870601EE0
:10173000C4B26D1C002CEFD1FFF718FF0020D9E7D1
:1017400010B50446E006010E1C2000F043F810BD61
:1017500010B50446E006010E1B2000F03BF810BD5A
:1017600070B504460025BC2C01DB012510E0622C7D
:1017700001DB02250CE02A2C01DB032508E0142CF8
:1017800001DB042504E00A2C01DB052500E0062529
:1017900029461A2000F01EF870BD70B50446B4F555
:1017A0007A7F01DD4FF47A74042C00DA04244FF4BC
:1017B0007A7090FBF4F0401EC5B22946192000F063
:1017C00009F80546264604EBD671C1F34F00FFF732
:1017D000C7FF70BD70B505460C46FFF7A3FED020CD
:1017E000FFF772FEFFF7E6FE18B1FFF7BFFE01201C
:1017F00070BD2846FFF768FEFFF7DCFE2046FFF7C6
:1018000063FEFFF7D7FE18B1FFF7B0FE0120EFE748
:10181000FFF7ACFE0020EBE72DE9F04105460E4650
:1018200017469846FFF77EFE002141EA4501C8B2FF
:10183000FFF74AFEFFF7BEFE20B1FFF797FE01203B
:10184000BDE8F0813046FFF73FFEFFF7B3FE00240E
:101850000CE018F80400FFF737FEFFF7ABFE18B1F5
:10186000FFF784FE0120EBE7601CC4B2BC42F0DB52
:10187000FFF77CFE0020E3E700BFFEE7704708B5F6
:101880004FF4407000F076F817208DF80000072024
:101890008DF8010000208DF8020001208DF8030072
:1018A000684600F02FF81E208DF8000008208DF803
:1018B000010000208DF8020001208DF80300684629
:1018C00000F020F826208DF8000006208DF8010099
:1018D00000208DF8020001208DF80300684600F01A
:1018E00011F825208DF8000009208DF80100002056
:1018F0008DF8020001208DF80300684600F002F820
:1019000008BD000070B5002100230F22C47804B385
:10191000154C246804F4E064C4F5E064210AC1F1C4
:101920000403CA40447804FA03F184781440214344
:1019300009010E4C0678A155047804F01F05012416
:10194000AC4005786D11AD0005F1E025C5F800410A
:1019500009E0047804F01F050124AC40044D06782A
:10196000761145F8264070BD0CED00E000E400E083
:1019700080E100E002490143024A11607047000023
:101980000000FA050CED00E070B500240EE0002127
:10199000204600F0F0F8002504E0002000F0AFF948
:1019A000681CC5B2802DF8DB601CC4B2082CEEDBCD
:1019B00070BD000008B50121082000F021FA1420B4
:1019C0008DF8030003208DF802004FF48070ADF80D
:1019D000000069460A48FFF72FFB4FF40070ADF88E
:1019E000000069460648FFF727FB01225102044820
:1019F000FFF703FC012211020148FFF7FEFB08BDBF
:101A0000000C014070B50546002415E080202041FF
:101A100000EA05024FF480710E48FFF7EEFB012249
:101A200051020C48FFF7E9FB00224FF4007109480E
:101A3000FFF7E3FB601CC4B2082CE7DB0122510274
:101A40000448FFF7DAFB00224FF400710148FFF76A
:101A5000D4FB70BD000C014010B5012211020A48F0
:101A6000FFF7CBFB012251020748FFF7C6FB00221C
:101A70004FF480710448FFF7C0FB00224FF400715F
:101A80000148FFF7BAFB10BD000C014010B5002261
:101A90004FF480710648FFF7B0FB01225102044861
:101AA000FFF7ABFB012211020148FFF7A6FB10BDB7
:101AB000000C014070B5002406E0002500E06D1C1C
:101AC000B5F57A7FFBD3641CB4F57A7FF5D3FFF7C5
:101AD00071FFAE2000F003F9D52000F000F980205E
:101AE00000F0FDF8A82000F0FAF83F2000F0F7F829
:101AF000D32000F0F4F8002000F0F1F8402000F0CE
:101B0000EEF8A12000F0EBF8C82000F0E8F8DA20A9
:101B100000F0E5F8122000F0E2F8812000F0DFF894
:101B2000CF2000F0DCF8D92000F0D9F8F12000F047
:101B3000D6F8DB2000F0D3F8302000F0D0F8A42055
:101B400000F0CDF8A62000F0CAF88D2000F0C7F80C
:101B5000142000F0C4F8AF2000F0C1F8FFF714FF24
:101B600070BD10B50246012000E050430B1EA1F1EC
:101B70000101FAD110BD70B505460C4645F0B00024
:101B800000F0ADF8102141EA141000F0A8F804F0BC
:101B90000F0000F0A4F870BD2DE9F04105460E4697
:101BA0001746721ED206110E6A1E5206100EFFF75D
:101BB000E2FF002409E0A7F12001134A02EB011122
:101BC000085D00F09CF8601CC4B2082CF3DB721EA8
:101BD000D206110E6A1E012303EB4202D0B2FFF7B8
:101BE000CAFF00240BE0A7F12001074A02EB011213
:101BF00004F10801505C00F082F8601CC4B2082CAB
:101C0000F1DBBDE8F0810000168200082DE9F04705
:101C100080460E4617461D46002415E0281B411E2F
:101C20000A20FFF79EFFB7FBF0F00A21B0FBF1F2AC
:101C300001FB120000F130093019C1B24A4640469A
:101C4000FFF7AAFF601CC4B2AC42E7DBBDE8F08737
:101C50002DE9F0478146884615461E46002D06DBD5
:101C60002B2241464846FFF797FF2F4605E02D22DD
:101C700041464846FFF790FF6F42002417E0301BB3
:101C8000411E0A20FFF76DFFB7FBF0F00A21B0FB01
:101C9000F1F201FB120000F1300A08EB0400401CD5
:101CA000C1B252464846FFF777FF601CC4B2B44247
:101CB000E5DBBDE8F0872DE9F04107460E46154605
:101CC000002407E02A5D3019C1B23846FFF764FFEF
:101CD000601CC4B2285D0028F4D1BDE8F08110B5C5
:101CE0000446FFF7B9FE7820FFF78CFE0020FFF7CF
:101CF00089FE2046FFF786FEFFF7C8FE10BD10B52F
:101D00000446FFF7A9FE7820FFF77CFE4020FFF78E
:101D100079FE2046FFF776FEFFF7B8FE10BD000003
:101D200000B589B00121042000F06AF801210220E9
:101D300000F056F81E4800F0AFFC18208DF8230084
:101D4000C020ADF8200003208DF8220008A9194812
:101D5000FFF772F90020ADF81A00ADF8160041F651
:101D60001F40ADF818000020ADF814008DF81C00DD
:101D700005A90F4800F070FD01A800F031FD6020BA
:101D8000ADF804000120ADF806000020ADF80C000D
:101D9000ADF80A0001A9064800F084FC01A9044836
:101DA00000F0CCFC0121024800F0D0FB09B000BDDE
:101DB000000400400008014010B5044621460248D6
:101DC00000F018FD10BD00000004004010B50446EE
:101DD0002146024800F010FD10BD00000004004044
:101DE00029B1064AD2690243044BDA6104E0034A8E
:101DF000D2698243014BDA61704700000010024053
:101E000029B1064A92690243044B9A6104E0034AED
:101E100092698243014B9A617047000000100240B2
:101E200030B500210022002400232D4D6D6805F0FF
:101E30000C0121B1042905D0082923D105E0294D41
:101E4000056022E0274D05601FE0254D6D6805F413
:101E50007012234D6D6805F48034022505EB924223
:101E60001CB9214D554305600BE01D4D6D6805F40F
:101E700000351DB11C4D5543056002E0194D554319
:101E8000056002E0174D056000BF00BF144D6D688E
:101E900005F0F0010909154D6B5C0568DD404560F2
:101EA0000F4D6D6805F4E061090A104D6B5C4568E3
:101EB000DD4085600A4D6D6805F46051C90A0B4D1F
:101EC0006B5C4568DD40C560054D6D6805F44041BB
:101ED000890B074D6B5CC568B5FBF3F5056130BD3B
:101EE0000010024000127A0000093D0000000020AE
:101EF000100000200146022902D0042922D111E05D
:101F00004FF08042928C02EB8202500000224FF090
:101F100080439A84C21322B1C0F30E02A2F5FE40A0
:101F2000FF3811E0094A128802EB820250000022B9
:101F3000064B1A80C21322B1C0F30E02A2F5FE4076
:101F4000FF3801E0002000BF00BF704724080040B8
:101F500010B521A201210846FFF7ADFE23A2012101
:101F60000420FFF7A8FE642001F0AAFF012430E05E
:101F70000A2C15DAA01CC1B220A20220FFF79BFE9A
:101F800004EB84004200E01CC1B202231846FFF7B4
:101F90003DFE601DC1B21AA20220FFF78CFE14E0C4
:101FA000A01CC1B215A20220FFF785FE04EB84003D
:101FB0004200E01CC1B203230220FFF727FEA01D50
:101FC000C1B20FA20220FFF776FE642001F078FF75
:101FD000641C0A2CCCDD10BD42616C616E6365200F
:101FE00043617220496E6974000000007777772E94
:101FF0007261696E757075702E636E003E00000030
:102000002500000010B500F001F810BD0CB500204F
:10201000019000903348006840F4803031490860F6
:1020200000BF3048006800F4003000900198401C68
:102030000190009818B90198B0F5A06FF1D1294826
:10204000006800F4003010B10120009001E0002091
:1020500000900098012843D12348006840F0100008
:10206000214908600846006820F00300086008461F
:10207000006840F0020008601A484068194948604A
:102080000846406848600846406840F48060486000
:102090000846406820F47C1048600846406840F4D8
:1020A000E81048600846006840F08070086000BF93
:1020B0000C48006800F000700028F9D0094840681A
:1020C00020F00300074948600846406840F00200DD
:1020D000486000BF0348406800F00C000828F9D1B0
:1020E0000CBD0000001002400020024070B5044604
:1020F0000D46002C08DA10211948FFF77CF808215A
:102100001748FFF776F807E008211548FFF773F83E
:1021100010211348FFF76DF8261E01DB314600E061
:10212000714288B2FFF748FE002D08DA02210D48FF
:10213000FFF761F801210B48FFF75BF807E0012189
:102140000848FFF758F802210648FFF752F82E1EFC
:1021500001DB314600E0714288B2FFF737FE70BD07
:1021600000080140000C0140042808D14FF0E02194
:10217000096941F004014FF0E022116107E04FF0DE
:10218000E021096921F004014FF0E022116170475C
:1021900010B505F097F8012801D005F049F810BDF9
:1021A00070B505460420FFF7DFFF104800681049AE
:1021B000B0FBF1F00F4908700C4800680C49B0FB07
:1021C000F1F44FF47A70444301200B4908804FF03A
:1021D000E020006940F002004FF0E021086108466D
:1021E0004461006940F00100086170BD8800002072
:1021F00040420F00820000208400002010B5FFF74D
:102200003EFB01F015FEFFF755FCFFF7BDFB642018
:1022100001F030FEFFF700FA0A2001F02BFE02E089
:102220000BA000F07BFD03F013F90028F8D1FFF7B5
:102230003BF8642001F01EFEFFF772FDFEF7BAFDC9
:10224000FEF714FEFEF7EAFCFFF70AF810BD0000E7
:10225000496E697469616C697A6174696F6E206630
:1022600061696C6564A3A10D0A00000010B51348F4
:10227000006840F0010011490860084640681049B4
:1022800008400E494860084600680E4908400B495E
:1022900008600846006820F480200860084640680E
:1022A00020F4FE0048604FF41F008860FFF7AAFE8C
:1022B0004FF000600449086010BD000000100240AB
:1022C0000000FFF8FFFFF6FE08ED00E0F0B50C4659
:1022D000154600220021068C4FF6FE773E4006840C
:1022E000028B018C4FF60C7632407E1C06EA0316F8
:1022F0002E433243104EB0420ED0104EB0420BD09F
:10230000B0F1804F08D00E4EB04205D00D4EB04215
:1023100002D00D4EB04206D14FF6FD76314044F06A
:102320000106314305E04FF6F576314044F00106F1
:10233000314302830184F0BD002C01400034014090
:102340000004004000080040000C0040F0B50C46BE
:102350001546002200210026078C4FF6EF7C07EA85
:102360000C070784028B018C4FF6FF7707EA0416EF
:1023700040F6FF473A404FF6FF7707EA03373A4304
:102380004FF6FF7707EA05273A43114FB8420ED0C0
:10239000104FB8420BD0B0F1804F08D00E4FB8426A
:1023A00005D00E4FB84202D00D4FB84206D14FF6BD
:1023B000DF77394046F01007394305E04FF65F7785
:1023C000394044F01007394302830184F0BD000016
:1023D000002C01400034014000040040000800408F
:1023E000000C0040F0B50C461546002200210026E6
:1023F000078C4FF6FF6C07EA0C070784828B018C71
:102400004FF6FF7707EA04264FF60C773A404FF66F
:10241000FF7707EA03172F433A43114FB8420ED014
:10242000104FB8420BD0B0F1804F08D00E4FB842D9
:1024300005D00E4FB84202D00D4FB84206D14FF62C
:10244000FF57394046F48077394305E04FF2FF5794
:10245000394044F48077394382830184F0BD000021
:10246000002C0140003401400004004000080040FE
:10247000000C0040F0B50C46154600220021002655
:10248000078C4EF6FF7C07EA0C070784828B018CD1
:102490004FF6FF7707EA043640F6FF473A404FF61B
:1024A000FF7707EA05273A434FF6FF7707EA033736
:1024B0003A43114FB8420ED0104FB8420BD0B0F192
:1024C000804F08D00E4FB84205D00E4FB84202D010
:1024D0000D4FB84206D14DF6FF77394046F480578C
:1024E000394305E047F6FF57394044F480573943F4
:1024F00082830184F0BD0000002C014000340140C3
:102500000004004000080040000C004010B501210C
:10251000880700F048F8012803D10121800700F066
:1025200012F810BD10B50121044800F03CF8012854
:1025300003D10121014800F006F810BD0008004059
:10254000CA4302827047CA430282704721B102889F
:1025500042F00102028004E002884FF6FE731A4046
:1025600002807047F0B50C4615461E460021002239
:1025700000230189028B038C4FF6F8773940214301
:102580004FF6FC473A4040F201173A434FF6DD77E9
:102590003B404FF6FF7707EA06172F433B43018185
:1025A00002830384F0BD30B50246002000230024DE
:1025B000158A05EA0103958905EA010413B10CB1F6
:1025C000012000E0002030BD70B505460C462448CF
:1025D00085420ED0234885420BD0B5F1804F08D0FC
:1025E0002148854205D02148854202D020488542B5
:1025F00000D100E000BF208850B92389A2886188FB
:102600002846FFF763FEE188284600F0F9F825E048
:10261000208804280AD12389A28861882846FFF7E8
:1026200095FEE188284600F0F4F817E02088082895
:102630000AD12389A28861882846FFF7D3FEE18862
:10264000284600F0F3F809E02389A288618828462B
:10265000FFF710FFE188284600F0F1F870BD000098
:10266000002C0140003401400004004000080040FC
:10267000000C004000210180418001218180002167
:10268000C180018170471AB183890B43838102E0C5
:1026900083898B438381704701894FF6F87211401B
:1026A0000181704770B5002400220023058C4FF68D
:1026B000FE7635400584028C8388048B4FF68F7537
:1026C0002C40B51E2C400D882C43751E2A400D89C8
:1026D0002A434D882A43144DA8420BD0134DA842DB
:1026E00008D0134DA84205D0124DA84202D0124D79
:1026F000A84213D14FF6F7752A404D892A434FF669
:10270000FB752A408D882A434FF6FF652B404FF614
:10271000FF552B408D892B43CD892B438380048328
:10272000CD888586028470BD002C014000340140B4
:1027300000400140004401400048014070B50024C1
:1027400000220023058C4FF6EF7635400584028C7D
:102750008388048B48F6FF752C404FF6FF452C40CC
:102760000D884FF6FF7606EA05252C434FF6DF75F8
:102770002A400D8906EA05152A434D8806EA051503
:102780002A43154DA84202D0144DA8421DD14FF640
:102790007F752A404D894FF6FF7606EA05152A43D4
:1027A0004FF6BF752A408D8806EA05152A434FF675
:1027B000FF352B404FF2FF752B408D8906EA8505CA
:1027C0002B43CD8906EA85052B4383800483CD887E
:1027D0000587028470BD0000002C014000340140D8
:1027E0000021018041808180C180018141818181FE
:1027F000C181704781867047018770478184704727
:10280000028B4FF6F3731A400283028B0A43028352
:102810007047028B4FF2FF331A400283028B4FF650
:10282000FF7303EA01231A4302837047828B4FF63A
:10283000F3731A408283828B0A4382837047828BB0
:102840004FF2FF331A408283828B4FF6FF7303EA05
:1028500001231A4382837047002202881D4B98424D
:102860000ED01D4B98420BD0B0F1804F08D01B4BBF
:10287000984205D01A4B984202D01A4B984204D184
:102880004FF68F731A404B881A43174B984207D064
:10289000164B984204D04FF6FF431A40CB881A4398
:1028A00002808B8883850B8803850A4B98420BD066
:1028B000094B984208D00E4B984205D00D4B9842D8
:1028C00002D00D4B984201D10B7A038601238382FB
:1028D00070470000002C014000340140000400401B
:1028E00000080040000C00400010004000140040B0
:1028F0000040014000440140004801402DE9F047FC
:1029000006460C4615463046FDF7F8FE8246294637
:10291000FDF7FCFC80462046FDF7F0FE82460748A6
:1029200001685046FDF7F2FC81464146FDF796FCF2
:102930000746FDF702FFBDE8F0870000EC0000202D
:1029400010B540F225511D4800F069F810B31B483E
:1029500000F020F9C4B21A48008800F40040C8B959
:102960001748008800F4804060B10A2C03D0002092
:102970001349088020E01248008840F400401049C4
:10298000088019E00D2C06D10D48008840F48040E5
:102990000B49088010E00A480088C0F30D0009497F
:1029A0000C5407480088401C0549088008460088E8
:1029B000C72801DD0020088010BD0000003801405C
:1029C000800000201846002010B52021054800F0A6
:1029D00019F8012805D1034800F0DCF840B202499B
:1029E000087010BD00480040D100002021B182894C
:1029F00042F40052828104E082894DF6FF731A404E
:102A00008281704702460020B1F5007F00D100BFEF
:102A100013880B400BB1012000E00020704770B517
:102A20000246002400230025002040F66A16B14229
:102A300000D100BFC1F3421501F01F03012606FAC1
:102A400003F3012D02D19689334006E0022D02D115
:102A5000168A334001E0968A33400C12012606FAAA
:102A600004F41688344013B10CB1012000E00020BA
:102A700070BDF0B50346002400260025002040F676
:102A80006A17B94200D100BF1846C1F3421401F0E1
:102A90001F06012707FA06F5012C01D10C3004E0CE
:102AA000022C01D1103000E014301AB107682F4316
:102AB000076002E00768AF430760F0BD2DE9F0470B
:102AC00086B005460E460024A24600BFA146002758
:102AD000B08900B100BF2F462C8A4CF6FF7004402D
:102AE000F08804432C82AC894EF6F3100440B08881
:102AF00031890843718908430443AC81AC8A4FF69D
:102B0000FF400440B0890443AC8201A8FFF788F974
:102B10001F48874202D1DDF810A001E0DDF80CA0CB
:102B2000A88900F4004040B10AEBCA0000EB0A108B
:102B300031684900B0FBF1F807E00AEBCA0000EB8E
:102B40000A1031688900B0FBF1F86420B8FBF0F09E
:102B500004012009642101FB1089A88900F40040C8
:102B600040B1322000EBC900B0FBF1F000F00700EB
:102B7000044308E0322000EB09106421B0FBF1F0BF
:102B800000F00F0004432C8106B0BDE8F087000080
:102B90000038014001468888C0F30800704700BF34
:102BA000FEE700002DE9FF4704468946924609EBFF
:102BB0000A00001B3B4908603B480068FDF7ACFD7C
:102BC00007464FF06632394BFDF7B7FC0546FDF777
:102BD000E1FD3549086033480068FDF79DFD054675
:102BE0004FF03332324BFDF7A8FC074688462E489B
:102BF0000068FDF791FD3A464346CDE90001FDF737
:102C0000F5FBCDE90201FDF7C5FD2749086029481C
:102C10000068096808442749086008460068B0F55C
:102C2000FA5F02DD4FF4FA5008E02248006810F520
:102C3000FA5F01DA204801E01E4800681D4908607B
:102C400008460068FDF75AFD80461C48016840466A
:102C5000FDF75CFB064614480068FDF74FFD804613
:102C6000174801684046FDF751FB07463146FDF71E
:102C7000F5FA0546FDF761FD12490860124913484F
:102C80000068FDF7DFFD05D3114910480068FDF726
:102C9000CFFD02D20020074908600A48006804B04E
:102CA000BDE8F087F8000020FC0000206666E63FE3
:102CB0003333D33F00010020C0E0FFFFE8000020D5
:102CC000E4000020F40000200000964204010020EF
:102CD000000096C22DE9F05F05460E4614463146C7
:102CE0002846FDF70DFB814621460A480068FDF79E
:102CF0000DFB8246494608480068FDF707FB8346FE
:102D00005146FDF7ABFA8046FDF717FD07463846FA
:102D1000BDE8F09FE0000020DC0000200FB4054B70
:102D200010B503A9044A029800F05CF910BC5DF8E4
:102D300014FB0000D94A00087C000020490050EA3A
:102D4000C12018BF04204A0D18BF40F0010040F216
:102D5000FF72B2EB515F08BF40F00200012808BFCC
:102D6000052070472DE9F0414F1E00EBC7010446D6
:102D7000D1E9000115461E4637F006020DD02A465D
:102D80003346FDF7DAFB7F1E04EBC703D3E90023CC
:102D9000FDF72CFB37F00602F1D1022F25D0042FCE
:102DA00013D0062F18BFBDE8F0812A463346FDF741
:102DB000C4FBD4E90A23FDF719FB2A463346FDF785
:102DC000BCFBD4E90823FDF711FB2A463346FDF787
:102DD000B4FBD4E90623FDF709FB2A463346FDF789
:102DE000ACFBD4E90423FDF701FB2A463346FDF78B
:102DF000A4FBD4E90223FDF7F9FA2A463346FDF78E
:102E00009CFBD4E90023BDE8F041FDF7EFBA0122B5
:102E1000FDF72EBEFDF7EABA002213461046114612
:102E2000FDF7FDBB024A00201107FDF721BE00009F
:102E300001FDFFFF02E008C8121F08C1002AFAD1F5
:102E400070477047002001E001C1121F002AFBD12A
:102E50007047000001490860704700004C010020E5
:102E60002DE9FF5F82B00021DDE90430020DDDF8BD
:102E700040B0034318D044F61050A2F2FF32424350
:102E80001514119801281FD0A5EB0B00401C5FEA18
:102E9000000A4FF000064E4FDFF83891B04650461A
:102EA00015D5CAF1000413E0119801244AA30128A2
:102EB00001D16FEA0B010298119AC0E90031C0E913
:102EC000024206B0BDE8F09FCBF10000DFE7044608
:102ED0000021404A491842EB0450CDE9001012E0AD
:102EE000E00707D032463B4640464946FDF725FB02
:102EF0008046894632463B4610461946FDF71DFB83
:102F000006460F466410002CEAD1DDE90401DDE934
:102F10000023BAF1000F06DAFDF70FFB42464B46DD
:102F2000FDF70BFB05E0FDF77AFB42464B46FDF74C
:102F300076FB04460E460022284BFDF7C9FD03D858
:102F40004FF0FF30014607E00022254B2046314676
:102F5000FDF74CFAFDF7A3FD102409E0002C0ADB75
:102F60000A220023FDF78EFC039B30321A55641EA3
:102F700050EA0102F2D1641C039AC4F11103144413
:102F8000119A012A03D0012208430DD10AE0084317
:102F900004D000204FF0110B119072E7A3EB0B054A
:102FA0006D1E0DE05B4504DD4FF0000205F10105EB
:102FB00004E003DA4FF00002A5F10105002AECD08D
:102FC00002981199C0E90231C0E9004579E7000093
:102FD000000014400000F03F300000000000F0430B
:102FE0000000E03F2DE9FF4F95B09B46894606461D
:102FF00000250FE2252877D100242746F84A012131
:10300000059400E0044316F8013F203B01FA03F069
:103010001042F7D130782A2811D06FF02F03307882
:10302000A0F13002092A16D8059A44F0020402EBF6
:10303000820203EB42021044761C0590EFE759F838
:10304000042B0592002A03DA504244F40054059000
:1030500044F00204761C30782E2816D116F8010FA1
:1030600044F004042A280DD06FF02F023078A0F12C
:103070003003092B09D807EB870302EB4303C7187A
:10308000761CF3E759F8047B761C30786C280FD057
:1030900006DC4C2817D068280DD06A2814D104E02B
:1030A000742810D07A280FD10DE044F400140AE0FF
:1030B00044F4801401E044F440147278824202D156
:1030C00004F58014761C761C307866280BD013DC4F
:1030D000582877D009DC002875D04528F6D0462836
:1030E000F4D047281AD19DE118E0632835D0642830
:1030F00079D0652812D195E1702873D008DC672853
:10310000F1D069286FD06E280DD06F2806D1B5E0B8
:1031100073282CD0752875D0782874D05A46179902
:1031200090476D1C75E1C4F30250022809D00328B2
:103130000DD0D9F8001004280DD00D6009F1040954
:1031400067E1D9F80010EA17C1E90052F6E7D9F8AB
:1031500000100D80F2E70D70F0E719F8041B8DF8F0
:10316000001000208DF80100EA46012003E059F824
:1031700004AB4FF0FF3061074FF0000102D40DE0C7
:1031800008F101018846B9420FDA8045F8DB1AF8E8
:1031900008100029F4D108E008F1010188468142B5
:1031A000FADB1AF808100029F6D105985B46A0EB67
:1031B000080721463846179A00F094FA284400EB95
:1031C000080507E04DE029E10DE01AF8010B5A4629
:1031D00017999047B8F10108F7D25B462146384667
:1031E000179A13E142E00A220092C4F302524FF010
:1031F000000A022A08D059F804CB032A4FEAEC71DE
:103200000AD00DE029E02AE009F1070121F00702C8
:10321000F2E802C1914609E00FFA8CFC4FEAEC712A
:10322000042A03D14FFA8CFC4FEAEC71002907DA2B
:103230000A460021DCF1000C61EB02012D2202E0C4
:10324000220504D52B228DF80420012203E0E20799
:1032500001D02022F7E7904659E00A2102E010222F
:103260000DE010214FF0000A00910BE010224FF00A
:10327000000A44F004040827009203E008224FF0FB
:10328000000A0092C4F30252022A05D059F804CB76
:103290000021032A08D009E009F1070121F0070203
:1032A000F2E802C1914605E01FFA8CFC042A01D124
:1032B0000CF0FF0C4FF00008220728D5702806D02C
:1032C000009B83F0100353EA0A0305D00EE040226E
:1032D0008DF80420012208E05CEA010206D03022C9
:1032E0008DF804208DF8050002229046009B83F0A3
:1032F000080353EA0A030AD15CEA010201D162071A
:1033000005D530228DF804204FF001087F1E582883
:1033100004D034A003900EA802900DE036A0F9E787
:1033200053466046009AFDF7ADFA84460398825CE6
:103330000298401E029002705CEA0100F0D10298EF
:1033400006A9081A00F1200A600702D524F4803487
:1033500000E00127574502DDA7EB0A0000E000204E
:1033600000EB0A01009005984144401A0590E003E3
:1033700006D45B462146179A059800F0B3F9054438
:10338000002706E001A85A46C05D179990476D1CBA
:103390007F1C4745F6DBE0030CD55B462146179AB8
:1033A000059800F09FF9054404E030205A4617992B
:1033B00090476D1C0099481E00900029F5DC08E03C
:1033C000029802995A460078491C02911799904731
:1033D0006D1CBAF10001AAF1010AF1DC65E10000FF
:1033E00009280100303132333435363738396162DB
:1033F000636465660000000030313233343536379F
:1034000038394142434445460000000000F058F975
:103410000544761C307800287FF4ECAD19B02846BE
:10342000BDE8F08F620700D4062709F1070222F0F9
:10343000070CFCE80223E14603F000485FEA080CB1
:1034400002D00FF2702C0DE05FEA045C02D50FF29F
:10345000682C07E05FEAC47C02D00FF2602C01E028
:10346000AFF2700C4FF0FF3823F00043CDF850C09E
:1034700065280CD006DC452809D046281DD04728F1
:103480003DD13DE0662818D067287ED138E0002184
:10349000112F01DB112000E0781CCDE9000106A905
:1034A0000EA8FFF7DDFCDDE90F010E9A0391002164
:1034B000009207F1010A04914DE04FF0004000979F
:1034C000CDE9011006A90EA8FFF7CAFCDDE90F023D
:1034D00003920E9B11990022DDF80CA00093049238
:1034E00011B9791C00EB010AB7EB0A0004D4C0F152
:1034F000FF3007F1010A0490AAEB0700019044E0B5
:10350000012F00DA01270021112F01DD112000E039
:103510003846CDE9000106A90EA8FFF7A1FCDDE9B8
:103520000F010E9A0391002104910092BA462107DF
:103530000CD40399514500DA8A46BAF1010F05DD32
:10354000009AAAF10101515C302908D0B84202DA90
:1035500010F1040F06DA0121CDE9011015E0AAF1FE
:103560000101E9E7002805DC049901440491AAEB74
:10357000000102E0411C514500DD8A460499401AD1
:10358000401C01904FF000400290200704D40198A5
:10359000504501DBCDF8048000208DF84F000298E3
:1035A0000DF14F07B0F1004F25D02B200E9002985F
:1035B0004FF0020800280CDA404202902D200E90B5
:1035C00007E00A210298FDF747F93031029007F829
:1035D000011DB8F10001A8F10108F2DC02980028F1
:1035E000EFD1791E0E980870307800F0200040F07E
:1035F000450007F8020D12A8C01B00F10708149837
:10360000007800B1012000EB0A01019801EBE071A4
:1036100005984144401A401E0590E00306D45B46DD
:103620002146179A059800F05DF805441498007833
:1036300018B15A46179990476D1CE00324D55B4694
:103640002146179A059800F04DF805441CE00498AF
:10365000002807DBDDE90301884203DD0098405CB8
:10366000179901E0179930205A469047049805F1C0
:103670000105401C04900198401E019004D12E20A9
:103680005A46179990476D1CBAF10001AAF1010A38
:10369000DDDC05E017F8010B5A46179990476D1CC1
:1036A000B8F10001A8F10108F4DC5B462146179A45
:1036B0000598ABE62D0000002B0000002000000064
:1036C0002DE9F041044600251E461746880404D41F
:1036D00005E039462020B0476D1C641EF9D5284608
:1036E000BDE8F0812DE9F041044600251E469046D4
:1036F000C80301D5302700E02027880404D505E061
:1037000041463846B0476D1C641EF9D52846BDE8D1
:10371000F08100002DE9FE4F06460F460025684661
:1037200001F0E8F9002442E056F8240057F824108C
:10373000A0EB010ABAF1000F01DB514601E0CAF12A
:1037400000010846FCF7DAFF83464FF08F41FCF793
:103750000FFE80465DF824000021FDF769F816D0C1
:103760005DF824104046FCF703FE82464FF07E5180
:10377000FCF7C6FD814629F0004A0F48416A5046D1
:10378000FDF760F812D20120A04005430EE00A4880
:10379000C1694046FDF74CF805D30748016A404629
:1037A000FDF750F802D20120A0400543641C032C11
:1037B000BADB2846BDE8FE8FF87500082DE9F04D0C
:1037C0008D4F21F0004A86B005460C46BA452ADBEB
:1037D000AAEB070028430AD08848824501DC1AD1A9
:1037E000CDB106B02846BDE8F04DFFF710BB844AC6
:1037F000844B2846FCF7A1FE07460E46824A834BBF
:1038000028462146FCF799FE06B03A463346BDE805
:10381000F04DFCF7EBBD0120FFF71CFB06B0BDE847
:10382000F04DFFF7F9BA7A48824542DABAF1795F8A
:103830000BDA2846FFF782FA042808BFFFF7F2FAEE
:10384000284606B02146BDE8F08D2A460B461046B4
:10385000FCF773FE834602466E480E460B46062171
:103860007844FFF77FFA5A463346FCF766FE8046F7
:1038700069488A465A46334604217844FFF772FA6B
:103880005A463346FCF759FE00223B46FCF7AEFD94
:1038900002460B4640465146FCF7C1FE2A462346E7
:1038A000FCF74BFE06B02A462346BDE8F04DFCF778
:1038B0009DBD284624F0004100223D463B46FCF7D2
:1038C00039FE4FF0FF32FDF7D3F806460246534863
:1038D0000F460B4606217844FFF744FA32463B4632
:1038E000FCF72BFECDE900014D4832463B46042152
:1038F0007844FFF737FA32463B46FCF71EFE0022BB
:103900002B46FCF773FD834602913046394603F09F
:10391000C5F8804643480D46504517DCDDE90001F7
:103920005A46029BFCF77BFE42462B46FCF705FEFF
:1039300042462B46FCF75AFD0122FDF799F8304A22
:10394000304BFCF7F4FD304A304B4CE04FF0000AAE
:1039500052460B464046FCF749FDCDE9031052465E
:103960002B4610461946FCF7E8FD32463B46FCF76D
:10397000E1FDDDE90332FCF752FE06460F46DDE9C4
:1039800000015A46029BFCF74AFE83460091012241
:1039900030463946FDF76CF8194A1A4BFCF7CAFD58
:1039A00006460F46012240462946FDF761F85A4671
:1039B000009BFCF7C2FD32463B46FCF7B8FD0646CD
:1039C0000F46012250462946FDF752F80E4DDFF80A
:1039D00058802A464346FCF7ADFD32463B46FCF78D
:1039E000A9FD2A464346FCF7A5FD002CD8BF81F06F
:1039F000004106B0BDE8F08D0000F03F0000F07F10
:103A0000075C143326A6913C182D4454FB21F93F42
:103A10000000E03FA44F0000BA4F00002E4F00000E
:103A2000444F00003333EF3FFB21E93F2DE9F84FCE
:103A300004460D4621F0004000917349814211DC9B
:103A40007249884201DC06D12CB120462946BDE8E6
:103A5000F84FFFF7DCB96E48002DCCBF6D496E49B9
:103A6000BDE8F88F6D49814211DD6D498142D8BFB3
:103A70004FF0FF366DDD20462946FFF75FF9042839
:103A800008BFFFF7CFF920462946BDE8F88F654902
:103A9000654F25F00045814233DD6449814219DDDF
:103AA000002632464FF0804320462946FCF79EFC14
:103AB00080468A46012220462946FCF7D9FF00228B
:103AC0003B46FCF734FD42465346FCF7A8FD04464E
:103AD0000D463EE001260022BA463B4620462946D6
:103AE000FCF784FC80460F460022534620462946B8
:103AF000FCF71DFD42463B46FCF791FD04460D4692
:103B000027E04B4981421BDDDFF828A10226002275
:103B1000534620462946FCF710FD00223B46FCF7A1
:103B200065FC80460F460022534620462946FCF796
:103B3000FEFC42463B46FCF772FD04460D4608E09B
:103B4000032622462B4600203B49FCF768FD04462D
:103B50000D4622462B4610461946FCF7EEFC8B46D6
:103B6000824602460B46FCF7E8FC0746024633480D
:103B700088460B4606217844FFF7F4F852465B4628
:103B8000FCF7DBFC82462E488B463A46434605212D
:103B90007844FFF7E7F83A464346FCF7CEFC024686
:103BA0000B46002E504659460CDAFCF71FFC224605
:103BB0002B46FCF7C2FC01B022462B46BDE8F04F75
:103BC000FCF7B8BCFCF712FC22462B46FCF7B5FC10
:103BD0001C4A7A4402EBC603D3E90023FCF7A7FC96
:103BE00022462B46FCF7A3FC174A7A4402EBC60395
:103BF000D3E90023FCF79EFC009A002AB8BF81F0AD
:103C00000041BDE8F88F0000000010440000F07F84
:103C1000182D4454FB21F93FFB21F9BF0000DC3F84
:103C20000000203E0000F33F0000F03F0000E63FB0
:103C3000008003400000F83F0000F0BF464D000048
:103C4000044D0000A24C00006A4C00002DE9F04D2C
:103C50009446CCF1000423F000464CEA0404524F91
:103C600046EAD4749A46884621F00042BC4206D8FF
:103C7000454240EA050442EAD474BC4204D9BDE896
:103C8000F04D6246FFF7C6B8AAF14055A5F17F6531
:103C900055EA0C040BD0022404EAAA74434DDFF861
:103CA00010E144EAD87452EA000B04D00CE0BDE8FD
:103CB000F04DFFF7BBBE002C14BF012CBDE8F08D0A
:103CC000022C30D0032C32D056EA0C0B0AD0BE4264
:103CD00020D1BA4209D126F0804622F080423346F4
:103CE000114617E000291ADB25E0DFF8C8B0FB44D5
:103CF000002C04BFDBE90001BDE8F08D012C02BF00
:103D0000DBE9000181F00041BDE8F08D022C0AD012
:103D1000032C0CD0BA4212D1B8F1000F0BDA2348B1
:103D20002549BDE8F08D28462449BDE8F08D284698
:103D30007146BDE8F08D1D482149BDE8F08D921B0C
:103D400012153C2AC4BF19481D490EDCBAF1000FF8
:103D5000BEBF12F13C0F0020014606DB6246FCF7B5
:103D60005EFC21F00041FFF761FE002C08BFBDE8BA
:103D7000F08D012C04BF81F00041BDE8F08D114AA7
:103D8000114B022C07D0FCF7D2FB2A46BDE8F04DC0
:103D90000A4BFCF7CCBBFCF7CAFB2A46BDE8F04D4A
:103DA000064BFCF7C7BB00000000F07F182D445401
:103DB000FB2109C0FE4B0000FB21F9BFFB2109409C
:103DC000FB21F93F075C143326A6A13C2DE9F04105
:103DD0000446E07800F0C006E07800F03F05607827
:103DE00000F0010098B1EF102846E91705EB51717A
:103DF000C910A5EBC101491C01F0FF080B48006880
:103E000020B10A48414602683846904700BF6078B2
:103E100000F0080030B10548406818B1B011034AFD
:103E2000516888470020BDE8F0810000E04600208E
:103E300010B56FF00400FEF797F90A4800680A49C8
:103E4000B0FBF1F0094908700846007800EB40012A
:103E5000C1EBC0104FF6FF7101EAC00004490880B1
:103E600010BD00008800002000127A0078000020B9
:103E70007A0000200146114A12884A434FF0E0239D
:103E80005A6100229A611A46126942F001021A61CF
:103E900000BF4FF0E022106900F001021AB100F4F7
:103EA0008032002AF5D04FF0E022126922F00102A0
:103EB0004FF0E0231A6100229A6170477A000020D7
:103EC00070B50446002504E04FF47A7000F004F861
:103ED0006D1CA542F8DB70BD0146114A12784A43B9
:103EE0004FF0E0235A6100229A611A46126942F0AB
:103EF00001021A6100BF4FF0E022106900F00102D8
:103F00001AB100F48032002AF5D04FF0E022126995
:103F100022F001024FF0E0231A6100229A617047FB
:103F20007800002038B5044664B120208DF80000E8
:103F300028208DF8010030208DF8020038208DF8FF
:103F4000030004E0A32204216846FCF768F96A46EE
:103F5000042140F69E2002F019FA01F003FE38BD5C
:103F60003EB5044602208DF80000CA208DF80100FD
:103F7000E3208DF8020009208DF803006A46042131
:103F8000682002F003FAA3208DF8000004F040003E
:103F900048B1C0208DF80100C8208DF80200C22071
:103FA0008DF8030006E0A3208DF801008DF80200D3
:103FB0008DF8030004F4C07048B1C4208DF80400EB
:103FC000CC208DF80500C6208DF8060006E0A32061
:103FD0008DF804008DF805008DF80600A3208DF8FB
:103FE00007008DF808008DF809006A460A2140F69E
:103FF000A72002F0CBF904F0030018B120208DF8BF
:10400000000002E0D8208DF800006A46012140F649
:10401000B62002F0BBF904F0200018B1012000F036
:10402000ADF802E0002000F0A9F804F4C07008B375
:1040300004F4807060B1B2208DF800008B208DF800
:104040000100B6208DF802009B208DF803000BE0E4
:10405000B0208DF8000080208DF80100B4208DF88C
:10406000020090208DF803006A46042140F6A22049
:1040700002F08CF904F0010020B3F8208DF8000064
:104080006A4601214FF40B6002F080F9FA21072003
:1040900000F02CFC072000F0F3FB012000F013FCE3
:1040A000642000F0F3FC4FF4FA7000F002FDC82128
:1040B000304800F0A3FB282000F0BCFB0A2000F0F1
:1040C000CCFB08E0D8208DF800006A4601214FF4AF
:1040D0000B6002F05BF904F0020018B1D9208DF8F2
:1040E000000002E0D8208DF800006A46012140F26D
:1040F0003D7002F04BF904F0040018B1012000F00B
:1041000069F802E0002000F065F804F0100018B132
:104110000120FFF707FF02E00020FFF703FF44F054
:1041200008001549488101F01DFD002012498873DF
:1041300004F0400018B10846807B801D887304F4A9
:10414000C07020B10C48807B801D0B49887304F03F
:10415000140020B10848807B10300749887304F0B0
:10416000030020B10448807B001D034988730020B0
:104170003EBD000009E3CA02E04600203EB5044609
:104180006CB10EA1D1E900208968CDE9002002912F
:104190006A4609214FF4976002F0F8F83EBD0AA282
:1041A000D2E900109268CDE9010200916A46092126
:1041B0004FF4976002F0EAF8F0E70000B8AAB38D78
:1041C000B4980D355D000000B8AAAAAAB088C3C58E
:1041D000C700000038B5044664B1C0208DF8000067
:1041E000C2208DF80100C4208DF80200C6208DF891
:1041F000030004E08B2204216846FCF710F86A46AD
:10420000042140F6982002F0C1F801F0ABFC38BD63
:1042100010B5C8234FF48062024940F6F63001F031
:1042200035FB10BD207600082DE9F04F8DB0074614
:10423000884615469946DDE9166B0024002030803B
:104240006B49887B5A4605A901F0ECFB18B1601E4A
:104250000DB0BDE8F08F6648807A00F014000028A9
:1042600067D09DF8140000069DF8151040EA014043
:104270009DF8161040EA01209DF8171008432860A9
:104280009DF8180000069DF8191040EA01409DF8BD
:104290001A1040EA01209DF81B10084368609DF841
:1042A0001C0000069DF81D1040EA01409DF81E10FC
:1042B00040EA01209DF81F100843A8609DF82000E7
:1042C00000069DF8211040EA01409DF8221040EAC6
:1042D00001209DF823100843E86004F11000C4B2E7
:1042E000286800140190686800140290A8680014FF
:1042F0000390E8680014049001984043029901FB80
:104300000100039901FB0100049901FB010ABAF1C4
:10431000706F02DBBAF1885F05DD01F023FC00203D
:104320003080401E94E7B6F9000040F48070308081
:1043300000BF2F48807A00F0400020B305A9601C20
:10434000085C095D40EA012000B2A8F8000005A958
:10435000E01C095C05AAA01C105C41EA002000B228
:10436000A8F8020005A9601D095C201D105C41EA47
:10437000002000B2A8F80400A01DC4B2B6F90000E5
:1043800040F0080030801A48408900F4C07008B33B
:1043900005A9601C085C095D40EA012000B2388074
:1043A00005A9E01C095C05AAA01C105C41EA0020DC
:1043B00000B2788005A9601D095C201D105C41EAEF
:1043C000002000B2B880A01DC4B2B6F9000040F0D1
:1043D000700030800648807A00F0030018B105A90B
:1043E0000819FFF7F3FC484600F0E7FE00202FE72E
:1043F000E046002070B588B0064601A801F09AF8A2
:10440000BDF804000021C90341EA5045C4034448F3
:10441000007A00F0030056F8200005904048007A2A
:1044200000F0040010B10598404205903C48007A25
:10443000C0F3C10056F8200006903948007A00F019
:10444000200010B10698404206903548007AC0F32B
:10445000811056F8200007903148008900F48070E0
:1044600010B10798404207900598C117A0FB04239C
:1044700001FB043100FB0510810041EA92700590B8
:104480000698C117A0FB042301FB043100FB0510B3
:10449000810041EA927006900798C117A0FB04239F
:1044A00001FB043100FB0510810041EA9270079086
:1044B0000598000E8DF808000598000C8DF809008D
:1044C0000598000A8DF80A000598C0B28DF80B0017
:1044D0000698000E8DF80C000698000C8DF80D0063
:1044E0000698000A8DF80E000698C0B28DF80F00ED
:1044F0000798000E8DF810000798000C8DF8110039
:104500000798000A8DF812000798C0B28DF81300C2
:1045100002AA0C214FF4257001F038FF08B070BDDD
:10452000E046002030B585B0044616A207CA02ABAB
:1045300007C3C82C03DD4FF0FF3005B030BDC820E5
:1045400090FBF4F0401E85B2280A8DF80000E8B216
:104550008DF801006A46022140F2162001F016FF94
:1045600010B14FF0FF30E8E702AA0C2140F6C1205D
:1045700001F00CFF10B14FF0FF30DEE704488481FA
:104580000020DAE7FEF2ABC4AAF1DFDFBBAFDFDF6A
:10459000E04600201FB504464848007A00F00300BA
:1045A00054F8200001904548007A00F0040010B152
:1045B0000198404201904148007AC0F3C10054F88C
:1045C000200002903D48007A00F0200010B10298CF
:1045D000404202903948007AC0F3811054F820001C
:1045E00003903648008900F4807010B1039840426F
:1045F00003903349019880FB0101800F40EA81005C
:1046000001902F49029880FB0110820042EA9170CC
:1046100002902B49039880FB0110820042EA9170BE
:1046200003900198000E8DF800000198000C8DF8A1
:1046300001000198000A8DF802000198C0B28DF8BF
:1046400003006A4604214FF4747001F09FFE18B114
:104650004FF0FF3004B010BD0298000E8DF800003E
:104660000298000C8DF801000298000A8DF80200F3
:104670000298C0B28DF803006A4604214FF47570A9
:1046800001F084FE10B14FF0FF30E3E70398000E15
:104690008DF800000398000C8DF801000398000AC3
:1046A0008DF802000398C0B28DF803006A46042119
:1046B0004FF4767001F06AFECCE70000E04600207F
:1046C00009E3CA0210B586B0044647A0006803900B
:1046D00046A00068029046A00068019045A00068CE
:1046E000009004F0030003A9085C8DF8140003A8EF
:1046F000C4F3C101405C8DF8150003A8C4F3811117
:10470000405C8DF8160004F0030002A9085C8DF8E7
:10471000100002A8C4F3C101405C8DF8110002A88A
:10472000C4F38111405C8DF8120005AA032140F208
:10473000264001F02BFE18B14FF0FF3006B010BD3F
:1047400004AA032140F22A4001F020FE10B14FF0EC
:10475000FF30F3E7019805900098049004F00400FE
:1047600058B19DF8140040F001008DF814009DF838
:10477000100040F001008DF8100004F0200058B146
:104780009DF8150040F001008DF815009DF811000E
:1047900040F001008DF8110004F4807058B19DF8CC
:1047A000160040F001008DF816009DF8120040F050
:1047B00001008DF8120005AA03214FF4886001F072
:1047C000E5FD10B14FF0FF30B8E704AA032140F235
:1047D000314001F0DBFD10B14FF0FF30AEE706488D
:1047E00004810020AAE700004CCD6C000CC92C000D
:1047F0003656760026466600E0460020F8B50546A7
:104800000E464FF47A7095FBF0F000FB06F4200E94
:104810008DF80000200C8DF80100200A8DF80200B0
:10482000E0B28DF803006A4604214FF4AE7001F047
:10483000ADFDF8BD38B50446052094FBF0F084B218
:1048400020128DF80000E0B28DF801006A460221C6
:104850004FF4AD7001F09AFD38BD38B5044605201F
:1048600094FBF0F084B220128DF80000E0B28DF8D5
:1048700001006A4602214FF4AC7001F087FD38BD9B
:1048800038B504460020009004F0010020B19DF8E6
:10489000000040F03000009004F0020020B19DF8CC
:1048A000000040F00C00009004F0040020B19DF8DE
:1048B000000040F0030000906A4601214FF4A4700C
:1048C00001F064FD38BD38B50446012C01DA01243D
:1048D00002E0042C00DD0424601EC0B200906A4691
:1048E000012140F24F1001F051FD38BD2DE9FC4788
:1048F00006460F4606F0070010B1B7F5C86F03DD96
:104900004FF0FF30BDE8FC873846FBF700FF8146DB
:104910005949FBF72DFD8046684600F0E5FD9DF8FE
:104920000000022806D0042816D0082826D0102817
:1049300048D135E04FF08D414046FBF7E7FC81461A
:10494000FBF714FF84B24D494046FBF7DFFC81467C
:10495000FBF70CFF85B238E04FF08C414046FBF787
:10496000D5FC8146FBF702FF84B245494046FBF780
:10497000CDFC8146FBF7FAFE85B226E04FF08B4175
:104980004046FBF7C3FC8146FBF7F0FE84B23D498D
:104990004046FBF7BBFC8146FBF7E8FE85B214E01E
:1049A0004FF08A414046FBF7B1FC8146FBF7DEFE43
:1049B00084B235494046FBF7A9FC8146FBF7D6FE99
:1049C00085B202E04FF0FF309CE700BF20128DF867
:1049D0000400E0B28DF8050028128DF80600E8B258
:1049E0008DF8070006F00100A0B101AA02214FF4E2
:1049F000EA7001F0CBFC10B14FF0FF3082E70DF10F
:104A0000060202214FF4927001F0C0FC10B14FF089
:104A1000FF3077E706F00200A0B101AA02214FF4AF
:104A2000EC7001F0B3FC10B14FF0FF306AE70DF10C
:104A3000060202214FF4947001F0A8FC10B14FF06F
:104A4000FF305FE706F00400A0B101AA02214FF495
:104A5000EE7001F09BFC10B14FF0FF3052E70DF10A
:104A6000060202214FF4967001F090FC10B14FF055
:104A7000FF3047E7002045E700004843000040467C
:104A80000000C045000040450000C04438B5044661
:104A9000052094FBF0F085B228128DF80000E8B2F2
:104AA0008DF801006A4602214FF4EF7001F06EFCB0
:104AB00038BD38B50446052094FBF0F085B22812C5
:104AC0008DF80000E8B28DF801006A4602214FF42B
:104AD000ED7001F05BFC38BD00BF054A128802F0A2
:104AE0004002002AF9D0C2B2014B1B1D1A80704748
:104AF000003801407CB5054628494968087801AB73
:104B000004220D21FCF7E2FD08B107207CBD9DF8D1
:104B10000700C0F301109DF8041001F0E00140EA25
:104B2000E1008DF800009DF80700C0F381009DF8BA
:104B3000051001F0E00140EAE1008DF801009DF868
:104B4000070000F003009DF8061001F0E00140EAC4
:104B5000E1008DF8020000241CE01DF8040018B9E3
:104B6000002045F8240013E00D4845F8240006E035
:104B700055F824000B49FBF7C9FB45F824001DF844
:104B80000400401EC0B20DF804000028F0D100BFA0
:104B9000601CC4B2032CE0DB0020B7E79C000020BF
:104BA0007B14AE3E1D5A843F2DE9F04F87B0054679
:104BB0000C46914601208DF8100000208DF8110060
:104BC000FE4A1268917CFD4A5268107804AB0222BA
:104BD000FCF722FE20B14FF0FF3007B0BDE8F08FA8
:104BE000C820FFF747F900208DF81000F34A12683B
:104BF000D17BF24A5268107804AB0122FCF70CFE1C
:104C000010B14FF0FF30E8E7EC4A12685179EB4AF7
:104C10005268107804AB0122FCF7FEFD10B14FF092
:104C2000FF30DAE7E54A1268917CE44A526810786E
:104C300004AB0122FCF7F0FD10B14FF0FF30CCE7E0
:104C4000DE4A1268D17DDD4A5268107804AB012239
:104C5000FCF7E2FD10B14FF0FF30BEE7D74A126813
:104C60001179D64A5268107804AB0122FCF7D4FDC2
:104C700010B14FF0FF30B0E70C208DF81000CF4A94
:104C800012681179CD4A5268107804AB0122FCF702
:104C9000C3FD10B14FF0FF309FE70F20FFF7EAF898
:104CA000C648806A407A8DF81000C44A126891782C
:104CB000C24A5268107804AB0122FCF7ADFD10B176
:104CC0004FF0FF3089E7BD48806A007A8DF8100008
:104CD000BA4A12685178B94A5268107804AB012276
:104CE000FCF79AFD10B14FF0FF3076E7B9F1000FF5
:104CF00007D0B248806A807A40F0E0008DF810005A
:104D000004E0AE48806A807A8DF81000AB4A1268E1
:104D10009179AA4A5268107804AB0122FCF77CFD15
:104D200010B14FF0FF3058E7B9F1000F07D0A3489A
:104D3000806AC07A40F0E0008DF8100003E0A048DF
:104D4000C07A8DF810009D4A1268D1799B4A52684A
:104D5000107804AB0122FCF75FFD10B14FF0FF307B
:104D60003BE7B9F1000F02D0C820FFF783F84020DD
:104D70008DF81000914A12681179904A52681078A3
:104D800004AB0122FCF748FD10B14FF0FF3024E7DF
:104D900078208DF81000894A12685179874A526844
:104DA000107804AB0122FCF737FD10B14FF0FF3053
:104DB00013E783498889FFF75DF800208DF810001C
:104DC0007E4A126851797D4A5268107804AB0122FC
:104DD000FCF722FD10B14FF0FF30FEE6774A126873
:104DE000917A764A5268107804AB0222FCF76EFC86
:104DF00010B14FF0FF30F0E69DF811009DF8101053
:104E000040EA012B0C209BFBF0F0C6B20020A8600A
:104E100068602860A06060602060824665E0674A44
:104E20001268D17A654A5268107804AB0C22FCF7FC
:104E30004DFC10B14FF0FF30CFE69DF811009DF80A
:104E4000101040EA012000B2ADF808009DF81300F0
:104E50009DF8121040EA012000B2ADF80A009DF85A
:104E600015009DF8141040EA012000B2ADF80C00C6
:104E7000BDF90810206808442060BDF90A10606878
:104E800008446060BDF90C10A0680844A0609DF85B
:104E900017009DF8161040EA012000B2ADF800009E
:104EA0009DF819009DF8181040EA012000B2ADF8F5
:104EB00002009DF81B009DF81A1040EA012000B284
:104EC000ADF80400BDF90010286808442860BDF959
:104ED0000210686808446860BDF90410A8680844B6
:104EE000A8600AF1010000F0FF0AB24597DB3448E0
:104EF000D0F800C02868C117090441EA104107042E
:104F0000624600233846FBF759F932460023CDE9C3
:104F10000201FBF753F928602948D0F800C06868FF
:104F2000C117090441EA10410704624600233846CC
:104F3000FBF744F932460023CDE90201FBF73EF9C5
:104F400068601F48D0F800C0A868C117090441EA8A
:104F500010410704624600233846FBF72FF932461A
:104F60000023CDE90201FBF729F9A8601448D0F825
:104F700004C02168C817000440EA11480F046246C3
:104F8000002338464146FBF719F932460023CDE9A4
:104F90000201FBF713F920600948D0F804C06068EB
:104FA000C117090441EA104107046246002338464C
:104FB000FBF704F93246002304E000009C000020C7
:104FC000F8750008CDE90201FBF7F8F860601148B8
:104FD000D0F804C0A068C117090441EA10410704D1
:104FE000624600233846FBF7E9F832460023CDE954
:104FF0000201FBF7E3F8A060A068002804DDA068C8
:10500000A0F58030A06003E0A06800F58030A060CB
:105010000020E2E5F87500082DE9FC5F06460F4622
:1050200000253D494968087801AB03220D21FCF7B2
:105030004DFB10B10720BDE8FC9F9DF8040000F077
:105040001F008DF804009DF8050000F01F008DF88A
:1050500005009DF8060000F01F008DF806000024F2
:1050600056E056F8240057F82410A0EB010BBBF1D2
:10507000000F01DB594601E0CBF100010846FBF7C8
:105080003DFB4FF08F410090FBF772F9814601A87C
:10509000005D68B321490868FBF739FB8346594630
:1050A0001F48FBF765F9804604E01E494046FBF7C0
:1050B0002DF9804601A8005D401EC0B201A9085527
:1050C0000028F2D141464846FBF752F983464FF09B
:1050D0007E51FBF715F982462AF0004B0F48816993
:1050E0005846FBF7AFFB12D20120A04005430EE06B
:1050F0000A4801694846FBF79BFB05D3074841690D
:105100004846FBF79FFB02D20120A0400543641CE8
:10511000032CA6DB28468EE79C000020F8750008CB
:1051200000B04C4554E3853F10B50446204600F0DE
:105130000FF80346E01C00F00BF843EAC00083B20E
:10514000A01D00F005F843EA801083B2184610BD98
:10515000014691F90020002A01DD00201EE091F9AE
:105160000020002A01DA042018E091F90120002A29
:1051700001DD012012E091F90120002A01DA052069
:105180000CE091F90220002A01DD022006E091F9ED
:105190000220002A01DA062000E00720704710B53F
:1051A0004820FCF7FDFFFDF729F8FCF7D1FE01F0E0
:1051B000A5FF01F0B5FF002010BD704770B5044693
:1051C000002624F00104184890F8240008B10020BB
:1051D00070BD1548807A10B94FF0FF30F8E71248DB
:1051E000057C807A2040104908740846007CA04263
:1051F00002D04FF0FF3600E0002614B90A48007DC7
:1052000018B1012001F002FC02E0002001F0FEFBD9
:105210003CB100F0A7FC20B1034805744FF0FF300B
:10522000D6E73046D4E700009C0000202DE9F04F7F
:1052300099B004460D4616464FF07E574FF00008D1
:105240004FF000094FF0000A12A813A918AB0EAADC
:10525000CDE9001014A916A8FEF7E6FF18B1012049
:1052600019B0BDE8F08FBDF84C0000F48070002844
:105270007ED00E98FBF742FA83464FF09D41FBF734
:1052800077F807460F98FBF739FA83464FF09D41B0
:10529000FBF76EF880461098FBF730FA83464FF024
:1052A0009D41FBF765F881461198FBF727FA834685
:1052B0004FF09D41FBF75CF8824639464FF0804045
:1052C000FBF724F849460590FBF720F84146079084
:1052D0004FF04040FBF71AF851460590FBF716F8DF
:1052E00006900799FAF7BAFF8346FBF772FACDE901
:1052F0000801FEF763FA4FF06632544BCDE90A011C
:10530000FBF71BF9CDE90C01FBF776FA2060494663
:105310004FF08040FAF7FAFF49460290FAF7F6FF9D
:10532000414604904FF04040FAF7F0FF41460290AA
:10533000FAF7ECFF03900499FAF7E2FF83464FF087
:105340007E51FAF78BFF0590FBF743FACDE9080190
:1053500039464FF08040FAF7D9FF41460390FAF7FB
:10536000D5FF494604904FF08040FAF7CFFF00E0A8
:1053700068E051460390FAF7C9FF83460499FAF7AB
:105380006DFF0590FBF725FACDE90601DDE908235D
:10539000FEF75CFC4FF066322C4BCDE90A01FBF7BF
:1053A000CCF8CDE90C01FBF727FA286051465046AE
:1053B000FAF7ACFF494604904846FAF7A7FF414682
:1053C00003904046FAF7A2FF394601903846FAF7B3
:1053D0009DFF00900199FAF741FF02900399FAF7B7
:1053E0008FFF83460499FAF78BFF0590FBF7F1F9DD
:1053F000CDE9080151463846FAF788FF494604903E
:105400004046FAF783FF03900499FAF727FF4FF01D
:1054100080410590FAF77AFF8346FBF7DAF9CDE988
:105420000601DDE90823FEF711FC4FF06632074B59
:10543000CDE90A01FBF781F8CDE90C01FBF7DCF9B6
:10544000306001E002200BE7002009E766A64C402F
:1054500070B50024FBF7B8FF00F020F900283DD11B
:10546000782000F02BFFC4B20CB1012070BD782071
:10547000FFF7A4FEC4B20CB10220F7E7C82000F089
:10548000CFFEC4B20CB10320F0E7FEF7C1FEC4B2F8
:105490000CB10420EAE71348FFF746FE0546FFF784
:1054A00011F9C4B20CB10520E0E740F27310FEF729
:1054B00057FDC4B20CB10620D8E7C820FFF732F878
:1054C000C4B20CB10720D1E701F054FA0446012020
:1054D00000F0A2FDC4B21CB10920C7E70A20C5E74D
:1054E0000020C3E7C800002001461148407A30B1CF
:1054F000012807D0022808D003280CD108E0022098
:1055000008700BE00420087008E00820087005E02F
:105510001020087002E04FF0FF30704700BF0448D1
:10552000C07C18B108784006000E08700020F4E72F
:105530009C00002001461348407A30B1012808D071
:1055400002280AD0032810D10BE04FF480400880D5
:105550000EE041F69C7008800AE04FF4805008800D
:1055600006E04FF40060088002E04FF0FF30704723
:1055700000BF0448C07C10B108884010088000209B
:10558000F5E700009C00002001460248007C0870FE
:10559000002070479C00002001460F48007A30B17F
:1055A000012807D0022809D003280FD10AE0FA20E9
:1055B00008800EE04FF4FA7008800AE04FF47A7029
:1055C000088006E04FF4FA60088002E000200880BE
:1055D00000BF00BF002070479C00002001460E481D
:1055E000007A30B1012807D0022808D003280CD156
:1055F00008E00A4808600BE00948086008E009482C
:10560000086005E00848086002E04FF0FF3070478E
:1056100000BF0020FBE700009C00002000000343C7
:10562000000083423333034233338341014612483F
:10563000C07A082817D2DFE800F01704070A0D1017
:105640001318BC20088013E06220088010E02A2094
:1056500008800DE0142008800AE00A20088007E096
:105660000520088004E000BF00BF0020088000BFC4
:1056700000BF0020704700009C0000200146064843
:1056800090F8240010B14FF0FF3070470248C089F5
:1056900008800020F9E700009C0000201CB5802055
:1056A0008DF80000654A1268917C644A526810784F
:1056B0006B460122FCF7B0F810B14FF0FF301CBD73
:1056C0006420FEF7D7FB00208DF800005B4A1268CB
:1056D000917C5A4A526810786B460122FCF79CF87C
:1056E00010B14FF0FF30EAE7544A1268917D534AF7
:1056F000526810786B460622FBF7E8FF10B14FF0B6
:10570000FF30DCE79DF80500C007400F9DF803104F
:1057100001F0010140EA41009DF8011001F0010192
:1057200040EA010494B1012C03D101214348C17422
:1057300031E0022C03D100214048C1742BE0214606
:105740003FA0FDF7EBFA4FF0FF30B8E73B4A126895
:10575000D1783A4A526810786B460122FBF7B6FFBF
:1057600010B14FF0FF30AAE79DF8000000F00F04E1
:105770002CB93D48FDF7D2FA4FF0FF309FE7042CDB
:1057800006D13AA0FDF7CAFA01212C48C17402E003
:1057900000212A48C174FF2128488172FF2027492F
:1057A0000872FF2125484172C1724FF6FF71C18115
:1057B000FF21017481740121017380F822100021FE
:1057C00080F82310417501751630016041608160D9
:1057D000163880F8241080F82510C1844FF4FA6040
:1057E00000F062FC10B14FF0FF3068E7022000F0DB
:1057F0002BFB10B14FF0FF3061E72A2000F0CEFC08
:1058000010B14FF0FF305AE7322000F009FD10B11F
:105810004FF0FF3053E70020FFF7D0FC10B14FF0FE
:10582000FF304CE7002000F051FB10B14FF0FF308B
:1058300045E7002000F042FD002040E79C000020EA
:10584000556E737570706F7274656420736F6674D3
:10585000776172652070726F64756374207265760B
:105860002025642E0A000000F888000848616C6654
:105870002073656E736974697669747920706172DA
:105880007420666F756E642E0A0000002DE9F043E7
:1058900085B005460E4690469946294890F8250061
:1058A00020B14FF0FF3005B0BDE8F08316B94FF0DE
:1058B000FF30F8E7002423E0281B102801DD10202A
:1058C00000E0281B87B232193946204600F05EFD01
:1058D00010B14FF0FF30E6E701AA3946204600F04C
:1058E00001F910B14FF0FF30DDE730193A4601A958
:1058F000FAF7A7FC10B16FF00100D4E7E01984B209
:10590000AC42D9DB4FEA28208DF8000008F0FF00F8
:105910008DF801000A4A1268917E094A526810788F
:105920006B460222FBF778FF10B14FF0FF30BAE769
:105930000121034880F82510A0F826900020B2E746
:105940009C00002038B50446282C02DD4FF0FF30C3
:1059500038BDDCB9002000F0EBFB00208DF8000022
:1059600007208DF801002E4A1268917C2C4A52685B
:1059700010786B460222FBF74FFF10B14FF0FF305B
:10598000E6E70021264801750020E1E7012000F04C
:10599000CFFB20208DF80000012C06D100208DF8CF
:1059A0000100052000F0FAFB17E0052C06DC0120C1
:1059B0008DF80100052000F0F1FB0EE0142C06DC50
:1059C00002208DF801000A2000F0E8FB05E003202A
:1059D0008DF80100142000F0E1FB9DF80100072183
:1059E00001EB8010C0B28DF801000D4A1268917C65
:1059F0000B4A526810786B460222FBF70DFF10B17C
:105A00004FF0FF30A4E7082105488172002101739F
:105A1000012101750020FFF7D1FB002098E700006D
:105A20009C000020F8B504460F4616462C4890F816
:105A3000240010B94FF0FF30F8BD2948807A10B922
:105A40004FF0FF30F8E7264A1268917A244A5268EC
:105A500010786B460222FBF739FE10B14FF0FF3091
:105A6000EAE79DF801009DF8001040EA0125A542F3
:105A700003DA00203070401EDEE719484068408895
:105A8000B5EB600F17DD164A1268517C144A526854
:105A900010786B460122FBF719FE10B14FF0FF3072
:105AA000CAE79DF8000000F0100020B100F05AF89D
:105AB0006FF00100C0E7E2B2094B1B68D97A084BCE
:105AC0005B6818783B46FBF701FE10B14FF0FF30E2
:105AD000B2E795FBF4F0401E30700020ACE7000008
