:020000040800F2
:10000000A0070020210200086508000899060008E2
:100010004F070008C9030008FF1300080000000094
:10002000000000000000000000000000890100083E
:10003000CD03000800000000CD0100086D0F00088E
:100040003B0200083B0200083B0200083B0200089C
:100050003B0200083B0200083B0200083B0200088C
:100060003B0200083B0200083B0200083B0200087C
:100070003B0200083B0200083B0200083B0200086C
:100080003B0200083B0200083B0200083B0200085C
:100090003B0200083B0200083B0200083B0200084C
:1000A0003B0200083B0200083B0200083B0200083C
:1000B0003B0200083B0200083B0200083B0200082C
:1000C0003B0200083B0200083B0200083B0200081C
:1000D0003B0200083B0200083B0200087D120008BA
:1000E0003B0200083B0200083B02000800F002F857
:1000F00000F03AF80AA090E8000C82448344AAF188
:100100000107DA4501D100F02FF8AFF2090EBAE885
:100110000F0013F0010F18BFFB1A43F0010318473B
:10012000081C0000281C0000103A24BF78C878C1C1
:10013000FAD8520724BF30C830C144BF04680C60ED
:10014000704700000023002400250026103A28BF35
:1001500078C1FBD8520728BF30C148BF0B60704739
:100160001FB51FBD10B510BD00F07DF81146FFF79B
:10017000F7FF01F047F900F09BF803B4FFF7F2FF37
:1001800003BC00F0A3F80000224B19680868B0E82F
:10019000F00F80F30988BFF36F8F4FF0000080F3FA
:1001A00011884EF00D0E70470000000006480068F0
:1001B000006880F3088862B661B6BFF34F8FBFF363
:1001C0006F8F00DF00BF00BF08ED00E0EFF3098094
:1001D000BFF36F8F0F4B1A6820E9F00F106008B55E
:1001E0004FF0BF0080F31188BFF34F8FBFF36F8FC5
:1001F00001F0AAF94FF0000080F31188BDE8084033
:1002000019680868B0E8F00F80F30988BFF36F8FB2
:10021000704700BF34000020EFF3058070470000F6
:100220000948804709480047FEE7FEE7FEE7FEE78A
:10023000FEE7FEE7FEE7FEE7FEE7FEE704480549C6
:10024000054A064B70470000A10F0008ED000008AA
:10025000A0010020A0070020A0030020A003002090
:10026000704770477047754600F02CF8AE460500A1
:100270006946534620F00700854618B020B5FFF7C1
:10028000DDFFBDE820404FF000064FF000074FF0C3
:1002900000084FF0000B21F00701AC46ACE8C009A4
:1002A000ACE8C009ACE8C009ACE8C0098D467047AD
:1002B00010B50446AFF300802046BDE81040FFF7BC
:1002C0005CBF0000004870473C0100200149182035
:1002D000ABBEFEE7260002007047000010B50446E2
:1002E000204600F019FD204600F020FD10210848AE
:1002F00000F0AEF90821064800F0A8F902210548EF
:1003000000F0A6F90121034800F0A0F910BD00009B
:1003100000080140000C014000B587B001218804AD
:1003200000F00EFD0121082000F01AFD18208DF8C4
:100330001B004FF48060ADF8180003208DF81A0000
:1003400006A91F4800F0EEF848208DF81B004FF476
:100350000060ADF8180003208DF81A0006A91848AF
:1003600000F0E0F84FF4165002900020ADF81400B1
:100370000C20ADF812000020ADF81000ADF80E0012
:10038000ADF80C0002A90F4800F0C8FF012240F2AE
:1003900025510C4800F09DFF27208DF80400012016
:1003A0008DF8070002208DF805008DF8060001A8E1
:1003B00000F05AFA0121034800F072FF07B000BDB7
:1003C000000C01400048004000BFFEE7704700EB12
:1003D000C001C9004FF0E022516100219161052167
:1003E000116100BF4FF0E021096901F4803100295B
:1003F000F8D004214FF0E0221161704700B587B0BA
:100400000121042000F0ACFC0121082000F0A8FC30
:100410000121084600F094FC0121042000F090FC2A
:100420004FF0804000F025FE2C4800F022FE042012
:100430008DF81B000320ADF818008DF81A0006A9EE
:10044000274800F06FF804208DF81B00C020ADF89D
:10045000180003208DF81A0006A9224800F062F85F
:100460000020ADF81200ADF80E004FF6FF70ADF8A9
:1004700010000020ADF80C008DF8140003A94FF017
:10048000804000F0A9FE03A9144800F0A5FE6846CC
:1004900000F0E6FD0420ADF800000F20ADF80800E4
:1004A0000020ADF80200ADF806000120ADF8040010
:1004B000022300220321800700F0AEFD0023022268
:1004C0000321064800F0A8FD0121880700F098FDEF
:1004D0000121024800F094FD07B000BD0008004073
:1004E00000080140000C014010B50446204600F011
:1004F00013FC204600F01AFC0821084800F0A8F878
:100500001021064800F0A2F80121054800F0A0F8EB
:100510000221034800F09AF810BD000000080140D5
:10052000000C01402DE9F041024600250026002084
:1005300000230024002791F803C00CF00F0591F868
:1005400003C00CF0100CBCF1000F03D091F802C0F6
:100550004CEA050591F800C0BCF1000F31D01468D9
:1005600000202BE04FF0010C0CFA00F3B1F800C0B2
:100570000CEA03069E4220D183004FF00F0C0CFAC8
:1005800003F7BC4305FA03FC4CEA040491F803C0EA
:10059000BCF1280F06D14FF0010C0CFA00FCC2F898
:1005A00014C00AE091F803C0BCF1480F05D14FF028
:1005B000010C0CFA00FCC2F810C0401C0828D1D372
:1005C0001460B1F800C0BCF1FF0F34DD54680020A6
:1005D0002EE000F1080C4FF0010808FA0CF3B1F816
:1005E00000C00CEA03069E4221D183004FF00F0C9D
:1005F0000CFA03F7BC4305FA03FC4CEA040491F837
:1006000003C0BCF1280F05D100F1080C08FA0CF862
:10061000C2F8148091F803C0BCF1480F07D100F173
:10062000080C4FF0010808FA0CF8C2F81080401CC2
:100630000828CED35460BDE8F081024600209368BC
:100640000B400BB1012000E0002070474161704772
:10065000016170470AB1016100E04161704700002B
:10066000014890F9000070473000002010B54FF0AD
:10067000804000F0F2FC4FF45C7190FBF1F010BD93
:1006800010B5044800F0E9FC4FF45C7190FBF1F008
:1006900010BD00000008004000BFFEE770470000EA
:1006A00008B50121042000F05BFB10208DF8030049
:1006B0001820ADF8000003208DF8020069460848B4
:1006C000FFF730FF10208DF803000320ADF8000085
:1006D0008DF8020069460348FFF724FF08BD0000BB
:1006E00000080140000C014010B500F033F8012172
:1006F0006B2000F015F800216C2000F011F80921A2
:10070000192000F00DF806211A2000F009F8182130
:100710001B2000F005F818211C2000F001F810BD86
:1007200070B505460C4600F067F8D02000F04FF891
:1007300000F03EF8284600F04AF800F039F820466C
:1007400000F045F800F034F800F064F870BD00BF28
:10075000FEE7000008B50121082000F001FB14208D
:100760008DF803004FF44070ADF8000003208DF8C1
:10077000020069460648FFF7D5FE40F20911044819
:10078000FFF766FF0121082000F0EAFA08BD00002B
:10079000000C014010B54FF400710448FFF74DFF05
:1007A00004460A20FFF713FE204610BD000C01404E
:1007B00010B5012000F048F8012000F037F8FFF7ED
:1007C000E9FF0446002000F031F8204610BD70B566
:1007D000054600240DE08021214101EA050000F0DA
:1007E00033F8012000F022F8002000F01FF8601C10
:1007F000C4B2082CEFDB70BD10B5012000F024F866
:10080000012000F013F8002000F01EF8002000F096
:100810000DF810BD10B5002000F016F8012000F012
:1008200005F8012000F010F810BD000010B50446D6
:1008300022464FF480710348FFF70CFF0A20FFF7B0
:10084000C6FD10BD000C014010B5044622464FF411
:1008500000710348FFF7FEFE0A20FFF7B8FD10BD48
:10086000000C01407047000070B5002100230F22EA
:10087000C47804B3154C246804F4E064C4F5E0645F
:10088000210AC1F10403CA40447804FA03F18478D0
:100890001440214309010E4C0678A155047804F058
:1008A0001F050124AC4005786D11AD0005F1E02570
:1008B000C5F8004109E0047804F01F050124AC40AC
:1008C000044D0678761145F8264070BD0CED00E029
:1008D00000E400E080E100E070B500240EE00021BB
:1008E000204600F0F0F8002504E0002000F0B7F901
:1008F000681CC5B2802DF8DB601CC4B2082CEEDB8E
:1009000070BD000008B50121082000F029FA14206C
:100910008DF8030003208DF802004FF48070ADF8CD
:10092000000069460A48FFF7FDFD4FF40070ADF87E
:10093000000069460648FFF7F5FD01221102044850
:10094000FFF788FE012251020148FFF783FE08BD30
:10095000000C014070B50546002415E080202041C0
:1009600000EA05024FF400710E48FFF773FE012202
:1009700011020C48FFF76EFE00224FF48071094807
:10098000FFF768FE601CC4B2082CE7DB01221102ED
:100990000448FFF75FFE00224FF480710148FFF723
:1009A00059FE70BD000C014010B5012251020A48E9
:1009B000FFF750FE012211020748FFF74BFE00220D
:1009C0004FF400710448FFF745FE00224FF4807198
:1009D0000148FFF73FFE10BD000C014010B500229A
:1009E0004FF400710648FFF735FE0122110204485A
:1009F000FFF730FE012251020148FFF72BFE10BD28
:100A0000000C014070B5002406E0002500E06D1CDC
:100A1000B5F57A7FFBD3641CB4F57A7FF5D3FFF785
:100A200071FFAE2000F00BF9D52000F008F980200E
:100A300000F005F9A82000F002F93F2000F0FFF8CF
:100A4000D32000F0FCF8002000F0F9F8402000F07E
:100A5000F6F8A12000F0F3F8C82000F0F0F8DA2052
:100A600000F0EDF8122000F0EAF8812000F0E7F83D
:100A7000CF2000F0E4F8D92000F0E1F8F12000F0F8
:100A8000DEF8DB2000F0DBF8302000F0D8F8A420FE
:100A900000F0D5F8A62000F0D2F88D2000F0CFF8B5
:100AA000142000F0CCF8AF2000F0C9F8FFF714FFD5
:100AB00070BD10B50246012000E050430B1EA1F1AD
:100AC0000101FAD110BD70B505460C4645F0B000E5
:100AD00000F0B5F8102141EA141000F0B0F804F06D
:100AE0000F0000F0ACF870BD2DE9F04105460E4650
:100AF0001746721ED206110E6A1E5206100EFFF71E
:100B0000E2FF002409E0A7F12001134A02EB0111E2
:100B1000085D00F0A4F8601CC4B2082CF3DB721E60
:100B2000D206110E6A1E012303EB4202D0B2FFF778
:100B3000CAFF00240BE0A7F12001074A02EB0112D3
:100B400004F10801505C00F08AF8601CC4B2082C63
:100B5000F1DBBDE8F0810000381700082DE9F0470F
:100B600081460E4690461F4600241DE0381B411E5C
:100B70001020FFF79EFFB8FBF0F000F00F050A2DE4
:100B800008DA05F13000C2B23019C1B24846FFF7A9
:100B9000ABFF07E005F13700C2B23019C1B24846D9
:100BA000FFF7A2FF601CC4B2BC42DFDBBDE8F087E8
:100BB0002DE9F0478146884615461E46002D06DB86
:100BC0002B2241464846FFF78FFF2F4605E02D2296
:100BD00041464846FFF788FF6F42002417E0301B6C
:100BE000411E0A20FFF765FFB7FBF0F00A21B0FBBA
:100BF000F1F201FB120000F1300A08EB0400401C86
:100C0000C1B252464846FFF76FFF601CC4B2B442FF
:100C1000E5DBBDE8F0872DE9F04107460E461546B5
:100C2000002407E02A5D3019C1B23846FFF75CFFA7
:100C3000601CC4B2285D0028F4D1BDE8F08110B575
:100C40000446FFF7B1FE7820FFF784FE0020FFF78F
:100C500081FE2046FFF77EFEFFF7C0FE10BD10B5F7
:100C60000446FFF7A1FE7820FFF774FE4020FFF74F
:100C700071FE2046FFF76EFEFFF7B0FE10BD0000CC
:100C800000B589B00121042000F06AF8012102209A
:100C900000F056F81E4800F0ECF918208DF82300FB
:100CA000C020ADF8200003208DF8220008A91948C3
:100CB000FFF738FC0020ADF81A00ADF816004FF62B
:100CC000FF70ADF818000020ADF814008DF81C007E
:100CD00005A90F4800F080FA01A800F06FFA602023
:100CE000ADF804000120ADF806000020ADF80C00BE
:100CF000ADF80A0001A9064800F0C2F901A90448AC
:100D000000F00AFA0121024800F07AF909B000BDAA
:100D1000000400400008014010B504462146024886
:100D200000F056FA10BD00000004004010B5044663
:100D30002146024800F04EFA10BD000000040040B9
:100D400029B1064AD2690243044BDA6104E0034A3E
:100D5000D2698243014BDA61704700000010024003
:100D600029B1064A92690243044B9A6104E0034A9E
:100D700092698243014B9A61704700000010024063
:100D800030B500210022002400232D4D6D6805F0B0
:100D90000C0121B1042905D0082923D105E0294DF2
:100DA000056022E0274D05601FE0254D6D6805F4C4
:100DB0007012234D6D6805F48034022505EB9242D4
:100DC0001CB9214D554305600BE01D4D6D6805F4C0
:100DD00000351DB11C4D5543056002E0194D5543CA
:100DE000056002E0174D056000BF00BF144D6D683F
:100DF00005F0F0010909154D6B5C0568DD404560A3
:100E00000F4D6D6805F4E061090A104D6B5C456893
:100E1000DD4085600A4D6D6805F46051C90A0B4DCF
:100E20006B5C4568DD40C560054D6D6805F440416B
:100E3000890B074D6B5CC568B5FBF3F5056130BDEB
:100E40000010024000127A0000093D00000000205E
:100E500010000020704710B500F002F810BD00002F
:100E60000CB50020019000903348006840F48030B9
:100E70003149086000BF3048006800F4003000903D
:100E80000198401C0190009818B90198B0F5A06F26
:100E9000F1D12948006800F4003010B10120009021
:100EA00001E0002000900098012843D12348006809
:100EB00040F01000214908600846006820F0030057
:100EC00008600846006840F0020008601A48406860
:100ED000194948600846406848600846406840F440
:100EE000806048600846406820F47C1048600846EE
:100EF000406840F4E81048600846006840F08070A0
:100F0000086000BF0C48006800F000700028F9D0AD
:100F10000948406820F003000749486008464068D7
:100F200040F00200486000BF0348406800F00C0039
:100F30000828F9D10CBD000000100240002002403A
:100F400010B508210748FFF781FB10210548FFF77E
:100F50007DFB01210448FFF779FB02210248FFF7DE
:100F600075FB10BD00080140000C014010B500BF2A
:100F7000BF2080F31188BFF34F8FBFF36F8F00BF87
:100F800000F012FB18B14FF080500449086000BF18
:100F9000002080F3118800BF10BD000004ED00E0C8
:100FA00010B51348006840F0010011490860084678
:100FB0004068104908400E494860084600680E49DC
:100FC00008400B4908600846006820F4802008604B
:100FD0000846406820F4FE0048604FF41F00886017
:100FE000FFF739FF4FF000600449086010BD0000B2
:100FF000001002400000FFF8FFFFF6FE08ED00E0E1
:1010000021B1028842F00102028004E002884FF61A
:10101000FE731A4002807047F0B50C4615461E4616
:101020000021002200230189028B038C4FF6F87700
:10103000394021434FF6FC473A4040F201173A430A
:101040004FF6DD773B404FF6FF7707EA06172F4351
:101050003B43018102830384F0BD0146888C7047C5
:10106000002101804180012181800021C180018116
:10107000704701894FF6F8721140018170470000F6
:1010800070B5002400220023058C4FF6FE76354013
:101090000584028C8388048B4FF68F752C40B51E17
:1010A0002C400D882C43751E2A400D892A434D88FB
:1010B0002A43144DA8420BD0134DA84208D0134D1B
:1010C000A84205D0124DA84202D0124DA84213D119
:1010D0004FF6F7752A404D892A434FF6FB752A4093
:1010E0008D882A434FF6FF652B404FF6FF552B4066
:1010F0008D892B43CD892B4383800483CD888586BE
:10110000028470BD002C01400034014000400140C9
:10111000004401400048014070B500240022002333
:10112000058C4FF6EF7635400584028C8388048B5E
:1011300048F6FF752C404FF6FF452C400D884FF6C2
:10114000FF7606EA05252C434FF6DF752A400D8908
:1011500006EA05152A434D8806EA05152A43154D6A
:10116000A84202D0144DA8421DD14FF67F752A40E7
:101170004D894FF6FF7606EA05152A434FF6BF75EF
:101180002A408D8806EA05152A434FF6FF352B4085
:101190004FF2FF752B408D8906EA85052B43CD89DB
:1011A00006EA85052B4383800483CD880587028466
:1011B00070BD0000002C014000340140002101807E
:1011C00041808180C180018141818181C1817047DD
:1011D0008186704701877047002202881D4B984224
:1011E0000ED01D4B98420BD0B0F1804F08D01B4B56
:1011F000984205D01A4B984202D01A4B984204D11B
:101200004FF68F731A404B881A43174B984207D0FA
:10121000164B984204D04FF6FF431A40CB881A432E
:1012200002808B8883850B8803850A4B98420BD0FC
:10123000094B984208D00E4B984205D00D4B98426E
:1012400002D00D4B984201D10B7A03860123838291
:1012500070470000002C01400034014000040040B1
:1012600000080040000C0040001000400014004046
:1012700000400140004401400048014010B52021D9
:10128000054800F019F8012805D1034800F0B2F82C
:1012900040B20249087010BD0048004030000020F4
:1012A00021B1828942F40052828104E082894DF6A4
:1012B000FF731A408281704702460020B1F5007F1B
:1012C00000D100BF13880B400BB1012000E00020CB
:1012D0007047F0B50346002400260025002040F6A4
:1012E0006A17B94200D100BF1846C1F3421401F099
:1012F0001F06012707FA06F5012C01D10C3004E086
:10130000022C01D1103000E014301AB107682F43CD
:10131000076002E00768AF430760F0BD2DE9F047C2
:1013200086B005460E460024A24600BFA14600270F
:10133000B08900B100BF2F462C8A4CF6FF700440E4
:10134000F08804432C82AC894EF6F3100440B08838
:1013500031890843718908430443AC81AC8A4FF654
:10136000FF400440B0890443AC8201A8FFF708FDA8
:101370001F48874202D1DDF810A001E0DDF80CA083
:10138000A88900F4004040B10AEBCA0000EB0A1043
:1013900031684900B0FBF1F807E00AEBCA0000EB46
:1013A0000A1031688900B0FBF1F86420B8FBF0F056
:1013B00004012009642101FB1089A88900F4004080
:1013C00040B1322000EBC900B0FBF1F000F00700A3
:1013D000044308E0322000EB09106421B0FBF1F077
:1013E00000F00F0004432C8106B0BDE8F087000038
:1013F0000038014001468888C0F30800704700BFEC
:10140000FEE70000FFF770F9FFF7FCFAFFF738FC82
:10141000FEF7F4FFFEF780FFFFF742F93BA2012140
:101420000846FFF7F8FB70E0FFF71AF93849088023
:1014300008230846B0F9002004210120FFF78EFBA5
:1014400033480088472805D13249098888B2FFF718
:101450004BF847E02E4800884A2805D12D490988D5
:1014600088B2FFF7F7FC3DE029480088482805D1FD
:101470002849098888B2FFF711F933E02448008829
:101480004B2805D12349098888B2FEF727FF29E0B8
:101490001F480088492802D1FFF752FD22E01C486E
:1014A0000088412804D14FF47A501A49088019E085
:1014B00017480088422804D144F620601549088066
:1014C00010E013480088432804D147F230501149F6
:1014D000088007E00E480088442803D14CF25030C1
:1014E0000C490880FFF7C2F8C0F14A0405232246E0
:1014F00001210220FFF75CFBFFF7C2F80446052339
:10150000224601210320FFF753FB8DE742543A00A6
:10151000220000202400002009480068006808B963
:10152000012000E0002020B14FF0FF3005490860A5
:1015300005E003480068C068006802490860704719
:1015400038000020640000201248006818B1012013
:10155000114908601DE000200F4908600F4800682D
:10156000B0FA80F0C0F11F0101EB81020C4B03EBDC
:10157000820042685268426000F108024368934268
:1015800002D14268526842604268D268054B1A60D4
:1015900000BF704770000020580000204C00002061
:1015A00074000020340000202DE9F0410027574846
:1015B000006800287ED156480068451C54480560E4
:1015C0008DB95448D0F800805348006851490860EC
:1015D0005148C0F8008051480068401C4F490860DD
:1015E000FFF79AFF00BF4E480068854276D300BFE0
:1015F00048480068006808B9012000E0002020B1D8
:101600004FF0FF304649086067E042480068C06814
:10161000C4686668B54202D2414806605DE0606910
:10162000D4E902128A60D4E902214A60211D42688D
:101630008A4201D1E1684160002262610168491E6D
:101640000160A06A98B1A06AD4E907128A60D4E95F
:1016500007214A6004F1180142688A4201D1216AD7
:1016600041600022A2620168491E016000BF94F837
:101670002C10012088402B4909680843294908603B
:10168000E16A01EB8101284A02EB81014868A06010
:101690008268E260211D826851608160E16A01EB2D
:1016A0008101214A02EB81026261E16A01EB810161
:1016B0001D4A00E022E052F82110491CE26A02EBC8
:1016C0008202194B43F822101849E06A0968C96A76
:1016D00088428DD301278BE700E000BF13480068E4
:1016E000C06A00EB8000104951F82000012800D9A1
:1016F00001270F48006800B1012704E00D48006889
:10170000401C0C4908603846BDE8F081700000209C
:1017100048000020380000203C0000205C00002031
:10172000640000204C0000207400002034000020E1
:1017300058000020540000200000000000000000BD
:101740000000000000000000000000F800000000A1
:10175000000000333000000000100C06100C0600E2
:10176000000000000000000040C07840C078400049
:10177000043F04043F040400007088FC08300000AB
:10178000001820FF211E0000F008F000E018000003
:1017900000211C031E211E0000F0088870000000BC
:1017A0001E2123241927211010160E00000000000E
:1017B0000000000000000000000000E0180402002B
:1017C000000000071820400000020418E00000009C
:1017D0000040201807000000404080F0804040009A
:1017E0000202010F01020200000000F000000000F0
:1017F0000101011F010101000000000000000000C4
:1018000080B0700000000000000000000000000038
:1018100000010101010101010000000000000000C1
:10182000003030000000000000000000806018045C
:10183000006018060100000000E010080810E00039
:10184000000F102020100F00001010F80000000002
:101850000020203F20200000007008080888700049
:1018600000302824222130000030088888483000C9
:101870000018202020110E000000C02010F80000E9
:1018800000070424243F240000F808888808080082
:101890000019212020110E0000E010888818000097
:1018A000000F112020110E0000380808C838080069
:1018B0000000003F000000000070880808887000E9
:1018C000001C222121221C0000E010080810E0006A
:1018D0000000312222110F00000000C0C0000000F3
:1018E0000000003030000000000000800000000018
:1018F0000000806000000000000080402010080010
:1019000000010204081020004040404040404000D8
:1019100004040404040404000008102040800000B3
:101920000020100804020100007048080808F000B8
:101930000000003036010000C030C828E810E00088
:101940000718272423140B000000C038E000000013
:10195000203C23020227382008F88888887000007D
:10196000203F202020110E00C03008080808380051
:10197000071820202010080008F808080810E000C8
:10198000203F202020100F0008F88888E808100069
:10199000203F20202320180008F88888E80810003D
:1019A000203F200003000000C03008080838000075
:1019B00007182020221E020008F808000008F80876
:1019C000203F210101213F20000808F808080000FD
:1019D0000020203F2020000000000808F808080030
:1019E000C08080807F00000008F888C028180800A8
:1019F000203F20012638200008F8080000000000E1
:101A0000203F20202020300008F8F800F8F80800D7
:101A1000203F003F003F200008F830C00008F808D1
:101A2000203F200007183F00E01008080810E000E1
:101A30000F10202020100F0008F808080808F000F8
:101A4000203F210101010000E01008080810E0001B
:101A50000F18242438504F0008F8888888887000B0
:101A6000203F2000030C3020007088080808380050
:101A70000038202121221C00180808F80808180046
:101A80000000203F2000000008F808000008F808C7
:101A9000001F202020201F000878880000C8380878
:101AA000000007380E010000F80800F80008F800F0
:101AB000033C0700073C030008186880806818088A
:101AC00020302C03032C30200838C800C838080008
:101AD0000000203F2000000010080808C838080057
:101AE0002038262120201800000000FE02020200FB
:101AF0000000007F40404000000C30C000000000AB
:101B0000000000010638C00000020202FE000000D2
:101B1000004040407F000000000004020202040078
:101B200000000000000000000000000000000000B5
:101B3000808080808080808000020204000000009D
:101B40000000000000000000000080808080000095
:101B50000019242222223F2008F800808000000083
:101B6000003F112020110E00000000808080000046
:101B7000000E112020201100000000808088F80055
:101B8000000E112020103F20000080808080000087
:101B9000001F222222221300008080F088888818EB
:101BA0000020203F202000000000808080808000F6
:101BB000006B94949493600008F80080808000008B
:101BC000203F210000203F20008098980000000066
:101BD0000020203F20200000000000809898000096
:101BE00000C08080807F000008F8000080808000B6
:101BF000203F24022D302000000808F800000000DB
:101C00000020203F20200000808080808080800095
:101C1000203F20003F20003F808000808080000027
:101C2000203F210000203F200000808080800000B5
:101C3000001F202020201F008080008080000000E6
:101C400080FFA12020110E00000000808080800015
:101C5000000E112020A0FF80808080008080800006
:101C600020203F2120000100000080808080800033
:101C70000033242424241900008080E080800000A8
:101C80000000001F202000008080000000808000F5
:101C9000001F202020103F20808080000080808056
:101CA00000010E30080601008080008000808080E6
:101CB0000F300C030C300F0000808000808080000B
:101CC0000020312E0E312000808080000080808036
:101CD00080818E70180601000080808080808000E6
:101CE0000021302C2221300000000000807C020204
:101CF00000000000003F404000000000FF00000026
:101D000000000000FF0000000002027C80000000D4
:101D10000040403F000000000006010102020404F0
:101D20000000000000000000481D00080000002026
:101D30007400000028010008BC1D00087400002089
:101D40002C07000044010008000000000102030409
:101D50000102030406070809020406080000000047
:101D6000000000000000000000000000B80B0000B0
:101D70000000000000000000000000000000000063
:101D80000000000000000000000000000000000053
:101D90000000000000000000000000000000000043
:101DA0000000000000000000000000000000000033
:0C1DB00000000000040000000000000023
:04000005080000ED02
:00000001FF
