:020000040800F2
:10000000800700202102000855070008D7050008D6
:10001000410600088D030008CF0F00080000000013
:10002000000000000000000000000000890100083E
:100030009103000800000000CD0100089D0C00089D
:100040003B0200083B0200083B0200083B0200089C
:100050003B0200083B0200083B0200083B0200088C
:100060003B0200083B0200083B0200083B0200087C
:100070003B0200083B0200083B0200083B0200086C
:100080003B0200083B0200083B0200083B0200085C
:100090003B0200083B0200083B0200083B0200084C
:1000A0003B0200083B0200083B0200083B0200083C
:1000B0003B0200083B0200083B0200083B0200082C
:1000C0003B0200083B0200083B0200083B0200081C
:1000D0003B0200083B0200083B0200084D0E0008EE
:1000E0003B0200083B0200083B02000800F002F857
:1000F00000F03AF80AA090E8000C82448344AAF188
:100100000107DA4501D100F02FF8AFF2090EBAE885
:100110000F0013F0010F18BFFB1A43F0010318473B
:10012000E816000008170000103A24BF78C878C10C
:10013000FAD8520724BF30C830C144BF04680C60ED
:10014000704700000023002400250026103A28BF35
:1001500078C1FBD8520728BF30C148BF0B60704739
:100160001FB51FBD10B510BD00F07DF81146FFF79B
:10017000F7FF00F02FFF00F09BF803B4FFF7F2FF4A
:1001800003BC00F0A3F80000224B19680868B0E82F
:10019000F00F80F30988BFF36F8F4FF0000080F3FA
:1001A00011884EF00D0E70470000000006480068F0
:1001B000006880F3088862B661B6BFF34F8FBFF363
:1001C0006F8F00DF00BF00BF08ED00E0EFF3098094
:1001D000BFF36F8F0F4B1A6820E9F00F106008B55E
:1001E0004FF0BF0080F31188BFF34F8FBFF36F8FC5
:1001F00000F01AFF4FF0000080F31188BDE80840BE
:1002000019680868B0E8F00F80F30988BFF36F8FB2
:10021000704700BF18000020EFF305807047000012
:100220000948804709480047FEE7FEE7FEE7FEE78A
:10023000FEE7FEE7FEE7FEE7FEE7FEE704480549C6
:10024000054A064B70470000D10C0008ED0000087D
:100250008001002080070020800300208003002010
:10026000704770477047754600F02CF8AE460500A1
:100270006946534620F00700854618B020B5FFF7C1
:10028000DDFFBDE820404FF000064FF000074FF0C3
:1002900000084FF0000B21F00701AC46ACE8C009A4
:1002A000ACE8C009ACE8C009ACE8C0098D467047AD
:1002B00010B50446AFF300802046BDE81040FFF7BC
:1002C0005CBF000000487047200100200149182051
:1002D000ABBEFEE7260002007047000000B587B005
:1002E0000121880400F0DCFB0121082000F0E8FB7C
:1002F00018208DF81B004FF48060ADF81800032023
:100300008DF81A0006A91F4800F0CAF848208DF899
:100310001B004FF40060ADF8180003208DF81A00A0
:1003200006A9184800F0BCF84FF4165002900020BF
:10033000ADF814000C20ADF812000020ADF810004C
:10034000ADF80E00ADF80C0002A90F4800F0CEFD8C
:10035000012240F225510C4800F0A3FD27208DF822
:10036000040001208DF8070002208DF805008DF8AB
:10037000060001A800F0F0F90121034800F078FD23
:1003800007B000BD000C01400048004000BFFEE780
:10039000704700EBC001C9004FF0E022516100211D
:1003A00091610521116100BF4FF0E021096901F45D
:1003B00080310029F8D004214FF0E022116170470C
:1003C00000B587B00121042000F07AFB012108204C
:1003D00000F076FB0121084600F062FB01210420B9
:1003E00000F05EFB4FF0804000F0D8FC294800F0A0
:1003F000D5FC04208DF81B000320ADF818008DF803
:100400001A0006A9244800F04BF804208DF81B00C0
:10041000C020ADF8180003208DF81A0006A91F4867
:1004200000F03EF80020ADF81200ADF80E004FF6D7
:10043000FF70ADF810000020ADF80C008DF814002E
:1004400003A94FF0804000F0AFFC03A9114800F071
:10045000ABFC684600F099FC0420ADF800000F20CA
:10046000ADF808000020ADF80200ADF8060001204C
:10047000ADF80400022300220321800700F064FC91
:100480000121880700F054FC0121024800F050FCD3
:1004900007B000BD0008004000080140000C01400A
:1004A0002DE9F0410246002500260020002300240B
:1004B000002791F803C00CF00F0591F803C00CF071
:1004C000100CBCF1000F03D091F802C04CEA0505F6
:1004D00091F800C0BCF1000F31D0146800202BE06F
:1004E0004FF0010C0CFA00F3B1F800C00CEA03065F
:1004F0009E4220D183004FF00F0C0CFA03F7BC434F
:1005000005FA03FC4CEA040491F803C0BCF1280F7F
:1005100006D14FF0010C0CFA00FCC2F814C00AE03E
:1005200091F803C0BCF1480F05D14FF0010C0CFA53
:1005300000FCC2F810C0401C0828D1D31460B1F8E8
:1005400000C0BCF1FF0F34DD546800202EE000F144
:10055000080C4FF0010808FA0CF3B1F800C00CEADF
:1005600003069E4221D183004FF00F0C0CFA03F7D3
:10057000BC4305FA03FC4CEA040491F803C0BCF147
:10058000280F05D100F1080C08FA0CF8C2F8148005
:1005900091F803C0BCF1480F07D100F1080C4FF0EF
:1005A000010808FA0CF8C2F81080401C0828CED3C5
:1005B0005460BDE8F0810246002093680B400BB107
:1005C000012000E000207047016170470AB101611D
:1005D00000E04161704700BFFEE710B500F032F85F
:1005E00001216B2000F015F800216C2000F011F8BB
:1005F0000921192000F00DF806211A2000F009F851
:1006000018211B2000F005F818211C2000F001F82B
:1006100010BD70B505460C4600F066F8D02000F01D
:100620004EF800F03DF8284600F049F800F038F8A0
:10063000204600F044F800F033F800F063F870BD95
:1006400000BFFEE708B50121082000F039FA1420A8
:100650008DF803004FF44070ADF8000003208DF8D2
:10066000020069460648FFF71BFF40F209110448E3
:10067000FFF7AAFF0121082000F022FA08BD0000C0
:10068000000C014010B54FF400710448FFF793FFD0
:1006900004460A20FFF77DFE204610BD000C0140F5
:1006A00010B5012000F048F8012000F037F8FFF7FE
:1006B000E9FF0446002000F031F8204610BD70B577
:1006C000054600240DE08021214101EA050000F0EB
:1006D00033F8012000F022F8002000F01FF8601C21
:1006E000C4B2082CEFDB70BD10B5012000F024F877
:1006F000012000F013F8002000F01EF8002000F0A8
:100700000DF810BD10B5002000F016F8012000F023
:1007100005F8012000F010F810BD000010B50446E7
:1007200022464FF480710348FFF750FF0A20FFF77D
:1007300030FE10BD000C014010B5044622464FF4B7
:1007400000710348FFF742FF0A20FFF722FE10BDA9
:10075000000C01407047000070B5002100230F22FB
:10076000C47804B3154C246804F4E064C4F5E06470
:10077000210AC1F10403CA40447804FA03F18478E1
:100780001440214309010E4C0678A155047804F069
:100790001F050124AC4005786D11AD0005F1E02581
:1007A000C5F8004109E0047804F01F050124AC40BD
:1007B000044D0678761145F8264070BD0CED00E03A
:1007C00000E400E080E100E070B500240EE00021CC
:1007D000204600F0E6F8002504E0002000F050F983
:1007E000681CC5B2802DF8DB601CC4B2082CEEDB9F
:1007F00070BD000008B50121082000F061F9142047
:100800008DF8030003208DF802004FF48070ADF8DE
:10081000000069460A48FFF743FE4FF40070ADF848
:10082000000069460648FFF73BFE0122110204481A
:10083000FFF7CCFE012251020148FFF7C7FE08BDB9
:10084000000C014070B50546002415E080202041D1
:1008500000EA05024FF400710E48FFF7B7FE0122CF
:1008600011020C48FFF7B2FE00224FF480710948D4
:10087000FFF7ACFE601CC4B2082CE7DB01221102BA
:100880000448FFF7A3FE00224FF480710148FFF7F0
:100890009DFE70BD000C014010B5012251020A48B6
:1008A000FFF794FE012211020748FFF78FFE002296
:1008B0004FF400710448FFF789FE00224FF4807165
:1008C0000148FFF783FE10BD000C014010B5002267
:1008D0004FF400710648FFF779FE01221102044827
:1008E000FFF774FE012251020148FFF76FFE10BDB1
:1008F000000C014070B5002406E0002500E06D1CEE
:10090000B5F57A7FFBD3641CB4F57A7FF5D3FFF796
:1009100071FFAE2000F0A4F8D52000F0A1F88020EF
:1009200000F09EF8A82000F09BF83F2000F098F817
:10093000D32000F095F8002000F092F8402000F05D
:100940008FF8A12000F08CF8C82000F089F8DA2098
:1009500000F086F8122000F083F8812000F080F883
:10096000CF2000F07DF8D92000F07AF8F12000F0D7
:1009700077F8DB2000F074F8302000F071F8A42044
:1009800000F06EF8A62000F06BF88D2000F068F8FB
:10099000142000F065F8AF2000F062F8FFF714FFB4
:1009A00070BD70B505460C4645F0B00000F058F833
:1009B000102141EA141000F053F804F00F0000F089
:1009C0004FF870BD2DE9F04105460E461746721EE0
:1009D000D206110E6A1E5206100EFFF7E2FF002427
:1009E00009E0A7F12001134A02EB0111085D00F0B4
:1009F00047F8601CC4B2082CF3DB721ED206110E3D
:100A00006A1E012303EB4202D0B2FFF7CAFF0024A3
:100A10000BE0A7F12001074A02EB011204F10801E3
:100A2000505C00F02DF8601CC4B2082CF1DBBDE86E
:100A3000F0810000181200082DE9F04107460E462B
:100A40001546002407E02A5D3019C1B23846FFF789
:100A5000B9FF601CC4B2285D0028F4D1BDE8F08164
:100A600010B50446FFF718FF7820FFF7EBFE0020D3
:100A7000FFF7E8FE2046FFF7E5FEFFF727FF10BD72
:100A800010B50446FFF708FF7820FFF7DBFE402093
:100A9000FFF7D8FE2046FFF7D5FEFFF717FF10BD82
:100AA00029B1064AD2690243044BDA6104E0034AE1
:100AB000D2698243014BDA617047000000100240A6
:100AC00029B1064A92690243044B9A6104E0034A41
:100AD00092698243014B9A61704700000010024006
:100AE00030B500210022002400232D4D6D6805F053
:100AF0000C0121B1042905D0082923D105E0294D95
:100B0000056022E0274D05601FE0254D6D6805F466
:100B10007012234D6D6805F48034022505EB924276
:100B20001CB9214D554305600BE01D4D6D6805F462
:100B300000351DB11C4D5543056002E0194D55436C
:100B4000056002E0174D056000BF00BF144D6D68E1
:100B500005F0F0010909154D6B5C0568DD40456045
:100B60000F4D6D6805F4E061090A104D6B5C456836
:100B7000DD4085600A4D6D6805F46051C90A0B4D72
:100B80006B5C4568DD40C560054D6D6805F440410E
:100B9000890B074D6B5CC568B5FBF3F5056130BD8E
:100BA0000010024000127A0000093D000000002001
:100BB0001000002010B500F001F810BD0CB50020A9
:100BC000019000903348006840F48030314908605B
:100BD00000BF3048006800F4003000900198401CCD
:100BE0000190009818B90198B0F5A06FF1D129488B
:100BF000006800F4003010B10120009001E00020F6
:100C000000900098012843D12348006840F010006C
:100C1000214908600846006820F003000860084683
:100C2000006840F0020008601A48406819494860AE
:100C30000846406848600846406840F48060486064
:100C40000846406820F47C1048600846406840F43C
:100C5000E81048600846006840F08070086000BFF7
:100C60000C48006800F000700028F9D0094840687E
:100C700020F00300074948600846406840F0020041
:100C8000486000BF0348406800F00C000828F9D114
:100C90000CBD0000001002400020024010B500BF53
:100CA000BF2080F31188BFF34F8FBFF36F8F00BF5A
:100CB00000F0EAF918B14FF080500449086000BF15
:100CC000002080F3118800BF10BD000004ED00E09B
:100CD00010B51348006840F001001149086008464B
:100CE0004068104908400E494860084600680E49AF
:100CF00008400B4908600846006820F4802008601E
:100D00000846406820F4FE0048604FF41F008860E9
:100D1000FFF750FF4FF000600449086010BD00006D
:100D2000001002400000FFF8FFFFF6FE08ED00E0B3
:100D300021B1028842F00102028004E002884FF6ED
:100D4000FE731A4002807047F0B50C4615461E46E9
:100D50000021002200230189028B038C4FF6F877D3
:100D6000394021434FF6FC473A4040F201173A43DD
:100D70004FF6DD773B404FF6FF7707EA06172F4324
:100D80003B43018102830384F0BD00210180418047
:100D9000012181800021C1800181704701894FF6C6
:100DA000F872114001817047002202881D4B984261
:100DB0000ED01D4B98420BD0B0F1804F08D01B4B8A
:100DC000984205D01A4B984202D01A4B984204D14F
:100DD0004FF68F731A404B881A43174B984207D02F
:100DE000164B984204D04FF6FF431A40CB881A4363
:100DF00002808B8883850B8803850A4B98420BD031
:100E0000094B984208D00E4B984205D00D4B9842A2
:100E100002D00D4B984201D10B7A038601238382C5
:100E200070470000002C01400034014000040040E5
:100E300000080040000C004000100040001400407A
:100E400000400140004401400048014010B520210D
:100E5000054800F019F8012805D1034800F0B2F860
:100E600040B20249087010BD004800401400002044
:100E700021B1828942F40052828104E082894DF6D8
:100E8000FF731A408281704702460020B1F5007F4F
:100E900000D100BF13880B400BB1012000E00020FF
:100EA0007047F0B50346002400260025002040F6D8
:100EB0006A17B94200D100BF1846C1F3421401F0CD
:100EC0001F06012707FA06F5012C01D10C3004E0BA
:100ED000022C01D1103000E014301AB107682F4302
:100EE000076002E00768AF430760F0BD2DE9F047F7
:100EF00086B005460E460024A24600BFA146002744
:100F0000B08900B100BF2F462C8A4CF6FF70044018
:100F1000F08804432C82AC894EF6F3100440B0886C
:100F200031890843718908430443AC81AC8A4FF688
:100F3000FF400440B0890443AC8201A8FFF7D0FD14
:100F40001F48874202D1DDF810A001E0DDF80CA0B7
:100F5000A88900F4004040B10AEBCA0000EB0A1077
:100F600031684900B0FBF1F807E00AEBCA0000EB7A
:100F70000A1031688900B0FBF1F86420B8FBF0F08A
:100F800004012009642101FB1089A88900F40040B4
:100F900040B1322000EBC900B0FBF1F000F00700D7
:100FA000044308E0322000EB09106421B0FBF1F0AB
:100FB00000F00F0004432C8106B0BDE8F08700006C
:100FC0000038014001468888C0F30800704700BF20
:100FD000FEE7000010B5FFF700FBFFF78BFCFFF703
:100FE000EFF9FFF77BF903A201210846FFF724FD83
:100FF000002010BD42543A0009480068006808B952
:10100000012000E0002020B14FF0FF3005490860CA
:1010100005E003480068C06800680249086070473E
:101020001C000020480000201248006818B1012070
:10103000114908601DE000200F4908600F48006852
:10104000B0FA80F0C0F11F0101EB81020C4B03EB01
:10105000820042685268426000F10802436893428D
:1010600002D14268526842604268D268054B1A60F9
:1010700000BF7047540000203C00002030000020DA
:1010800058000020180000202DE9F04100275748A3
:10109000006800287ED156480068451C5448056009
:1010A0008DB95448D0F80080534800685149086011
:1010B0005148C0F8008051480068401C4F49086002
:1010C000FFF79AFF00BF4E480068854276D300BF05
:1010D00048480068006808B9012000E0002020B1FD
:1010E0004FF0FF304649086067E042480068C0683A
:1010F000C4686668B54202D2414806605DE0606936
:10110000D4E902128A60D4E902214A60211D4268B2
:101110008A4201D1E1684160002262610168491E92
:101120000160A06A98B1A06AD4E907128A60D4E984
:1011300007214A6004F1180142688A4201D1216AFC
:1011400041600022A2620168491E016000BF94F85C
:101150002C10012088402B49096808432949086060
:10116000E16A01EB8101284A02EB81014868A06035
:101170008268E260211D826851608160E16A01EB52
:101180008101214A02EB81026261E16A01EB810186
:101190001D4A00E022E052F82110491CE26A02EBED
:1011A0008202194B43F822101849E06A0968C96A9B
:1011B00088428DD301278BE700E000BF1348006809
:1011C000C06A00EB8000104951F82000012800D9C6
:1011D00001270F48006800B1012704E00D480068AE
:1011E000401C0C4908603846BDE8F08154000020DE
:1011F0002C0000201C0000202000002040000020C7
:101200004800002030000020580000201800002076
:101210003C0000203800002000000000000000001A
:101220000000000000000000000000F800000000C6
:10123000000000333000000000100C06100C060007
:10124000000000000000000040C07840C07840006E
:10125000043F04043F040400007088FC08300000D0
:10126000001820FF211E0000F008F000E018000028
:1012700000211C031E211E0000F0088870000000E1
:101280001E2123241927211010160E000000000033
:101290000000000000000000000000E01804020050
:1012A000000000071820400000020418E0000000C1
:1012B0000040201807000000404080F080404000BF
:1012C0000202010F01020200000000F00000000015
:1012D0000101011F010101000000000000000000E9
:1012E00080B070000000000000000000000000005E
:1012F00000010101010101010000000000000000E7
:101300000030300000000000000000008060180481
:10131000006018060100000000E010080810E0005E
:10132000000F102020100F00001010F80000000027
:101330000020203F2020000000700808088870006E
:1013400000302824222130000030088888483000EE
:101350000018202020110E000000C02010F800000E
:1013600000070424243F240000F8088888080800A7
:101370000019212020110E0000E0108888180000BC
:10138000000F112020110E0000380808C83808008E
:101390000000003F0000000000708808088870000E
:1013A000001C222121221C0000E010080810E0008F
:1013B0000000312222110F00000000C0C000000018
:1013C000000000303000000000000080000000003D
:1013D0000000806000000000000080402010080035
:1013E00000010204081020004040404040404000FE
:1013F00004040404040404000008102040800000D9
:101400000020100804020100007048080808F000DD
:101410000000003036010000C030C828E810E000AD
:101420000718272423140B000000C038E000000038
:10143000203C23020227382008F8888888700000A2
:10144000203F202020110E00C03008080808380076
:10145000071820202010080008F808080810E000ED
:10146000203F202020100F0008F88888E80810008E
:10147000203F20202320180008F88888E808100062
:10148000203F200003000000C0300808083800009A
:1014900007182020221E020008F808000008F8089B
:1014A000203F210101213F20000808F80808000022
:1014B0000020203F2020000000000808F808080055
:1014C000C08080807F00000008F888C028180800CD
:1014D000203F20012638200008F808000000000006
:1014E000203F20202020300008F8F800F8F80800FD
:1014F000203F003F003F200008F830C00008F808F7
:10150000203F200007183F00E01008080810E00006
:101510000F10202020100F0008F808080808F0001D
:10152000203F210101010000E01008080810E00040
:101530000F18242438504F0008F8888888887000D5
:10154000203F2000030C3020007088080808380075
:101550000038202121221C00180808F8080818006B
:101560000000203F2000000008F808000008F808EC
:10157000001F202020201F000878880000C838089D
:10158000000007380E010000F80800F80008F80015
:10159000033C0700073C03000818688080681808AF
:1015A00020302C03032C30200838C800C83808002D
:1015B0000000203F2000000010080808C83808007C
:1015C0002038262120201800000000FE0202020020
:1015D0000000007F40404000000C30C000000000D0
:1015E000000000010638C00000020202FE000000F8
:1015F000004040407F00000000000402020204009E
:1016000000000000000000000000000000000000DA
:1016100080808080808080800002020400000000C2
:1016200000000000000000000000808080800000BA
:101630000019242222223F2008F8008080000000A8
:10164000003F112020110E0000000080808000006B
:10165000000E112020201100000000808088F8007A
:10166000000E112020103F200000808080800000AC
:10167000001F222222221300008080F08888881810
:101680000020203F2020000000008080808080001B
:10169000006B94949493600008F8008080800000B0
:1016A000203F210000203F2000809898000000008B
:1016B0000020203F202000000000008098980000BB
:1016C00000C08080807F000008F8000080808000DB
:1016D000203F24022D302000000808F80000000000
:1016E0000020203F202000008080808080808000BB
:1016F000203F20003F20003F80800080808000004D
:10170000203F210000203F200000808080800000DA
:10171000001F202020201F0080800080800000000B
:1017200080FFA12020110E0000000080808080003A
:10173000000E112020A0FF8080808000808080002B
:1017400020203F2120000100000080808080800058
:101750000033242424241900008080E080800000CD
:101760000000001F2020000080800000008080001A
:10177000001F202020103F2080808000008080807B
:1017800000010E300806010080800080008080800B
:101790000F300C030C300F00008080008080800030
:1017A0000020312E0E31200080808000008080805B
:1017B00080818E701806010000808080808080000B
:1017C0000021302C2221300000000000807C020229
:1017D00000000000003F404000000000FF0000004B
:1017E00000000000FF0000000002027C80000000FA
:1017F0000040403F00000000000601010202040416
:101800000000000000000000281800080000002070
:101810005800000028010008801800085800002027
:101820002807000044010008000000000102030432
:10183000010203040607080902040608000000006C
:101840000000000000000000000000000000000098
:101850000000000000000000000000000000000088
:101860000000000000000000000000000000000078
:101870000000000000000000040000000000000064
:04000005080000ED02
:00000001FF
