:020000040800F2
:100000008806002091010008A30600089B0600084E
:100010009F06000849040008851000080000000041
:100020000000000000000000000000006D08000853
:100030003D0500080000000015070008050A00083B
:10004000AB010008AB010008AB010008AB010008E0
:10005000AB010008AB010008AB010008AB010008D0
:10006000AB010008AB010008AB010008AB010008C0
:10007000AB010008AB010008AB010008AB010008B0
:10008000AB010008AB010008AB010008AB010008A0
:1000900055100008AB010008AB010008AB010008D7
:1000A000AB010008AB010008AB010008AB01000880
:1000B000AB010008AB010008AB010008AB01000870
:1000C000AB010008AB010008AB010008AB01000860
:1000D000AB010008950E0008AB010008AB01000859
:1000E000AB010008AB010008AB01000800F002F80A
:1000F00000F03FF80AA090E8000C82448344AAF183
:100100000107DA4501D100F034F8AFF2090EBAE880
:100110000F0013F0010F18BFFB1A43F0010318473B
:100120007410000094100000103A24BF78C878C101
:10013000FAD8520724BF30C830C144BF04680C60ED
:10014000704700000023002400250026103A28BF35
:1001500078C1FBD8520728BF30C148BF0B60704739
:10016000642900F07780002070471FB51FBD10B5CF
:1001700010BD00F037F91146FFF7F7FF00F09CFFC4
:1001800000F055F903B4FFF7F2FF03BC00F082FF63
:100190000948804709480047FEE7FEE7FEE7FEE71B
:1001A000FEE7FEE7FEE7FEE7FEE7FEE70448054957
:1001B000054A064B70470000090A0008ED000008D8
:1001C0008800002088060020880200208802002085
:1001D000704700000FB4044910B503AA029800F05C
:1001E000D3F810BC5DF814FB200000202DE9F0418D
:1001F0000E460446002020622046E168884730B35E
:10020000252805D0D4E901219047206A401CF2E757
:10021000E168204600278847050018D0A5F1410075
:10022000192802D820354FF4006732462946204667
:100230002760FFF795FF40B1012804D0F61D26F096
:1002400007060836D8E7361DD6E72846DAE7206ADB
:10025000BDE8F0812DE9F0410646002410687529BB
:10026000314616A510D0AFF30080002802DA4042D4
:1002700013A507E031688A0701D512A502E04907F6
:1002800004D511A5012401E0AFF3008000210A226A
:1002900006F1240709E0B0FBF2FCB0FBF2F302FB2D
:1002A0001C00303078541846491C0028F3D12346EE
:1002B0002A463046BDE8F04100F00CB800000000CE
:1002C0002D0000002B000000200000007047704748
:1002D000704770472DE9F0470D469946924604460F
:1002E00000F124080168880604D5E06921F01001B6
:1002F000216000E00120A84201DD471B00E000274B
:10030000A1697A1902EB0900081AA0612078C006D9
:1003100002D42046AFF30080002608E0D4E9012192
:100320001AF806009047206A401C761C20624E4551
:10033000F4DB2078C0060AD52046AFF3008006E043
:10034000D4E9012130209047206A401C2062381EE9
:10035000A7F10107F4DC07E0D4E9012118F8050052
:100360009047206A401C2062281EA5F10105F3DC9D
:100370002046AFF300802078000602D50220BDE8B9
:10038000F0870120FBE70000074B70B50D467B446A
:1003900000F011F80446284600F020F810B14FF0A4
:1003A000FF3070BD204670BD0B0D000001694A1C76
:1003B00002610878704700B58FB0CDE901310021A6
:1003C000059105497944CDE9031011466846FFF7C8
:1003D0000DFF0FB000BD0000E5FFFFFF007B00F048
:1003E00080007047754600F02BF8AE460500694660
:1003F000534620F00700854618B020B5FFF7D6FE1B
:10040000BDE820404FF000064FF000074FF0000815
:100410004FF0000B21F00701AC46ACE8C009ACE896
:10042000C009ACE8C009ACE8C0098D46704710B5FA
:100430000446AFF300802046BDE81040FFF7A2BE9F
:10044000004870472800002000BFFEE710B500F507
:10045000D87303EB01131B6803F004031372137AC0
:1004600053B900F5D87303EB01131B6840F2FF7416
:1004700004EA5353136009E000F5D87303EB01134A
:100480001B686FF0604404EAD303536000F5D8732F
:1004900003EB01131B6803F00203537200F5D873DA
:1004A00003EB01135B6803F00F03937200F5D8733D
:1004B00003EB01135B681B0AD37400F5D87303EBDD
:1004C00001139B68D37200F5D87303EB01139B688B
:1004D0001C0A147300F5D87303EB01139B681C0C02
:1004E000547300F5D87303EB01139B681B0E9373D1
:1004F00000F5D87303EB0113DB68D37300F5D873F1
:1005000003EB0113DB681C0A147400F5D87303EBCA
:100510000113DB681C0C547400F5D87303EB011352
:10052000DB681B0E937421B9C36843F02003C360DA
:1005300003E0036943F02003036110BD704700B579
:10054000034603E04FF47A7000F005F8181EA3F19B
:100550000103F7D100BD00EBC001C9004FF0E0225C
:100560005161002191610521116100BF4FF0E0212F
:10057000096901F480310029F8D004214FF0E0220C
:10058000116170472DE9F041024600250026002048
:1005900000230024002791F803C00CF00F0591F808
:1005A00003C00CF0100CBCF1000F03D091F802C096
:1005B0004CEA050591F800C0BCF1000F31D0146879
:1005C00000202BE04FF0010C0CFA00F3B1F800C052
:1005D0000CEA03069E4220D183004FF00F0C0CFA68
:1005E00003F7BC4305FA03FC4CEA040491F803C08A
:1005F000BCF1280F06D14FF0010C0CFA00FCC2F838
:1006000014C00AE091F803C0BCF1480F05D14FF0C7
:10061000010C0CFA00FCC2F810C0401C0828D1D311
:100620001460B1F800C0BCF1FF0F34DD5468002045
:100630002EE000F1080C4FF0010808FA0CF3B1F8B5
:1006400000C00CEA03069E4221D183004FF00F0C3C
:100650000CFA03F7BC4305FA03FC4CEA040491F8D6
:1006600003C0BCF1280F05D100F1080C08FA0CF802
:10067000C2F8148091F803C0BCF1480F07D100F113
:10068000080C4FF0010808FA0CF8C2F81080401C62
:100690000828CED35460BDE8F08100BFFEE700BF5C
:1006A000FEE7704770B5002100230F22C47804B321
:1006B000154C246804F4E064C4F5E064210AC1F137
:1006C0000403CA40447804FA03F1847814402143B7
:1006D00009010E4C0678A155047804F01F05012489
:1006E000AC4005786D11AD0005F1E025C5F800417D
:1006F00009E0047804F01F050124AC40044D06789D
:10070000761145F8264070BD0CED00E000E400E0F5
:1007100080E100E07047000029B1064AD269024337
:10072000044BDA6104E0034AD2698243014BDA6187
:10073000704700000010024029B1064A12690243C6
:10074000044B1A6104E0034A12698243014B1A61A7
:10075000704700000010024029B1064A9269024326
:10076000044B9A6104E0034A92698243014B9A6107
:10077000704700000010024029B1064AD2680243C7
:10078000044BDA6004E0034AD2688243014BDA602A
:10079000704700000010024030B500210022002404
:1007A00000232D4D6D6805F00C0121B1042905D001
:1007B000082923D105E0294D056022E0274D056079
:1007C0001FE0254D6D6805F47012234D6D6805F42A
:1007D0008034022505EB92421CB9214D554305603A
:1007E0000BE01D4D6D6805F400351DB11C4D5543E2
:1007F000056002E0194D5543056002E0174D0560A4
:1008000000BF00BF144D6D6805F0F0010909154DDA
:100810006B5C0568DD4045600F4D6D6805F4E06177
:10082000090A104D6B5C4568DD4085600A4D6D68B6
:1008300005F46051C90A0B4D6B5C4568DD40C5602D
:10084000054D6D6805F44041890B074D6B5CC5682B
:10085000B5FBF3F5056130BD0010024000127A00CF
:1008600000093D000000002010000020704700003B
:1008700000B589B001210420FFF76EFF0121084671
:10088000FFF74AFF0720ADF8200018208DF823005D
:1008900003208DF8220008A91F48FFF773FE4FF0D0
:1008A000804000F0F9F84720ADF8140044F61F60CE
:1008B000ADF818002020ADF816000020ADF81A00A1
:1008C00005A94FF0804000F093FA6020ADF80400D5
:1008D0000120ADF806000020ADF80A00ADF80C00CC
:1008E00001A94FF0804000F0CBF901A94FF0804002
:1008F00000F01CFA0821C80600F00EFA0821C8060C
:1009000000F066FA0121880700F0AEF8012188079F
:1009100000F0B6F809B000BD0008014010B500F0C5
:1009200001F810BD0CB5002001900090334800681C
:1009300040F480303149086000BF3048006800F45E
:10094000003000900198401C0190009818B901985F
:10095000B0F5A06FF1D12948006800F4003010B163
:100960000120009001E0002000900098012843D170
:100970002348006840F010002149086008460068DC
:1009800020F0030008600846006840F0020008609C
:100990001A48406819494860084640684860084657
:1009A000406840F4806048600846406820F47C104D
:1009B00048600846406840F4E8104860084600680F
:1009C00040F08070086000BF0C48006800F00070C4
:1009D0000028F9D00948406820F003000749486022
:1009E0000846406840F00200486000BF0348406885
:1009F00000F00C000828F9D10CBD000000100240E6
:100A0000002002407047000010B51348006840F015
:100A100001001149086008464068104908400E4925
:100A20004860084600680E4908400B4908600846BF
:100A3000006820F4802008600846406820F4FE002A
:100A400048604FF41F008860FFF768FF4FF00060B8
:100A50000449086010BD0000001002400000FFF8CB
:100A6000FFFFF6FE08ED00E021B1028842F08002AF
:100A7000028004E002884FF67F731A4002807047BC
:100A800021B1028842F00102028004E002884FF6A0
:100A9000FE731A400280704710B5044668488442CD
:100AA00008D10121C014FFF767FE0021E014FFF711
:100AB00063FEC4E0B4F1804F08D101210846FFF77E
:100AC0003BFE00210120FFF737FEB8E05D4884427D
:100AD00008D101210220FFF72FFE00210220FFF79D
:100AE0002BFEACE05848844208D101210420FFF7D6
:100AF00023FE00210420FFF71FFEA0E0534884429C
:100B000008D101210820FFF717FE00210820FFF778
:100B100013FE94E04E48844208D101211020FFF7D3
:100B20000BFE00211020FFF707FE88E049488442B1
:100B300008D101212020FFF7FFFD00212020FFF731
:100B4000FBFD7CE04448844208D101214014FFF7BA
:100B500013FE00216014FFF70FFE70E03F4884424F
:100B600009D10121C804FFF707FE00214FF400203E
:100B7000FFF702FE63E03A48844209D101210805EB
:100B8000FFF7FAFD00214FF48010FFF7F5FD56E066
:100B90003448844209D101214805FFF7EDFD0021C9
:100BA0004FF40010FFF7E8FD49E02F48844208D1D8
:100BB00001214020FFF7C0FD00214020FFF7BCFDD0
:100BC0003DE02A48844208D101218020FFF7B4FD8E
:100BD00000218020FFF7B0FD31E02548844208D194
:100BE00001218015FFF7A8FD0021A015FFF7A4FD46
:100BF00025E02048844209D101210804FFF7BCFD0B
:100C000000214FF48030FFF7B7FD18E01A48844206
:100C100009D101214804FFF7AFFD00214FF4003056
:100C2000FFF7AAFD0BE01548844208D10121880492
:100C3000FFF7A2FD00214FF48020FFF79DFD10BDBE
:100C4000002C01400004004000080040000C00405F
:100C5000001000400014004000340140004C0140EE
:100C6000005001400054014000180040001C0040AA
:100C70000020004000400140004401400048014085
:100C800070B5002400220023058C4FF6FE76354017
:100C90000584028C8388048B4FF68F752C40B51E1B
:100CA0002C400D882C43751E2A400D892A434D88FF
:100CB0002A43144DA8420BD0134DA84208D0134D1F
:100CC000A84205D0124DA84202D0124DA84213D11D
:100CD0004FF6F7752A404D892A434FF6FB752A4097
:100CE0008D882A434FF6FF652B404FF6FF552B406A
:100CF0008D892B43CD892B4383800483CD888586C2
:100D0000028470BD002C01400034014000400140CD
:100D100000440140004801400A460021018B4FF683
:100D2000F7731940114301837047000070B5002428
:100D300000220023058C4FF6EF7635400584028CA7
:100D40008388048B48F6FF752C404FF6FF452C40F6
:100D50000D884FF6FF7606EA05252C434FF6DF7522
:100D60002A400D8906EA05152A434D8806EA05152D
:100D70002A43154DA84202D0144DA8421DD14FF66A
:100D80007F752A404D894FF6FF7606EA05152A43FE
:100D90004FF6BF752A408D8806EA05152A434FF69F
:100DA000FF352B404FF2FF752B408D8906EA8505F4
:100DB0002B43CD8906EA85052B4383800483CD88A8
:100DC0000587028470BD0000002C01400034014002
:100DD0000A460021018B4FF2FF7319404FF6FF7353
:100DE00003EA02231943018370478186704700009C
:100DF000002202881D4B98420ED01D4B98420BD00A
:100E0000B0F1804F08D01B4B984205D01A4B984246
:100E100002D01A4B984204D14FF68F731A404B8878
:100E20001A43174B984207D0164B984204D04FF6FE
:100E3000FF431A40CB881A4302808B8883850B8836
:100E400003850A4B98420BD0094B984208D00E4BB1
:100E5000984205D00D4B984202D00D4B984201D1DB
:100E60000B7A03860123838270470000002C014027
:100E7000003401400004004000080040000C004025
:100E800000100040001400400040014000440140B8
:100E90000048014010B540F22551054800F018F80F
:100EA00020B1034800F0D0F80249088010BD0000CE
:100EB000003801402600002021B1828942F400520E
:100EC000828104E082894DF6FF731A408281704767
:100ED00070B50246002400230025002040F66A1663
:100EE000B14200D100BFC1F3421501F01F0301263A
:100EF00006FA03F3012D02D19689334006E0022D54
:100F000002D1168A334001E0968A33400C12012642
:100F100006FA04F41688344013B10CB1012000E045
:100F2000002070BDF0B503460024002600250020F7
:100F300040F66A17B94200D100BF1846C1F3421407
:100F400001F01F06012707FA06F5012C01D10C302C
:100F500004E0022C01D1103000E014301AB107680F
:100F60002F43076002E00768AF430760F0BD000051
:100F70002DE9F04786B005460E460024A24600BF84
:100F8000A1460027B08900B100BF2F462C8A4CF63D
:100F9000FF700440F08804432C82AC894EF6F310B5
:100FA0000440B08831890843718908430443AC8107
:100FB000AC8A4FF6FF400440B0890443AC8201A8DC
:100FC000FFF7EAFB1F48874202D1DDF810A001E0DD
:100FD000DDF80CA0A88900F4004040B10AEBCA007B
:100FE00000EB0A1031684900B0FBF1F807E00AEBAA
:100FF000CA0000EB0A1031688900B0FBF1F86420E8
:10100000B8FBF0F004012009642101FB1089A889D4
:1010100000F4004040B1322000EBC900B0FBF1F019
:1010200000F00700044308E0322000EB09106421BF
:10103000B0FBF1F000F00F0004432C8106B0BDE8D6
:10104000F08700000038014001468888C0F308009E
:101050007047000000B585B06A4600210748FFF7D9
:10106000F5F9002005E00DF10B01095C044A11546B
:10107000401C0828F7DB05B000BD000000640040FC
:101080001500002000BFFEE70148008870470000FF
:1010900026000020014600BF7047000000BF054A3F
:1010A000128802F04002002AF9D0C2B2014B1B1D87
:1010B0001A807047003801404FF4E13000F01AF810
:1010C000FFF7D6FB00BF10E0FFF7DEFF0446214626
:1010D00006A0FFF77FF84FF496714FF08040FFF7BE
:1010E00084FE6420FFF72BFA00BFEDE72564200D96
:1010F0000A20000010B586B00446012144F2040025
:10110000FFF72AFB4FF40070ADF8140003208DF8B0
:10111000160018208DF8170005A91C48FFF732FAB1
:101120004FF48060ADF8140048208DF8170005A931
:101130001648FFF727FA25208DF8000003208DF8C8
:1011400001008DF8020001208DF803006846FFF7CA
:10115000A9FA01940020ADF80800ADF80A00ADF836
:101160000C00ADF810000C20ADF80E0001A90848E5
:10117000FFF7FEFE012240F225510548FFF7D2FE9F
:1011800001210348FFF798FE06B010BD000801409A
:1011900000380140B41100080000002028000000C1
:1011A00028010008DC11000828000020600600006B
:1011B00044010008000000000102030401020304CE
:1011C00006070809020406080000000000000000ED
:0C11D00000000000000000000000000013
:04000005080000ED02
:00000001FF
