:020000040800F2
:10000000204D0020390200088D1A000855150008FF
:10001000891A0008BD120008F7250008000000003A
:10002000000000000000000000000000A101000826
:10003000C112000800000000E50100086921000865
:10004000530200085302000853020008530200083C
:10005000530200085302000853020008530200082C
:10006000530200085302000853020008530200081C
:10007000530200085302000853020008530200080C
:1000800053020008530200085302000853020008FC
:1000900053020008530200085302000853020008EC
:1000A00053020008530200085302000853020008DC
:1000B00053020008530200085302000853020008CC
:1000C00053020008530200085302000853020008BC
:1000D0005302000853020008530200087524000868
:1000E00053020008530200085302000800F002F80F
:1000F00000F047F80AA090E8000C82448344AAF17B
:100100000107DA4501D100F03CF8AFF2090EBAE878
:100110000F0013F0010F18BFFB1A43F0010318473B
:10012000586F0000786F0000103A24BF78C878C17B
:10013000FAD8520724BF30C830C144BF04680C60ED
:10014000704700000023002400250026103A28BF35
:1001500078C1FBD8520728BF30C148BF0B60704739
:10016000642900F0B980002070471FB59DE80300A6
:1001700000F004FE00F00AFB1FBD10B500F06FFB9D
:1001800010BD00F0D7FB1146FFF7EFFF03F055FB62
:1001900000F0C6FD03B4FFF7F0FF03BC00F080FFE2
:1001A000224B19680868B0E8F00F80F30988BFF3A4
:1001B0006F8F4FF0000080F311884EF00D0E7047E6
:1001C0000000000006480068006880F3088862B6F6
:1001D00061B6BFF34F8FBFF36F8F00DF00BF00BF6B
:1001E00008ED00E0EFF30980BFF36F8F0F4B1A6843
:1001F00020E9F00F106008B54FF0BF0080F31188C0
:10020000BFF34F8FBFF36F8F05F080F84FF0000002
:1002100080F31188BDE8084019680868B0E8F00F5D
:1002200080F30988BFF36F8F704700BF1400002070
:10023000EFF30580704700000948804709480047F0
:10024000FEE7FEE7FEE7FEE7FEE7FEE7FEE7FEE786
:10025000FEE7FEE704480549054A064B70470000E3
:100260009D210008ED00000820470020204D0020BF
:10027000204900202049002010B54C1084EA530486
:1002800004D54042C1F1000138BF491E1B4204D5CC
:100290005242C3F1000338BF5B1E00F053F914F063
:1002A000804F04D04042C1F1000138BF491E14F014
:1002B000004F04D05242C3F1000338BF5B1E10BD93
:1002C0000FB4044910B503AA029800F00BFA10BC51
:1002D0005DF814FB184600202DE9F0410646002485
:1002E00010687529314616A510D0AFF3008000289C
:1002F00002DA404213A507E031688A0701D512A54A
:1003000002E0490704D511A5012401E0AFF3008004
:1003100000210A2206F1240709E0B0FBF2FCB0FB41
:10032000F2F302FB1C00303078541846491C0028B8
:10033000F3D123462A463046BDE8F04100F079B9B2
:10034000000000002D0000002B0000002000000035
:100350002DE9F05F894604464FF0000ADFF824B12A
:10036000FB44C0F820A02046E168884700287DD0E3
:10037000252806D0D4E901219047206A401C20623C
:10038000F1E700255F462046E168884720280646B9
:1003900007DB312E05D2B81910F8200C08B105433F
:1003A000F1E7A80701D525F00405C4F81CA0002733
:1003B000C4F818A02A2E09D0304602F01EF938B32E
:1003C00004EB8708303EC8F8186019E059F8041BA0
:1003D000204604EB87029161E1688847012F0646B9
:1003E00018D1E069002820DA25F020051DE0D8F8B2
:1003F000180000EB800006EB40003038C8F8180009
:100400002046E1688847064602F0F7F80028EED15A
:10041000012F0AD02E2E08D12046E16888477F1C84
:100420000646022F45F02005C4DBA069002803DA48
:10043000404245F00105A061E80701D025F0100514
:10044000A6B1A6F14100192802D8203645F400656E
:100450004A463146204625604D46FFF781FE60B191
:10046000012807D0ED1D25F0070000E007E000F1AE
:10047000080978E705F1040975E730467AE7206A4C
:10048000BDE8F09FA66C000040EA010310B59B0791
:100490000FD1042A0DD310C808C9121F9C42F8D0EE
:1004A00020BA19BA884201D9012010BD4FF0FF309F
:1004B00010BD1AB1D30703D0521C07E0002010BDB5
:1004C00010F8013B11F8014B1B1B07D110F8013B41
:1004D00011F8014B1B1B01D1921EF1D1184610BD22
:1004E00002F0FF0343EA032242EA024200F00EB99F
:1004F0004FF0000200B5134694469646203922BFBD
:10050000A0E80C50A0E80C50B1F12001BFF4F7AF07
:10051000090728BFA0E80C5048BF0CC05DF804EBE9
:10052000890028BF40F8042B08BF704748BF20F857
:10053000022B11F0804F18BF00F8012B7047704755
:100540007047704753EA020C00F069802DE9F04BC8
:100550004FF00006002B1FBFB3FA83F503FA05F432
:1005600024FA05F65E4012BF1643B2FA82F502FA8B
:1005700005F4C5F120051EBF22FA05FC44EA0C046F
:10058000203556EA044C4FEA144418BF641C4FF05F
:1005900000084FF00009904271EB030C39D3002999
:1005A00019BFB1FA81F701FA07F6B0FA80F700FA3D
:1005B00007F6C7F120071EBF20FA07FC46EA0C0623
:1005C0002037B6FBF4FCA7EB0507103F07F01F0B25
:1005D000CBF120060CFA0BFB2CFA06F644BFB3460F
:1005E0000026202FA4BF5E464FF0000B5BEA060CEE
:1005F00008BF4FF0010B19EB0B09ABFB027C48EB7A
:100600000608C01B06FB02CC0BFB03CC71EB0C01F4
:10061000C1E70B46024641464846BDE8F08B13B59C
:100620004FF000004FF00001AFF30080BDE81C4028
:1006300070472DE9F0470D4699469246044600F171
:1006400024080168880604D5E06921F010012160C2
:1006500000E00120A84201DD471B00E00027A1695E
:100660007A1902EB0900081AA0612078C00602D4AA
:100670002046AFF30080002608E0D4E901211AF8F3
:1006800006009047206A401C761C20624E45F4DB31
:100690002078C0060AD52046AFF3008006E0D4E9F2
:1006A000012130209047206A401C2062381EA7F1AB
:1006B0000107F4DC07E0D4E9012118F805009047B0
:1006C000206A401C2062281EA5F10105F3DC2046AB
:1006D000AFF300802078000602D50220BDE8F08745
:1006E0000120FBE7074B70B50D467B4400F037F85F
:1006F0000446284600F046F810B14FF0FF3070BDB8
:10070000204670BD872A00004FF000020429C0F087
:10071000128010F0030C3FF4EDAECCF1040CBCF1F0
:10072000020F18BF00F8012BA8BF20F8022BA1EB85
:100730000C01FFF7DFBE5FEAC17C24BF00F8012B8C
:1007400000F8012B48BF00F8012B704700487047A4
:10075000C046002001694A1C02610878704700B554
:100760008FB0CDE901310021059105497944CDE9EA
:10077000031011466846FFF7EBFD0FB000BD000007
:10078000E5FFFFFF007B00F08000704710B5424896
:100790005421FFF7ADFE41485421FFF7A9FE404820
:1007A0005421FFF7A5FE3F493B483C4A3F4B0860B8
:1007B0003D490A603A491960531C0365481C10659D
:1007C000012008653B48344A39A1784400F00CFA0E
:1007D00020B9384878440A3800F0ABFA37482F4A35
:1007E00035A1784400F000FA20B9344878440A383A
:1007F00000F09FFA32482A4A2FA1784400F0F4F919
:1008000020B92F4878440A3800F093FA4023224850
:10081000DC000021224600F0C4F920B125487844CC
:10082000543800F086FA1D4822464023002100F08B
:10083000B8F920B121487844543800F07AFA1848C1
:1008400022461023002100F0ACF9002806D01C48F5
:100850007844BDE81040563800F06BBA10BD10481F
:1008600070B5006D20F001040B4800F033FA0B481E
:1008700000F030FA0A4800F02DFA09E0206D20F06F
:100880000105204600F026FA204600F078F82C46B4
:10089000002CF3D170BD0000C44500201846002094
:1008A0006C460020E0000020E4000020E80000206A
:1008B000720000004D6800007700000039680000F9
:1008C000256800000EB5CDE9000100F0C9FB0290DB
:1008D00069460120ABBE0EBD08B5694600900220F6
:1008E000ABBE08BD1FB58DE8070069460520ABBE4D
:1008F00004B010BD1FB58DE80F0069460620ABBEE1
:10090000F6E708B5694600900920ABBE08BD1CB5E6
:10091000CDE9000169460A20ABBE1CBD704708B591
:10092000694600900C20ABBE08BD0000004870472F
:10093000C04600207546FFF7F9FFAE460500694640
:10094000534620F00700854618B020B5FFF782FC1B
:10095000BDE820404FF000064FF000074FF00008C0
:100960004FF0000B21F00701AC46ACE8C009ACE841
:10097000C009ACE8C009ACE8C0098D46704770B545
:100980000446051F00F0DEF90068002C14BF44681F
:1009900070BD002C18BFAC423CBF20466468F8D341
:1009A00001680A18AA4218BF456003D12A680546A3
:1009B0001144016028684119A1421CBF6C6070BDE0
:1009C0006168696021680844286070BD2DE9F047BE
:1009D00005460C46C86820F4201040F48000C8602A
:1009E000800602D5084600F0FAFAE06841F282017A
:1009F0004FF0FF390140022903D0204600F098FA59
:100A0000B5E000F42041B1F5004F0FD1C00306D589
:100A10006168E06A884200D80846606006E02069A4
:100A2000E06260606069FFF77AFFA061A068002261
:100A3000EEB200280DDAE1688B050AD4C043A0604D
:100A400041F490302260E0606068411C6160067093
:100A5000A5E0E0689046226040F40050E060206924
:100A600068BB6069FFF74DFF012704F12405A0B1C1
:100A7000A08910F4407F08D0E06900F0AEF9206151
:100A800018B1E06840F4006016E0E7612561E068B5
:100A900020F4407040F480600EE0E06900F09DF9C1
:100AA00000282061F1D0E06840F4006010F4407F3D
:100AB000E06002D140F48070E06020696060E0682E
:100AC00025696FF0010AC1051FD56168E06A884297
:100AD00000D80846411B04D02246284600F032FACE
:100AE000F0BBE068010203D5E562C4E9015854E0B7
:100AF000691CE1626160E16940F48030491EC4E92B
:100B0000021030462E70BDE8F087010202D500F4D5
:100B100080320AE06068411C61600670E0680A2E5D
:100B200040F48030E06006D00022E16A60688142D3
:100B300003D90B4602E00122F7E70346A7895B1BB6
:100B40007F0503D4E7699F4200DDE2B1814200D80E
:100B50000146E5620F1AC4E90158002B09DD00E0E7
:100B600005E022461946284600F0ECF908B148464F
:100B7000C9E747B1A069E5626560C01BA061E06894
:100B800040F01000E060E068000208D56168A069EC
:100B9000E562491B08446560A0615046B3E73046F2
:100BA000B1E770B5C468A50713D0650211D4B2F5DA
:100BB000807F09D0B2F5007F06D0B2F5806F08D1F2
:100BC000012300F1240106E05D1E6FF07F46B5426F
:100BD00001D3012070BD0161C361416024F47061E3
:100BE0001143C160002070BD2DE9F0410C4607465D
:100BF0001646104600F06EF82078611C61280AD075
:100C0000722802D077283CD102E00125002405E0BB
:100C10000225042402E0082448F2020511F8010B21
:100C20002B2806D0622809D011F8010C74280AD0AC
:100C30000BE045F0030544F00204EFE745F004053E
:100C400044F00104EAE744F0100438462146FFF777
:100C500039FE411C15D00021316171604FF40071E3
:100C6000F560F1617061200704D530460222002151
:100C700000F0E2F8306D40F0010030653046BDE82C
:100C8000F0810020FBE72DE9F0410D460646104CAF
:100C9000206DC10704D0410804D020F00104F7E71B
:100CA00022460EE0542000F098F807000ED0206D88
:100CB00047F001010843542120653846FFF718FC2E
:100CC0003A4629463046BDE8F0418DE70020D6E798
:100CD000C44500202DE9F04704464FF000094FF0CD
:100CE000FF37C568D4E90486A80707D0204600F07E
:100CF00053F93046FFF7F0FD002802DA3846BDE828
:100D0000F087280502D54046FFF739FE4C212046E2
:100D1000FFF7EEFB206D20F0010020654846EEE76E
:100D200010B50446AFF300802046BDE81040FFF741
:100D300031BA10B500F07AF9BDE8104000F070B992
:100D40007047000000487047C84600207047704751
:100D50007047704738B504460A4600206946AFF32D
:100D60000080002808BF38BD02460099204600F0E8
:100D7000A4F9012038BD012000F0F3B9F8B5AFF3B4
:100D80000080054600200C46102000BF0646A8192A
:100D9000A0420DD9324669460020AFF3008007001B
:100DA00008BF00F0DEF90098A04218BF0546C4193C
:100DB000FFF7C8FF05600746F01D20F00700461941
:100DC000284600F073F9B44208BFF8BDA21B3146B3
:100DD0003868BDE8F84000F070B970B50646FFF716
:100DE000B1FF056806F10B0020F00704B4429CBF78
:100DF000002070BD2B466A68BAB11068A04210D3BB
:100E000004F1080188423CBF5068586007D351681C
:100E1000101941601168091B016058601460101DB1
:100E200070BD13465268002AE7D121462846FFF7D5
:100E300091FF0028DED170BD2DE9F0410446164631
:100E40000D464769007B80072ED03846FFF759FDD5
:100E500050BB3EB3012E02D0022E25D104E0204625
:100E600000F045F905441DE03846FFF758FDE168FC
:100E7000002841F01001E16005DA204600F058F842
:100E80000120BDE8F081C9030BD56268E16A914297
:100E900000D81146A26911442269891A814200DDF5
:100EA00008460544002D01DA0220EAE7E16A60689D
:100EB000E268814206D29103E06203D522F4003158
:100EC00041F01002A6690027AE4213DCE16A8142BC
:100ED00001D90B4600E0034603EB060C2369ACEB9B
:100EE000030CAC4506DD814201D98C4600E0844606
:100EF0009C4505D1A760276042F02000A5620DE067
:100F0000AD1BE669AE1B8142A66000D90846C01A37
:100F1000281A20605819606022F020000349084018
:100F2000E060002084F84870ABE70000BFCFD7FF37
:100F3000C16821F4001141F08001C160002181608D
:100F4000016070472DE9F047814614460E464FF088
:100F5000FF383248D5685769054209D03846A1693B
:100F6000FFF7D5FC002811DB2C48C0430540E560A5
:100F70002B46324649463846FFF7B4FCA16920F0BB
:100F80000042B21A11440028A16103D02046FFF7A5
:100F9000CFFF4046BDE8F08770B504460569C06ADA
:100FA0006168884200D80846E16821F42011E160B8
:100FB000C90312D5A84208D02246411B2846FFF794
:100FC000C1FF10B14FF0FF3070BD0020E562C4E9F1
:100FD0000150E06820F48030E060002070BD10B562
:100FE0000446C06820F02000E060A16AA069884241
:100FF0000DD02046FFF7D0FFE06820F4405040F0CD
:101000001000E060A06AA0612069E062606044F2C4
:101010004001E0688843E06010BD0000100002005D
:10102000002801D000F03CB87047000010B5014620
:1010300002A000F07DF8012010BD00005349475286
:10104000545245443A2052656469726563743A208B
:1010500063616E2774206F70656E3A200000000097
:1010600010B5431C02E010F8011B71B18107FAD1E1
:101070004FF0013202C88C1A8C4314EAC211F9D025
:10108000C01A0A0603D0C01E10BDC01A10BD0A0443
:1010900001D0801E10BD0902FCD0401E10BD000012
:1010A00001491820ABBEFEE72600020000210160C6
:1010B000C0E90110704710207047034640688C4615
:1010C000002818BF88423CBF03464068F8D3186820
:1010D0001844884207D00CF1030020F00700001DDF
:1010E000411A521A0146081D0A60FFF748BC10B5A4
:1010F0000146C268900703D0900607D5886A0AE0C7
:10110000FFF724FB01210160881E10BD8B69486830
:1011100018440B69C01A91F848301BB191F8491076
:10112000401A10BD1103FCD50028FADD401E10BD89
:1011300070B505460C460A2000E06D1C00F018F85A
:1011400035B128780028F8D102E0641C00F010F8CE
:1011500014B120780028F8D1BDE870400A2000F0D2
:1011600007B810B500F00CF8BDE81040FFF758BF05
:1011700008B569468DF800000320ABBE08BD00002D
:1011800010B5012805D0002103A0FFF7D1FF0120F1
:1011900010BD09A1F8E7000053494752544D454D91
:1011A0003A204F7574206F662068656170206D6508
:1011B0006D6F7279000000003A2048656170206D03
:1011C000656D6F727920636F7272757074656400FB
:1011D00010B50446204600F089FE204600F090FE3F
:1011E0001021084800F099F90821064800F093F909
:1011F0000221054800F091F90121034800F08BF924
:1012000010BD000000080140000C014000B587B08F
:101210000121880400F07EFE0121082000F08AFEF2
:1012200018208DF81B004FF48060ADF818000320E3
:101230008DF81A0006A91F4800F0E2F848208DF842
:101240001B004FF40060ADF8180003208DF81A0061
:1012500006A9184800F0D4F84FF416500290002068
:10126000ADF814000C20ADF812000020ADF810000D
:10127000ADF80E00ADF80C0002A90F4801F04AF9D4
:10128000012240F225510C4801F01FF927208DF86A
:10129000040001208DF8070002208DF805008DF86C
:1012A000060001A800F0F4FB0121034801F0F4F866
:1012B00007B000BD000C01400048004000BFFEE741
:1012C0007047000000B587B00121042000F032FE15
:1012D0000121082000F02EFE0121084600F01AFE30
:1012E0000121042000F016FE4FF0804000F0BCFF0A
:1012F000314800F0B9FF04208DF81B000320ADF841
:1013000018008DF81A0006A92C4800F079F804207E
:101310008DF81B00C020ADF8180003208DF81A00CE
:1013200006A9274800F06CF80020ADF81200ADF8CF
:101330000E004FF6FF70ADF810000020ADF80C0065
:101340008DF8140003A94FF0804001F041F803A983
:10135000194801F03DF8684600F07DFF0420ADF823
:1013600000000F20ADF808000020ADF80200ADF835
:1013700006000120ADF8040000231A46032180076F
:1013800000F048FF00231A4603210B4800F042FFFB
:1013900000214FF0804001F019F80021064801F0CB
:1013A00015F80121880700F029FF0121024800F00B
:1013B00025FF07B000BD0000000800400008014004
:1013C000000C014010B50446204600F08FFD204679
:1013D00000F096FD0821084800F09FF8102106480B
:1013E00000F099F80121054800F097F80221034820
:1013F00000F091F810BD000000080140000C014011
:101400002DE9F0410246002500260020002300249B
:10141000002791F803C00CF00F0591F803C00CF001
:10142000100CBCF1000F03D091F802C04CEA050586
:1014300091F800C0BCF1000F31D0146800202BE0FF
:101440004FF0010C0CFA00F3B1F800C00CEA0306EF
:101450009E4220D183004FF00F0C0CFA03F7BC43DF
:1014600005FA03FC4CEA040491F803C0BCF1280F10
:1014700006D14FF0010C0CFA00FCC2F814C00AE0CF
:1014800091F803C0BCF1480F05D14FF0010C0CFAE4
:1014900000FCC2F810C0401C0828D1D31460B1F879
:1014A00000C0BCF1FF0F34DD546800202EE000F1D5
:1014B000080C4FF0010808FA0CF3B1F800C00CEA70
:1014C00003069E4221D183004FF00F0C0CFA03F764
:1014D000BC4305FA03FC4CEA040491F803C0BCF1D8
:1014E000280F05D100F1080C08FA0CF8C2F8148096
:1014F00091F803C0BCF1480F07D100F1080C4FF080
:10150000010808FA0CF8C2F81080401C0828CED355
:101510005460BDE8F08141617047016170470AB1D4
:10152000016100E041617047014890F90000704797
:10153000A40000204FF08041888C00214FF08042B1
:1015400091847047024908880021014A1180704740
:101550002408004000BFFEE710B501F0A9F800F034
:1015600065FB02F0ABF900F05FF900F073FCFFF7E8
:10157000A9FEFFF74BFE00F003F810BD7047000016
:1015800008B50121042000F0D5FC10208DF80300DF
:101590001820ADF8000003208DF8020069460848C5
:1015A000FFF72EFF10208DF803000320ADF8000098
:1015B0008DF8020069460348FFF722FF08BD0000CE
:1015C00000080140000C014010B500200E490860E1
:1015D0000E48006820F470200C4908600846006836
:1015E00040F44030086000200949C1F8900100F043
:1015F00011F801200449086000F00CF800200449AB
:10160000C1F88C0110BD00008C812142000C01400A
:101610000080214210B5022001F092F810BD704701
:1016200010B500200E4908600E48006820F47020B4
:101630000C4908600846006840F44030086001200A
:101640000949C1F89001FFF7E5FF0120044908604E
:10165000FFF7E0FF00200449C1F88C0110BD000035
:101660008C812142000C01400080214270B505466A
:1016700000241648006820F47020144908600846C9
:10168000006840F400200860002614E000201049A3
:101690000860FFF7BFFF01200E49C1F88C0160060A
:1016A000040E0B487C38006808B1601CC4B2FFF718
:1016B000B1FF701CC6B2082EE8DB15B9FFF7B0FF0A
:1016C00001E0FFF781FF204670BD0000000C0140E3
:1016D0008C8121420080214270B504461248006886
:1016E00020F47020104908600846006840F440303B
:1016F000086000200D490860002512E0E0090B4950
:10170000091D08606006040E01200949C1F88C011A
:10171000FFF780FF002005490860FFF77BFF681C8A
:10172000C5B2082DEADB70BD000C01408C8121425E
:101730000080214210B50E48006820F470200C494A
:1017400008600846006840F44030086001200949FC
:1017500008600949C1F88C01FFF75CFF00200549CA
:101760000860FFF757FF00200349C1F88C0110BD46
:10177000000C0140908121420080214210B50E48AA
:10178000006820F470200C4908600846006840F4A6
:10179000403008600020094908600949C1F89001FB
:1017A000FFF738FF0120054908600549C1F890019D
:1017B000FFF730FF10BD0000000C01408C8121427A
:1017C0000080214210B500241448006820F47020E5
:1017D000124908600846006840F4002008600120B3
:1017E0000F490860FFF716FF01200E49C1F88C0170
:1017F000FFF710FF07E0601CC4B2FA2C03DDFFF70F
:10180000BDFF012010BD0648803800680028F2D1D5
:101810000349091F086000BFF4E70000000C014005
:10182000908121420080214210B5FFF7F8FE80210F
:101830006B2000F0D7F8322000F05CFF00216B2015
:1018400000F0D0F8032000F08BF8002000F080F8C2
:10185000C82000F0AAF80021382000F0C3F80021C9
:101860006A2000F0BFF80021232000F0BBF880219F
:10187000372000F0B7F8752000F013F80446682C04
:101880000BD101216B2000F0ADF800216C2000F09D
:10189000A9F8C82000F089F801E0012010BD00205F
:1018A000FCE770B50446FFF745FFD020FFF714FFB3
:1018B000FFF788FF2046FFF70FFFFFF783FFFFF7D3
:1018C00039FFD120FFF708FFFFF77CFF0020FFF76B
:1018D000CDFE0546FFF752FF284670BD2DE9F041C9
:1018E00006460F4614461D46FFF724FF002141EA35
:1018F0004601C8B2FFF7F0FEFFF764FF20B1FFF723
:101900003DFF0120BDE8F0813846FFF7E5FEFFF717
:1019100059FFFFF70FFF012101EB4601C8B2FFF7A6
:10192000DBFEFFF74FFF0DE0012C04D10020FFF795
:101930009DFE287003E00120FFF798FE2870601ECE
:10194000C4B26D1C002CEFD1FFF718FF0020D9E7BF
:1019500010B50446E006010E1C2000F043F810BD4F
:1019600010B50446E006010E1B2000F03BF810BD48
:1019700070B504460025BC2C01DB012510E0622C6B
:1019800001DB02250CE02A2C01DB032508E0142CE6
:1019900001DB042504E00A2C01DB052500E0062517
:1019A00029461A2000F01EF870BD70B50446B4F543
:1019B0007A7F01DD4FF47A74042C00DA04244FF4AA
:1019C0007A7090FBF4F0401EC5B22946192000F051
:1019D00009F80546264604EBD671C1F34F00FFF720
:1019E000C7FF70BD70B505460C46FFF7A3FED020BB
:1019F000FFF772FEFFF7E6FE18B1FFF7BFFE01200A
:101A000070BD2846FFF768FEFFF7DCFE2046FFF7B3
:101A100063FEFFF7D7FE18B1FFF7B0FE0120EFE736
:101A2000FFF7ACFE0020EBE72DE9F04105460E463E
:101A300017469846FFF77EFE002141EA4501C8B2ED
:101A4000FFF74AFEFFF7BEFE20B1FFF797FE012029
:101A5000BDE8F0813046FFF73FFEFFF7B3FE0024FC
:101A60000CE018F80400FFF737FEFFF7ABFE18B1E3
:101A7000FFF784FE0120EBE7601CC4B2BC42F0DB40
:101A8000FFF77CFE0020E3E700BFFEE770470000A1
:101A900070B5002100230F22C47804B3154C2468CC
:101AA00004F4E064C4F5E064210AC1F10403CA400F
:101AB000447804FA03F184781440214309010E4C60
:101AC0000678A155047804F01F050124AC40057880
:101AD0006D11AD0005F1E025C5F8004109E004787D
:101AE00004F01F050124AC40044D0678761145F83A
:101AF000264070BD0CED00E000E400E080E100E075
:101B000070B500240EE00021204600F0F0F800251A
:101B100004E0002000F08DF9681CC5B2802DF8DBD0
:101B2000601CC4B2082CEEDB70BD000008B50121BA
:101B3000082000F0FFF914208DF8030003208DF831
:101B400002004FF48070ADF8000069460A48FFF7C4
:101B500057FC4FF40070ADF8000069460648FFF7E7
:101B60004FFC012211020448FFF7D9FC0122510267
:101B70000148FFF7D4FC08BD000C014070B50546D4
:101B8000002415E08020204100EA05024FF4007196
:101B90000E48FFF7C4FC012211020C48FFF7BFFCFE
:101BA00000224FF480710948FFF7B9FC601CC4B2F1
:101BB000082CE7DB012211020448FFF7B0FC0022E9
:101BC0004FF480710148FFF7AAFC70BD000C014082
:101BD00010B5012251020A48FFF7A1FC01221102AF
:101BE0000748FFF79CFC00224FF400710448FFF700
:101BF00096FC00224FF480710148FFF790FC10BD65
:101C0000000C014010B500224FF400710648FFF7A8
:101C100086FC012211020448FFF781FC01225102D7
:101C20000148FFF77CFC10BD000C014070B500249A
:101C300006E0002500E06D1CB5F57A7FFBD3641C3F
:101C4000B4F57A7FF5D3FFF771FFAE2000F0E1F82D
:101C5000D52000F0DEF8802000F0DBF8A82000F0AE
:101C6000D8F83F2000F0D5F8D32000F0D2F80020BB
:101C700000F0CFF8402000F0CCF8A12000F0C9F827
:101C8000C82000F0C6F8DA2000F0C3F8122000F0F7
:101C9000C0F8812000F0BDF8CF2000F0BAF8D920BC
:101CA00000F0B7F8F12000F0B4F8DB2000F0B1F854
:101CB000302000F0AEF8A42000F0ABF8A62000F031
:101CC000A8F88D2000F0A5F8142000F0A2F8AF20AD
:101CD00000F09FF8FFF714FF70BD10B50246012019
:101CE00000E050430B1EA1F10101FAD110BD70B507
:101CF00005460C4645F0B00000F08BF8102141EA93
:101D0000141000F086F804F00F0000F082F870BDA7
:101D10002DE9F04105460E461746721ED206110EF9
:101D20006A1E5206100EFFF7E2FF002409E0A7F139
:101D30002001134A02EB0111085D00F07AF8601CE3
:101D4000C4B2082CF3DB721ED206110E6A1E0123E8
:101D500003EB4202D0B2FFF7CAFF00240BE0A7F169
:101D60002001074A02EB011204F10801505C00F067
:101D700060F8601CC4B2082CF1DBBDE8F081000003
:101D8000D25D00082DE9F0478146884615461E467B
:101D9000002D06DB2B2241464846FFF7B9FF2F46B0
:101DA00005E02D2241464846FFF7B2FF6F4200246E
:101DB00017E0301B411E0A20FFF78FFFB7FBF0F042
:101DC0000A21B0FBF1F201FB120000F1300A08EB2E
:101DD0000400401CC1B252464846FFF799FF601C00
:101DE000C4B2B442E5DBBDE8F0872DE9F041074617
:101DF0000E461546002407E02A5D3019C1B2384668
:101E0000FFF786FF601CC4B2285D0028F4D1BDE84E
:101E1000F08110B50446FFF7DBFE7820FFF7AEFE39
:101E20000020FFF7ABFE2046FFF7A8FEFFF7EAFE13
:101E300010BD10B50446FFF7CBFE7820FFF79EFEDD
:101E40004020FFF79BFE2046FFF798FEFFF7DAFEE3
:101E500010BD000000B589B00121042000F06AF82F
:101E60000121022000F056F81E4800F0FDF918206C
:101E70008DF82300C020ADF8200003208DF822004B
:101E800008A91948FFF7BCFA0020ADF81A00ADF810
:101E900016004FF6FF70ADF818000020ADF81400E2
:101EA0008DF81C0005A90F4800F092FA01A800F077
:101EB0007FFA6020ADF804000120ADF80600002094
:101EC000ADF80C00ADF80A0001A9064800F0D2F9FF
:101ED00001A9044800F01AFA0121024800F08EF925
:101EE00009B000BD000400400008014010B50446E0
:101EF0002146024800F066FA10BD000000040040D0
:101F000010B504462146024800F05EFA10BD0000FC
:101F10000004004029B1064AD2690243044BDA6149
:101F200004E0034AD2698243014BDA617047000042
:101F30000010024029B1064A92690243044B9A619B
:101F400004E0034A92698243014B9A6170470000A2
:101F50000010024030B500210022002400232D4D46
:101F60006D6805F00C0121B1042905D0082923D1A1
:101F700005E0294D056022E0274D05601FE0254D55
:101F80006D6805F47012234D6D6805F480340225E8
:101F900005EB92421CB9214D554305600BE01D4DE8
:101FA0006D6805F400351DB11C4D5543056002E018
:101FB000194D5543056002E0174D056000BF00BF95
:101FC000144D6D6805F0F0010909154D6B5C05684D
:101FD000DD4045600F4D6D6805F4E061090A104D64
:101FE0006B5C4568DD4085600A4D6D6805F46051A5
:101FF000C90A0B4D6B5C4568DD40C560054D6D68D9
:1020000005F44041890B074D6B5CC568B5FBF3F5E2
:10201000056130BD0010024000127A0000093D0049
:102020007800002088000020704710B500F002F80A
:1020300010BD00000CB500200190009033480068EE
:1020400040F480303149086000BF3048006800F437
:10205000003000900198401C0190009818B9019838
:10206000B0F5A06FF1D12948006800F4003010B13C
:102070000120009001E0002000900098012843D149
:102080002348006840F010002149086008460068B5
:1020900020F0030008600846006840F00200086075
:1020A0001A48406819494860084640684860084630
:1020B000406840F4806048600846406820F47C1026
:1020C00048600846406840F4E810486008460068E8
:1020D00040F08070086000BF0C48006800F000709D
:1020E0000028F9D00948406820F0030007494860FB
:1020F0000846406840F00200486000BF034840685E
:1021000000F00C000828F9D10CBD000000100240BE
:102110000020024010B508210748FFF7FCF9102104
:102120000548FFF7F8F901210448FFF7F4F9022107
:102130000248FFF7F0F910BD00080140000C014013
:10214000042808D14FF0E021096941F004014FF063
:10215000E022116107E04FF0E021096921F004015C
:102160004FF0E0221161704710B500BFBF2080F32F
:102170001188BFF34F8FBFF36F8F00BF03F040F99B
:1021800018B14FF080500449086000BF002080F370
:10219000118800BF10BD000004ED00E010B5134829
:1021A000006840F001001149086008464068104985
:1021B00008400E494860084600680E4908400B492F
:1021C00008600846006820F48020086008464068DF
:1021D00020F4FE0048604FF41F008860FFF725FFE1
:1021E0004FF000600449086010BD0000001002407C
:1021F0000000FFF8FFFFF6FE08ED00E021B10288C5
:1022000042F00102028004E002884FF6FE731A4099
:1022100002807047F0B50C4615461E46002100228C
:1022200000230189028B038C4FF6F8773940214354
:102230004FF6FC473A4040F201173A434FF6DD773C
:102240003B404FF6FF7707EA06172F433B430181D8
:1022500002830384F0BD002101804180012181803F
:102260000021C1800181704701894FF6F872114049
:102270000181704770B5002400220023058C4FF6C1
:10228000FE7635400584028C8388048B4FF68F756B
:102290002C40B51E2C400D882C43751E2A400D89FC
:1022A0002A434D882A43144DA8420BD0134DA8420F
:1022B00008D0134DA84205D0124DA84202D0124DAD
:1022C000A84213D14FF6F7752A404D892A434FF69D
:1022D000FB752A408D882A434FF6FF652B404FF649
:1022E000FF552B408D892B43CD892B43838004835D
:1022F000CD888586028470BD002C014000340140E9
:1023000000400140004401400048014070B50024F5
:1023100000220023058C4FF6EF7635400584028CB1
:102320008388048B48F6FF752C404FF6FF452C4000
:102330000D884FF6FF7606EA05252C434FF6DF752C
:102340002A400D8906EA05152A434D8806EA051537
:102350002A43154DA84202D0144DA8421DD14FF674
:102360007F752A404D894FF6FF7606EA05152A4308
:102370004FF6BF752A408D8806EA05152A434FF6A9
:10238000FF352B404FF2FF752B408D8906EA8505FE
:102390002B43CD8906EA85052B4383800483CD88B2
:1023A0000587028470BD0000002C0140003401400C
:1023B0000021018041808180C18001814181818132
:1023C000C18170478186704701877047818470475B
:1023D000002202881D4B98420ED01D4B98420BD014
:1023E000B0F1804F08D01B4B984205D01A4B984251
:1023F00002D01A4B984204D14FF68F731A404B8883
:102400001A43174B984207D0164B984204D04FF608
:10241000FF431A40CB881A4302808B8883850B8840
:1024200003850A4B98420BD0094B984208D00E4BBB
:10243000984205D00D4B984202D00D4B984201D1E5
:102440000B7A03860123838270470000002C014031
:10245000003401400004004000080040000C00402F
:1024600000100040001400400040014000440140C2
:102470000048014010B52021054800F019F8012856
:1024800005D1034800F0B2F840B20249087010BD0F
:1024900000480040A400002021B1828942F400528B
:1024A000828104E082894DF6FF731A408281704771
:1024B00002460020B1F5007F00D100BF13880B4019
:1024C0000BB1012000E000207047F0B50346002466
:1024D00000260025002040F66A17B94200D100BF4F
:1024E0001846C1F3421401F01F06012707FA06F54A
:1024F000012C01D10C3004E0022C01D1103000E09D
:1025000014301AB107682F43076002E00768AF4331
:102510000760F0BD2DE9F04786B005460E46002461
:10252000A24600BFA1460027B08900B100BF2F46D8
:102530002C8A4CF6FF700440F08804432C82AC894E
:102540004EF6F3100440B08831890843718908437E
:102550000443AC81AC8A4FF6FF400440B089044389
:10256000AC8201A8FFF7F6FC1F48874202D1DDF8D4
:1025700010A001E0DDF80CA0A88900F4004040B1F3
:102580000AEBCA0000EB0A1031684900B0FBF1F811
:1025900007E00AEBCA0000EB0A1031688900B0FBC3
:1025A000F1F86420B8FBF0F004012009642101FB7C
:1025B0001089A88900F4004040B1322000EBC90026
:1025C000B0FBF1F000F00700044308E0322000EB1C
:1025D00009106421B0FBF1F000F00F0004432C81DE
:1025E00006B0BDE8F0870000003801400146888849
:1025F000C0F30800704700BFFEE730380A2801D258
:1026000001207047002070472DE9FE4F06460F4617
:102610000025684600F0BCFD002442E056F8240086
:1026200057F82410A0EB010ABAF1000F01DB514664
:1026300001E0CAF10001084603F0F8F983464FF0C3
:102640008F4103F0C1F880465DF82400002103F0BB
:102650007DF916D05DF82410404603F0B5F88246A7
:102660004FF07E5103F040FB814629F0004A0F48AD
:10267000416A504603F006FB12D20120A0400543F8
:102680000EE00A48C169404603F0FCF905D307484B
:10269000016A404603F0F6FA02D20120A040054349
:1026A000641C032CBADB2846BDE8FE8FEC630008EF
:1026B00010B56FF00400FFF743FD0A4800680A49AF
:1026C000B0FBF1F0094908700846007800EB4001C2
:1026D000C1EBC0104FF6FF7101EAC0000449088049
:1026E00010BD00000000002000127A008C000020C5
:1026F0008E0000200146114A12884A434FF0E02321
:102700005A6100229A611A46126942F001021A6166
:1027100000BF4FF0E022106900F001021AB100F48E
:102720008032002AF5D04FF0E022126922F0010237
:102730004FF0E0231A6100229A6170478E0000205A
:102740000146114A12784A434FF0E0235A610022B1
:102750009A611A46126942F001021A6100BF4FF0F5
:10276000E022106900F001021AB100F48032002A60
:10277000F5D04FF0E022126922F001024FF0E02381
:102780001A6100229A6170478C00002038B5044617
:1027900064B120208DF8000028208DF80100302041
:1027A0008DF8020038208DF8030004E0A3220421F4
:1027B0006846FDF795FE6A46042140F69E2001F02A
:1027C000BFFF01F0A9FB38BD3EB5044602208DF8DD
:1027D0000000CA208DF80100E3208DF802000920D6
:1027E0008DF803006A460421682001F0A9FFA320A8
:1027F0008DF8000004F0400048B1C0208DF80100C1
:10280000C8208DF80200C2208DF8030006E0A32046
:102810008DF801008DF802008DF8030004F4C070FB
:1028200048B1C4208DF80400CC208DF80500C620E6
:102830008DF8060006E0A3208DF804008DF8050051
:102840008DF80600A3208DF807008DF808008DF89C
:1028500009006A460A2140F6A72001F071FF04F042
:10286000030018B120208DF8000002E0D8208DF878
:1028700000006A46012140F6B62001F061FF04F035
:10288000200018B1012000F0ADF802E0002000F0B7
:10289000A9F804F4C07008B304F4807060B1B220E9
:1028A0008DF800008B208DF80100B6208DF8020015
:1028B0009B208DF803000BE0B0208DF800008020F5
:1028C0008DF80100B4208DF8020090208DF80300EF
:1028D0006A46042140F6A22001F032FF04F0010014
:1028E00020B3F8208DF800006A4601214FF40B60F8
:1028F00001F026FFFA21072000F046FB072000F038
:102900000DFB012000F02DFB642000F00DFC4FF4C6
:10291000FA7000F01CFCC821304800F0BDFA2820F5
:1029200000F0D6FA0A2000F0E6FA08E0D8208DF888
:1029300000006A4601214FF40B6001F001FF04F032
:10294000020018B1D9208DF8000002E0D8208DF8DF
:1029500000006A46012140F23D7001F0F1FE04F0F2
:10296000040018B1012000F069F802E0002000F036
:1029700065F804F0100018B10120FFF707FF02E02E
:102980000020FFF703FF44F008001549488101F0DB
:10299000C3FA00201249887304F0400018B10846B9
:1029A000807B801D887304F4C07020B10C48807B4C
:1029B000801D0B49887304F0140020B10848807B07
:1029C00010300749887304F0030020B10448807B6D
:1029D000001D0349887300203EBD000009E3CA02C0
:1029E000B44500203EB504466CB10EA1D1E90020EB
:1029F0008968CDE9002002916A4609214FF4976069
:102A000001F09EFE3EBD0AA2D2E900109268CDE917
:102A1000010200916A4609214FF4976001F090FE8F
:102A2000F0E70000B8AAB38DB4980D355D00000042
:102A3000B8AAAAAAB088C3C5C700000038B5044622
:102A400064B1C0208DF80000C2208DF80100C420C0
:102A50008DF80200C6208DF8030004E08B220421CB
:102A60006846FDF73DFD6A46042140F6982001F0D6
:102A700067FE01F051FA38BD10B5C8234FF48062EB
:102A8000024940F6F63001F03BF910BD146400082D
:102A900070B588B0064601A800F086FFBDF80400B6
:102AA0000021C90341EA5045C4034448007A00F0BC
:102AB000030056F8200005904048007A00F004001A
:102AC00010B10598404205903C48007AC0F3C1001F
:102AD00056F8200006903948007A00F0200010B126
:102AE0000698404206903548007AC0F3811056F8A7
:102AF000200007903148008900F4807010B10798D9
:102B0000404207900598C117A0FB042301FB043144
:102B100000FB0510810041EA927005900698C117EC
:102B2000A0FB042301FB043100FB0510810041EAF6
:102B3000927006900798C117A0FB042301FB043193
:102B400000FB0510810041EA927007900598000E85
:102B50008DF808000598000C8DF809000598000A0A
:102B60008DF80A000598C0B28DF80B000698000E8B
:102B70008DF80C000698000C8DF80D000698000AE0
:102B80008DF80E000698C0B28DF80F000798000E61
:102B90008DF810000798000C8DF811000798000AB6
:102BA0008DF812000798C0B28DF8130002AA0C210C
:102BB0004FF4257001F0C4FD08B070BDB44500208D
:102BC00030B585B0044616A207CA02AB07C3C82CAD
:102BD00003DD4FF0FF3005B030BDC82090FBF4F0AE
:102BE000401E85B2280A8DF80000E8B28DF8010079
:102BF0006A46022140F2162001F0A2FD10B14FF00A
:102C0000FF30E8E702AA0C2140F6C12001F098FD50
:102C100010B14FF0FF30DEE7044884810020DAE78E
:102C2000FEF2ABC4AAF1DFDFBBAFDFDFB4450020AB
:102C30001FB504464848007A00F0030054F820000D
:102C400001904548007A00F0040010B1019840421C
:102C500001904148007AC0F3C10054F8200002906E
:102C60003D48007A00F0200010B1029840420290E6
:102C70003948007AC0F3811054F820000390364898
:102C8000008900F4807010B10398404203903349EA
:102C9000019880FB0101800F40EA810001902F49DB
:102CA000029880FB0110820042EA917002902B4949
:102CB000039880FB0110820042EA91700390019812
:102CC000000E8DF800000198000C8DF801000198AD
:102CD000000A8DF802000198C0B28DF803006A4620
:102CE00004214FF4747001F02BFD18B14FF0FF3048
:102CF00004B010BD0298000E8DF800000298000C80
:102D00008DF801000298000A8DF802000298C0B206
:102D10008DF803006A4604214FF4757001F010FD30
:102D200010B14FF0FF30E3E70398000E8DF800007C
:102D30000398000C8DF801000398000A8DF802003A
:102D40000398C0B28DF803006A4604214FF47670F0
:102D500001F0F6FCCCE70000B445002009E3CA020C
:102D600010B586B0044647A00068039046A00068EE
:102D7000029046A00068019045A00068009004F011
:102D8000030003A9085C8DF8140003A8C4F3C10173
:102D9000405C8DF8150003A8C4F38111405C8DF8E8
:102DA000160004F0030002A9085C8DF8100002A8C8
:102DB000C4F3C101405C8DF8110002A8C4F3811175
:102DC000405C8DF8120005AA032140F2264001F074
:102DD000B7FC18B14FF0FF3006B010BD04AA0321B4
:102DE00040F22A4001F0ACFC10B14FF0FF30F3E7A5
:102DF000019805900098049004F0040058B19DF8E3
:102E0000140040F001008DF814009DF8100040F00F
:102E100001008DF8100004F0200058B19DF8150055
:102E200040F001008DF815009DF8110040F0010000
:102E30008DF8110004F4807058B19DF8160040F030
:102E400001008DF816009DF8120040F001008DF889
:102E5000120005AA03214FF4886001F071FC10B143
:102E60004FF0FF30B8E704AA032140F2314001F0EF
:102E700067FC10B14FF0FF30AEE706480481002038
:102E8000AAE700004CCD6C000CC92C003656760029
:102E900026466600B4450020F8B505460E464FF4B8
:102EA0007A7095FBF0F000FB06F4200E8DF8000020
:102EB000200C8DF80100200A8DF80200E0B28DF898
:102EC00003006A4604214FF4AE7001F039FCF8BDEE
:102ED00038B50446052094FBF0F084B220128DF83A
:102EE0000000E0B28DF801006A4602214FF4AD7097
:102EF00001F026FC38BD38B50446052094FBF0F0FF
:102F000084B220128DF80000E0B28DF801006A460C
:102F100002214FF4AC7001F013FC38BD38B5044603
:102F20000020009004F0010020B19DF8000040F066
:102F30003000009004F0020020B19DF8000040F045
:102F40000C00009004F0040020B19DF8000040F057
:102F5000030000906A4601214FF4A47001F0F0FBD9
:102F600038BD38B50446012C01DA012402E0042CF6
:102F700000DD0424601EC0B200906A46012140F2C8
:102F80004F1001F0DDFB38BD2DE9FC4706460F462A
:102F900006F0070010B1B7F5C86F03DD4FF0FF3042
:102FA000BDE8FC87384602F059FD8146594902F0D8
:102FB0000BFC8046684600F0D1FC9DF8000002281A
:102FC00006D0042816D0082826D0102848D135E08D
:102FD0004FF08D41404602F089FD814602F006FD2A
:102FE00084B24D49404602F081FD814602F0FEFC6C
:102FF00085B238E04FF08C41404602F077FD8146C3
:1030000002F0F4FC84B24549404602F06FFD81466F
:1030100002F0ECFC85B226E04FF08B41404602F016
:1030200065FD814602F0E2FC84B23D49404602F073
:103030005DFD814602F0DAFC85B214E04FF08A4172
:10304000404602F053FD814602F0D0FC84B235497F
:10305000404602F04BFD814602F0C8FC85B202E01A
:103060004FF0FF309CE700BF20128DF80400E0B263
:103070008DF8050028128DF80600E8B28DF80700DB
:1030800006F00100A0B101AA02214FF4EA7001F09C
:1030900057FB10B14FF0FF3082E70DF1060202211D
:1030A0004FF4927001F04CFB10B14FF0FF3077E716
:1030B00006F00200A0B101AA02214FF4EC7001F069
:1030C0003FFB10B14FF0FF306AE70DF1060202211D
:1030D0004FF4947001F034FB10B14FF0FF305FE714
:1030E00006F00400A0B101AA02214FF4EE7001F035
:1030F00027FB10B14FF0FF3052E70DF1060202211D
:103100004FF4967001F01CFB10B14FF0FF3047E711
:10311000002045E700004843000040460000C0454D
:10312000000040450000C04438B50446052094FB2B
:10313000F0F085B228128DF80000E8B28DF8010099
:103140006A4602214FF4EF7001F0FAFA38BD38B543
:103150000446052094FBF0F085B228128DF800009B
:10316000E8B28DF801006A4602214FF4ED7001F0DB
:10317000E7FA38BD8A68002A01DCFDF727BC521E39
:103180008A604A68C0B2531C4B60107070470000E0
:103190007CB5054628494968087801AB04220D2111
:1031A000FEF79CFB08B107207CBD9DF80700C0F32B
:1031B00001109DF8041001F0E00140EAE1008DF8F3
:1031C00000009DF80700C0F381009DF8051001F094
:1031D000E00140EAE1008DF801009DF8070000F0F1
:1031E00003009DF8061001F0E00140EAE1008DF8CF
:1031F000020000241CE01DF8040018B9002045F866
:10320000240013E00D4845F8240006E055F824009A
:103210000B4902F06BFC45F824001DF80400401E29
:10322000C0B20DF804000028F0D100BF601CC4B289
:10323000032CE0DB0020B7E7A80000207B14AE3EA3
:103240001D5A843F2DE9F04F87B005460C46914644
:1032500001208DF8100000208DF81100FE4A126840
:10326000917CFD4A5268107804AB0222FEF7DCFB29
:1032700020B14FF0FF3007B0BDE8F08FC820FFF756
:1032800039FA00208DF81000F34A1268D17BF24A17
:103290005268107804AB0122FEF7C6FB10B14FF064
:1032A000FF30E8E7EC4A12685179EB4A526810782F
:1032B00004AB0122FEF7B8FB10B14FF0FF30DAE7A4
:1032C000E54A1268917CE44A5268107804AB012206
:1032D000FEF7AAFB10B14FF0FF30CCE7DE4A1268D0
:1032E000D17DDD4A5268107804AB0122FEF79CFBC9
:1032F00010B14FF0FF30BEE7D74A12681179D64AB5
:103300005268107804AB0122FEF78EFB10B14FF02B
:10331000FF30B0E70C208DF81000CF4A1268117909
:10332000CD4A5268107804AB0122FEF77DFB10B144
:103330004FF0FF309FE70F20FFF7DCF9C648806AA7
:10334000407A8DF81000C44A12689178C24A5268D7
:10335000107804AB0122FEF767FB10B14FF0FF308D
:1033600089E7BD48806A007A8DF81000BA4A126871
:103370005178B94A5268107804AB0122FEF754FB29
:1033800010B14FF0FF3076E7B9F1000F07D0B24827
:10339000806A807A40F0E0008DF8100004E0AE48CA
:1033A000806A807A8DF81000AB4A12689179AA4A37
:1033B0005268107804AB0122FEF736FB10B14FF0D3
:1033C000FF3058E7B9F1000F07D0A348806AC07AF0
:1033D00040F0E0008DF8100003E0A048C07A8DF8BE
:1033E00010009D4A1268D1799B4A5268107804AB4C
:1033F0000122FEF719FB10B14FF0FF303BE7B9F1A6
:10340000000F02D0C820FFF775F940208DF810009A
:10341000914A12681179904A5268107804AB0122DF
:10342000FEF702FB10B14FF0FF3024E778208DF853
:103430001000894A12685179874A5268107804ABA3
:103440000122FEF7F1FA10B14FF0FF3013E7834984
:103450008889FFF74FF900208DF810007E4A126826
:1034600051797D4A5268107804AB0122FEF7DCFAEC
:1034700010B14FF0FF30FEE6774A1268917A764A33
:103480005268107804AB0222FEF728FA10B14FF010
:10349000FF30F0E69DF811009DF8101040EA012B76
:1034A0000C209BFBF0F0C6B20020A860686028608A
:1034B000A06060602060824665E0674A1268D17A49
:1034C000654A5268107804AB0C22FEF707FA10B177
:1034D0004FF0FF30CFE69DF811009DF8101040EA44
:1034E000012000B2ADF808009DF813009DF81210FD
:1034F00040EA012000B2ADF80A009DF815009DF8E1
:10350000141040EA012000B2ADF80C00BDF908101B
:10351000206808442060BDF90A10606808446060B3
:10352000BDF90C10A0680844A0609DF817009DF834
:10353000161040EA012000B2ADF800009DF8190015
:103540009DF8181040EA012000B2ADF802009DF885
:103550001B009DF81A1040EA012000B2ADF80400EB
:10356000BDF90010286808442860BDF90210686899
:1035700008446860BDF90410A8680844A8600AF10E
:10358000010000F0FF0AB24597DB3448D0F800C0D4
:103590002868C117090441EA104107046246002364
:1035A0003846FCF769FE32460023CDE90201FCF7FC
:1035B00063FE28602948D0F800C06868C117090474
:1035C00041EA10410704624600233846FCF754FEE6
:1035D00032460023CDE90201FCF74EFE68601F4829
:1035E000D0F800C0A868C117090441EA10410704D7
:1035F000624600233846FCF73FFE32460023CDE901
:103600000201FCF739FEA8601448D0F804C0216814
:10361000C817000440EA11480F04624600233846E8
:103620004146FCF729FE32460023CDE90201FCF7B2
:1036300023FE20600948D0F804C06068C11709045F
:1036400041EA10410704624600233846FCF714FEA5
:103650003246002304E00000A8000020EC630008CC
:10366000CDE90201FCF708FE60601148D0F804C003
:10367000A068C117090441EA10410704624600230B
:103680003846FCF7F9FD32460023CDE90201FCF78C
:10369000F3FDA060A068002804DDA068A0F58030DC
:1036A000A06003E0A06800F58030A0600020E2E5A3
:1036B000EC6300082DE9FC5F06460F4600253D49F6
:1036C0004968087801AB03220D21FEF707F910B114
:1036D0000720BDE8FC9F9DF8040000F01F008DF856
:1036E00004009DF8050000F01F008DF805009DF80E
:1036F000060000F01F008DF80600002456E056F882
:10370000240057F82410A0EB010BBBF1000F01DBE4
:10371000594601E0CBF10001084602F087F94FF06D
:103720008F41009002F050F8814601A8005D68B317
:103730002149086802F092F9834659461F4802F071
:1037400043F8804604E01E49404602F0CFF9804627
:1037500001A8005D401EC0B201A908550028F2D1A1
:103760004146484602F030F883464FF07E5102F061
:10377000BBFA82462AF0004B0F488169584602F096
:1037800081FA12D20120A04005430EE00A480169E7
:10379000484602F077F905D307484169484602F0E8
:1037A00071FA02D20120A0400543641C032CA6DB61
:1037B00028468EE7A8000020EC63000800B04C45C6
:1037C00054E3853F10B50446204600F00FF8034649
:1037D000E01C00F00BF843EAC00083B2A01D00F02B
:1037E00005F843EA801083B2184610BD014691F9EE
:1037F0000020002A01DD00201EE091F90020002AAF
:1038000001DA042018E091F90120002A01DD0120ED
:1038100012E091F90120002A01DA05200CE091F96B
:103820000220002A01DD022006E091F90220002A90
:1038300001DA062000E00720704710B5FDF78CFE86
:1038400001F014FD01F024FD002010BD70B5044608
:10385000002624F00104184890F8240008B1002044
:1038600070BD1548807A10B94FF0FF30F8E7124864
:10387000057C807A2040104908740846007CA042EC
:1038800002D04FF0FF3600E0002614B90A48007D50
:1038900018B1012001F092FA02E0002001F08EFA46
:1038A0003CB100F039FB20B1034805744FF0FF3004
:1038B000D6E73046D4E70000A800002070B5002409
:1038C000FDF7ADFE00F024F9002840D1782000F08B
:1038D000CFFEC4B20CB1012070BD7820FFF7B6FF57
:1038E000C4B20CB10220F7E7C82000F073FEC4B2E6
:1038F0000CB10320F0E7FFF7BFF8C4B20CB104200D
:10390000EAE71548FFF75EFF0546FFF729FAC4B25C
:103910000CB10520E0E740F27310FEF755FFC4B28A
:103920000CB10620D8E7C820FFF74AF9C4B20CB1A1
:103930000720D1E701F0F8F904460CB10820CBE7E5
:10394000012000F043FDC4B21CB10920C4E70A20E5
:10395000C2E70020C0E70000D40000200146114863
:10396000407A30B1012807D0022808D003280CD1B2
:1039700008E0022008700BE00420087008E008202E
:10398000087005E01020087002E04FF0FF3070472B
:1039900000BF0448C07C18B108784006000E0870CB
:1039A0000020F4E7A800002001461348407A30B117
:1039B000012808D002280AD0032810D10BE04FF4C8
:1039C000804008800EE041F69C7008800AE04FF4C9
:1039D0008050088006E04FF40060088002E04FF05D
:1039E000FF30704700BF0448C07C10B10888401009
:1039F00008800020F5E70000A800002001460248EA
:103A0000007C087000207047A800002001460F4885
:103A1000007A30B1012807D0022809D003280FD13D
:103A20000AE0FA2008800EE04FF4FA7008800AE0FD
:103A30004FF47A70088006E04FF4FA60088002E0E4
:103A40000020088000BF00BF00207047A8000020B1
:103A500001460E48007A30B1012807D0022808D06C
:103A600003280CD108E00A4808600BE00948086008
:103A700008E00948086005E00848086002E04FF0E7
:103A8000FF30704700BF0020FBE70000A8000020C7
:103A90000000034300008342333303423333834146
:103AA00001461248C07A082817D2DFE800F0170450
:103AB000070A0D101318BC20088013E0622008804C
:103AC00010E02A2008800DE0142008800AE00A2077
:103AD000088007E00520088004E000BF00BF002048
:103AE000088000BF00BF002070470000A800002031
:103AF0000146064890F8240010B14FF0FF3070479F
:103B00000248C08908800020F9E70000A8000020D2
:103B10001CB580208DF80000654A1268917C644ACB
:103B2000526810786B460122FDF77EFF10B14FF00E
:103B3000FF301CBD6420FEF7DDFD00208DF8000085
:103B40005B4A1268917C5A4A526810786B4601228F
:103B5000FDF76AFF10B14FF0FF30EAE7544A1268F0
:103B6000917D534A526810786B460622FDF7B6FEE7
:103B700010B14FF0FF30DCE79DF80500C007400FA3
:103B80009DF8031001F0010140EA41009DF8011089
:103B900001F0010140EA010494B1012C03D101219B
:103BA0004348C17431E0022C03D100214048C17464
:103BB0002BE021463FA0FCF783FB4FF0FF30B8E736
:103BC0003B4A1268D1783A4A526810786B46012213
:103BD000FDF784FE10B14FF0FF30AAE79DF800001A
:103BE00000F00F042CB93D48FCF76AFB4FF0FF30A2
:103BF0009FE7042C06D13AA0FCF762FB01212C4878
:103C0000C17402E000212A48C174FF212848817252
:103C1000FF2027490872FF2125484172C1724FF6E3
:103C2000FF71C181FF21017481740121017380F84A
:103C30002210002180F823104175017516300160B3
:103C400041608160163880F8241080F82510C18406
:103C50004FF4FA6000F002FC10B14FF0FF3068E75B
:103C6000022000F0CBFA10B14FF0FF3061E72A20BC
:103C700000F06EFC10B14FF0FF305AE7322000F038
:103C8000A9FC10B14FF0FF3053E70020FFF7DEFD35
:103C900010B14FF0FF304CE7002000F0F1FA10B106
:103CA0004FF0FF3045E7002000F0E2FC002040E745
:103CB000A8000020556E737570706F727465642073
:103CC000736F6674776172652070726F6475637468
:103CD000207265762025642E0A00000028700008F6
:103CE00048616C662073656E73697469766974796E
:103CF000207061727420666F756E642E0A00000079
:103D00002DE9F04385B005460E4690469946294870
:103D100090F8250020B14FF0FF3005B0BDE8F083EA
:103D200016B94FF0FF30F8E7002423E0281B1028D5
:103D300001DD102000E0281B87B2321939462046E9
:103D400000F0FEFC10B14FF0FF30E6E701AA394663
:103D5000204600F0A1F810B14FF0FF30DDE7301938
:103D60003A4601A9FCF790FB10B16FF00100D4E7CF
:103D7000E01984B2AC42D9DB4FEA28208DF800006C
:103D800008F0FF008DF801000A4A1268917E094A86
:103D9000526810786B460222FDF746FE10B14FF0D4
:103DA000FF30BAE70121034880F82510A0F82690DB
:103DB0000020B2E7A800002038B50446282C02DD18
:103DC0004FF0FF3038BDDCB9002000F08BFB002045
:103DD0008DF8000007208DF801002E4A1268917CB2
:103DE0002C4A526810786B460222FDF71DFE10B176
:103DF0004FF0FF30E6E70021264801750020E1E79B
:103E0000012000F06FFB20208DF80000012C06D16E
:103E100000208DF80100052000F09AFB17E0052C2A
:103E200006DC01208DF80100052000F091FB0EE07A
:103E3000142C06DC02208DF801000A2000F088FB1B
:103E400005E003208DF80100142000F081FB9DF8AF
:103E50000100072101EB8010C0B28DF801000D4A6E
:103E60001268917C0B4A526810786B460222FDF76B
:103E7000DBFD10B14FF0FF30A4E708210548817247
:103E800000210173012101750020FFF7DFFC0020F4
:103E900098E70000A8000020F8B504460D46164635
:103EA00016B94FF0FF30F8BD1A48807A10B94FF0BC
:103EB000FF30F8E720128DF80000E0B28DF8010025
:103EC0009DF801002844134949684989884202DD68
:103ED0004FF0FF30E7E70F4A1268117E0D4A526833
:103EE00010786B460222FDF79FFD10B14FF0FF30B6
:103EF000D9E7084A1268517D064A5268107833465D
:103F00002A46FDF7EBFC10B14FF0FF30CBE7002065
:103F1000C9E70000A800002008B57048807A10B9F1
:103F20004FF0FF3008BD002000906C4A1268D17B32
:103F30006A4A526810786B460122FDF775FD10B190
:103F40004FF0FF30EEE7654A12685179634A5268D4
:103F500010786B460122FDF767FD10B14FF0FF307E
:103F6000E0E75E4A126811795C4A526810786B4645
:103F70000122FDF759FD10B14FF0FF30D2E757484D
:103F800090F82400002853D00C200090534A126867
:103F90001179524A526810786B460122FDF744FDB0
:103FA00010B14FF0FF30BDE73220FEF7A3FBC02079
:103FB00000904A48807A00F0010020B19DF800008E
:103FC00040F020000090454A12681179434A526837
:103FD00010786B460122FDF727FD10B14FF0FF303E
:103FE000A0E73E48407C10B10220009001E0002094
:103FF00000903A4A1268D17B384A526810786B4672
:104000000122FDF711FD10B14FF0FF308AE70020CB
:104010000090324A12685179304A526810786B46E3
:104020000122FDF701FD002855D04FF0FF3079E760
:1040300004200090294A12681179284A52681078A1
:104040006B460122FDF7F0FC10B14FF0FF3069E73D
:104050002248807C20B92148807A00F0010010B904
:104060004020009001E0602000901C4A1268117905
:104070001A4A526810786B460122FDF7D5FC10B140
:104080004FF0FF304EE73220FEF734FB1348407C00
:1040900010B10120009001E0002000900F4A12684A
:1040A000D17B0E4A526810786B460122FDF7BCFCAA
:1040B00010B14FF0FF3035E7084A12685179074ACE
:1040C00052681078054B10330122FDF7ADFC10B19A
:1040D0004FF0FF3026E7002024E70000A800002072
:1040E0002DE9F04F8DB083460F4602200C904248D8
:1040F00090F8240020B1002000F068F9012600E0CB
:10410000002603A8FFF782FC05A8FFF727FC01A8FB
:10411000FFF7C6FC02A8FFF7EBFC374890F80AA0AF
:1041200004A8FFF76BFC002407E00022394658463C
:10413000FFF788F800B902E0641C022CF5DB00BF31
:10414000022C01D1002528E0002407E0012206A965
:1041500009A8FFF777F800B902E0641C022CF5DB30
:1041600000BF022C01D1002517E006A93846FEF752
:104170004BFA00F0FF0809A95846FFF79BFA00F038
:10418000FF090025B9F1000F01D145F00105B8F193
:10419000000F01D145F0020500BFFF20164908724B
:1041A000FF2115484172C1724FF6FF71C181FF2195
:1041B0008172017401210173BDF80C0000F04EF909
:1041C0009DF8140000F01AF8BDF8040000F0C0F9E2
:1041D000BDF8080000F0FEF9504600F049FA9DF8DD
:1041E0001000FFF733FB16B1012000F0EFF828466E
:1041F0000DB0BDE8F08F0000A800002038B50446DF
:104200001E48807A10B94FF0FF3038BD022C06D01E
:10421000042C07D0082C08D0102C0CD108E000206A
:1042200000900BE00820009008E01020009005E0CE
:104230001820009002E04FF0FF30E6E700BF0F4883
:10424000407A9DF80010B0EBE10F01D10020DCE7CF
:104250000A4A1268D179094A526810786B460122DD
:10426000FDF7E2FB10B14FF0FF30CEE79DF8000004
:10427000C110024841720020C7E70000A8000020DA
:1042800038B504465048807CA04201D1002038BD9A
:10429000002C46D04C4A126811794B4A526810786B
:1042A0006B460122FDF71AFB10B14FF0FF30EEE72D
:1042B0009DF8000020F020000090434A1268117918
:1042C000414A526810786B460122FDF7ADFB10B1F0
:1042D0004FF0FF30DBE70320FEF70CFA02200090DE
:1042E000394890F8220020B19DF8000040F080008D
:1042F0000090354890F8230020B19DF8000040F070
:1043000030000090304A1268117D2F4A52681078B0
:104310006B460122FDF788FB002851D04FF0FF309B
:10432000B5E7294A12681179274A526810786B4616
:104330000122FDF7D3FA10B14FF0FF30A7E7224872
:10434000807A00F0010028B19DF8000040F02000C4
:10435000009004E09DF8000020F0200000901A4A30
:1043600012681179184A526810786B460122FDF7DD
:104370005BFB10B14FF0FF3089E70320FEF7BAF97D
:10438000114890F8220010B18020009001E0002038
:1043900000900D4890F8230020B19DF8000040F0F7
:1043A00030000090084A1268117D074A5268107860
:1043B0006B460122FDF738FB10B14FF0FF3066E786
:1043C00001488474002062E7A800002038B5044644
:1043D000214890F82400A04201D1002038BD24B328
:1043E0001D4890F8250010B94FF0FF30F6E7002087
:1043F00000F0E4FC0020FFF743FF1749C88C00F0F1
:10440000E9F8002000901449496808786B460122B9
:104410002321FDF709FB01210F4880F8241001201A
:1044200000F0CCFCFFF778FD13E0002000F0C6FCA4
:104430000948007C00900849496808786B460122C9
:104440002321FDF7F1FA0021034880F82410FFF73B
:1044500063FD0020C2E70000A800002038B5044634
:104460001F48807A10B94FF0FF3038BDFA2C09D0C0
:10447000B4F5FA7F09D0B4F57A7F09D0B4F5FA6FB4
:104480000CD108E0002000900BE00820009008E02C
:104490001020009005E01820009002E04FF0FF305F
:1044A000E3E700BF0E48007A9DF80010B0EBE10F83
:1044B00001D10020D9E70A4A12689179084A526866
:1044C00010786B460122FDF7AFFA10B14FF0FF30C4
:1044D000CBE79DF80000C010014908720020C4E736
:1044E000A800002038B50446184890F82300A042E0
:1044F00001D1002038BD14B13020009001E000202F
:1045000000901248807C20B19DF8000040F002002D
:1045100000900E4890F8220020B19DF8000040F075
:1045200080000090094A1268117D084A526810788C
:104530006B460122FDF778FA10B14FF0FF30D9E752
:10454000024880F823400020D4E70000A8000020A3
:1045500038B504461E48807A10B94FF0FF3038BD98
:10456000BC2C02DB0120009015E0622C02DB022053
:10457000009010E02A2C02DB032000900BE0142CAA
:1045800002DB0420009006E00A2C02DB05200090EC
:1045900001E0062000900E48C07A9DF80010884285
:1045A00001D10020DBE70A4A12689178084A526874
:1045B00010786B460122FDF737FA10B14FF0FF304B
:1045C000CDE79DF800100248C1720020C7E7000047
:1045D000A800002038B504462448807A10B94FF06E
:1045E000FF3038BD214890F8240010B14FF0FF3063
:1045F000F7E71E48007D50B134B1282C04DCE0B24E
:10460000FFF7DAFB0020ECE70020FFF7D5FB042CD6
:1046100001DA042404E0B4F57A7F01DD4FF47A7402
:104620004FF47A7090FBF4F0401EC0B200900F4A35
:10463000126851780D4A526810786B460122FDF7D6
:10464000F3F910B14FF0FF30CBE79DF80000401CAC
:104650004FF47A7191FBF0F081B20448C1810146B8
:10466000C9894810FFF774FF0020BAE7A8000020AE
:1046700038B5044604F0700010B10120009005E048
:1046800014B10020009001E0402000902B4A1268F5
:10469000917C2A4A526810786B460122FDF7C4F9D2
:1046A00020B1002125488172481E38BD9DF80000C8
:1046B00020F04001214801730020009004F04000E8
:1046C00020B99DF8000040F00400009004F02000A4
:1046D00020B99DF8000040F00200009004F01000A6
:1046E00020B99DF8000040F00100009004F008009F
:1046F00020B99DF8000040F0380000900F4A126881
:10470000D17C0E4A526810786B460122FDF78CF975
:1047100020B1002109488172481EC6E724B1082C47
:1047200002D00020FFF7DEFE0448847200210175EC
:104730003220FDF7DFFF0020B7E70000A8000020CF
:10474000F8B504460D46164616B94FF0FF30F8BDD1
:104750001A48807A10B94FF0FF30F8E720128DF830
:104760000000E0B28DF801009DF8010028441349D3
:1047700049684989884202DD4FF0FF30E7E70F4A78
:104780001268117E0D4A526810786B460222FDF7BE
:104790004BF910B14FF0FF30D9E7084A1268517D4C
:1047A000064A5268107833462A46FDF73DF910B1A3
:1047B0004FF0FF30CBE70020C9E70000A800002041
:1047C0002DE9F04105460E46264807682648006850
:1047D000001D00F03BFB50B92348006890F82C10F6
:1047E0000120884021490968814320480160681CF4
:1047F000D8B9D6B11E4948681B49096888601A496A
:1048000082680968CA6018490968091D8268516090
:1048100015490968091D8160154A134909684A61EB
:1048200011460968491C11601AE07C190E4800689D
:104830004460BC4207D20C480168091D0D4800685D
:1048400000F034FB0CE008480168091D0A480068C4
:1048500000F02CFB09480068844201D2074804603C
:10486000BDE8F08128000020140000202C0000206A
:10487000A00100201C00002018000020440000209F
:1048800010B5044600F0B0FB2F480068401C2E49CC
:1048900008602E48006840B92C480460084600684B
:1048A00001280DD100F024F90AE02948006838B940
:1048B00026480068C06AE16A884201D8234804603B
:1048C00024480068401C2349086094F82C100120FB
:1048D00088402149096808431F490860E16A01EBE3
:1048E00081011E4A02EB81014868A0608268E26093
:1048F000211D826851608160E16A01EB8101174AE4
:1049000002EB81026261E16A01EB8101134A52F814
:104910002110491CE26A02EB8202104B43F822107C
:1049200000F074FB0A48006868B108480068C06A73
:10493000E16A884207D24FF0805009490860BFF30E
:104940004F8FBFF36F8F10BD240000201400002094
:1049500030000020400000202C000020EC0000204F
:1049600004ED00E010B516E000F03EFB0C48C06816
:10497000C468201D00F06AFA0A480068401E094910
:10498000086009480068401E0749086000F03EFBC7
:10499000204600F00BF8044800680028E4D110BD60
:1049A0008C010020240000202000002010B50446C7
:1049B000206B00F03BFB204600F038FB10BD0000F0
:1049C00030B54FF48843174800F007042CB1C01DE0
:1049D00020F00700134C041B1B1B0246124C2260E4
:1049E0000024114D6C60D018083820F007000F4CDF
:1049F000206000240D4D2D686C600C4D2D682C60DE
:104A00001146441A4C60094C24680C60084D4C68EF
:104A10002C60084D4C682C604FF00044064D2C6013
:104A200030BD0000B40100205800002060000020CC
:104A300068000020640000207400002000BFFFF721
:104A400091FF064800680128F9D94FF080500449C9
:104A50000860BFF34F8FBFF36F8FF0E7EC000020CB
:104A600004ED00E02DE9FF5F80460E469146DDE94A
:104A70000E7A109CA9F10100216B01EB800B2BF049
:104A8000070B86B1002507E0715D04F13400415544
:104A9000705D00B902E06D1C102DF5D300BF002140
:104AA0004320015502E0002084F83400052F00D394
:104AB0000427E762201D00F0F6F904F1180000F069
:104AC000F2F92461C7F10500A0616462002060640E
:104AD00084F8480041465846039A00F013F92060D4
:104AE000BAF1000F01D0CAF80040BDE8FF9F0000F6
:104AF00010B5002407E004EB84010F4A02EB8100AB
:104B000000F0C4F9641C052CF5D30C4800F0BEF984
:104B10000B4800F0BBF90B4800F0B8F90A4800F068
:104B2000B5F90A4800F0B2F9044809490860044898
:104B30000849086010BD0000EC0000205001002072
:104B400064010020780100208C010020A0010020D9
:104B5000180000201C00002010B50146164800E097
:104B6000006803688B42FBD30246436813448B42C0
:104B700004D143684C682344436001460A464B68AD
:104B800013440468A34211D10C4C03682468A34267
:104B900008D04B680468646823444B6003681B6852
:104BA0000B6005E0054B1B680B6001E003680B60C0
:104BB000884200D0016010BD580000206000002035
:104BC00009480068006808B9012000E0002020B111
:104BD0004FF0FF300549086005E003480068C068F1
:104BE0000068024908607047180000204400002057
:104BF00000BFBF2080F31188BFF34F8FBFF36F8FCB
:104C000000BF00BFFEE700002DE9F04104464FF071
:104C1000000800F073FB3548006808B9FFF7D0FEC4
:104C200033480068204000285BD1B4B104F108008B
:104C3000A04212D9083404F0070078B104F007004C
:104C4000C0F108002044A04205D904F00700C0F1DB
:104C50000800044402E0002400E00024002C40D0BE
:104C60002448006884423CD8234E3046056801E061
:104C70002E462D686868A04202D228680028F7D125
:104C80001A48006885422CD0306800F1080828686E
:104C900030606868001B102807D92F196868001B4E
:104CA00078606C603846FFF757FF124968680968FA
:104CB000081A1049086008460068104909688842C7
:104CC00003D20C4800680D49086009496868096802
:104CD000084368600020286009480068401C0849B3
:104CE000086000F055FC4046BDE8F08160000020FF
:104CF000740000206400002058000020680000209C
:104D00006C000020001F4FF080730360001F21F033
:104D100001030360001F034B036014380260203856
:104D200070470000F14B000870B588B002A905A8D3
:104D3000FFF7D6F90446032C3ED101A8FEF788FE02
:104D4000059800F073FE0646019900F0CFFE054677
:104D500000F030FE0590069800F068FE06460199C6
:104D600000F0C4FE054600F025FE0690079800F00E
:104D70005DFE0646019900F0B9FE054600F01AFEF8
:104D8000079005A8FDF754FF6846FEF70DFEBDF835
:104D90000010029848430290BDF800100398484361
:104DA0000390BDF8001004984843049002A8FDF752
:104DB0006FFE002008B070BD0120FBE738B5044647
:104DC000214890F82400C0B114B10220009001E005
:104DD000002000901C4A1268D17B1B4A5268107850
:104DE0006B460122FCF720FE10B14FF0FF3038BDBA
:104DF0009DF800101448417423E01348807A10B9DC
:104E00004FF0FF30F3E724B10F48407C08B1002099
:104E1000EDE714B10120009001E0002000900A4A63
:104E20001268D17B084A526810786B460122FCF761
:104E3000FBFD10B14FF0FF30D9E79DF8001002489C
:104E400041740020D3E70000A800002001460A6951
:104E5000D1E901309860D1E9010358605068884277
:104E600001D188685060002008611068401E106001
:104E70001068704706E0FCF757FB034908800120E3
:104E800000F074F9F7E700009C00002000F1080131
:104E900041604FF0FF31816000F10801C1600161A4
:104EA00000210160704700210161704710B5024682
:104EB0000B685C1C0CB9106907E002F1080000E007
:104EC0004068446824689C42FAD944684C604C6845
:104ED000A160886041600A611468641C146010BDA0
:104EE00042684A6093688B6093685960916008617A
:104EF00003685B1C0360704714E0FCF71BFB04466F
:104F00000523224601210220FCF73CFFFCF71AFB97
:104F100004460523224601210320FCF733FF0A2023
:104F200000F024F9E9E7000058E0FCF703FBFCF788
:104F300009FB2B480088472805D12A49098888B2EF
:104F4000FCF740FA47E0264800884A2805D1254961
:104F5000098888B2FDF768F83DE0214800884828B4
:104F600005D12049098888B2FCF708FB33E01C48CA
:104F700000884B2805D11B49098888B2FCF728F91D
:104F800029E017480088492802D1FDF7C3F822E03C
:104F900013480088412804D14FF47A501149086021
:104FA00019E00F480088422804D144F620600D49DA
:104FB000086010E00A480088432804D147F23050C6
:104FC0000849086007E006480088442803D14CF2ED
:104FD000503004490860012000F0C8F8A5E700003F
:104FE0009C000020A000002000BFBF2080F311889B
:104FF000BFF34F8FBFF36F8F00BF03480068401CA3
:10500000014908607047000054000020064800680D
:10501000401E054908600846006820B9002080F35A
:10502000118800BF00BF70475400002070B50646CD
:105030003546FEB1083D2C460F49606809680840B6
:10504000C0B12068B0B90C496068096888436060E5
:1050500000F054F909496068096808440749086084
:105060002046FFF779FD06480068401C04490860A7
:1050700000F08EFA70BD0000740000206400002073
:105080007000002000204FF0E02108618861024894
:1050900048610720086170473F1901007CB505464B
:1050A0000124FFF7A1FF0020012103466422CDE97E
:1050B00000101AA11B4800F073F9044624B11AA28B
:1050C00001210846FCF791FE0020012103466422DD
:1050D000CDE9001018A11A4800F062F9044624B185
:1050E00018A201210220FCF780FE002001210346C6
:1050F0006422CDE9001016A1184800F051F90446C9
:1051000024B117A202210320FCF76FFEFCF7F8FC84
:10511000002000F045F8FFF779FF7CBD764F4C4545
:1051200044000000F94E00084F4C454420535543BD
:1051300043455353000000007650494400000000EE
:10514000294F0008504944205355434345535300C9
:1051500076426C7565746F6F74680000754E000858
:1051600042542053554343455353000070B5044601
:10517000002544B100F0C2F800212046FFF720FBD3
:1051800000F006FA05463DB94FF08050034908602B
:10519000BFF34F8FBFF36F8F70BD000004ED00E0D1
:1051A00070B50546FFF720FF15B92748006800E0F5
:1051B00028460446201DFFF749FE78B9E06A00EB57
:1051C0008000224951F8200040B994F82C100120A9
:1051D00088401F49096881431D480160A06A18B1D1
:1051E00004F11800FFF732FE1A480068401C194904
:1051F000086015480068844209D1211D1648FFF750
:105200006FFE16480068401C1449086009E0144805
:105210000068401E124908602046FFF7C7FBFFF7F1
:10522000CFFCFFF7F3FE0F48006858B1064800684E
:10523000844207D14FF080500B490860BFF34F8F75
:10524000BFF36F8F70BD000014000020EC00002041
:105250002C000020400000208C01002020000020B5
:10526000240000203000002004ED00E01CB50020E8
:10527000032103466422CDE9001002A1034800F097
:105280008FF81CBD76537461727400009D50000845
:105290001CB5124800210B468022CDE9001010A158
:1052A000114800F07DF80446012C14D100BFBF2046
:1052B00080F31188BFF34F8FBFF36F8F00BF4FF0A4
:1052C000FF300A49086001200949086000200949A7
:1052D000086000F04BF8084800681CBD480000203A
:1052E00049444C45000000003D4A000844000020AD
:1052F00030000020280000204C00002002480068F8
:10530000401C0149086070475000002012480068A6
:1053100018B10120114908601DE000200F49086004
:105320000F480068B0FA80F0C0F11F0101EB810264
:105330000C4B03EB820042685268426000F10802A5
:105340004368934202D14268526842604268D26820
:10535000054B1A6000BF7047500000203800002045
:105360002C000020EC0000201400002010B50A489A
:10537000006840F47F00084908600846006840F073
:105380007F400860FFF77EFE002004490860FAF7BE
:1053900019FF002010BD000020ED00E054000020A7
:1053A0002DE9FF4F85B0804689461746DDE912ABEF
:1053B000B800FFF729FC064656B14C20FFF724FC45
:1053C00004460CB1266304E03046FFF72FFE00E0F0
:1053D00000247CB10020CDE900ABCDE902403A4683
:1053E00049464046089BFFF73DFB2046FFF748FA39
:1053F000012501E04FF0FF35284609B0BDE8F08FE8
:105400002DE9F04100275748006800287ED1564812
:105410000068451C544805608DB95448D0F8008098
:1054200053480068514908605148C0F8008051480D
:105430000068401C4F490860FFF7C2FB00BF4E48A0
:105440000068854276D300BF48480068006808B904
:10545000012000E0002020B14FF0FF3046490860F5
:1054600067E042480068C068C4686668B54202D216
:10547000414806605DE06069D4E902128A60D4E9BF
:1054800002214A60211D42688A4201D1E1684160DF
:10549000002262610168491E0160A06A98B1A06A99
:1054A000D4E907128A60D4E907214A6004F118019F
:1054B00042688A4201D1216A41600022A2620168E9
:1054C000491E016000BF94F82C10012088402B4930
:1054D0000968084329490860E16A01EB8101284A0B
:1054E00002EB81014868A0608268E260211D826849
:1054F00051608160E16A01EB8101214A02EB810286
:105500006261E16A01EB81011D4A00E022E052F88C
:105510002110491CE26A02EB8202194B43F8221067
:105520001849E06A0968C96A88428DD301278BE768
:1055300000E000BF13480068C06A00EB800010491B
:1055400051F82000012800D901270F48006800B158
:10555000012704E00D480068401C0C4908603846EB
:10556000BDE8F08150000020280000201800002035
:105570001C0000203C000020440000202C000020E3
:10558000EC0000201400002038000020340000202F
:1055900070B500240026FFF727FD4B480068401E29
:1055A000494908600846006800287DD147480068DE
:1055B000002879D05BE04648C068C468A06AD4E996
:1055C00007128A60D4E907214A6004F11801426891
:1055D0008A4201D1216A41600022A2620168491E0B
:1055E00001606069D4E902128A60D4E902214A604C
:1055F000211D42688A4201D1E16841600022626156
:105600000168491E016094F82C100120884031493E
:10561000096808432F490860E16A01EB81012E4ABD
:1056200002EB81014868A0608268E260211D826807
:1056300051608160E16A01EB8101274A02EB81023E
:105640006261E16A01EB8101234A52F82110491C91
:10565000E26A02EB8202204B43F822101F49E06A03
:105660000968C96A884202D301201D4908601848A8
:10567000006808B9012000E0002000289BD00CB190
:10568000FFF79EFA1748056865B100BFFFF7B8FE3F
:1056900010B10120124908606D1E002DF6D10020C6
:1056A000104908600E4800E009E0006838B10126A2
:1056B00030070D490860BFF34F8FBFF36F8FFFF7BF
:1056C000A5FC304670BD00005000002024000020E2
:1056D000780100202C000020EC00002014000020A5
:1056E000380000203400002004ED00E090EA010FB3
:1056F00048BF81F0004100F1FE82421A3CBF801A8F
:1057000089184FEAD0524FF07F4C1CEA410FA2EBB0
:10571000D15318BF9CEA026F00F03B804FF0004C61
:105720004CEA00204CEA012121FA03FC10EB0C0C9E
:105730001ED202F1FF325FEA1C2040EBC25038BF9C
:1057400070471CF07F0F4FEA400C18BFBCF17F4F31
:1057500038BF7047C3F12003994008BF20F0010013
:10576000BCF17F4F38BF7047A0F1C04000F085BA50
:105770004FEA3C00000A40EBC25028BF1CF0FF0F6C
:105780004FEA400CE6D018BFBCF17F4F38BF7047DE
:10579000EAE79CEA026F05D010EA5C0F08BF00F050
:1057A0000040704710B500F022FA00BF64FBBE3E17
:1057B000401058BFC0F14040491058BFC1F14041AE
:1057C0008142EFF3008070474FF47F0C1CEAD01247
:1057D0001EBF1CEAD11392EA0C0F93EA0C0F00F0E3
:1057E000858090EA010F48BF42F4807240F4000CBB
:1057F00041F400002CF07F4120F07F4000B5814251
:10580000A2EB03020FF2081CACEB504EC0F10000FB
:105810009EF800E04FEA4E0E00FB0EFC38BF490038
:105820004FEA2C1C02F5FA020CFB0EF34FEACE1ED7
:105830004FEA112C4FEAC1210EEB635E42EB22428C
:105840000EFB0CFC4FEA1C5300FB03114FEA112C1A
:105850004FEA01310EFB0CFC4FEADC4C00FB0C1153
:10586000C14228BF09184CEB03335DF804EB10EB81
:10587000410143EBC250B2F57C0F38BF704729D5C8
:1058800012F0F00F1CBF00F1C04000F00040704764
:10589000008182838485868788898B8C8D8E8F9109
:1058A0009293959697999A9C9D9FA0A2A3A5A7A82D
:1058B000AAACAEB0B2B3B5B7B9BCBEC0C2C5C7C959
:1058C000CCCED1D4D7D9DCDFE2E6E9ECF0F3F7FABD
:1058D000FE0000004FEA400C0CF1807CBCF17E4FD2
:1058E00028BF7047B0F1C04000F0C7B990EA010F7F
:1058F0000CEAD11348BF42F48072624538BF634559
:1059000007D213F47F0F16D080EA010000F00040A8
:10591000704710B500F06BF9097EFC3E00F005B849
:1059200080EA010000F00040704780EA010000F0CA
:10593000004000F0A2B912F47F0F04BF0248704784
:1059400080EA010000F099B90000C07F50EA010C24
:1059500000F113801CF5000F58BFBCF5000F01D4F7
:105960008842704707D710F5000F58BF11F5000F98
:1059700015D488427047894270471CF5000F04D542
:10598000BCF5000FF7D5814270474FF0807C1CEBCF
:10599000400F38BF1CEB410F01D28142704710B558
:1059A00000F025F9922449004FF000504FF080514B
:1059B000FFF7FEBE41000B0ED3F19E0208D950F452
:1059C00000034FEA032323FA02F048BF4042704726
:1059D00010B500F00CF900BF4992248000207047F8
:1059E0006FF0004282EA200070470000C10DD1F143
:1059F0009E0206DB4FEA002343F0004323FA02F045
:105A00007047004207D54FEA4001B1F1FE4F02D284
:105A10004FF00000704710B500F0E9F8499224807B
:105A2000002070476FEA20007047000010F000412E
:105A300048BF4042B0FA80F310FA03F2C3F19D036D
:105A40000BD051EAC35101EB1220530638BF704707
:105A500000F1010008BF20F001007047B0FA80F3A8
:105A600010FA03F2C3F19D030AD0D90501EB12200D
:105A7000530638BF704700F1010008BF20F0010055
:105A80007047000050EA010C00F113801CF5000F74
:105A900058BFBCF5000F01D48842704707D710F5F6
:105AA000000F58BF11F5000F15D488427047894286
:105AB00070471CF5000F04D5BCF5000FF7D58142E7
:105AC00070474FF0807C1CEB400F38BF1CEB410F40
:105AD00001D28142704710B500F089F89224490044
