:020000040800F2
:10000000D04B002021020008D1060008610600083C
:10001000CD060008C90300083B12000800000000DC
:10002000000000000000000000000000890100083E
:10003000CD03000800000000CD010008AD0D000850
:100040003B0200083B0200083B0200083B0200089C
:100050003B0200083B0200083B0200083B0200088C
:100060003B0200083B0200083B0200083B0200087C
:100070003B0200083B0200083B0200083B0200086C
:100080003B0200083B0200083B0200083B0200085C
:100090003B0200083B0200083B0200083B0200084C
:1000A0003B0200083B0200083B0200083B0200083C
:1000B0003B0200083B0200083B0200083B0200082C
:1000C0003B0200083B0200083B0200083B0200081C
:1000D0003B0200083B0200083B020008B910000880
:1000E0003B0200083B0200083B02000800F002F857
:1000F00000F03AF80AA090E8000C82448344AAF188
:100100000107DA4501D100F02FF8AFF2090EBAE885
:100110000F0013F0010F18BFFB1A43F0010318473B
:100120007025000090250000103A24BF78C878C1DF
:10013000FAD8520724BF30C830C144BF04680C60ED
:10014000704700000023002400250026103A28BF35
:1001500078C1FBD8520728BF30C148BF0B60704739
:100160001FB51FBD10B510BD00F082F81146FFF796
:10017000F7FF01F087F800F0A0F803B4FFF7F2FFF3
:1001800003BC00F0A5F80000224B19680868B0E82D
:10019000F00F80F30988BFF36F8F4FF0000080F3FA
:1001A00011884EF00D0E70470000000006480068F0
:1001B000006880F3088862B661B6BFF34F8FBFF363
:1001C0006F8F00DF00BF00BF08ED00E0EFF3098094
:1001D000BFF36F8F0F4B1A6820E9F00F106008B55E
:1001E0004FF0BF0080F31188BFF34F8FBFF36F8FC5
:1001F00001F066FD4FF0000080F31188BDE8084073
:1002000019680868B0E8F00F80F30988BFF36F8FB2
:10021000704700BF14000020EFF305807047000016
:100220000948804709480047FEE7FEE7FEE7FEE78A
:10023000FEE7FEE7FEE7FEE7FEE7FEE704480549C6
:10024000054A064B70470000E10D0008ED0000086C
:10025000D0450020D04B0020D0470020D0470020C0
:100260007047704770470000004870477045002095
:100270007546FFF7F9FFAE4605006946534620F084
:100280000700854618B020B5FFF7D8FFBDE820402D
:100290004FF000064FF000074FF000084FF0000B42
:1002A00021F00701AC46ACE8C009ACE8C009ACE8F5
:1002B000C009ACE8C0098D46704710B50446AFF3DD
:1002C00000802046BDE81040FFF757BF7047000090
:1002D00001491820ABBEFEE72600020010B5044617
:1002E000204600F025FC204600F02CFC1021084898
:1002F00000F099F90821064800F093F90221054819
:1003000000F091F90121034800F08BF910BD0000C5
:1003100000080140000C014000B587B001218804AD
:1003200000F01AFC0121082000F026FC18208DF8AE
:100330001B004FF48060ADF8180003208DF81A0000
:1003400006A91F4800F0E2F848208DF81B004FF482
:100350000060ADF8180003208DF81A0006A91848AF
:1003600000F0D4F84FF4165002900020ADF81400BD
:100370000C20ADF812000020ADF81000ADF80E0012
:10038000ADF80C0002A90F4800F0E6FE012240F291
:1003900025510C4800F0BBFE27208DF804000120F9
:1003A0008DF8070002208DF805008DF8060001A8E1
:1003B00000F090F90121034800F090FE07B000BD65
:1003C000000C01400048004000BFFEE770470000FD
:1003D00000B587B00121042000F0CEFB01210820E8
:1003E00000F0CAFB0121084600F0B6FB0121042001
:1003F00000F0B2FB4FF0804000F058FD314800F0B3
:1004000055FD04208DF81B000320ADF818008DF871
:100410001A0006A92C4800F079F804208DF81B007A
:10042000C020ADF8180003208DF81A0006A927484F
:1004300000F06CF80020ADF81200ADF80E004FF699
:10044000FF70ADF810000020ADF80C008DF814001E
:1004500003A94FF0804000F0DDFD03A9194800F02A
:10046000D9FD684600F019FD0420ADF800000F200A
:10047000ADF808000020ADF80200ADF8060001203C
:10048000ADF8040000231A460321800700F0E4FCC5
:1004900000231A4603210B4800F0DEFC00214FF038
:1004A000804000F0B5FD0021064800F0B1FD0121BB
:1004B000880700F0C5FC0121024800F0C1FC07B02C
:1004C00000BD00000008004000080140000C014091
:1004D00010B50446204600F02BFB204600F032FB0E
:1004E0000821084800F09FF81021064800F099F80C
:1004F0000121054800F097F80221034800F091F827
:1005000010BD000000080140000C01402DE9F04141
:10051000024600250026002000230024002791F831
:1005200003C00CF00F0591F803C00CF0100CBCF1E7
:10053000000F03D091F802C04CEA050591F800C005
:10054000BCF1000F31D0146800202BE04FF0010CFB
:100550000CFA00F3B1F800C00CEA03069E4220D169
:1005600083004FF00F0C0CFA03F7BC4305FA03FCB1
:100570004CEA040491F803C0BCF1280F06D14FF0F7
:10058000010C0CFA00FCC2F814C00AE091F803C098
:10059000BCF1480F05D14FF0010C0CFA00FCC2F879
:1005A00010C0401C0828D1D31460B1F800C0BCF1C1
:1005B000FF0F34DD546800202EE000F1080C4FF0EE
:1005C000010808FA0CF3B1F800C00CEA03069E42D9
:1005D00021D183004FF00F0C0CFA03F7BC4305FA4E
:1005E00003FC4CEA040491F803C0BCF1280F05D1C8
:1005F00000F1080C08FA0CF8C2F8148091F803C056
:10060000BCF1480F07D100F1080C4FF0010808FABF
:100610000CF8C2F81080401C0828CED35460BDE806
:10062000F08141617047016170470AB1016100E0EA
:1006300041617047014890F900007047A400002014
:100640004FF08041888C00214FF0804291847047A8
:10065000024908880021014A11807047240800409F
:1006600000BFFEE710B500F0EBFD00F001F900F06F
:1006700013FAFFF7ADFEFFF74FFE00F003F810BDD1
:100680007047000008B50121042000F075FA102021
:100690008DF803001820ADF8000003208DF802004B
:1006A00069460848FFF732FF10208DF80300032049
:1006B000ADF800008DF8020069460348FFF726FFF9
:1006C00008BD000000080140000C014000BFFEE72B
:1006D0007047000070B5002100230F22C47804B3D6
:1006E000154C246804F4E064C4F5E064210AC1F107
:1006F0000403CA40447804FA03F184781440214387
:1007000009010E4C0678A155047804F01F05012458
:10071000AC4005786D11AD0005F1E025C5F800414C
:1007200009E0047804F01F050124AC40044D06786C
:10073000761145F8264070BD0CED00E000E400E0C5
:1007400080E100E070B500240EE00021204600F0BA
:10075000F0F8002504E0002000F08DF9681CC5B217
:10076000802DF8DB601CC4B2082CEEDB70BD0000ED
:1007700008B50121082000F0FFF914208DF80300CE
:1007800003208DF802004FF48070ADF80000694638
:100790000A48FFF7BBFE4FF40070ADF80000694651
:1007A0000648FFF7B3FE012211020448FFF73DFFA0
:1007B000012251020148FFF738FF08BD000C01403B
:1007C00070B50546002415E08020204100EA0502AE
:1007D0004FF400710E48FFF728FF012211020C4868
:1007E000FFF723FF00224FF480710948FFF71DFF38
:1007F000601CC4B2082CE7DB012211020448FFF799
:1008000014FF00224FF480710148FFF70EFF70BD06
:10081000000C014010B5012251020A48FFF705FF04
:10082000012211020748FFF700FF00224FF4007178
:100830000448FFF7FAFE00224FF480710148FFF7E9
:10084000F4FE10BD000C014010B500224FF4007101
:100850000648FFF7EAFE012211020448FFF7E5FE11
:10086000012251020148FFF7E0FE10BD000C0140DB
:1008700070B5002406E0002500E06D1CB5F57A7F18
:10088000FBD3641CB4F57A7FF5D3FFF771FFAE207C
:1008900000F0E1F8D52000F0DEF8802000F0DBF871
:1008A000A82000F0D8F83F2000F0D5F8D32000F0C1
:1008B000D2F8002000F0CFF8402000F0CCF8A120C2
:1008C00000F0C9F8C82000F0C6F8DA2000F0C3F83C
:1008D000122000F0C0F8812000F0BDF8CF2000F019
:1008E000BAF8D92000F0B7F8F12000F0B4F8DB2016
:1008F00000F0B1F8302000F0AEF8A42000F0ABF822
:10090000A62000F0A8F88D2000F0A5F8142000F033
:10091000A2F8AF2000F09FF8FFF714FF70BD10B5EC
:100920000246012000E050430B1EA1F10101FAD163
:1009300010BD70B505460C4645F0B00000F08BF8D0
:10094000102141EA141000F086F804F00F0000F0C6
:1009500082F870BD2DE9F04105460E461746721E1D
:10096000D206110E6A1E5206100EFFF7E2FF002497
:1009700009E0A7F12001134A02EB0111085D00F024
:100980007AF8601CC4B2082CF3DB721ED206110E7A
:100990006A1E012303EB4202D0B2FFF7CAFF002414
:1009A0000BE0A7F12001074A02EB011204F1080154
:1009B000505C00F060F8601CC4B2082CF1DBBDE8AC
:1009C000F0810000A02000082DE9F047814688460C
:1009D00015461E46002D06DB2B2241464846FFF7F2
:1009E000B9FF2F4605E02D2241464846FFF7B2FFEA
:1009F0006F42002417E0301B411E0A20FFF78FFFD3
:100A0000B7FBF0F00A21B0FBF1F201FB120000F19C
:100A1000300A08EB0400401CC1B252464846FFF7BA
:100A200099FF601CC4B2B442E5DBBDE8F0872DE954
:100A3000F04107460E461546002407E02A5D3019AE
:100A4000C1B23846FFF786FF601CC4B2285D00289B
:100A5000F4D1BDE8F08110B50446FFF7DBFE782045
:100A6000FFF7AEFE0020FFF7ABFE2046FFF7A8FE23
:100A7000FFF7EAFE10BD10B50446FFF7CBFE782065
:100A8000FFF79EFE4020FFF79BFE2046FFF798FEF3
:100A9000FFF7DAFE10BD000000B589B00121042087
:100AA00000F06AF80121022000F056F81E4800F01C
:100AB000FDF918208DF82300C020ADF82000032098
:100AC0008DF8220008A91948FFF720FD0020ADF895
:100AD0001A00ADF816004FF6FF70ADF818000020B0
:100AE000ADF814008DF81C0005A90F4800F092FA2B
:100AF00001A800F07FFA6020ADF804000120ADF8F5
:100B000006000020ADF80C00ADF80A0001A9064867
:100B100000F0D2F901A9044800F01AFA01210248B4
:100B200000F08EF909B000BD00040040000801404B
:100B300010B504462146024800F066FA10BD0000D8
:100B40000004004010B504462146024800F05EFA59
:100B500010BD00000004004029B1064AD2690243DA
:100B6000044BDA6104E0034AD2698243014BDA6143
:100B7000704700000010024029B1064A9269024302
:100B8000044B9A6104E0034A92698243014B9A61E3
:100B9000704700000010024030B500210022002400
:100BA00000232D4D6D6805F00C0121B1042905D0FD
:100BB000082923D105E0294D056022E0274D056075
:100BC0001FE0254D6D6805F47012234D6D6805F426
:100BD0008034022505EB92421CB9214D5543056036
:100BE0000BE01D4D6D6805F400351DB11C4D5543DE
:100BF000056002E0194D5543056002E0174D0560A0
:100C000000BF00BF144D6D6805F0F0010909154DD6
:100C10006B5C0568DD4045600F4D6D6805F4E06173
:100C2000090A104D6B5C4568DD4085600A4D6D68B2
:100C300005F46051C90A0B4D6B5C4568DD40C56029
:100C4000054D6D6805F44041890B074D6B5CC56827
:100C5000B5FBF3F5056130BD0010024000127A00CB
:100C600000093D007800002088000020704710B582
:100C700000F002F810BD00000CB5002001900090BB
:100C80003348006840F480303149086000BF304884
:100C9000006800F4003000900198401C019000981A
:100CA00018B90198B0F5A06FF1D12948006800F497
:100CB000003010B10120009001E000200090009869
:100CC000012843D12348006840F010002149086002
:100CD0000846006820F0030008600846006840F0FD
:100CE000020008601A484068194948600846406890
:100CF00048600846406840F48060486008464068A4
:100D000020F47C1048600846406840F4E8104860D1
:100D10000846006840F08070086000BF0C4800681A
:100D200000F000700028F9D00948406820F0030066
:100D3000074948600846406840F00200486000BF2C
:100D40000348406800F00C000828F9D10CBD0000F1
:100D5000001002400020024010B508210748FFF7AC
:100D600060FC10210548FFF75CFC01210448FFF7F7
:100D700058FC02210248FFF754FC10BD0008014056
:100D8000000C0140042808D14FF0E021096941F02E
:100D900004014FF0E022116107E04FF0E021096902
:100DA00021F004014FF0E0221161704710B500BF3F
:100DB000BF2080F31188BFF34F8FBFF36F8F00BF49
:100DC00000F0F8FF18B14FF080500449086000BFF0
:100DD000002080F3118800BF10BD000004ED00E08A
:100DE00010B51348006840F001001149086008463A
:100DF0004068104908400E494860084600680E499E
:100E000008400B4908600846006820F4802008600C
:100E10000846406820F4FE0048604FF41F008860D8
:100E2000FFF725FF4FF000600449086010BD000087
:100E3000001002400000FFF8FFFFF6FE08ED00E0A2
:100E400021B1028842F00102028004E002884FF6DC
:100E5000FE731A4002807047F0B50C4615461E46D8
:100E60000021002200230189028B038C4FF6F877C2
:100E7000394021434FF6FC473A4040F201173A43CC
:100E80004FF6DD773B404FF6FF7707EA06172F4313
:100E90003B43018102830384F0BD00210180418036
:100EA000012181800021C1800181704701894FF6B5
:100EB000F87211400181704770B5002400220023B0
:100EC000058C4FF6FE7635400584028C8388048BB2
:100ED0004FF68F752C40B51E2C400D882C43751E87
:100EE0002A400D892A434D882A43144DA8420BD02D
:100EF000134DA84208D0134DA84205D0124DA84268
:100F000002D0124DA84213D14FF6F7752A404D89F1
:100F10002A434FF6FB752A408D882A434FF6FF651A
:100F20002B404FF6FF552B408D892B43CD892B430A
:100F300083800483CD888586028470BD002C0140A7
:100F4000003401400040014000440140004801409D
:100F500070B5002400220023058C4FF6EF76354053
:100F60000584028C8388048B48F6FF752C404FF66D
:100F7000FF452C400D884FF6FF7606EA05252C43E9
:100F80004FF6DF752A400D8906EA05152A434D887C
:100F900006EA05152A43154DA84202D0144DA84271
:100FA0001DD14FF67F752A404D894FF6FF7606EA30
:100FB00005152A434FF6BF752A408D8806EA0515A8
:100FC0002A434FF6FF352B404FF2FF752B408D899A
:100FD00006EA85052B43CD8906EA85052B438380E8
:100FE0000483CD880587028470BD0000002C014079
:100FF000003401400021018041808180C180018155
:1010000041818181C1817047818670470187704726
:1010100081847047002202881D4B98420ED01D4BE0
:1010200098420BD0B0F1804F08D01B4B984205D0AE
:101030001A4B984202D01A4B984204D14FF68F7344
:101040001A404B881A43174B984207D0164B9842C8
:1010500004D04FF6FF431A40CB881A4302808B8896
:1010600083850B8803850A4B98420BD0094B984225
:1010700008D00E4B984205D00D4B984202D00D4B34
:10108000984201D10B7A03860123838270470000C6
:10109000002C0140003401400004004000080040E2
:1010A000000C0040001000400014004000400140CF
:1010B000004401400048014010B52021054800F0DF
:1010C00019F8012805D1034800F0B2F840B20249EE
:1010D000087010BD00480040A400002021B18289A2
:1010E00042F40052828104E082894DF6FF731A4077
:1010F0008281704702460020B1F5007F00D100BF19
:1011000013880B400BB1012000E000207047F0B5C0
:101110000346002400260025002040F66A17B94245
:1011200000D100BF1846C1F3421401F01F06012789
:1011300007FA06F5012C01D10C3004E0022C01D194
:10114000103000E014301AB107682F43076002E046
:101150000768AF430760F0BD2DE9F04786B005464C
:101160000E460024A24600BFA1460027B08900B168
:1011700000BF2F462C8A4CF6FF700440F0880443D1
:101180002C82AC894EF6F3100440B08831890843B4
:10119000718908430443AC81AC8A4FF6FF40044098
:1011A000B0890443AC8201A8FFF7F6FC1F488742D0
:1011B00002D1DDF810A001E0DDF80CA0A88900F450
:1011C000004040B10AEBCA0000EB0A103168490048
:1011D000B0FBF1F807E00AEBCA0000EB0A10316837
:1011E0008900B0FBF1F86420B8FBF0F0040120099D
:1011F000642101FB1089A88900F4004040B132202D
:1012000000EBC900B0FBF1F000F00700044308E078
:10121000322000EB09106421B0FBF1F000F00F0068
:1012200004432C8106B0BDE8F0870000003801407F
:1012300001468888C0F30800704700BFFEE7000041
:1012400010B56FF00400FFF79DFD0A4800680A49D9
:10125000B0FBF1F0094908700846007800EB400146
:10126000C1EBC0104FF6FF7101EAC00004490880CD
:1012700010BD00000000002000127A008C00002049
:101280008E00002010B5FFF7EDF900F0C9FC00F06A
:10129000D9FC002010BD00002DE9F04105460E46A6
:1012A0002648076826480068001D00F0A9FA50B9D2
:1012B0002348006890F82C100120884021490968D3
:1012C000814320480160681CD8B9D6B11E494868DE
:1012D0001B49096888601A4982680968CA60184908
:1012E0000968091D8268516015490968091D8160F6
:1012F000154A134909684A6111460968491C116079
:101300001AE07C190E4800684460BC4207D20C48C1
:101310000168091D0D48006800F0A2FA0CE00848B9
:101320000168091D0A48006800F09AFA0948006837
:10133000844201D207480460BDE8F0812800002003
:10134000140000202C0000205C0100201C00002064
:10135000180000204400002010B5044600F01EFBD9
:101360002F480068401C2E4908602E48006840B98C
:101370002C4804600846006801280DD100F024F9CB
:101380000AE02948006838B926480068C06AE16A5E
:10139000884201D82348046024480068401C23493F
:1013A000086094F82C1001208840214909680843FE
:1013B0001F490860E16A01EB81011E4A02EB8101CD
:1013C0004868A0608268E260211D82685160816087
:1013D000E16A01EB8101174A02EB81026261E16A75
:1013E00001EB8101134A52F82110491CE26A02EB19
:1013F0008202104B43F8221000F0E2FA0A4800681B
:1014000068B108480068C06AE16A884207D24FF0B4
:10141000805009490860BFF34F8FBFF36F8F10BD35
:101420002400002014000020300000204000002094
:101430002C000020A800002004ED00E010B516E00C
:1014400000F0ACFA0C48C068C468201D00F0D8F960
:101450000A480068401E0949086009480068401EA3
:101460000749086000F0ACFA204600F00BF8044889
:1014700000680028E4D110BD4801002024000020AD
:101480002000002010B50446206B00F0A9FA204689
:1014900000F0A6FA10BD000030B54FF4884317489D
:1014A00000F007042CB1C01D20F00700134C041BF2
:1014B0001B1B0246124C22600024114D6C60D01898
:1014C000083820F007000F4C206000240D4D2D68D7
:1014D0006C600C4D2D682C601146441A4C60094C10
:1014E00024680C60084D4C682C60084D4C682C60DA
:1014F0004FF00044064D2C6030BD0000700100200C
:1015000058000020600000206800002064000020D7
:101510007400002000BFFFF791FF06480068012813
:10152000F9D94FF0805004490860BFF34F8FBFF3E3
:101530006F8FF0E7A800002004ED00E02DE9FF5FC9
:1015400080460E469146DDE90E7A109CA9F1010015
:10155000216B01EB800B2BF0070B86B1002507E018
:10156000715D04F134004155705D00B902E06D1CFD
:10157000102DF5D300BF00214320015502E00020CB
:1015800084F83400052F00D30427E762201D00F003
:1015900064F904F1180000F060F92461C7F1050056
:1015A000A06164620020606484F8480041465846A7
:1015B000039A00F013F92060BAF1000F01D0CAF8C5
:1015C0000040BDE8FF9F000010B5002407E004EBD9
:1015D00084010F4A02EB810000F032F9641C052CF3
:1015E000F5D30C4800F02CF90B4800F029F90B4812
:1015F00000F026F90A4800F023F90A4800F020F923
:1016000004480949086004480849086010BD000002
:10161000A80000200C01002020010020340100203F
:10162000480100205C010020180000201C00002060
:1016300010B50146164800E0006803688B42FBD3F2
:101640000246436813448B4204D143684C682344E8
:10165000436001460A464B6813440468A34211D113
:101660000C4C03682468A34208D04B680468646883
:1016700023444B6003681B680B6005E0054B1B6847
:101680000B6001E003680B60884200D0016010BD70
:10169000580000206000002009480068006808B970
:1016A000012000E0002020B14FF0FF300549086024
:1016B00005E003480068C068006802490860704798
:1016C000180000204400002000BFBF2080F31188D4
:1016D000BFF34F8FBFF36F8F00BF00BFFEE7000067
:1016E0002DE9F04104464FF0000800F0E1FA3548DA
:1016F000006808B9FFF7D0FE334800682040002892
:101700005BD1B4B104F10800A04212D9083404F04E
:10171000070078B104F00700C0F108002044A0429F
:1017200005D904F00700C0F10800044402E00024D9
:1017300000E00024002C40D02448006884423CD8BB
:10174000234E3046056801E02E462D686868A042A9
:1017500002D228680028F7D11A48006885422CD0A8
:10176000306800F10808286830606868001B10289D
:1017700007D92F196868001B78606C603846FFF73E
:1017800057FF124968680968081A10490860084636
:10179000006810490968884203D20C4800680D4966
:1017A0000860094968680968084368600020286083
:1017B00009480068401C0849086000F0C3FB404627
:1017C000BDE8F0816000002074000020640000206B
:1017D00058000020680000206C000020001F4FF01F
:1017E00080730360001F21F001030360001F034B9F
:1017F000036014380260203870470000C9160008E2
:1018000001460A69D1E901309860D1E901035860C5
:101810005068884201D188685060002008611068D3
:10182000401E10601068704706E0FEF703FF034992
:101830000880012000F074F9F7E700009C00002008
:1018400000F1080141604FF0FF31816000F10801B3
:10185000C160016100210160704700210161704792
:1018600010B502460B685C1C0CB9106907E002F168
:10187000080000E04068446824689C42FAD9446843
:101880004C604C68A160886041600A611468641C07
:10189000146010BD42684A6093688B609368596019
:1018A0009160086103685B1C0360704714E0FEF7F9
:1018B000C7FE04460523224601210220FFF784F8D3
:1018C000FEF7C6FE04460523224601210320FFF74A
:1018D0007BF80A2000F024F9E9E7000058E0FEF761
:1018E000AFFEFEF7B5FE2B480088472805D12A49F0
:1018F000098888B2FEF7ECFD47E0264800884A28B0
:1019000005D12549098888B2FFF7B0F93DE02148A3
:101910000088482805D12049098888B2FEF7B0FE22
:1019200033E01C4800884B2805D11B49098888B240
:10193000FEF7D4FC29E017480088492802D1FFF7B8
:101940000BFA22E013480088412804D14FF47A5062
:101950001149086019E00F480088422804D144F674
:1019600020600D49086010E00A480088432804D12F
:1019700047F230500849086007E0064800884428CC
:1019800003D14CF2503004490860012000F0C8F83F
:10199000A5E700009C000020A000002000BFBF20A1
:1019A00080F31188BFF34F8FBFF36F8F00BF0348E1
:1019B0000068401C01490860704700005400002086
:1019C00006480068401E054908600846006820B9BE
:1019D000002080F3118800BF00BF70475400002032
:1019E00070B506463546FEB1083D2C460F49606885
:1019F00009680840C0B12068B0B90C49606809683E
:101A00008843606000F054F9094960680968084437
:101A1000074908602046FFF70BFE06480068401C97
:101A20000449086000F08EFA70BD000074000020C8
:101A3000640000207000002000204FF0E0210861C9
:101A40008861024848610720086170473F1901001A
:101A50007CB505460124FFF7A1FF002001210346C4
:101A60006422CDE900101AA11B4800F073F9044666
:101A700024B11AA201210846FEF7D9FF0020012156
:101A800003466422CDE9001018A11A4800F062F95B
:101A9000044624B118A201210220FEF7C8FF00204D
:101AA000012103466422CDE9001016A1184800F078
:101AB00051F9044624B117A202210320FEF7B7FF13
:101AC000FEF740FE002000F045F8FFF779FF7CBDEF
:101AD000764F4C4544000000AD1800084F4C45447B
:101AE000205355434345535300000000765049446A
:101AF00000000000DD1800085049442053554343BE
:101B00004553530076426C7565746F6F74680000BE
:101B100029180008425420535543434553530000AD
:101B200070B50446002544B100F0C2F800212046FB
:101B3000FFF7B2FB00F006FA05463DB94FF08050C2
:101B400003490860BFF34F8FBFF36F8F70BD000074
:101B500004ED00E070B50546FFF720FF15B92748F2
:101B6000006800E028460446201DFFF749FE78B9CA
:101B7000E06A00EB8000224951F8200040B994F857
:101B80002C10012088401F49096881431D480160CD
:101B9000A06A18B104F11800FFF732FE1A48006875
:101BA000401C1949086015480068844209D1211D6C
:101BB0001648FFF76FFE16480068401C144908607D
:101BC00009E014480068401E124908602046FFF7EB
:101BD00059FCFFF761FDFFF7F3FE0F48006858B1AD
:101BE00006480068844207D14FF080500B490860D6
:101BF000BFF34F8FBFF36F8F70BD00001400002044
:101C0000A80000202C0000204000002048010020F7
:101C100020000020240000203000002004ED00E01F
:101C20001CB50020032103466422CDE9001002A167
:101C3000034800F08FF81CBD765374617274000085
:101C4000511A00081CB5124800210B468022CDE92C
:101C5000001010A1114800F07DF80446012C14D1A9
:101C600000BFBF2080F31188BFF34F8FBFF36F8F8A
:101C700000BF4FF0FF300A490860012009490860A1
:101C800000200949086000F04BF8084800681CBDB6
:101C90004800002049444C4500000000151500088C
:101CA0004400002030000020280000204C000020CC
:101CB00002480068401C014908607047500000203D
:101CC0001248006818B10120114908601DE0002089
:101CD0000F4908600F480068B0FA80F0C0F11F019A
:101CE00001EB81020C4B03EB8200426852684260B8
:101CF00000F108024368934202D142685268426090
:101D00004268D268054B1A6000BF7047500000203F
:101D1000380000202C000020A80000201400002023
:101D200010B50A48006840F47F000849086008467A
:101D3000006840F07F400860FFF77EFE0020044905
:101D40000860FEF733FA002010BD000020ED00E02F
:101D5000540000202DE9FF4F85B080468946174684
:101D6000DDE912ABB800FFF7BBFC064656B14C20CC
:101D7000FFF7B6FC04460CB1266304E03046FFF7DB
:101D80002FFE00E000247CB10020CDE900ABCDE9BE
:101D900002403A4649464046089BFFF7CFFB2046A3
:101DA000FFF7DAFA012501E04FF0FF35284609B0C8
:101DB000BDE8F08F2DE9F041002757480068002862
:101DC0007ED156480068451C544805608DB954487A
:101DD000D0F8008053480068514908605148C0F865
:101DE000008051480068401C4F490860FFF754FCD0
:101DF00000BF4E480068854276D300BF484800685F
:101E0000006808B9012000E0002020B14FF0FF3049
:101E10004649086067E042480068C068C468666870
:101E2000B54202D2414806605DE06069D4E9021221
:101E30008A60D4E902214A60211D42688A4201D1A8
:101E4000E1684160002262610168491E0160A06A88
:101E500098B1A06AD4E907128A60D4E907214A60E0
:101E600004F1180142688A4201D1216A41600022CE
:101E7000A2620168491E016000BF94F82C10012085
:101E800088402B490968084329490860E16A01EB49
:101E90008101284A02EB81014868A0608268E26003
:101EA000211D826851608160E16A01EB8101214A54
:101EB00002EB81026261E16A01EB81011D4A00E0EF
:101EC00022E052F82110491CE26A02EB8202194B0F
:101ED00043F822101849E06A0968C96A88428DD31C
:101EE00001278BE700E000BF13480068C06A00EBE1
:101EF0008000104951F82000012800D901270F481F
:101F0000006800B1012704E00D480068401C0C493E
:101F100008603846BDE8F08150000020280000200D
:101F2000180000201C0000203C000020440000207D
:101F30002C000020A8000020140000203800002001
:101F40003400002070B500240026FFF727FD4B4821
:101F50000068401E494908600846006800287DD195
:101F600047480068002879D05BE04648C068C468EC
:101F7000A06AD4E907128A60D4E907214A6004F113
:101F8000180142688A4201D1216A41600022A2629E
:101F90000168491E01606069D4E902128A60D4E9CF
:101FA00002214A60211D42688A4201D1E1684160F4
:101FB000002262610168491E016094F82C10012022
:101FC00088403149096808432F490860E16A01EBFC
:101FD00081012E4A02EB81014868A0608268E260BC
:101FE000211D826851608160E16A01EB8101274A0D
:101FF00002EB81026261E16A01EB8101234A52F83E
:102000002110491CE26A02EB8202204B43F82210A5
:102010001F49E06A0968C96A884202D301201D4944
:1020200008601848006808B9012000E00020002876
:102030009BD00CB1FFF730FB1748056865B100BFB6
:10204000FFF7B8FE10B10120124908606D1E002D87
:10205000F6D10020104908600E4800E009E0006851
:1020600038B1012630070D490860BFF34F8FBFF329
:102070006F8FFFF7A5FC304670BD000050000020B8
:1020800024000020340100202C000020A8000020A3
:1020900014000020380000203400002004ED00E08F
:1020A0000000000000000000000000000000000030
:1020B000000000F8000000000000003330000000C5
:1020C00000100C06100C06000000000000000000CC
:1020D00040C07840C0784000043F04043F0404003E
:1020E000007088FC08300000001820FF211E00004E
:1020F000F008F000E018000000211C031E211E0063
:1021000000F00888700000001E21232419272110E8
:1021100010160E000000000000000000000000008B
:10212000000000E018040200000000071820400032
:1021300000020418E0000000004020180700000022
:10214000404080F0804040000202010F0102020086
:10215000000000F0000000000101011F010101006A
:10216000000000000000000080B0700000000000CF
:102170000000000000000000000101010101010158
:1021800000000000000000000030300000000000EF
:1021900000000000806018040060180601000000C4
:1021A00000E010080810E000000F102020100F00C1
:1021B000001010F8000000000020203F2020000048
:1021C00000700808088870000030282422213000A0
:1021D00000300888884830000018202020110E00A8
:1021E0000000C02010F8000000070424243F240051
:1021F00000F80888880808000019212020110E0026
:1022000000E0108888180000000F112020110E0037
:1022100000380808C83808000000003F000000002F
:102220000070880808887000001C222121221C00F0
:1022300000E010080810E0000000312222110F0019
:10224000000000C0C00000000000003030000000AE
:10225000000000800000000000008060000000001E
:102260000000804020100800000102040810200037
:102270004040404040404000040404040404040082
:102280000008102040800000002010080402010017
:10229000007048080808F000000000303601000017
:1022A000C030C828E810E0000718272423140B00CA
:1022B0000000C038E0000000203C23020227382044
:1022C00008F8888888700000203F202020110E0028
:1022D000C03008080808380007182020201008001F
:1022E00008F808080810E000203F202020100F0008
:1022F00008F88888E8081000203F202023201800D4
:1023000008F88888E8081000203F2000030000003B
:10231000C03008080838000007182020221E0200DC
:1023200008F808000008F808203F210101213F209B
:10233000000808F8080800000020203F20200000C6
:1023400000000808F8080800C08080807F000000B6
:1023500008F888C028180800203F200126382000EF
:1023600008F8080000000000203F20202020300056
:1023700008F8F800F8F80800203F003F003F200070
:1023800008F830C00008F808203F200007183F0078
:10239000E01008080810E0000F10202020100F00A7
:1023A00008F808080808F000203F2101010100009A
:1023B000E01008080810E0000F18242438504F00DF
:1023C00008F8888888887000203F2000030C30209F
:1023D00000708808080838000038202121221C00DD
:1023E000180808F8080818000000203F2000000026
:1023F00008F808000008F808001F202020201F000F
:102400000878880000C83808000007380E0100006E
:10241000F80800F80008F800033C0700073C030038
:10242000081868808068180820302C03032C30209E
:102430000838C800C83808000000203F200000000D
:1024400010080808C8380800203826212020180065
:10245000000000FE020202000000007F4040400039
:10246000000C30C000000000000000010638C00071
:1024700000020202FE000000004040407F00000019
:10248000000004020202040000000000000000003E
:10249000000000000000000080808080808080803C
:1024A0000002020400000000000000000000000024
:1024B00000008080808000000019242222223F201A
:1024C00008F8008080000000003F112020110E005D
:1024D0000000008080800000000E112020201100EC
:1024E000000000808088F800000E112020103F209E
:1024F0000000808080800000001F22222222130022
:10250000008080F0888888180020203F202000006C
:102510000000808080808000006B94949493600021
:1025200008F8008080800000203F210000203F202C
:1025300000809898000000000020203F202000002C
:10254000000000809898000000C08080807F00001C
:1025500008F8000080808000203F24022D302000F9
:10256000000808F8000000000020203F20200000A4
:102570008080808080808000203F20003F20003FBE
:102580008080008080800000203F210000203F20CC
:102590000000808080800000001F202020201F007D
:1025A000808000808000000080FFA12020110E00AC
:1025B0000000008080808000000E112020A0FF809D
:1025C000808080008080800020203F21200001004A
:1025D000000080808080800000332424242419009F
:1025E000008080E0808000000000001F20200000AC
:1025F0008080000000808000001F202020103F20ED
:10260000808080000080808000010E30080601007C
:1026100080800080008080800F300C030C300F0021
:1026200000808000808080000020312E0E3120004C
:10263000808080000080808080818E70180601007C
:1026400000808080808080000021302C222130009A
:1026500000000000807C020200000000003F4040BB
:1026600000000000FF00000000000000FF0000006C
:102670000002027C800000000040403F000000009B
:102680000006010102020404000000000000000036
:10269000B026000800000020A80000002801000863
:1026A00058270008A8000020284B0000440100081B
:1026B00000A24A0400000000000000000102030420
:1026C00006070809000000000000000000000000EC
:1026D00000000000000000000000000000000000FA
:1026E00000000000000000000000000000000000EA
:1026F00000000000000000000000000004000000D6
:1027000000000000AAAAAAAA000000000000000021
:1027100000000000000000000000000000000000B9
:10272000000000000000000000000000010203049F
:10273000010203040607080902040608000000005D
:102740000000000000000000000000000000000089
:08275000000000000000000081
:04000005080000ED02
:00000001FF
