:020000040800F2
:100000007008002099010008F5130008C90D0008C8
:10001000F1130008DB0A0008C91A000800000000FC
:1000200000000000000000000000000001010008C6
:10003000DF0A00080000000045010008351900082B
:10004000B3010008B3010008B3010008B3010008C0
:10005000B3010008B3010008B3010008B3010008B0
:10006000B3010008B3010008B3010008B3010008A0
:10007000B3010008B3010008B3010008B301000890
:10008000B3010008B3010008B3010008B301000880
:10009000B3010008B3010008B3010008E10A000839
:1000A000B3010008B3010008B3010008B301000860
:1000B000B3010008B3010008B3010008B301000850
:1000C000B3010008B3010008B3010008B301000840
:1000D000B3010008A5190008B30100082D1A000893
:1000E000B3010008B3010008B3010008DFF80CD029
:1000F00000F080FC00480047E93A00087008002042
:10010000224B19680868B0E8F00F80F30988BFF344
:100110006F8F4FF0000080F311884EF00D0E704786
:100120000000000006480068006880F3088862B696
:1001300061B6BFF34F8FBFF36F8F00DF00BF00BF0B
:1001400008ED00E0EFF30980BFF36F8F0F4B1A68E3
:1001500020E9F00F106008B54FF0500080F31188CF
:10016000BFF34F8FBFF36F8F04F02EFF4FF00000EF
:1001700080F31188BDE8084019680868B0E8F00FFE
:1001800080F30988BFF36F8F704700BF38000020ED
:10019000EFF3058070470000064880470648004797
:1001A000FEE7FEE7FEE7FEE7FEE7FEE7FEE7FEE727
:1001B000FEE7FEE745190008ED0000082DE9F041D3
:1001C0000024061B254671F1000605DA01240027EC
:1001D000D0EB070067EB0101161E73F1000605DA8C
:1001E0000027D2EB0702012567EB030300F004FBB5
:1001F00086460E4617469C46AC4204D00025D0EBFE
:10020000050E65EB010624B10020D2EB000760EB80
:10021000030C704631463A466346BDE8F081D2B2DF
:1002200001E000F8012B491EFBD270470022F6E7DF
:1002300010B513460A4604461946FFF7F0FF20465C
:1002400010BD30B504460020034600E05B1C93421D
:1002500003D2E05CCD5C401BF8D030BDF0B480EA46
:100260000102D40F4200B2EB410F02D2024608460F
:1002700011464A0042D0C30DDDB2C1F3C752AD1AD8
:10028000202D35DAC1F3160141F4000204B15242C7
:10029000C5F1200602FA06F12A411044B3EBD05F03
:1002A00023D0C4B1012DA0EBC35009DCF0BC4FF04A
:1002B000004202EAC352DBB200F5000000F0F7BAD8
:1002C000400000F1807000EBC350A0F1807040EA64
:1002D000D170490009E0490841EAC071A0EBC35060
:1002E00000F50000400800EBC350F0BC00F0D6BAA7
:1002F0006142012202EB4101001BF6E7F0BC7047AE
:1003000081F00041AAE780F00040A7E780EA0102FF
:1003100010B502F00043400022D04A001FD0010E69
:1003200001EB1261C0F35600C2F3560240F4000024
:1003300042F40002A0FB022000047F39140400D024
:10034000401C50EA124001D44000491EC2B20C06C3
:1003500004EBD010401C4008802A02D003E00020AB
:1003600010BD20F00100002900DA0020184310BD64
:1003700030B480EA010202F0004530F0004221F082
:10038000004013D090B1C30DD40DC2F31601C0F3D9
:100390001600E41A41F4000140F400027D34914259
:1003A00001D3641C00E04900002C02DA30BC0020BC
:1003B00070474FF400000023914201D3891A034390
:1003C00040084FEA4101F7D151B1914202D14FF0BB
:1003D000004105E002D24FF0010101E06FF00101A0
:1003E00003EBC450284430BC00F058BA2DE9FE4F4E
:1003F000804681EA0300C00F0C46009021F00041C6
:1004000023F00045B8EB0200A94105D24046214641
:1004100090461C460B46024623F00040104347D04E
:10042000270DC7F30A00C3F30A510290401A019046
:1004300040286BDAC3F3130040F4801B0098924607
:1004400020B10023D2EB030A63EB0B0B0198594652
:10045000C0F14002504600F000FA06460D465046F4
:100460005946019A00F008FA10EB08006141002497
:1004700087EA115284EAE7731A4340D0009A62B3C4
:10048000019A012A4FEA075215DC001B61EB0201B9
:100490004FF0004202EA0752CDE90042001C41F54C
:1004A000801132462B4600F03FFA03B0BDE8F08FD2
:1004B00040462146F9E7001B61EB0201001C41F5B3
:1004C000801300185B412018A2F5001747EB0301C9
:1004D00040EAD570B6196D4111E06D084FEA360655
:1004E00045EAC0754FEA0752001B61EB0201001C90
:1004F00041F5801149084FEA300000195141324658
:100500002B4603B0BDE8F04F00F0FFB90098012280
:1005100040000023D0EB020263EBE0730098214619
:100520004FEAE074B8EB000061EB0401E9E783F007
:1005300000435BE781F0004158E72DE9FE4F81EA77
:10054000030404F0004421F0004100944FF0000B3C
:1005500023F0004350EA01045ED052EA03045BD06A
:10056000C3F30A54C1F30A552C44A4F2F3340194A2
:10057000A0FB0254C1F3130141F48011C3F3130330
:1005800043F4801301FB024400FB034E840A970AE4
:1005900044EA815447EA8357A4FB076802958D0A11
:1005A00005FB07854FEA932C04FB0C542705029D9D
:1005B0004FEA065847EA1637B5EB08056EEB070C0D
:1005C000870E920E47EA811742EA8312A7FB0201C7
:1005D000B6EB0B0164EB00042B0D43EA0C335E1801
:1005E00044EB1C50DA465146E7FB0201C5F3130405
:1005F0004FEA0B3343EA14534FEA0432019C43EAB7
:100600000603A4F10C040294009CCDE900B400F0B0
:100610008BF903B0BDE8F08F00200146F9E72DE922
:10062000F04D81EA030404F0004B21F0004514462C
:100630004FF0000A23F0004150EA050220D054EAAE
:1006400001021DD0C5F30A570246C5F31303C1F3D7
:100650001300C1F30A5640F4801543F48013A7EB4E
:100660000608101BD64608F2FD3873EB050002D3CE
:1006700008F1010801E092185B41B8F1000F03DABC
:1006800000200146BDE8F08D00204FF480110646A1
:1006900084460EE0171B73EB050705D3121B63EBB3
:1006A000050306434CEA010C49084FEA3000921852
:1006B0005B4150EA0107EDD152EA030012D082EA11
:1006C000040083EA0501084305D0101BAB4106D2A4
:1006D0000122002306E000224FF0004302E06FF009
:1006E000010253101AEB06004CEB085110EB0A0004
:1006F00041EB0B01BDE8F04D00F007B9C10F80EAF6
:10070000E0700844CA079623002100F0D0B8962371
:100710000022114600F0CBB800F0004220F000406B
:10072000C10DC0F3160040F400007F2901DA00205B
:100730007047962903DCC1F19601C84001E0963963
:100740008840002AF4D04042704720F00040C10D9C
:10075000C0F3160040F400007F2901DA0020704742
:10076000962903DCC1F19601C8407047963988404C
:10077000704700F0004230F000400AD0C10D01F592
:100780006071C0F3160042EA0151C20840071143EC
:10079000704700200146704701F0004330B421F05B
:1007A000004150EA010206D00A0DA2F56072C1F3C1
:1007B0001301002A02DC30BC00207047440F44EAD9
:1007C000C104C100E01830BC00EBC25000F066B8B4
:1007D000002801DBC0F10040002901DBC1F100412C
:1007E00081427047002801DBC0F10040002901DB95
:1007F000C1F10041884270472DE9F05F05460020B5
:1008000092469B4688460646814640241BE0284681
:1008100041464746224600F0FFF853465A46C01A62
:10082000914110D311461846224600F016F82D1AB1
:1008300067EB01084F4622460120002100F00DF829
:1008400017EB00094E41201EA4F10104DFDC4846ED
:1008500031462A464346BDE8F09F202A04DB203A71
:1008600000FA02F1002070479140C2F1200320FA03
:1008700003F3194390407047202A06DBCB17203A38
:1008800041FA02F043EAE07306E041FA02F3D04095
:10089000C2F1200291400843194670470029A8BFC1
:1008A0007047401C490008BF20F00100704710B499
:1008B000B0FA80FC00FA0CF050EA010404BF10BC4E
:1008C000704749B1CCF1200421FA04F411FA0CF17B
:1008D00018BF012121430843A3EB0C01CB1D4FEAB4
:1008E00000614FEA102042BF002010BC704700EBAF
:1008F000C35010440029A4BF10BC7047401C4900DD
:1009000008BF20F0010010BC704710B5141E73F131
:10091000000408DA401C41F1000192185B411A43BF
:1009200001D120F0010010BD2DE9F04D92469B460B
:1009300011B1B1FA81F202E0B0FA80F220329046B1
:10094000FFF78BFF04460F4640EA0A0041EA0B011D
:1009500053465A46084313D0114653EA010019D0B2
:10096000C8F14002504600F057F805460E46504682
:1009700059464246FFF771FF084305D0012004E0C5
:1009800020463946BDE8F08D0020054346EAE07672
:100990002C4337430A986305E40AA0EB08000022C1
:1009A000FD0A44EA47540A3002D500200146E9E72F
:1009B000010510196941DDE9084500196941BDE8E3
:1009C000F04DA2E770B521F0004303430CD0C1F312
:1009D0000A550024D5EB040564EB0403D617AD1AC1
:1009E000B34102DB0020014670BD201841EB0251EB
:1009F00070BD0000064C074D06E0E06840F00103C2
:100A000094E8070098471034AC42F6D3FFF772FB26
:100A1000A0650008C0650008202A04DB203A21FAFE
:100A200002F00021704721FA02F3D040C2F1200207
:100A300091400843194670472DE9F04D00231A46AE
:100A40001B1A8A4103DB00200146BDE8F08DC1F38B
:100A50000A52C1F3130141F480154FF0000BD10786
:100A600002D100186D41521E0027044640F2FF11CA
:100A7000384601EB620A3E468046024600204FF4AB
:100A80008011FFF7C9FFC2197141BB1846EB010085
:100A9000B4EB030C75EB000C04D3E41A65EB000512
:100AA00017460E46241908F101006D41804634288E
:100AB000E3DDF91946EB0600091BA84103D24FF00C
:100AC000FF32134601E0002213461BEB070046EB02
:100AD0000A51BDE8F04DFFF718BF00BFFEE77047B1
:100AE00010B52021094800F05FF968B920200849B5
:100AF0000860084A0849094803F07AF820B9084A0A
:100B00000849094800F0C8F910BD0000000C014078
:100B10001404014014000020100000200C000020EC
:100B200022000020200000201E0000200021234978
:100B30008279002A3AD00A46126803689A430B4623
:100B40001A600A1D126803689A430B1D1A60027925
:100B500011440A6803681A430A60184A0832126886
:100B600003689A43154B08331A601A1D126803680C
:100B70009A43124B0C331A604279102A0ED11A1F75
:100B8000126803681A430D4B08331A601A1D126865
:100B900003681A43094B0C331A600DE00749427988
:100BA00011440A6803681A430A6005E00279114497
:100BB0000A6803689A430A60704700000004014015
:100BC00030B500228B071C0F0F2303FA04F20B4BE6
:100BD0008C1053F824309343084C8D1044F8253082
:100BE00023468C1053F824308C07240F00FA04F4A9
:100BF0002343024C8D1044F8253030BD08000140DD
:100C00002DE9F041024600250026002000230024A3
:100C1000002791F803C00CF00F0591F803C00CF009
:100C2000100CBCF1000F03D091F802C04CEA05058E
:100C300091F800C0BCF1000F31D0146800202BE007
:100C40004FF0010C0CFA00F3B1F800C00CEA0306F7
:100C50009E4220D183004FF00F0C0CFA03F7BC43E7
:100C600005FA03FC4CEA040491F803C0BCF1280F18
:100C700006D14FF0010C0CFA00FCC2F814C00AE0D7
:100C800091F803C0BCF1480F05D14FF0010C0CFAEC
:100C900000FCC2F810C0401C0828D1D31460B1F881
:100CA00000C0BCF1FF0F34DD546800202EE000F1DD
:100CB000080C4FF0010808FA0CF3B1F800C00CEA78
:100CC00003069E4221D183004FF00F0C0CFA03F76C
:100CD000BC4305FA03FC4CEA040491F803C0BCF1E0
:100CE000280F05D100F1080C08FA0CF8C2F814809E
:100CF00091F803C0BCF1480F07D100F1080C4FF088
:100D0000010808FA0CF8C2F81080401C0828CED35D
:100D10005460BDE8F0810000F0B50A4600230024CD
:100D20000021002500F00046B6F1004F02D11D4E13
:100D3000F16901E01B4E7168C0F3034583B200F412
:100D40004016B6F5401F08D121F07061154E766847
:100D500026F07066134F7E6012E000F48016B6F540
:100D6000801F06D1032606FA05F4A14341F0706105
:100D700006E0460D360103FA06F6B14341F0706114
:100D800022B1460D360103FA06F6314300F0004663
:100D9000B6F1004F02D1034EF16101E0014E7160E6
:100DA000F0BD0000000001400246002093680B40A7
:100DB0000BB1012000E000207047016170470AB1CB
:100DC000016100E04161704700BFFEE710B500F02F
:100DD00012FB01F0DDFC00F015FC00F07DFB64204F
:100DE00001F0F8FC00F0D4F90A2001F0F3FC00F067
:100DF00017F802E003A000F069FE03F011F80028E4
:100E0000F8D110BD496E697469616C697A61746961
:100E10006F6E206661696C6564A3A10D0A00000015
:100E20001FB50121084600F0EDFC0121082000F06B
:100E3000E9FC2020ADF80C0048208DF80F0003A934
:100E40001448FFF7DDFE05210120FFF7B9FE202041
:100E5000019000208DF808000C208DF80900012079
:100E60008DF80A0001A8FFF761FE4FF4407000F012
:100E700029FB17208DF8000007208DF801000020C5
:100E80008DF8020001208DF80300684600F0E2FAB8
:100E90001FBD0000000C01402DE9FC4104460D4639
:100EA00016466B4606224321682000F0CBF9074620
:100EB000BFB99DF801009DF8001040EA012000B282
:100EC00020809DF803009DF8021040EA012000B246
:100ED00028809DF805009DF8041040EA012000B22A
:100EE00030803846BDE8FC8110B500200E4908600E
:100EF0000E48006820F470200C490860084600681D
:100F000040F44030086000200949C1F8900100F029
:100F100011F801200449086000F00CF80020044991
:100F2000C1F88C0110BD00008C812142000C0140F1
:100F30000080214210B5022001F072FC10BD0000BB
:100F400008B50121092000F05DFC01210C48FFF7E4
:100F5000E3FE0121082000F055FC1820ADF8000048
:100F600010208DF8030003208DF802006946054823
:100F7000FFF746FE18210348FFF71FFF08BD0000DA
:100F800000023000000C014010B500200E4908603E
:100F90000E48006820F470200C490860084600687C
:100FA00040F44030086001200949C1F89001FFF782
:100FB000C1FF012004490860FFF7BCFF002004497D
:100FC000C1F88C0110BD00008C812142000C014051
:100FD0000080214270B5054600241648006820F4C0
:100FE0007020144908600846006840F4002008603A
:100FF000002614E0002010490860FFF79BFF012045
:101000000E49C1F88C016006040E0B487C3800685C
:1010100008B1601CC4B2FFF78DFF701CC6B2082E69
:10102000E8DB15B9FFF7B0FF01E0FFF75DFF2046F1
:1010300070BD0000000C01408C81214200802142E3
:1010400070B504461248006820F47020104908600A
:101050000846006840F44030086000200D490860F0
:10106000002512E0E0090B49091D08606006040E26
:1010700001200949C1F88C01FFF75CFF00200549F8
:101080000860FFF757FF681CC5B2082DEADB70BD8A
:10109000000C01408C8121420080214210B50E4895
:1010A000006820F470200C4908600846006840F48D
:1010B000403008600120094908600949C1F88C01E5
:1010C000FFF738FF002005490860FFF733FF0020D5
:1010D0000349C1F88C0110BD000C014090812142F0
:1010E0000080214210B50E48006820F470200C49A1
:1010F00008600846006840F4403008600020094954
:1011000008600949C1F89001FFF714FF0120054963
:1011100008600549C1F89001FFF70CFF10BD000001
:10112000000C01408C8121420080214210B5002436
:101130001448006820F470201249086008460068CE
:1011400040F40020086001200F490860FFF7F2FE1C
:1011500001200E49C1F88C01FFF7ECFE07E0601C8E
:10116000C4B2FA2C03DDFFF7BDFF012010BD064815
:10117000803800680028F2D10349091F086000BFC9
:10118000F4E70000000C01409081214200802142E0
:1011900010B5FFF7D5FE80216B2000F0D7F8322084
:1011A00001F018FB00216B2000F0D0F8032000F0C4
:1011B0008BF8002000F080F8C82000F0AAF8002189
:1011C0006A2000F0C3F80021232000F0BFF80121BD
:1011D000382000F0BBF88021372000F0B7F87520E8
:1011E00000F013F80446682C0BD101216B2000F0AD
:1011F000ADF800216C2000F0A9F8C82000F089F8B3
:1012000001E0012010BD0020FCE770B50446FFF7A7
:1012100045FFD020FFF714FFFFF788FF2046FFF7B8
:101220000FFFFFF783FFFFF739FFD120FFF708FF1C
:10123000FFF77CFF0020FFF7CDFE0546FFF752FFCA
:10124000284670BD2DE9F04106460F4614461D465E
:10125000FFF724FF002141EA4601C8B2FFF7F0FE84
:10126000FFF764FF20B1FFF73DFF0120BDE8F081EB
:101270003846FFF7E5FEFFF759FFFFF70FFF0121A3
:1012800001EB4601C8B2FFF7DBFEFFF74FFF0DE0B1
:10129000012C04D10020FFF79DFE287003E00120FF
:1012A000FFF798FE2870601EC4B26D1C002CEFD1B1
:1012B000FFF718FF0020D9E710B50446E006010E3D
:1012C0001C2000F043F810BD10B50446E006010EE6
:1012D0001B2000F03BF810BD70B504460025BC2C67
:1012E00001DB012510E0622C01DB02250CE02A2C39
:1012F00001DB032508E0142C01DB042504E00A2CA3
:1013000001DB052500E0062529461A2000F01EF81D
:1013100070BD70B50446B4F57A7F01DD4FF47A7480
:10132000042C00DA04244FF47A7090FBF4F0401E91
:10133000C5B22946192000F009F80546264604EBF7
:10134000D671C1F34F00FFF7C7FF70BD70B50546FA
:101350000C46FFF7A3FED020FFF772FEFFF7E6FE74
:1013600018B1FFF7BFFE012070BD2846FFF768FEE9
:10137000FFF7DCFE2046FFF763FEFFF7D7FE18B14C
:10138000FFF7B0FE0120EFE7FFF7ACFE0020EBE730
:101390002DE9F04105460E4617469846FFF77EFEBA
:1013A000002141EA4501C8B2FFF74AFEFFF7BEFE41
:1013B00020B1FFF797FE0120BDE8F0813046FFF72E
:1013C0003FFEFFF7B3FE00240CE018F80400FFF71F
:1013D00037FEFFF7ABFE18B1FFF784FE0120EBE705
:1013E000601CC4B2BC42F0DBFFF77CFE0020E3E7E8
:1013F00000BFFEE7704708B51E208DF800000820EA
:101400008DF8010000208DF8020001208DF8030006
:10141000684600F01FF826208DF8000006208DF8A1
:10142000010000208DF8020001208DF803006846BD
:1014300000F010F825208DF8000009208DF801003B
:1014400000208DF8020001208DF80300684600F0AE
:1014500001F808BD70B5002100230F22C47804B341
:10146000154C246804F4E064C4F5E064210AC1F179
:101470000403CA40447804FA03F1847814402143F9
:1014800009010E4C0678A155047804F01F050124CB
:10149000AC4005786D11AD0005F1E025C5F80041BF
:1014A00009E0047804F01F050124AC40044D0678DF
:1014B000761145F8264070BD0CED00E000E400E038
:1014C00080E100E002490143024A116070470000D8
:1014D0000000FA050CED00E070B500240EE00021DC
:1014E000204600F0F0F8002504E0002000F079F933
:1014F000681CC5B2802DF8DB601CC4B2082CEEDB82
:1015000070BD000008B50121082000F07BF914200F
:101510008DF8030003208DF802004FF48070ADF8C1
:10152000000069460A48FFF76BFB4FF40070ADF806
:10153000000069460648FFF763FB01225102044898
:10154000FFF73DFC012211020148FFF738FC08BDFE
:10155000000C014070B50546002415E080202041B4
:1015600000EA05024FF480710E48FFF728FC0122C3
:1015700051020C48FFF723FC00224FF40071094888
:10158000FFF71DFC601CC4B2082CE7DB01225102EE
:101590000448FFF714FC00224FF400710148FFF7E4
:1015A0000EFC70BD000C014010B5012211020A486A
:1015B000FFF705FC012251020748FFF700FC00225B
:1015C0004FF480710448FFF7FAFB00224FF40071DA
:1015D0000148FFF7F4FB10BD000C014010B50022DC
:1015E0004FF480710648FFF7EAFB012251020448DC
:1015F000FFF7E5FB012211020148FFF7E0FB10BDF8
:10160000000C014070B5002406E0002500E06D1CD0
:10161000B5F57A7FFBD3641CB4F57A7FF5D3FFF779
:1016200071FFAE2000F0CDF8D52000F0CAF8802080
:1016300000F0C7F8A82000F0C4F83F2000F0C1F87F
:10164000D32000F0BEF8002000F0BBF8402000F0EE
:10165000B8F8A12000F0B5F8C82000F0B2F8DA2000
:1016600000F0AFF8122000F0ACF8812000F0A9F8EB
:10167000CF2000F0A6F8D92000F0A3F8F12000F068
:10168000A0F8DB2000F09DF8302000F09AF8A420AC
:1016900000F097F8A62000F094F88D2000F091F863
:1016A000142000F08EF8AF2000F08BF8FFF714FF45
:1016B00070BD10B50246012000E050430B1EA1F1A1
:1016C0000101FAD110BD70B505460C4645F0B000D9
:1016D00000F077F8102141EA141000F072F804F0DD
:1016E0000F0000F06EF870BD2DE9F04105460E4682
:1016F0001746721ED206110E6A1E5206100EFFF712
:10170000E2FF002409E0A7F12001134A02EB0111D6
:10171000085D00F066F8601CC4B2082CF3DB721E92
:10172000D206110E6A1E012303EB4202D0B2FFF76C
:10173000CAFF00240BE0A7F12001074A02EB0112C7
:1017400004F10801505C00F04CF8601CC4B2082C95
:10175000F1DBBDE8F08100006A5E00082DE9F0478A
:101760008146884615461E46002D06DB2B22414643
:101770004846FFF7B9FF2F4605E02D22414648466F
:10178000FFF7B2FF6F42002417E0301B411E0A2012
:10179000FFF78FFFB7FBF0F00A21B0FBF1F201FB7E
:1017A000120000F1300A08EB0400401CC1B252469E
:1017B0004846FFF799FF601CC4B2B442E5DBBDE8C0
:1017C000F08710B50446FFF7EFFE7820FFF7C2FE62
:1017D0000020FFF7BFFE2046FFF7BCFEFFF7FEFE2E
:1017E00010BD10B50446FFF7DFFE7820FFF7B2FE0C
:1017F0004020FFF7AFFE2046FFF7ACFEFFF7EEFEFE
:1018000010BD000029B1064A92690243044B9A6157
:1018100004E0034A92698243014B9A6170470000D9
:101820000010024010B500F001F810BD0CB500200A
:10183000019000903348006840F4803031490860DE
:1018400000BF3048006800F4003000900198401C50
:101850000190009818B90198B0F5A06FF1D129480E
:10186000006800F4003010B10120009001E0002079
:1018700000900098012843D12348006840F01000F0
:10188000214908600846006820F003000860084607
:10189000006840F0020008601A4840681949486032
:1018A0000846406848600846406840F480604860E8
:1018B0000846406820F47C1048600846406840F4C0
:1018C000E81048600846006840F08070086000BF7B
:1018D0000C48006800F000700028F9D00948406802
:1018E00020F00300074948600846406840F00200C5
:1018F000486000BF0348406800F00C000828F9D198
:101900000CBD00000010024000200240042808D155
:101910004FF0E021096941F004014FF0E02211612C
:1019200007E04FF0E021096921F004014FF0E022C7
:101930001161704710B503F0B5FB012801D003F029
:1019400097FB10BD10B51348006840F00100114925
:10195000086008464068104908400E49486008463B
:1019600000680E4908400B4908600846006820F4EA
:10197000802008600846406820F4FE0048604FF46C
:101980001F008860FFF74EFF4FF0006004490860B9
:1019900010BD0000001002400000FFF8FFFFF6FE3F
:1019A00008ED00E010B540F225511D4800F05DF84B
:1019B00010B31B4800F083F8C4B21A48008800F442
:1019C0000040C8B91748008800F4804060B10A2C74
:1019D00003D000201349088020E01248008840F41A
:1019E00000401049088019E00D2C06D10D480088F0
:1019F00040F480400B49088010E00A480088C0F39A
:101A00000D0009490C5407480088401C054908800E
:101A100008460088C72801DD0020088010BD0000AE
:101A20000038014008000020B000002010B520213F
:101A3000054800F00DF8012805D1034800F03FF8F3
:101A400040B20249087010BD00480040A9000020C3
:101A500002460020B1F5007F00D100BF13880B4083
:101A60000BB1012000E00020704770B50246002451
:101A700000230025002040F66A16B14200D100BFC5
:101A8000C1F3421501F01F03012606FA03F3012DED
:101A900002D19689334006E0022D02D1168A3340E6
:101AA00001E0968A33400C12012606FA04F41688E7
:101AB000344013B10CB1012000E0002070BD01469C
:101AC0008888C0F30800704700BFFEE70FB4054BDD
:101AD00010B503A9044A029800F09AF810BC5DF80A
:101AE00014FB00002134000804000020490050EAE3
:101AF000C12018BF04204A0D18BF40F0010040F279
:101B0000FF72B2EB515F08BF40F00200012808BF2E
:101B1000052070472DE9F0414F1E00EBC701044638
:101B2000D1E9000115461E4637F006020DD02A46BF
:101B30003346FEF702FD7F1E04EBC703D3E9002303
:101B4000FEF754FC37F00602F1D1022F25D0042F06
:101B500013D0062F18BFBDE8F0812A463346FEF7A2
:101B6000ECFCD4E90A23FEF741FC2A463346FEF793
:101B7000E4FCD4E90823FEF739FC2A463346FEF795
:101B8000DCFCD4E90623FEF731FC2A463346FEF797
:101B9000D4FCD4E90423FEF729FC2A463346FEF799
:101BA000CCFCD4E90223FEF721FC2A463346FEF79B
:101BB000C4FCD4E90023BDE8F041FEF717BC0122C4
:101BC000FEF700BFFEF712BC002213461046114676
:101BD000FEF725BD024A00201107FEF7F3BE000004
:101BE00001FDFFFF02E008C8121F08C1002AFAD158
:101BF00070477047002001E001C1121F002AFBD18D
:101C0000704700000149086070470000AC000020E8
:101C10002DE9FF4F8DB00F460546002606E025282A
:101C20000BD0DDE90F1290476D1C761C2878002838
:101C3000F5D111B03046BDE8F08F0024A246A14690
:101C40000122EC4900E0044315F8013F203B02FA71
:101C500003F00842F7D128782A2810D06FF02F021D
:101C60002878A0F13001092914D80AEB8A0102EB87
:101C7000410144F0020400EB010A6D1CF0E701CFC2
:101C80005FEA000A03D544F40054CAF1000A44F0A4
:101C900002046D1C28782E2817D115F8010F44F086
:101CA00004042A280ED06FF02F022878A0F130010A
:101CB00009290AD809EB890102EB410100EB01096E
:101CC0006D1CF2E757F8049B6D1C28786C280FD028
:101CD00006DC4C2817D068280DD06A2814D104E0FF
:101CE000742810D07A280FD10DE044F400140AE0D3
:101CF00044F4801401E044F440146978814202D134
:101D000004F580146D1C6D1C2A786E2A1FD00CDC23
:101D1000632A31D004DC002A8BD0582A11D1A3E0E9
:101D2000642A68D0692A0CD165E0732A2ED004DCBD
:101D30006F2A73D0702A04D19BE0752A6FD0782A5D
:101D40006ED01046DDE90F129047761C50E1C4F3C7
:101D50000250022806D0032809D0042801CF09D058
:101D6000066045E101CFF117C0E9006140E101CF14
:101D700006803DE106703BE117F8040B8DF800008A
:101D800000208DF80100EB46012003E057F804BB6A
:101D90004FF0FF3061074FF0000102D40DE008F171
:101DA0000101884649450FDA8045F8DB1BF8081029
:101DB0000029F4D108E008F1010188468142FADBEC
:101DC0001BF808100029F6D1DDE90F23AAEB080063
:101DD0008146214600F036F9304400EB080604E065
:101DE000DDE90F121BF8010B9047B8F10108F7D29B
:101DF00021464846F7E00A21C4F302534FF0000B96
:101E00000891022B04D001CFC117032B09D00AE09F
:101E1000FF1D27F00707F7E8020108E032E01FE0A6
:101E200020E000B2C117042B01D140B2C117031E3C
:101E300071F1000307DA4FF0000CD0EB0C006CEBF3
:101E400001012D2302E0230504D52B238DF8243036
:101E5000012303E0E30701D02023F7E7984658E089
:101E60000A2110E010210EE010204FF0000B089026
:101E70000CE010214FF0000B44F004044FF008096F
:101E8000089103E008214FF0000B0891C4F30253BE
:101E9000022B04D001CF0021032B06D006E0FF1D4A
:101EA00027F00707F7E8020103E080B2042B00D116
:101EB000C0B24FF0000823072BD5702A07D0DDF8F9
:101EC00020C08CF0100C5CEA0B0C05D00EE0402317
:101ED0008DF82430012308E050EA010306D03023B6
:101EE0008DF824308DF8252002239846DDF820C097
:101EF0008CF0080C5CEA0B0C0BD150EA010301D109
:101F0000630706D530238DF824304FF00108A9F17E
:101F10000109582A04D038A20B9208AA0A920BE0B1
:101F20003AA2F9E75B46089AFEF766FC0B9B9B5CBE
:101F30000A9A521E0A92137050EA0102F2D10A98CC
:101F4000ADEB000000F1200B600702D524F48034D3
:101F500001E04FF00109D94502DDA9EB0B0000E0DB
:101F6000002000EB0B0141440890AAEB010AE003BA
:101F700006D4DDE90F232146504600F063F80644FD
:101F80004FF0000908E009A911F80900DDE90F1276
:101F9000904709F10109761CC145F4DBE0030CD53B
:101FA000DDE90F232146504600F04CF8064404E0DA
:101FB000DDE90F1230209047761C0899481E0890E2
:101FC0000029F5DC08E00A980A990078491C0A9172
:101FD000DDE90F129047761CBBF10001ABF1010B5C
:101FE000F1DC21465046DDE90F2300F019F80644E4
:101FF0006D1C1BE609280100303132333435363789
:102000003839616263646566000000003031323344
:1020100034353637383941424344454600000000E4
:102020002DE9F041044600251E461746880404D4D5
:1020300005E039462020B0476D1C641EF9D52846BE
:10204000BDE8F0812DE9F041044600251E4690468A
:10205000C80301D5302700E02027880404D505E017
:1020600041463846B0476D1C641EF9D52846BDE888
:10207000F08100002DE9FE4F06460F460025684618
:1020800001F0DCF9002442E056F8240057F824104F
:10209000A0EB010ABAF1000F01DB514601E0CAF1E1
:1020A00000010846FEF72AFB83464FF08F41FEF7FA
:1020B0005FF980465DF824000021FEF789FB16D009
:1020C0005DF824104046FEF753F982464FF07E51EA
:1020D000FEF716F9814629F0004A0F48416A50463A
:1020E000FEF780FB12D20120A04005430EE00A4813
:1020F000C1694046FEF76CFB05D30748016A4046BC
:10210000FEF770FB02D20120A0400543641C032CA3
:10211000BADB2846BDE8FE8F4C5200082DE9F04D91
:102120008D4F21F0004A86B005460C46BA452ADBA1
:10213000AAEB070028430AD08848824501DC1AD15F
:10214000CDB106B02846BDE8F04DFFF738BD844A52
:10215000844B2846FEF7F1F907460E46824A834B28
:1021600028462146FEF7E9F906B03A463346BDE86F
:10217000F04DFEF73BB90120FFF744FD06B0BDE886
:10218000F04DFFF721BD7A48824542DABAF1795F16
:102190000BDA2846FFF7AAFC042808BFFFF71AFD50
:1021A000284606B02146BDE8F08D2A460B4610466B
:1021B000FEF7C3F9834602466E480E460B460621DB
:1021C0007844FFF7A7FC5A463346FEF7B6F9804637
:1021D00069488A465A46334604217844FFF79AFCF8
:1021E0005A463346FEF7A9F900223B46FEF7FEF8B1
:1021F00002460B4640465146FEF711FA2A46234650
:10220000FEF79BF906B02A462346BDE8F04DFEF7DF
:10221000EDB8284624F0004100223D463B46FEF73B
:1022200089F94FF0FF32FEF7CDFB064602465348D0
:102230000F460B4606217844FFF76CFC32463B46BE
:10224000FEF77BF9CDE900014D4832463B460421BB
:102250007844FFF75FFC32463B46FEF76EF90022FA
:102260002B46FEF7C3F8834602913046394602F00A
:1022700065FE804643480D46504517DCDDE9000108
:102280005A46029BFEF7CBF942462B46FEF755F91C
:1022900042462B46FEF7AAF80122FEF793FB304A8E
:1022A000304BFEF744F9304A304B4CE04FF0000A17
:1022B00052460B464046FEF799F8CDE903105246C8
:1022C0002B4610461946FEF738F932463B46FEF7D4
:1022D00031F9DDE90332FEF7A2F906460F46DDE9E2
:1022E00000015A46029BFEF79AF9834600910122AB
:1022F00030463946FEF766FB194A1A4BFEF71AF9C3
:1023000006460F46012240462946FEF75BFB5A4629
:10231000009BFEF712F932463B46FEF708F90646E7
:102320000F46012250462946FEF74CFB0E4DDFF8C2
:1023300058802A464346FEF7FDF832463B46FEF7F4
:10234000F9F82A464346FEF7F5F8002CD8BF81F08D
:10235000004106B0BDE8F08D0000F03F0000F07FC6
:10236000075C143326A6913C182D4454FB21F93FF9
:102370000000E03F9C420000B24200002642000004
:102380003C4200003333EF3FFB21E93F2DE9F84F9A
:1023900004460D4621F0004000917349814211DC52
:1023A0007249884201DC06D12CB120462946BDE89D
:1023B000F84FFFF704BC6E48002DCCBF6D496E4945
:1023C000BDE8F88F6D49814211DD6D498142D8BF6A
:1023D0004FF0FF366DDD20462946FFF787FB0428C6
:1023E00008BFFFF7F7FB20462946BDE8F88F65498F
:1023F000654F25F00045814233DD6449814219DD96
:10240000002632464FF0804320462946FDF7EEFF76
:1024100080468A46012220462946FEF7D3FA00224A
:102420003B46FEF784F842465346FEF7F8F804466A
:102430000D463EE001260022BA463B46204629468C
:10244000FDF7D4FF80460F4600225346204629461A
:10245000FEF76DF842463B46FEF7E1F804460D46AE
:1024600027E04B4981421BDDDFF828A1022600222C
:10247000534620462946FEF760F800223B46FDF70A
:10248000B5FF80460F460022534620462946FEF7F8
:102490004EF842463B46FEF7C2F804460D4608E0B9
:1024A000032622462B4600203B49FEF7B8F8044697
:1024B0000D4622462B4610461946FEF73EF88B463F
:1024C000824602460B46FEF738F807460246334876
:1024D00088460B4606217844FFF71CFB52465B46B4
:1024E000FEF72BF882462E488B463A464346052196
:1024F0007844FFF70FFB3A464346FEF71EF80246C4
:102500000B46002E504659460CDAFDF76FFF224667
:102510002B46FEF712F801B022462B46BDE8F04FDD
:10252000FEF708B8FDF762FF22462B46FEF705F8D6
:102530001C4A7A4402EBC603D3E90023FDF7F7FFF8
:1025400022462B46FDF7F3FF174A7A4402EBC603F7
:10255000D3E90023FDF7EEFF009A002AB8BF81F00F
:102560000041BDE8F88F0000000010440000F07F3B
:10257000182D4454FB21F93FFB21F9BF0000DC3F3B
:102580000000203E0000F33F0000F03F0000E63F67
:10259000008003400000F83F0000F0BF3E40000014
:1025A000FC3F00009A3F0000623F00002DE9F04D23
:1025B0009446CCF1000423F000464CEA0404524F48
:1025C00046EAD4749A46884621F00042BC4206D8B6
:1025D000454240EA050442EAD474BC4204D9BDE84D
:1025E000F04D6246FFF7EEBAAAF14055A5F17F65BE
:1025F00055EA0C040BD0022404EAAA74434DDFF818
:1026000010E144EAD87452EA000B04D00CE0BDE8B3
:10261000F04DFFF7BBBE002C14BF012CBDE8F08DC0
:10262000022C30D0032C32D056EA0C0B0AD0BE421A
:1026300020D1BA4209D126F0804622F080423346AA
:10264000114617E000291ADB25E0DFF8C8B0FB448B
:10265000002C04BFDBE90001BDE8F08D012C02BFB6
:10266000DBE9000181F00041BDE8F08D022C0AD0C9
:10267000032C0CD0BA4212D1B8F1000F0BDA234868
:102680002549BDE8F08D28462449BDE8F08D28464F
:102690007146BDE8F08D1D482149BDE8F08D921BC3
:1026A00012153C2AC4BF19481D490EDCBAF1000FAF
:1026B000BEBF12F13C0F0020014606DB6246FDF76B
:1026C000AEFF21F00041FFF761FE002C08BFBDE81E
:1026D000F08D012C04BF81F00041BDE8F08D114A5E
:1026E000114B022C07D0FDF722FF2A46BDE8F04D22
:1026F0000A4BFDF71CBFFDF71AFF2A46BDE8F04D57
:10270000064BFDF717BF00000000F07F182D445462
:10271000FB2109C0F63E0000FB21F9BFFB21094067
:10272000FB21F93F075C143326A6A13C2DE9F041BB
:102730000446E07800F0C006E07800F03F056078DD
:1027400000F0010098B1EF102846E91705EB517130
:10275000C910A5EBC101491C01F0FF080B48006836
:1027600020B10A48414602683846904700BF607869
:1027700000F0080030B10548406818B1B011034AB4
:10278000516888470020BDE8F08100005C0400200B
:1027900010B56FF00400FFF7B9F80A4800680A495D
:1027A000B0FBF1F0094908700846007800EB4001E1
:1027B000C1EBC0104FF6FF7101EAC0000449088068
:1027C00010BD00002400002000127A00000000204C
:1027D000020000200146114A12884A434FF0E023CC
:1027E0005A6100229A611A46126942F001021A6186
:1027F00000BF4FF0E022106900F001021AB100F4AE
:102800008032002AF5D04FF0E022126922F0010256
:102810004FF0E0231A6100229A6170470200002005
:102820000146114A12784A434FF0E0235A610022D0
:102830009A611A46126942F001021A6100BF4FF014
:10284000E022106900F001021AB100F48032002A7F
:10285000F5D04FF0E022126922F001024FF0E023A0
:102860001A6100229A6170470000002038B50446C2
:1028700064B120208DF8000028208DF80100302060
:102880008DF8020038208DF8030004E0A322042113
:102890006846FDF7C4FC6A46042140F69E2002F01B
:1028A00061FA01F04BFE38BD3EB5044602208DF8BA
:1028B0000000CA208DF80100E3208DF802000920F5
:1028C0008DF803006A460421682002F04BFAA32029
:1028D0008DF8000004F0400048B1C0208DF80100E0
:1028E000C8208DF80200C2208DF8030006E0A32066
:1028F0008DF801008DF802008DF8030004F4C0701B
:1029000048B1C4208DF80400CC208DF80500C62005
:102910008DF8060006E0A3208DF804008DF8050070
:102920008DF80600A3208DF807008DF808008DF8BB
:1029300009006A460A2140F6A72002F013FA04F0C3
:10294000030018B120208DF8000002E0D8208DF897
:1029500000006A46012140F6B62002F003FA04F0B6
:10296000200018B1012000F0ADF802E0002000F0D6
:10297000A9F804F4C07008B304F4807060B1B22008
:102980008DF800008B208DF80100B6208DF8020034
:102990009B208DF803000BE0B0208DF80000802014
:1029A0008DF80100B4208DF8020090208DF803000E
:1029B0006A46042140F6A22002F0D4F904F0010096
:1029C00020B3F8208DF800006A4601214FF40B6017
:1029D00002F0C8F9FA21072000F02CFC072000F0D3
:1029E000F3FB012000F013FC642000F0F3FC4FF433
:1029F000FA7000F002FDC821304800F0A3FB282047
:102A000000F0BCFB0A2000F0CCFB08E0D8208DF8D9
:102A100000006A4601214FF40B6002F0A3F904F0B4
:102A2000020018B1D9208DF8000002E0D8208DF8FE
:102A300000006A46012140F23D7002F093F904F073
:102A4000040018B1012000F069F802E0002000F055
:102A500065F804F0100018B10120FFF707FF02E04D
:102A60000020FFF703FF44F008001549488101F0FA
:102A700065FD00201249887304F0400018B1084633
:102A8000807B801D887304F4C07020B10C48807B6B
:102A9000801D0B49887304F0140020B10848807B26
:102AA00010300749887304F0030020B10448807B8C
:102AB000001D0349887300203EBD000009E3CA02DF
:102AC0005C0400203EB504466CB10EA1D1E90020A3
:102AD0008968CDE9002002916A4609214FF4976088
:102AE00002F040F93EBD0AA2D2E900109268CDE999
:102AF000010200916A4609214FF4976002F032F911
:102B0000F0E70000B8AAB38DB4980D355D00000061
:102B1000B8AAAAAAB088C3C5C700000038B5044641
:102B200064B1C0208DF80000C2208DF80100C420DF
:102B30008DF80200C6208DF8030004E08B220421EA
:102B40006846FDF76CFB6A46042140F6982002F0C7
:102B500009F901F0F3FC38BD10B5C8234FF48062C9
:102B6000024940F6F63001F07DFB10BD74520008BA
:102B70002DE9F04F8DB00746884615469946DDE9A8
:102B8000166B0024002030806B49887B5A4605A9CB
:102B900001F034FC18B1601E0DB0BDE8F08F66483E
:102BA000807A00F01400002867D09DF81400000619
:102BB0009DF8151040EA01409DF8161040EA0120EA
:102BC0009DF81710084328609DF8180000069DF82E
:102BD000191040EA01409DF81A1040EA01209DF8C2
:102BE0001B10084368609DF81C0000069DF81D102E
:102BF00040EA01409DF81E1040EA01209DF81F1098
:102C00000843A8609DF8200000069DF8211040EAC6
:102C100001409DF8221040EA01209DF8231008434E
:102C2000E86004F11000C4B22868001401906868DC
:102C300000140290A86800140390E868001404903F
:102C400001984043029901FB0100039901FB010037
:102C5000049901FB010ABAF1706F02DBBAF1885FD7
:102C600005DD01F06BFC00203080401E94E7B6F9D2
:102C7000000040F48070308000BF2F48807A00F060
:102C8000400020B305A9601C085C095D40EA0120F2
:102C900000B2A8F8000005A9E01C095C05AAA01C68
:102CA000105C41EA002000B2A8F8020005A9601DEE
:102CB000095C201D105C41EA002000B2A8F8040065
:102CC000A01DC4B2B6F9000040F0080030801A48D8
:102CD000408900F4C07008B305A9601C085C095D58
:102CE00040EA012000B2388005A9E01C095C05AA71
:102CF000A01C105C41EA002000B2788005A9601D8C
:102D0000095C201D105C41EA002000B2B880A01DC3
:102D1000C4B2B6F9000040F0700030800648807AF6
:102D200000F0030018B105A90819FFF7FFFC484699
:102D300000F024FF00202FE75C04002070B588B06D
:102D4000064601A801F0E2F8BDF804000021C9031D
:102D500041EA5045C4034448007A00F0030056F8A5
:102D6000200005904048007A00F0040010B105985A
:102D7000404205903C48007AC0F3C10056F820005C
:102D800006903948007A00F0200010B106984042C1
:102D900006903548007AC0F3811056F8200007905D
:102DA0003148008900F4807010B1079840420790C4
:102DB0000598C117A0FB042301FB043100FB05109B
:102DC000810041EA927005900698C117A0FB042388
:102DD00001FB043100FB0510810041EA927006906E
:102DE0000798C117A0FB042301FB043100FB051069
:102DF000810041EA927007900598000E8DF8080056
:102E00000598000C8DF809000598000A8DF80A0055
:102E10000598C0B28DF80B000698000E8DF80C00D6
:102E20000698000C8DF80D000698000A8DF80E002B
:102E30000698C0B28DF80F000798000E8DF81000AC
:102E40000798000C8DF811000798000A8DF8120001
:102E50000798C0B28DF8130002AA0C214FF4257018
:102E600001F080FF08B070BD5C04002030B585B073
:102E7000044616A207CA02AB07C3C82C03DD4FF0F5
:102E8000FF3005B030BDC82090FBF4F0401E85B285
:102E9000280A8DF80000E8B28DF801006A46022188
:102EA00040F2162001F05EFF10B14FF0FF30E8E76E
:102EB00002AA0C2140F6C12001F054FF10B14FF0DE
:102EC000FF30DEE7044884810020DAE7FEF2ABC47D
:102ED000AAF1DFDFBBAFDFDF5C0400201FB50446D3
:102EE0004848007A00F0030054F82000019045485B
:102EF000007A00F0040010B101984042019041486E
:102F0000007AC0F3C10054F8200002903D48007AD6
:102F100000F0200010B10298404202903948007A37
:102F2000C0F3811054F8200003903648008900F463
:102F3000807010B10398404203903349019880FBA0
:102F40000101800F40EA810001902F49029880FB27
:102F50000110820042EA917002902B49039880FB95
:102F60000110820042EA917003900198000E8DF8E2
:102F700000000198000C8DF801000198000A8DF8FE
:102F800002000198C0B28DF803006A4604214FF494
:102F9000747001F0E7FE18B14FF0FF3004B010BDBF
:102FA0000298000E8DF800000298000C8DF80100C8
:102FB0000298000A8DF802000298C0B28DF8030052
:102FC0006A4604214FF4757001F0CCFE10B14FF049
:102FD000FF30E3E70398000E8DF800000398000C23
:102FE0008DF801000398000A8DF802000398C0B222
:102FF0008DF803006A4604214FF4767001F0B2FEAA
:10300000CCE700005C04002009E3CA0210B586B0DA
:10301000044647A00068039046A00068029046A0BE
:103020000068019045A00068009004F0030003A927
:10303000085C8DF8140003A8C4F3C101405C8DF84E
:10304000150003A8C4F38111405C8DF8160004F04C
:10305000030002A9085C8DF8100002A8C4F3C101A6
:10306000405C8DF8110002A8C4F38111405C8DF81A
:10307000120005AA032140F2264001F073FE18B1A8
:103080004FF0FF3006B010BD04AA032140F22A40E1
:1030900001F068FE10B14FF0FF30F3E701980590A2
:1030A0000098049004F0040058B19DF8140040F01A
:1030B00001008DF814009DF8100040F001008DF81B
:1030C000100004F0200058B19DF8150040F00100F8
:1030D0008DF815009DF8110040F001008DF81100E9
:1030E00004F4807058B19DF8160040F001008DF88E
:1030F00016009DF8120040F001008DF8120005AA9C
:1031000003214FF4886001F02DFE10B14FF0FF3025
:10311000B8E704AA032140F2314001F023FE10B1C8
:103120004FF0FF30AEE7064804810020AAE7000018
:103130004CCD6C000CC92C00365676002646660035
:103140005C040020F8B505460E464FF47A7095FBF6
:10315000F0F000FB06F4200E8DF80000200C8DF836
:103160000100200A8DF80200E0B28DF803006A46E3
:1031700004214FF4AE7001F0F5FDF8BD38B50446FA
:10318000052094FBF0F084B220128DF80000E0B22C
:103190008DF801006A4602214FF4AD7001F0E2FDA6
:1031A00038BD38B50446052094FBF0F084B22012F7
:1031B0008DF80000E0B28DF801006A4602214FF45C
:1031C000AC7001F0CFFD38BD38B50446002000904A
:1031D00004F0010020B19DF8000040F030000090A4
:1031E00004F0020020B19DF8000040F00C000090B7
:1031F00004F0040020B19DF8000040F003000090AE
:103200006A4601214FF4A47001F0ACFD38BD38B519
:103210000446012C01DA012402E0042C00DD042420
:10322000601EC0B200906A46012140F24F1001F0CA
:1032300099FD38BD2DE9FC4706460F4606F007000C
:1032400010B1B7F5C86F03DD4FF0FF30BDE8FC8764
:103250003846FDF75CFA81465949FDF789F8804602
:10326000684600F02DFE9DF80000022806D00428D4
:1032700016D0082826D0102848D135E04FF08D41CF
:103280004046FDF743F88146FDF75FFA84B24D49A9
:103290004046FDF73BF88146FDF757FA85B238E026
:1032A0004FF08C414046FDF731F88146FDF74DFA6D
:1032B00084B245494046FDF729F88146FDF745FAB5
:1032C00085B226E04FF08B414046FDF71FF881465E
:1032D000FDF73BFA84B23D494046FDF717F88146B9
:1032E000FDF733FA85B214E04FF08A414046FDF70E
:1032F0000DF88146FDF729FA84B235494046FDF7BD
:1033000005F88146FDF721FA85B202E04FF0FF3063
:103310009CE700BF20128DF80400E0B28DF8050094
:1033200028128DF80600E8B28DF8070006F00100BB
:10333000A0B101AA02214FF4EA7001F013FD10B10F
:103340004FF0FF3082E70DF1060202214FF4927038
:1033500001F008FD10B14FF0FF3077E706F00200F2
:10336000A0B101AA02214FF4EC7001F0FBFC10B1F6
:103370004FF0FF306AE70DF1060202214FF494701E
:1033800001F0F0FC10B14FF0FF305FE706F00400F1
:10339000A0B101AA02214FF4EE7001F0E3FC10B1DC
:1033A0004FF0FF3052E70DF1060202214FF4967004
:1033B00001F0D8FC10B14FF0FF3047E7002045E79F
:1033C00000004843000040460000C0450000404562
:1033D0000000C04438B50446052094FBF0F085B2E7
:1033E00028128DF80000E8B28DF801006A4602212B
:1033F0004FF4EF7001F0B6FC38BD38B50446052037
:1034000094FBF0F085B228128DF80000E8B28DF838
:1034100001006A4602214FF4ED7001F0A3FC38BDB3
:1034200000BF054A128802F04002002AF9D0C2B259
:10343000014B1B1D1A807047003801407CB50546C2
:1034400028494968087801AB04220D21FDF7FAFEEE
:1034500008B107207CBD9DF80700C0F301109DF85E
:10346000041001F0E00140EAE1008DF800009DF851
:103470000700C0F381009DF8051001F0E00140EA6B
:10348000E1008DF801009DF8070000F003009DF8B1
:10349000061001F0E00140EAE1008DF8020000248E
:1034A0001CE01DF8040018B9002045F8240013E0C2
:1034B0000D4845F8240006E055F824000B49FCF7B8
:1034C00025FF45F824001DF80400401EC0B20DF889
:1034D00004000028F0D100BF601CC4B2032CE0DB64
:1034E0000020B7E7740000207B14AE3E1D5A843FD5
:1034F0002DE9F04F87B005460C46914601208DF826
:10350000100000208DF81100FE4A1268917CFD4ADF
:103510005268107804AB0222FDF73AFF20B14FF059
:10352000FF3007B0BDE8F08FC820FFF753F9002047
:103530008DF81000F34A1268D17BF24A5268107875
:1035400004AB0122FDF724FF10B14FF0FF30E8E794
:10355000EC4A12685179EB4A5268107804AB0122A8
:10356000FDF716FF10B14FF0FF30DAE7E54A1268B9
:10357000917CE44A5268107804AB0122FDF708FF01
:1035800010B14FF0FF30CCE7DE4A1268D17DDD4A42
:103590005268107804AB0122FDF7FAFE10B14FF02B
:1035A000FF30BEE7D74A12681179D64A52681078C0
:1035B00004AB0122FDF7ECFE10B14FF0FF30B0E795
:1035C0000C208DF81000CF4A12681179CD4A52684C
:1035D000107804AB0122FDF7DBFE10B14FF0FF3095
:1035E0009FE70F20FFF7F6F8C648806A407A8DF80B
:1035F0001000C44A12689178C24A5268107804AB2D
:103600000122FDF7C5FE10B14FF0FF3089E7BD483C
:10361000806A007A8DF81000BA4A12685178B94A67
:103620005268107804AB0122FDF7B2FE10B14FF0E2
:10363000FF3076E7B9F1000F07D0B248806A807A90
:1036400040F0E0008DF8100004E0AE48806A807A17
:103650008DF81000AB4A12689179AA4A5268107826
:1036600004AB0122FDF794FE10B14FF0FF3058E794
:10367000B9F1000F07D0A348806AC07A40F0E0009B
:103680008DF8100003E0A048C07A8DF810009D4A24
:103690001268D1799B4A5268107804AB0122FDF779
:1036A00077FE10B14FF0FF303BE7B9F1000F02D0C9
:1036B000C820FFF78FF840208DF81000914A12685B
:1036C0001179904A5268107804AB0122FDF760FE30
:1036D00010B14FF0FF3024E778208DF81000894AB0
:1036E00012685179874A5268107804AB0122FDF7BD
:1036F0004FFE10B14FF0FF3013E783498889FFF781
:1037000069F800208DF810007E4A126851797D4AD0
:103710005268107804AB0122FDF73AFE10B14FF069
:10372000FF30FEE6774A1268917A764A526810783E
:1037300004AB0222FDF786FD10B14FF0FF30F0E63A
:103740009DF811009DF8101040EA012B0C209BFB06
:10375000F0F0C6B20020A86068602860A0606060D9
:103760002060824665E0674A1268D17A654A5268ED
:10377000107804AB0C22FDF765FD10B14FF0FF305F
:10378000CFE69DF811009DF8101040EA012000B22C
:10379000ADF808009DF813009DF8121040EA0120D2
:1037A00000B2ADF80A009DF815009DF8141040EA2B
:1037B000012000B2ADF80C00BDF9081020680844E3
:1037C0002060BDF90A10606808446060BDF90C1003
:1037D000A0680844A0609DF817009DF8161040EA04
:1037E000012000B2ADF800009DF819009DF81810F6
:1037F00040EA012000B2ADF802009DF81B009DF8E0
:103800001A1040EA012000B2ADF80400BDF9001022
:10381000286808442860BDF9021068680844686098
:10382000BDF90410A8680844A8600AF1010000F07E
:10383000FF0AB24597DB3448D0F800C02868C117AA
:10384000090441EA10410704624600233846FCF7A8
:10385000B5FC32460023CDE90201FCF7AFFC28603D
:103860002948D0F800C06868C117090441EA10412E
:103870000704624600233846FCF7A0FC32460023CA
:10388000CDE90201FCF79AFC68601F48D0F800C03F
:10389000A868C117090441EA1041070462460023E1
:1038A0003846FCF78BFC32460023CDE90201FCF7D9
:1038B00085FCA8601448D0F804C02168C81700042B
:1038C00040EA11480F046246002338464146FCF79F
:1038D00075FC32460023CDE90201FCF76FFC206045
:1038E0000948D0F804C06068C117090441EA1041D2
:1038F0000704624600233846FCF760FC324600238A
:1039000004E00000740000204C520008CDE90201E0
:10391000FCF754FC60601148D0F804C0A068C117DF
:10392000090441EA10410704624600233846FCF7C7
:1039300045FC32460023CDE90201FCF73FFCA060C4
:10394000A068002804DDA068A0F58030A06003E036
:10395000A06800F58030A0600020E2E54C5200082D
:103960002DE9FC5F06460F4600253D494968087869
:1039700001AB03220D21FDF765FC10B10720BDE866
:10398000FC9F9DF8040000F01F008DF804009DF8D6
:10399000050000F01F008DF805009DF8060000F0FE
:1039A0001F008DF80600002456E056F8240057F852
:1039B0002410A0EB010BBBF1000F01DB594601E025
:1039C000CBF100010846FCF799FE4FF08F410090C3
:1039D000FCF7CEFC814601A8005D68B32149086868
:1039E000FCF795FE834659461F48FCF7C1FC80460C
:1039F00004E01E494046FCF789FC804601A8005DB2
:103A0000401EC0B201A908550028F2D141464846DF
:103A1000FCF7AEFC83464FF07E51FCF771FC82460A
:103A20002AF0004B0F4881695846FCF7DBFE12D2A2
:103A30000120A04005430EE00A4801694846FCF712
:103A4000C7FE05D3074841694846FCF7CBFE02D2C2
:103A50000120A0400543641C032CA6DB28468EE70A
:103A6000740000204C52000800B04C4554E3853FE0
:103A700010B50446204600F00FF80346E01C00F0A5
:103A80000BF843EAC00083B2A01D00F005F843EA3A
:103A9000801083B2184610BD014691F90020002A1B
:103AA00001DD00201EE091F90020002A01DA042047
:103AB00018E091F90120002A01DD012012E091F9BE
:103AC0000120002A01DA05200CE091F90220002AE9
:103AD00001DD022006E091F90220002A01DA062029
:103AE00000E0072070470000FDF770F938E005237B
:103AF0001C48B0F9002001210220FDF72FFE05230C
:103B00001948B0F9002001210320FDF727FE052305
:103B10001648B0F9002001210420FDF71FFE1448CB
:103B20000068FCF7F9FD0446032322460721022022
:103B3000FDF714FE0F480068FCF7EEFD0446032372
:103B4000224607211846FDF709FE0B480068FCF7DE
:103B5000E3FD04460323224607210420FDF7FEFD72
:103B6000C5E700001E0000202000002022000020E9
:103B70000C000020100000201400002070470000FE
:103B800070B50446002624F00104184890F824007B
:103B900008B1002070BD1548807A10B94FF0FF3091
:103BA000F8E71248057C807A2040104908740846DE
:103BB000007CA04202D04FF0FF3600E0002614B98E
:103BC0000A48007D18B1012001F070F902E00020E0
:103BD00001F06CF93CB100F0B1FC20B10348057470
:103BE0004FF0FF30D6E73046D4E7000074000020E5
:103BF0002DE9F04F99B004460D4616464FF07E571A
:103C00004FF000084FF000094FF0000A12A813A966
:103C100018AB0EAACDE9001014A916A8FEF7A8FF4C
:103C200018B1012019B0BDE8F08F03231A46012115
:103C30000846FDF793FDBDF84C0000F480700028A5
:103C40007ED00E98FCF75AFD83464FF09D41FCF75D
:103C50008FFB07460F98FCF751FD83464FF09D41BF
:103C6000FCF786FB80461098FCF748FD83464FF032
:103C70009D41FCF77DFB81461198FCF73FFD834693
:103C80004FF09D41FCF774FB824639464FF080406F
:103C9000FCF73CFB49460590FCF738FB4146079092
:103CA0004FF04040FCF732FB51460590FCF72EFBED
:103CB00006900799FCF7D2FA8346FCF75AFDCDE946
:103CC0000801FEF72BFA4FF06632544BCDE90A019A
:103CD000FCF733FCCDE90C01FCF75EFD20604946A2
:103CE0004FF08040FCF712FB49460290FCF70EFBB8
:103CF000414604904FF04040FCF708FB41460290DB
:103D0000FCF704FB03900499FCF7FAFA83464FF0A2
:103D10007E51FCF7A3FA0590FCF72BFDCDE90801D5
:103D200039464FF08040FCF7F1FA41460390FCF72A
:103D3000EDFA494604904FF08040FCF7E7FA00E0C6
:103D400068E051460390FCF7E1FA83460499FCF7DA
:103D500085FA0590FCF70DFDCDE90601DDE90823A4
:103D6000FEF724FC4FF066322C4BCDE90A01FCF73C
:103D7000E4FBCDE90C01FCF70FFD286051465046ED
:103D8000FCF7C4FA494604904846FCF7BFFA41469E
:103D900003904046FCF7BAFA394601903846FCF7E2
:103DA000B5FA00900199FCF759FA02900399FCF7D3
:103DB000A7FA83460499FCF7A3FA0590FCF7D9FC0F
:103DC000CDE9080151463846FCF7A0FA494604906F
:103DD0004046FCF79BFA03900499FCF73FFA4FF03A
:103DE00080410590FCF792FA8346FCF7C2FCCDE9CE
:103DF0000601DDE90823FEF7D9FB4FF06632074BD9
:103E0000CDE90A01FCF799FBCDE90C01FCF7C4FCF4
:103E1000306001E0022005E7002003E766A64C4081
:103E200070B50024FDF78CF800F024F9002840D18B
:103E3000782000F02FFFC4B20CB1012070BD7820B3
:103E4000FFF79EFEC4B20CB10220F7E7C82000F0D5
:103E5000D3FEC4B20CB10320F0E7FEF77DFEC4B27E
:103E60000CB10420EAE71548FFF702FE0546FFF70C
:103E7000CDF8C4B20CB10520E0E740F27310FEF7B4
:103E800013FDC4B20CB10620D8E7C820FEF7EEFF40
:103E9000C4B20CB10720D1E700F0BEFF04460CB15C
:103EA0000820CBE7012000F0A3FDC4B21CB109201B
:103EB000C4E70A20C2E70020C0E70000A0000020FD
:103EC00001461148407A30B1012807D0022808D0B5
:103ED00003280CD108E0022008700BE004200870D1
:103EE00008E00820087005E01020087002E04FF09C
:103EF000FF30704700BF0448C07C18B10878400606
:103F0000000E08700020F4E77400002001461348FA
:103F1000407A30B1012808D002280AD0032810D1F5
:103F20000BE04FF4804008800EE041F69C70088062
:103F30000AE04FF48050088006E04FF400600880EB
:103F400002E04FF0FF30704700BF0448C07C10B162
:103F50000888401008800020F5E700007400002069
:103F600001460248007C0870002070477400002061
:103F700001460F48007A30B1012807D0022809D045
:103F800003280FD10AE0FA2008800EE04FF4FA70FF
:103F900008800AE04FF47A70088006E04FF4FA6077
:103FA000088002E00020088000BF00BF00207047AA
:103FB0007400002001460E48007A30B1012807D075
:103FC000022808D003280CD108E00A4808600BE05A
:103FD0000948086008E00948086005E008480860EA
:103FE00002E04FF0FF30704700BF0020FBE7000009
:103FF0007400002000000343000083423333034277
:104000003333834101461248C07A082817D2DFE8CB
:1040100000F01704070A0D101318BC20088013E0E5
:104020006220088010E02A2008800DE0142008801B
:104030000AE00A20088007E00520088004E000BFAD
:1040400000BF0020088000BF00BF002070470000B4
:10405000740000200146064890F8240010B14FF08B
:10406000FF3070470248C08908800020F9E700004F
:10407000740000201CB580208DF80000654A12688D
:10408000917C644A526810786B460122FDF780F9F2
:1040900010B14FF0FF301CBD6420FEF79BFB0020E9
:1040A0008DF800005B4A1268917C5A4A5268107879
:1040B0006B460122FDF76CF910B14FF0FF30EAE7D3
:1040C000544A1268917D534A526810786B46062212
:1040D000FDF7B8F810B14FF0FF30DCE79DF80500B0
:1040E000C007400F9DF8031001F0010140EA4100B4
:1040F0009DF8011001F0010140EA010494B1012C86
:1041000003D101214348C17431E0022C03D10021C5
:104110004048C1742BE021463FA0FDF7D7FC4FF08B
:10412000FF30B8E73B4A1268D1783A4A52681078B3
:104130006B460122FDF786F810B14FF0FF30AAE779
:104140009DF8000000F00F042CB93D48FDF7BEFCBF
:104150004FF0FF309FE7042C06D13AA0FDF7B6FCE4
:1041600001212C48C17402E000212A48C174FF21BA
:1041700028488172FF2027490872FF212548417293
:10418000C1724FF6FF71C181FF2101748174012159
:10419000017380F82210002180F823104175017509
:1041A0001630016041608160163880F8241080F874
:1041B0002510C1844FF4FA6000F062FC10B14FF09A
:1041C000FF3068E7022000F02BFB10B14FF0FF300A
:1041D00061E72A2000F0CEFC10B14FF0FF305AE723
:1041E000322000F009FD10B14FF0FF3053E70020FE
:1041F000FFF7C6FC10B14FF0FF304CE7002000F095
:1042000051FB10B14FF0FF3045E7002000F042FDB8
:10421000002040E774000020556E737570706F7257
:1042200074656420736F6674776172652070726F55
:1042300064756374207265762025642E0A00000080
:104240005065000848616C662073656E7369746917
:1042500076697479207061727420666F756E642E51
:104260000A0000002DE9F04385B005460E46904651
:104270009946294890F8250020B14FF0FF3005B04D
:10428000BDE8F08316B94FF0FF30F8E7002423E0D3
:10429000281B102801DD102000E0281B87B23219EE
:1042A0003946204600F05EFD10B14FF0FF30E6E7E2
:1042B00001AA3946204600F001F910B14FF0FF3055
:1042C000DDE730193A4601A9FBF7BBFF10B16FF0EB
:1042D0000100D4E7E01984B2AC42D9DB4FEA2820D0
:1042E0008DF8000008F0FF008DF801000A4A1268FE
:1042F000917E094A526810786B460222FDF748F811
:1043000010B14FF0FF30BAE70121034880F82510C3
:10431000A0F826900020B2E77400002038B50446CB
:10432000282C02DD4FF0FF3038BDDCB9002000F052
:10433000EBFB00208DF8000007208DF801002E4ACD
:104340001268917C2C4A526810786B460222FDF765
:104350001FF810B14FF0FF30E6E700212648017545
:104360000020E1E7012000F0CFFB20208DF80000C5
:10437000012C06D100208DF80100052000F0FAFB89
:1043800017E0052C06DC01208DF80100052000F067
:10439000F1FB0EE0142C06DC02208DF801000A204F
:1043A00000F0E8FB05E003208DF80100142000F088
:1043B000E1FB9DF80100072101EB8010C0B28DF8F0
:1043C00001000D4A1268917C0B4A526810786B46C6
:1043D0000222FCF7DDFF10B14FF0FF30A4E7082107
:1043E0000548817200210173012101750020FFF74A
:1043F000C7FB002098E7000074000020F8B50446D1
:104400000F4616462C4890F8240010B94FF0FF30A4
:10441000F8BD2948807A10B94FF0FF30F8E7264AF6
:104420001268917A244A526810786B460222FCF78F
:1044300009FF10B14FF0FF30EAE79DF801009DF849
:10444000001040EA0125A54203DA00203070401E2A
:10445000DEE7194840684088B5EB600F17DD164A63
:104460001268517C144A526810786B460122FCF79E
:10447000E9FE10B14FF0FF30CAE79DF8000000F0F0
:10448000100020B100F05AF86FF00100C0E7E2B26E
:10449000094B1B68D97A084B5B6818783B46FCF7D8
:1044A000D1FE10B14FF0FF30B2E795FBF4F0401EA3
:1044B00030700020ACE7000074000020F8B504461E
:1044C0000D46164616B94FF0FF30F8BD1A48807AEF
:1044D00010B94FF0FF30F8E720128DF80000E0B27D
:1044E0008DF801009DF80100284413494968498965
:1044F000884202DD4FF0FF30E7E70F4A1268117E75
:104500000D4A526810786B460222FCF741FF10B149
:104510004FF0FF30D9E7EAB2074B1B68597D064BD5
:104520005B6818783346FCF78DFE10B14FF0FF3012
:10453000CBE70020C9E700007400002008B57048F0
:10454000807A10B94FF0FF3008BD002000906C4A0F
:104550001268D17B6A4A526810786B460122FCF7D8
:1045600017FF10B14FF0FF30EEE7654A126851793E
:10457000634A526810786B460122FCF709FF10B1BC
:104580004FF0FF30E0E75E4A126811795C4A5268EA
:1045900010786B460122FCF7FBFE10B14FF0FF30A4
:1045A000D2E7574890F82400002853D00C20009000
:1045B000534A12681179524A526810786B460122A8
:1045C000FCF7E6FE10B14FF0FF30BDE73220FEF7FA
:1045D00001F9C02000904A48807A00F0010020B123
:1045E0009DF8000040F020000090454A12681179C3
:1045F000434A526810786B460122FCF7C9FE10B19D
:104600004FF0FF30A0E73E48407C10B10220009000
:1046100001E0002000903A4A1268D17B384A526883
:1046200010786B460122FCF7B3FE10B14FF0FF305B
:104630008AE700200090324A12685179304A526865
:1046400010786B460122FCF7A3FE002855D04FF0EE
:10465000FF3079E704200090294A12681179284A2E
:10466000526810786B460122FCF792FE10B14FF0B1
:10467000FF3069E72248807C20B92148807A00F029
:10468000010010B94020009001E0602000901C4A19
:10469000126811791A4A526810786B460122FCF7A9
:1046A00077FE10B14FF0FF304EE73220FEF792F860
:1046B0001348407C10B10120009001E000200090E0
:1046C0000F4A1268D17B0E4A526810786B4601225D
:1046D000FCF75EFE10B14FF0FF3035E7084A126874
:1046E0005179074A52681078054B10330122FCF7C4
:1046F0004FFE10B14FF0FF3026E7002024E7000006
:10470000740000202DE9F04F8DB083460F46022043
:104710000C90424890F8240020B1002000F068F985
:10472000012600E0002603A8FFF722FC05A8FFF7FA
:10473000C7FB01A8FFF766FC02A8FFF78BFC374810
:1047400090F80AA004A8FFF70BFC002407E0002261
:1047500039465846FEF7CCFE00B902E0641C022C34
:10476000F5DB00BF022C01D1002528E0002407E082
:10477000012206A909A8FEF7BBFE00B902E0641CED
:10478000022CF5DB00BF022C01D1002517E006A9A1
:104790003846FDF76FFC00F0FF0809A95846FFF7FF
:1047A000DFF800F0FF090025B9F1000F01D145F055
:1047B0000105B8F1000F01D145F0020500BFFF204F
:1047C00016490872FF2115484172C1724FF6FF71F8
:1047D000C181FF218172017401210173BDF80C00B8
:1047E00000F04EF99DF8140000F01AF8BDF804002E
:1047F00000F0C0F9BDF8080000F0FEF9504600F0E6
:1048000049FA9DF81000FFF7BBF916B1012000F03E
:10481000EFF828460DB0BDE8F08F000074000020CE
:1048200038B504461E48807A10B94FF0FF3038BDC5
:10483000022C06D0042C07D0082C08D0102C0CD148
:1048400008E0002000900BE00820009008E0102015
:10485000009005E01820009002E04FF0FF30E6E7FE
:1048600000BF0F48407A9DF80010B0EBE10F01D176
:104870000020DCE70A4A1268D179094A52681078A8
:104880006B460122FCF784FD10B14FF0FF30CEE7FC
:104890009DF80000C110024841720020C7E70000E7
:1048A0007400002038B504465048807CA04201D1F5
:1048B000002038BD002C46D04C4A126811794B4A72
:1048C000526810786B460122FCF7BCFC10B14FF027
:1048D000FF30EEE79DF8000020F020000090434AF2
:1048E00012681179414A526810786B460122FCF730
:1048F0004FFD10B14FF0FF30DBE70320FDF76AFFFB
:1049000002200090394890F8220020B19DF8000064
:1049100040F080000090354890F8230020B19DF8C9
:10492000000040F030000090304A1268117D2F4A9C
:10493000526810786B460122FCF72AFD002851D0FE
:104940004FF0FF30B5E7294A12681179274A5268BB
:1049500010786B460122FCF775FC10B14FF0FF3068
:10496000A7E72248807A00F0010028B19DF80000F6
:1049700040F02000009004E09DF8000020F02000AE
:1049800000901A4A12681179184A526810786B46DA
:104990000122FCF7FDFC10B14FF0FF3089E7032046
:1049A000FDF718FF114890F8220010B18020009008
:1049B00001E0002000900D4890F8230020B19DF800
:1049C000000040F030000090084A1268117D074A4C
:1049D000526810786B460122FCF7DAFC10B14FF0F8
:1049E000FF3066E701488474002062E7740000200D
:1049F00038B50446214890F82400A04201D1002097
:104A000038BD24B31D4890F8250010B94FF0FF3091
:104A1000F6E7002000F04AFA0020FFF743FF1749AD
:104A2000C88C00F0E9F80020009014494968087823
:104A30006B4601222321FCF7ABFC01210F4880F8D3
:104A40002410012000F032FAFFF778FD13E0002077
:104A500000F02CFA0948007C009008494968087861
:104A60006B4601222321FCF793FC0021034880F8C8
:104A70002410FFF763FD0020C2E70000740000204F
:104A800038B504461F48807A10B94FF0FF3038BD62
:104A9000FA2C09D0B4F5FA7F09D0B4F57A7F09D0A1
:104AA000B4F5FA6F0CD108E0002000900BE008206C
:104AB000009008E01020009005E01820009002E02F
:104AC0004FF0FF30E3E700BF0E48007A9DF800107A
:104AD000B0EBE10F01D10020D9E70A4A12689179C1
:104AE000084A526810786B460122FCF751FC10B15D
:104AF0004FF0FF30CBE79DF80000C010014908726D
:104B00000020C4E77400002038B50446184890F827
:104B10002300A04201D1002038BD14B13020009004
:104B200001E0002000901248807C20B19DF8000038
:104B300040F0020000900E4890F8220020B19DF84D
:104B4000000040F080000090094A1268117D084A78
:104B5000526810786B460122FCF71AFC10B14FF036
:104B6000FF30D9E7024880F823400020D4E7000056
:104B70007400002038B504461E48807A10B94FF002
:104B8000FF3038BDBC2C02DB0120009015E0622C08
:104B900002DB0220009010E02A2C02DB03200090B0
:104BA0000BE0142C02DB0420009006E00A2C02DB50
:104BB0000520009001E0062000900E48C07A9DF884
:104BC0000010884201D10020DBE70A4A1268917880
:104BD000084A526810786B460122FCF7D9FB10B1E5
:104BE0004FF0FF30CDE79DF800100248C172002061
:104BF000C7E700007400002038B504462448807AD6
:104C000010B94FF0FF3038BD214890F8240010B1A2
:104C10004FF0FF30F7E71E48007D50B134B1282C2B
:104C200004DCE0B2FFF77AFB0020ECE70020FFF79E
:104C300075FB042C01DA042404E0B4F57A7F01DD6D
:104C40004FF47A744FF47A7090FBF4F0401EC0B2C7
:104C500000900F4A126851780D4A526810786B46DE
:104C60000122FCF795FB10B14FF0FF30CBE79DF828
:104C70000000401C4FF47A7191FBF0F081B20448BF
:104C8000C1810146C9894810FFF774FF0020BAE7C7
:104C90007400002038B5044604F0700010B1012003
:104CA000009005E014B10020009001E04020009049
:104CB0002B4A1268917C2A4A526810786B4601226E
:104CC000FCF766FB20B1002125488172481E38BDE3
:104CD0009DF8000020F04001214801730020009061
:104CE00004F0400020B99DF8000040F0040000905E
:104CF00004F0200020B99DF8000040F00200009070
:104D000004F0100020B99DF8000040F00100009070
:104D100004F0080020B99DF8000040F03800009031
:104D20000F4A1268D17C0E4A526810786B460122F5
:104D3000FCF72EFB20B1002109488172481EC6E70E
:104D400024B1082C02D00020FFF7DEFE0448847254
:104D5000002101753220FDF73DFD0020B7E700007E
:104D600074000020F8B504460D46164616B94FF0FB
:104D7000FF30F8BD1A48807A10B94FF0FF30F8E7DD
:104D800020128DF80000E0B28DF801009DF80100BE
:104D90002844134949684989884202DD4FF0FF30B1
:104DA000E7E70F4A1268117E0D4A526810786B4689
:104DB0000222FCF7EDFA10B14FF0FF30D9E7EAB26A
:104DC000074B1B68597D064B5B6818783346FCF728
:104DD000DFFA10B14FF0FF30CBE70020C9E7000049
:104DE000740000200A490968096809B9012100E036
:104DF000002121B14FF0FF31064A116006E004495D
:104E00000968C968C868034A4168116070470000B2
:104E10003C0000206800002070B588B002A905A8F9
:104E2000FFF770FC0446032C3ED101A8FFF7C2F83F
:104E30000598FBF763FC06460199FBF767FA054600
:104E4000FBF76AFC05900698FBF758FC06460199AB
:104E5000FBF75CFA0546FBF75FFC06900798FBF74B
:104E60004DFC06460199FBF751FA0546FBF754FC49
:104E7000079005A8FEF732F86846FFF747F8BDF837
:104E80000010029848430290BDF800100398484370
:104E90000390BDF8001004984843049002A8FDF761
:104EA0004DFF002008B070BD0120FBE738B5044677
:104EB000214890F82400C0B114B10220009001E014
:104EC000002000901C4A1268D17B1B4A526810785F
:104ED0006B460122FCF75CFA10B14FF0FF3038BD91
:104EE0009DF800101448417423E01348807A10B9EB
:104EF0004FF0FF30F3E724B10F48407C08B10020A9
:104F0000EDE714B10120009001E0002000900A4A72
:104F10001268D17B084A526810786B460122FCF770
:104F200037FA10B14FF0FF30D9E79DF80010024872
:104F300041740020D3E70000740000202DE9F04107
:104F400006460F46FBF778FD041E0D4618BF0120EC
:104F5000284320F00040C0F17F6000F1E040C00F26
:104F60000ED0301C18BF0120384320F00040C0F1A3
:104F70007F6000F1E040C00F04BF0120FCF742FE5B
:104F800020462946BDE8F08101460A69D1E9013091
:104F90009860D1E9010358605068884201D188685F
:104FA0005060002008611068401E10601068704753
:104FB00042684A6093688B609368596091600861A9
:104FC00003685B1C0360704710B51B48006818B18C
:104FD00001201A4908602DE000201849086018488F
:104FE0000068B0FA80F0C0F11F0404EB840015499A
:104FF00051F8200008B1012000E0002028B940F657
:10500000F62211A115A0FCF761FD04EB84010D4A05
:1050100002EB810041684968416000F10801426883
:105020008A4202D14168496841604168C9680F4AB3
:10503000116000BF10BD0000700000205C00002067
:1050400050000020780100202E2E5C4672656552CB
:10505000544F535C7461736B732E63004572726FAF
:10506000723A25732C25640D0A00000038000020D8
:1050700010B500BF502080F31188BFF34F8FBFF3EE
:105080006F8F00BF00F01EF818B14FF08050044938
:10509000086000BF002080F3118800BF10BD000031
:1050A00004ED00E00549096809B9012005E004495B
:1050B000096809B9022000E0002070475400002070
:1050C000700000202DE9F0414FF0000841480068D1
:1050D000002872D140480068451C3F480560EDB982
:1050E0003E480068006808B9012000E0002028B9A7
:1050F00040F6D9123AA13FA0FCF7E8FC3748076810
:1051000040480068354908603E4807603E480068EE
:10511000401C3D490860FFF765FE00BF3B48006842
:1051200085423CD300BF2D480068006808B90120C3
:1051300000E0002020B14FF0FF30344908602DE03E
:1051400026480068C068C4686668B54202D22F4825
:10515000066023E0201DFFF717FFA06A18B104F1D5
:105160001800FFF711FF94F82C10012088402849FF
:105170000968084326490860E16A01EB8101254A74
:1051800002EB8100211DFFF713FF2349E06A096844
:10519000C96A8842C7D34FF00108C4E700BF1E4860
:1051A0000068C06A00EB80001A4951F8200001280D
:1051B00001D94FF0010805E0FFE718480068401CDE
:1051C000164908601648006808B14FF001084046CB
:1051D000BDE8F081700000204C0000203C00002061
:1051E0002E2E5C4672656552544F535C7461736B2E
:1051F000732E63004572726F723A25732C25640D0D
:105200000A0000004000002060000020680000202C
:1052100050000020780100203800002058000020B5
:105220005C00002075191A0C6A231B1C1F20727465
:10523000433B4138393A6B6C376F06246D6E700012
:105240006800000476005401F7FD000183000000AF
:105250000008000000010018320005000000204195
:105260000000D242295C0F3E9A99993E3333733F36
:10527000295C0F3E000070000000002400000002C6
:105280000003000000650054FFEF0000FA80000BEF
:1052900012820001030C30C30E8C8CE914D540023D
:1052A00013710F8E3883F8833000F883258EF883CE
:1052B0003000F883FFFFFFFF0FFEA9D62400040093
:1052C0001A8279A10000003CFFFF000000100000DE
:1052D00038836FA2003E03304000000002CAE30999
:1052E0003E800000200000000000000040000000A0
:1052F00060000000000C0000000C186E0000069218
:105300000A16C0DFFFFF0256FD8CD377FFE1C4967B
:10531000E0C5BEAA00000000FFFF0B2B00001657DF
:10532000000003594000000000001DFA00026C1D3F
:10533000000000003FFFDFEB003EB3B6000D227817
:1053400000002F3C00000000001942B5000039A207
:105350000000B365D90E9FC91DCF4C34300000004A
:10536000500000003BB67AE80064000000C800006E
:1053700000000000100000001000FA921000225EF1
:10538000000D229F0001000000320000FF460000D7
:1053900063D400001000000004D6000004CC00001C
:1053A00004CC00000000107200000040000000006B
:1053B00000000000000600020005000700000000D9
:1053C000006400000000000000000005000500640B
:1053D000002000000000000000000000000040006D
:1053E0000000030000000032F8980000FF65000094
:1053F000830F0000FF9BFC00000000000000000085
:10540000000000000000000000000000000000009C
:10541000000000000000000000000000000000008C
:105420000000100040000000000000060000B26A0A
:10543000000200000001FB830068000000D9FC00AE
:105440007CF1FF830000000000650000006403E8B9
:1054500000640028000000250000000016A00000E5
:105460000000100000001000002F0000000001F4F8
:105470000000100000280000FFFF4581FFFFFA72C6
:105480000000000000000000004400050005BAC64E
:10549000004778A2000000010000000000000600A4
:1054A000000000140000254D002F706D000005AEB7
:1054B000000C02D00000000000000000000000000E
:1054C00000000000001B00000000000000000000C1
:1054D0000000000000640000000800000000000060
:1054E00000000000000000000000000000000000BC
:1054F00000000000000000000000000000000000AC
:10550000000000000000000000000000000000009B
:10551000000000000000000000000000000000008B
:10552000000000000000000000000000000000007B
:1055300000000000001B0000000000000000000050
:10554000000E000E00000AC7000400000000003238
:10555000FFFFFF9C00000B2B000000020000000179
:1055600000000064FFE500000000000000000000F3
:105570000000000000000001000000000001000029
:105580000000000000018000000180000001800098
:10559000002426D3000000000000000000060010D8
:1055A0000096003C00000000000000000000000029
:1055B000000000000C0A4E68CDCF770950166759DD
:1055C000C619CE82000000000000000000000000AC
:1055D00000000000000000000000000017D7840059
:1055E000030000000000000000000000C7938F9D32
:1055F0001E1B1C190000000000000000000000003D
:1056000000000000000000000000000002031885F8
:105610000000400000000003000000030000000044
:10562000000000004000000000000000000000003A
:10563000000000000000000000000000000000006A
:10564000000000000000000000000000000000005A
:105650000000000000000000677DDF7E72902E5584
:105660004CF6E6880000000000000000000000008A
:1056700000000000D8DCB4B8B0D8B9ABF3F8FAB386
:10568000B7BB8E9EAEF132F51BF1B4B8B08097F186
:10569000A9DFDFDFAADFDFDFF2AAC5CDC7A90CC90A
:1056A0002C97F1A989264666B28999A92D557DB016
:1056B000B08AA896365676F1BAA3B4B280C0B8A81C
:1056C0009711B28398BAA3F0240844106418B2B9B1
:1056D000B49883F1A329557DBAB5B1A38393F000A3
:1056E0002850F5B2B6AA839328547CF1B9A38293CB
:1056F00061BAA2DADEDFDB819AB9AEF5606870F1DB
:10570000DABAA2DFD9BAA2FAB9A38292DB31BAA27D
:10571000D9BAA2F8DF85A4D0C1BBAD83C2C5C7B8D2
:10572000A2DFDFDFBAA0DFDFDFD8D8F1B8AAB38D00
:10573000B4980D355DB2B6BAAF8C96198F9FA70E8F
:10574000161EB49AB8AA872C547CBAA4B08AB69113
:10575000325676B28494A4C808CDD8B8B4B0F199C2
:1057600082A82D557D98A80E161EA22C547C92A4BA
:10577000F02C5078F184A898C4CDFCD80DDBA8FC9F
:105780002DF3D9BAA6F8DABAA6DED8BAB2B686969A
:10579000A6D0F3C841DAA6C8F8D8B0B4B882A892A7
:1057A000F52C548898F135D9F418D8F1A2D0F8F92D
:1057B000A884D9C7DFF8F883C5DADF69DF83C1D8E9
:1057C000F40114F1A8824EA884F311D182F5D99284
:1057D000289788F109F41C1CD884A8F3C0F9D1D902
:1057E0009782F129F40DD8F3F9F9D1D982F4C203E3
:1057F000D8DEDF1AD8F1A2FAF9A88498D9C7DFF861
:10580000F8F883C7DADF69DFF883C3D8F40114F14D
:1058100098A8822EA884F311D182F5D99250978846
:10582000F109F41CD884A8F3C0F8F9D1D99782F112
:1058300049F40DD8F3F9F9D1D982F4C403D8DEDFE5
:10584000D8F1AD8898CCA809F9D98292A8F57CF155
:10585000883ACF944A6E98DB6931DAADF2DEF9D836
:105860008795A8F221D1DAA5F9F417D9F1AE8ED037
:10587000C0C3AE82C684C3A88595C8A588F2C0F10E
:10588000F4010EF18E9EA8C63E56F554F18872F4CE
:105890000115F19845856EF58E9E0488F142985A5F
:1058A0008E9E068869F4011CF1981E1108D0F5043B
:1058B000F11E970202983625DBF9D985A5F3C1DAE6
:1058C00085A5F3DFD88595A8F309DAA5FAD88292E1
:1058D000A8F578F1881A849F26889821DAF41DF3B8
:1058E000D8879F39D1AFD9DFDFFBF9F40CF3D8FAB1
:1058F000D0F8DAF9F9D0DFD9F9D8F40BD8F3879FCB
:1059000039D1AFD9DFDFF41DF3D8FAFCA869F9F972
:10591000AFD0DADEFAD9F88F9FA8F1CCF398DB4547
:10592000D9AFDFD0F8D8F18F9FA8CAF38809DAAFD2
:105930008FCBF8D8F2AD978D0CD9A5DFF9BAA6F3C5
:10594000FAF412F2D8950DD1D9BAA6F3FADAA5F283
:10595000C1BAA6F3DFD8F1BAB2B68696A6D0CAF31A
:1059600049DAA6CBF8D8B0B4B8D8AD84F2C0DFF12C
:105970008FCBC3A8B2B68696C8C1CBC3F3B0B488E8
:1059800098A821DB718D9D71859521D9ADF2FAD84A
:105990008597A828D9F408D8F28D29DAF405D9F228
:1059A00085A4C2F2D8A88D9401D1D9F411F2D88778
:1059B00021D8F40AD8F28498A8C801D1D9F411D812
:1059C000F3A4C8BBAFD0F2DEF8F8F8F8F8F8F8F8AE
:1059D000D8F1B8F6B5B9B08A95A3DE3CA3D9F8D80A
:1059E0005CA3D9F8D87CA3D9F8D8F8F9D1A5D9DF28
:1059F000DAFAD8B18530F7D9DED8F830ADDADED8AA
:105A0000F2B48C99A32D557DA083DFDFDFB591A083
:105A1000F629D9FBD8A0FC29D9FAD8A0D051D9F8B9
:105A2000D8FC51D9F9D879D9FBD8A0D0FC79D9FACA
:105A3000D8A1F9F9F9F9F9A0DADFDFDFD8A1F8F890
:105A4000F8F8F8ACDEF8ADDE8393AC2C547CF1A80A
:105A5000DFDFDFF69D2CDAA0DFD9FADB2DF8D8A83E
:105A600050DAA0D0DED9D0F8F8F8DB55F8D8A8780D
:105A7000DAA0D0DFD9D0FAF8F8F8F8DB7DF8D89CB6
:105A8000A88CF530DB38D9D0DEDFA0D0DEDFD8A897
:105A900048DB58D9DFD0DEA0DFD0DED8A868DB70C5
:105AA000D9DFDFA0DFDFD8F1A888902C547C98A83C
:105AB000D05C38D1DAF2AE8CDFF9D8B087A8C1C19A
:105AC000B188A8C6F9F9DA36D8A8F9DA36D8A8F92B
:105AD000DA36D8A8F9DA36D8A8F9DA36D8F78D9DAB
